:020000040800F2
:10000000880500209D010008F71A0008E119000882
:10001000F51A0008FD020008612000080000000039
:10002000000000000000000000000000651B000848
:10003000FF02000800000000F91A0008C91B0008B0
:10004000B7010008B7010008B7010008B7010008B0
:10005000B7010008B7010008B7010008B7010008A0
:10006000B7010008B7010008B7010008B701000890
:10007000B7010008B7010008B7010008B701000880
:10008000B7010008B7010008B7010008B701000870
:10009000B7010008B7010008B7010008B701000860
:1000A000B7010008B7010008B7010008B701000850
:1000B000751C0008B7010008B7010008B701000867
:1000C000B7010008B7010008B7010008B701000830
:1000D000B701000855200008B7010008B701000863
:1000E000B7010008B7010008B7010008B701000810
:1000F000B7010008B7010008B7010008B701000800
:10010000B7010008B7010008B7010008B7010008EF
:10011000B7010008B7010008B7010008B7010008DF
:10012000B7010008B7010008B7010008B7010008CF
:10013000B7010008B7010008B7010008B7010008BF
:10014000B7010008B7010008B7010008B7010008AF
:10015000B7010008B7010008B7010008B70100089F
:10016000B7010008B7010008B7010008B70100088F
:10017000B7010008B7010008B7010008000000003F
:10018000B7010008B7010008DFF80CD000F0A4F8B0
:10019000004800476522000888050020064880477F
:1001A00006480047FEE7FEE7FEE7FEE7FEE7FEE75C
:1001B000FEE7FEE7FEE7FEE7651C00088901000890
:1001C0002DE9F05F0546002092469B46884606468C
:1001D000814640241BE0284641464746224600F01F
:1001E0006AF853465A46C01A914110D31146184630
:1001F000224600F051F82D1A67EB01084F462246BF
:100200000120002100F048F817EB00094E41201EA4
:10021000A4F10104DFDC484631462A464346BDE8E6
:10022000F09FD2B201E000F8012B491EFBD27047CB
:100230000022F6E710B513460A4604461946FFF7B2
:10024000F0FF204610BD00F0004230F000400AD020
:10025000C10D01F56071C0F3160042EA0151C208F8
:1002600040071143704700200146704730B50B46E8
:10027000014600202022012409E021FA02F59D42D6
:1002800005D303FA02F5491B04FA02F52844151EAA
:10029000A2F10102F1DC30BD202A04DB203A00FA91
:1002A00002F1002070479140C2F1200320FA03F3CD
:1002B000194390407047202A04DB203A21FA02F0CB
:1002C0000021704721FA02F3D040C2F12002914090
:1002D0000843194670470000064C074D06E0E068E9
:1002E00040F0010394E8070098471034AC42F6D37D
:1002F000FFF74EFFA0240008C0240008FEE7704767
:1003000072B6FEE7F0B590F820500468A468012D9D
:1003100005D0022D03D0416A41F4802153E014F04E
:10032000406F01D1E5004BD5C4F30164022C03D921
:10033000416A41F4000146E00125A5401D608D6839
:100340004FF4C0739DB1CE6835434E6845EAC6058B
:10035000066803EB0417F5514FF4C275076805EB07
:1003600004150E697E51097D012905D009E00E882A
:10037000CD6845EA4655EBE701684E5946F480766C
:100380004E511179D2F805504FF4C67641EA052551
:10039000016806EB04168D511178D2F801204FF454
:1003A000C47541EA0221026805EB04155151006849
:1003B00003EB0411425842F0010242500020F0BD0C
:1003C000416A41F4001141620120F0BD10B590F87E
:1003D0002020012A07D0022A05D0416A41F4802159
:1003E0004162012010BD3B48D0F8002242F00102DA
:1003F000C0F80022D0F8002222F47C52C0F800227B
:10040000D0F800224B6A42EA0322C0F800220A7D9B
:1004100002F01F0301229A40D0F81C329343C0F827
:100420001C32CB69B3B9D0F80C329343C0F80C320C
:100430008C894B6864F31F434C6900EBC404C4F817
:1004400040320C890B6864F31F434C6900EBC40411
:10045000C4F84432CB69012B16D1D0F80C321343C7
:10046000C0F80C320C884B6864F31F434C6900EBF6
:10047000C404C4F840320C89CB6864F31F434C6950
:1004800000EBC404C4F844328B69002BD0F804326A
:100490000ED01343C0F804320B69002BD0F814328D
:1004A00008D01343C0F81432096A012904D008E0C7
:1004B0009343EFE79343F5E7D0F81C121143C0F8DC
:1004C0001C12D0F8001221F00101C0F80012002027
:1004D00010BD00000064004030B590F82040012CB1
:1004E00005D0022C03D0416A41F480215DE004680C
:1004F000002955D02469A40754D04FF4D874056856
:1005000004EB01142D5915F00405956005682D596B
:100510004ED0ED08556005682C5904F00204D460F3
:100520004FF4DA74056804EB01142D5905F00F053A
:10053000156105682D59C5F30725956105682C5986
:10054000240C54614FF4DC72046802EB0112A458CD
:100550001C700468A458240A5C700468A458240C15
:100560009C700468A258120EDA704FF4DE720468B0
:1005700002EB0112A4581C710468A458240A5C718F
:100580000468A458240C9C710468A258120EDA71F5
:10059000006881B1016941F020010161002030BD96
:1005A000E468A8E7416A41F400114162012030BDCE
:1005B0006D0D1560AFE7C16841F02001C160EDE746
:1005C00070B5040003D094F8200010B104E00120BD
:1005D00070BD204600F082F82068016841F00101FA
:1005E000016000F031FA0546052604E000F02CFA1F
:1005F000401B0A2811D820684068C007F6D0206840
:10060000016821F00201016000F01EFA05460BE0CE
:1006100000F01AFA401B0A2806D9606A40F400303C
:10062000606284F82060D2E7206840688007EFD4D9
:10063000207E0128206801683DD021F08001016002
:10064000607E01282068016838D021F040010160F7
:10065000A07E01282068016833D021F020010160CC
:10066000E07E0128206801682ED041F01001016071
:10067000207F01282068016829D021F0080101604D
:10068000607F01282068016824D021F00401016006
:10069000D4E902010843D4E9041211430843616814
:1006A000491E08432168C86100206062012084F867
:1006B0002000002070BD41F08001C0E741F0400102
:1006C000C5E741F02001CAE721F01001CFE741F072
:1006D0000801D4E741F00401D9E7000010B586B065
:1006E000044614216846FFF7A3FD14492068884298
:1006F00021D113480021026842F0007202600068B4
:1007000000F0007005900E481038026842F00102B7
:100710000260006800F0010005904FF4C0500090A6
:100720000220CDE9010103200390092004906946CD
:10073000044800F091F806B010BD000000640040CD
:10074000403802400000024070B5044690F8200096
:10075000012804D0606A40F40020606218E00220A2
:1007600084F820002068016821F00101016000F098
:100770006BF905460EE000BF00F066F9401B0A2841
:1007800008D9606A40F400306062052084F82000D7
:10079000012070BD20684068C007EDD1606270BD67
:1007A0002DE9F0410446876D00F04EF9064694F8B5
:1007B00035000025022806D08020606584F834507A
:1007C0000120BDE8F0812068016821F01601016078
:1007D0002068416921F080014161206C08B9A06C5A
:1007E00020B12068016821F00801016020680168DB
:1007F00021F0010101600CE000F026F9801B0528C2
:1008000007D920206065032084F8350084F834502F
:10081000D7E720680068C007EED194F85C103F204D
:100820008840B860012084F8350084F834500020F6
:10083000C7E790F83510022903D0802141650120D7
:100840007047052180F835100068016821F001012A
:1008500001600020704700002DE9F84FDFF8BCA1CF
:100860000022012503264FF00F090AF1040BAAF11B
:10087000040E00BF0B6805FA02F42340A34270D1B6
:100880000F7907F00307012F01D0022F16D18768D7
:100890004FEA420806FA08FC27EA0C07D1F80CC018
:1008A0000CFA08FC4CEA070CC0F808C04768A743DC
:1008B0000C79C4F3001494403C4344600C79E44345
:1008C000A4070AD0C4684FEA420C06FA0CF7BC43EE
:1008D0008F6807FA0CF72743C7600C7904F003040C
:1008E000022C12D1D40800EB840CDCF8204057070E
:1008F000FF0E09FA07F824EA0804D1F8108008FA74
:1009000007F848EA0408CCF8208004684FEA420C53
:1009100006FA0CF7BC430F7907F0030707FA0CF748
:10092000274307604C6814F4403F70D03C4C276864
:1009300047F480472760246822F0030704F48044CA
:100940000094384C07EB040CDCF8084897074FEA92
:10095000177809FA08F7BC43334FB84202D1002791
:1009600024E054E0314FB84201D101271EE0304F5E
:10097000B84201D1022719E02E4FB84201D1032716
:1009800014E02D4FB84201D104270FE02B4FB8429D
:1009900001D105270AE02A4FB84201D1062705E018
:1009A000284FB84201D1072700E0082707FA08F7C7
:1009B0002743CCF80878DAF800405746D1F804C04D
:1009C0009C435FEACC2C00D51C433C60DBF8004024
:1009D0005F46D1F804C09C435FEA8C2C00D51C43D1
:1009E0003C60DEF800407746D1F804C09C435FEAE3
:1009F0008C3C00D51C433C60084F083F3C68D1F854
:100A000004C09C435FEACC3C00D51C433C60521CB4
:100A1000102AFFF42FAFBDE8F88F0000083C01401A
:100A2000443802400030014000000240000402400F
:100A300000080240000C0240001002400014024076
:100A400000180240001C0240014880687047000006
:100A500004000020024881680278114481607047D8
:100A6000040000200B4810B5016841F400710160DA
:100A7000016841F480610160016841F480710160A6
:100A8000032000F06FF80F2000F006F800F024F8C3
:100A9000002010BD003C024070B50D4D04464FF4DF
:100AA0007A712878B1FBF0F00A490968B1FBF0F0DF
:100AB00000F00AFB48B9102C07D200222146501E34
:100AC00000F030F800206C6070BD012070BD0000A7
:100AD00004000020100000200A4808B5016841F415
:100AE00080410160006800F4804000900548001FCC
:100AF000016841F080510160006800F08050009072
:100B000008BD000044380240002809DB00F01F0245
:100B1000012191404009800000F1E020C0F800115F
:100B200070470000F0B40E4B1B680C46C3F3022361
:100B3000C3F10705042D00D90425191D072901D289
:100B4000002300E0DB1E012606FA05F1491E2140C4
:100B500099409E40761E16403143F0BC01F092BA97
:100B60000CED00E0064900F0070208684FF6FF03AD
:100B7000184040EA0220034A104308607047000012
:100B80000CED00E00000FA052DE9F0470E460500E7
:100B900065D0DFF81481D8F80000F7B200F0070044
:100BA000B04207D288F80070D8F8000000F00700C3
:100BB000B04254D128683D4C810712D5400703D577
:100BC000206840F4E05020602878000703D52068B2
:100BD00040F4604020602068A96820F0F0000843DD
:100BE00020602878C0072DD030496868083901286E
:100BF00012D0022813D0032811D0096889070029D0
:100C00002DDA216821F0030101432160FFF71CFF69
:100C1000814641F2883A0EE009688903EFE70968E6
:100C20008901ECE7FFF710FFA0EB0901514502D95C
:100C30000320BDE8F0872068696800F00C00B0EB85
:100C4000810FEFD1D8F80010404601F00701B14202
:100C500007D90770006800F00700B04201D00120FA
:100C6000E7E72878400705D52068E96820F4E050D8
:100C7000084320602878000706D52068296920F4F9
:100C8000604040EAC100206000F038F82168084A5E
:100C9000C1F30311515CC84006490860064800686A
:100CA000FFF7FAFE0020C4E7003C0240083802408B
:100CB000882400081000002008000020044805498E
:100CC00000680968044AC1F38221515CC84070473A
:100CD0001000002008380240982400080448054904
:100CE00000680968044AC1F34231515CC84070474A
:100CF000100000200838024098240008154810B55C
:100D0000006810F00C02144813D04110042A0FD0D0
:100D1000082A0ED10F4C241F2268236802F03F02DC
:100D20005B0207D52068C0F38810A0FB010106E034
:100D3000084610BD2168C1F38811A1FB0001002302
:100D4000FFF73EFA2168C1F30141491C4900B0FB9D
:100D5000F1F010BD083802400024F4002DE9F84FEE
:100D600004006ED02078DFF84C93C007A9F1040589
:100D70004AD009F104000168C1F38101012908D0BA
:100D80000068C0F3810002280AD1D9F800004002AF
:100D900006D52868800337D560680028E1D033E0A5
:100DA0006068B0F5803F10D0B0F5A02F286810D053
:100DB00020F480302860286820F480202860606853
:100DC000A8B1FFF741FE06460DE0286840F48030E8
:100DD000F4E740F480202860F7E700BFFFF734FE17
:100DE000801B642873D828688003F7D50CE0FFF7D0
:100DF0002BFE064605E000BFFFF726FE801B642899
:100E0000F0D828688003F7D42078DFF8AC82800718
:100E10004FF0000A3ED5A748001D016811F00C0FE5
:100E200008D00068C0F3810002280BD1D9F8000077
:100E3000400207D42868800716D5E068012800D151
:100E400012E033E1E068B8B10120C8F80000FFF714
:100E5000FBFD064605E000BFFFF7F6FD801B0228FC
:100E6000C0D828688007F7D52868216920F0F800E5
:100E700040EAC10028600DE0C8F800A0FFF7E4FDDB
:100E8000064604E0FFF7E0FD801B02281FD8286813
:100E90008007F7D42078000722D5864F87486169FC
:100EA000703771B101210160FFF7CEFD064604E005
:100EB000FFF7CAFD801B022809D838688007F7D5DC
:100EC0000EE0C0F800A0FFF7BFFD064605E082E097
:100ED000FFF7BAFD801B02287DD838688007F7D459
:100EE0002078400768D5DFF8CCB100270BF13C0B28
:100EF000DBF80000C0000BD4DBF8001041F080519B
:100F0000CBF80010DBF80000012700F080500090C3
:100F10006B4E3068C00510D4306840F4807030608B
:100F2000FFF792FD009005E0FFF78EFD0099401A53
:100F3000022850D83068C005F6D55E4EA0686C36E1
:100F400001280FD00528306810D020F00100306053
:100F5000306820F004003060A068B8B1FFF774FD7D
:100F600000900FE0306840F00100F4E740F004002A
:100F70003060F7E7FFF768FD0099411A41F28830C9
:100F8000814266D830688007F4D50EE0FFF75CFD3B
:100F9000009007E0FFF758FD0099411A41F28830B0
:100FA000814256D830688007F4D42FB1DBF80010A6
:100FB00021F08051CBF80010A069C8B33D49091D4C
:100FC0000968C1F3810102294AD00228504607D09E
:100FD000C8F8600000E03CE0FFF736FD04463BE067
:100FE0004746C8F86000FFF72FFD064605E000BF42
:100FF000FFF72AFD801B02282BD828688001F7D430
:10100000D4E907010843A16A2E4A490802EB0141CD
:10101000626A41EA8211084394F82C1040EA0161A7
:10102000C9F8001001203866FFF70EFD044606E0FF
:101030003EE000BFFFF708FD001B022809D8286822
:101040008001F7D534E000BFFFF7FEFC001B02284B
:1010500002D90320BDE8F88F28688001F4D427E086
:101060000128F7D0D9F80000E26900F4800191422C
:101070001CD1226A00F03F01914217D147F6C0719E
:10108000626A0140B1EB821F10D1A26A4FF0FF33B8
:1010900000F4403103EB5202B1EB024F06D194F859
:1010A0002C1000F07060B0EB016F01D00120D1E78F
:1010B0000020CFE70438024000004742800E47423C
:1010C000007000400000FFFF10B5401EB0F1807FAF
:1010D00001D3012010BD4FF0E02460610F216017A3
:1010E00000F0D0FF0020A06107202061002010BD8B
:1010F0007047704770B590F83C20012A32D0012427
:1011000080F83C40022280F83D2003685A689D68C0
:1011100022F070060A6832435A60134B02689A4202
:1011200014D0B2F1804F11D0104B9A420ED0104B18
:101130009A420BD00F4B9A4208D00F4B9A4205D0DF
:101140000E4B9A4202D00E4B9A4204D1496825F0C8
:1011500080031943916080F83D40002180F83C10E5
:10116000084670BD022070BD000001400004004030
:1011700000080040000C0040000401400040014015
:101180000018004010B5040003D094F83D0010B1E1
:1011900007E0012010BD002084F83C00204600F04C
:1011A0001FF8022084F83D00211D206800F068FD32
:1011B000012084F8460084F83E0084F83F0084F85B
:1011C000400084F8410084F8420084F8430084F829
:1011D000440084F8450084F83D00002010BD000064
:1011E00008B50068B0F1804F12D10A48016841F09B
:1011F000010101600068002200F00100009011462A
:101200001C20FFF78FFCBDE808401C20FFF77CBCCA
:1012100008BD00004038024090F83D10012901D07F
:1012200001207047022180F83D100168CA6842F031
:101230000102CA6000681149884214D0B0F1804FA1
:1012400011D00F4988420ED00E4988420BD00E496A
:10125000884208D00D49884205D00D49884202D005
:101260000C49884204D1816801F00701062903D0A6
:10127000016841F001010160002070470000014059
:101280000004004000080040000C00400004014041
:10129000004001400018004070B5044690F83C0042
:1012A0000025012817D0012684F83C60022084F82C
:1012B0003D002068826822F0770222F47F4282603B
:1012C0000868502838D00DDC20284FD005DC90B3BA
:1012D000102811D14AE0022070BD302846D04028A5
:1012E0000AD13BE060282FD070280DD0B0F5805F88
:1012F00003D0B0F5005F12D0012584F83D600020D6
:1013000084F83C00284670BDCB68D1E901212068F3
:1013100000F01AFD2068816841F0770109E0CB6890
:10132000D1E90121206800F00FFD2068816841F4B7
:1013300080418160E1E719E0CA684968206800F0EF
:1013400015FD5021206806E0CA684968206800F051
:101350001EFD6021206800F001FDCEE7CA684968E3
:10136000206800F003FD40212068F4E72268014670
:101370001046F0E7704770B50446006801694FF009
:101380000005C943890715D4C168C943890711D429
:10139000E91E0161012020772068806980072046CE
:1013A00002D0FFF7E7FF04E000F098F8204600F0D5
:1013B00096F8257720680169C943490717D4C168A1
:1013C000C943490713D46FF004010161022020775B
:1013D0002068806910F4407F204602D0FFF7CAFFE2
:1013E00004E000F07BF8204600F079F825772068CB
:1013F0000169C943090716D4C168C943090712D452
:101400006FF008010161042020772068C06980071F
:10141000204602D0FFF7AEFF04E000F05FF8204660
:1014200000F05DF8257720680169C943C90617D423
:10143000C168C943C90613D46FF0100101610820C7
:1014400020772068C06910F4407F204602D0FFF763
:1014500091FF04E000F042F8204600F040F82577C4
:1014600020680169C943C90708D1C168C943C907D0
:1014700004D1891E0161204600F032F8206801691C
:10148000C943090609D4C168C943090605D46FF0E8
:10149000800101612046FFF72BFE20680169C943E6
:1014A000490609D4C168C943490605D46FF0400113
:1014B0000161204600F090F820680169C94389065F
:1014C0000BD4C168C943890607D46FF020010161BC
:1014D0002046BDE87040FFF70CBE70BD70477047F6
:1014E0002DE9F0472F492DED028B86B0884254D16B
:1014F0002D4800F003FB2D4C00259FED2D8A2D4E2D
:101500002D4F25804FF008084FF012094FF4007A54
:10151000B4F9001001EBC10000EB011006EB8000F4
:1015200001EB810107EB410180ED018AB1F9021065
:1015300000EE101A016EB8EEC00A8847CDE90458D3
:10154000CDE90295CDE9005AB4F90000002300EB83
:10155000C00101EB001006EB80001A4690ED0C0A6A
:10156000BCEEC00A10EE100A81B20F4800F0FBFA80
:101570002088401C00B220800128C9DB306BFEF7B8
:1015800062FE06B041EC100BBDEC028B53EC102B4D
:10159000BDE8F04709A000F065BD06B0BDEC028BC8
:1015A000BDE8F087A8000020800000200000002097
:1015B0000000FA441C000020340100204D31206F4F
:1015C0007574707574207370656564206973202567
:1015D00064200D0A0000000070477047704700004B
:1015E000F8B5016804460868CA684B6910F00F0F27
:1015F0004FF0000559D003F0010602F4907737430D
:1016000065D0C10705D0D10503D5216C41F001019A
:101610002164410705D5D90703D0216C41F00201AF
:101620002164810705D5D90703D0216C41F004015D
:101630002164010707D502F02001314303D0216C5A
:1016400041F008012164216C00293AD0800604D5BC
:10165000900602D5204600F0DBFB20684069216C33
:10166000C0F38010090700D460B3204600F0A9FB46
:1016700020684069400621D52068143050E8001FDA
:1016800021F0400140E80012002AF5D1A06BA8B17A
:101690006C490165A06BFFF7CCF8002811D0A06B56
:1016A000016D01B0BDE8F040084783060FD59306F1
:1016B0000DD52046BDE8F84000F0AABB2046FFF754
:1016C0008DFFF8BD2046FFF789FF2564F8BD266B26
:1016D0002023012E79D1C60677D5D60675D50868A0
:1016E000486800904869400640D5A16B086840688A
:1016F0000004000CEAD0A28D8242E7D9E085C869D7
:10170000B0F5807F2DD020680C3050E8001F21F408
:10171000807140E80012002AF5D12068143050E8AA
:10172000001F21F0010140E80012002AF5D12068D5
:10173000143050E8001F21F0400140E80012002A58
:10174000F5D184F83E30256320680C3050E8001F46
:1017500021F0100140E80012002AF5D1A06BFFF73C
:101760001FF8A08DE18D401A81B229E0A08DE18D96
:10177000401A81B2E08D0028A8D00029A6D02068A8
:101780000C3050E8002F22F4907240E80026002E22
:10179000F5D12068143050E8002F22F0010240E813
:1017A0000026002EF5D184F83E30256320680C30E9
:1017B00050E8002F22F0100240E80023002BF5D162
:1017C0002046FFF70AFFF8BDFFE705062BD51506F3
:1017D00029D594F83D002128F5D1A068B0F5805FA7
:1017E00001D12069B0B1206A411C216221680078D2
:1017F0004860E08C401E0004000CE084E3D12068C7
:10180000C16821F08001C1602068C16841F04001D9
:10181000C160D8E7206A0088C0F308004860206AE9
:10182000801C2062E5E74006CDD55006CBD5CA68BE
:10183000204622F04002CA6084F83D3000F0CFF824
:10184000C1E70000B31D000870B5040004D094F88F
:101850003D00002510B106E0012070BD84F83C5029
:10186000204600F023F8242084F83D002068C16859
:1018700021F40051C160204600F02AFB2068016974
:1018800021F4904101612068416921F02A01416100
:101890002068C16841F40051C1602564202084F8AB
:1018A0003D0084F83E00002070BD000010B586B0F9
:1018B000044614216846FEF7BBFC1849206888429C
:1018C00029D117480021026842F010020260006826
:1018D00000F01000059012481438026842F001022E
:1018E0000260006800F0010005904FF4C0600090B5
:1018F0000220CDE9010103200390072004906946EE
:101900000848FEF7A9FF002201212520FFF70AF968
:101910002520FFF7F9F806B010BD000000100140C7
:101920004438024000000240704700002DE9F843AF
:10193000044690F83D001F4616460D4620284CD11F
:10194000C5B1BEB194F83C00012846D0012084F80E
:101950003C004FF00008C4F84080212084F83D008E
:10196000FFF772F8A6848146E684A068B0F5805F30
:1019700003D004E00120BDE8F883206928B12E4699
:101980005FF0000584F83C800EE00026FAE7802135
:10199000204600F023FBA0B9AEB116F8010B216878
:1019A0004860E08C401EE084E08C4B464FF0000223
:1019B00000970028EBD14FF04001204600F00EFBCD
:1019C00030B10320D7E735F8020BC0F30800E6E793
:1019D000202084F83D000020CDE70220CBE77047AF
:1019E000FEE700000F4810B50D4901600621416077
:1019F00000214FF480328160C0E903124FF440129D
:101A00004261017641768176C17601774177FEF7B2
:101A1000D7FD002803D0BDE81040FEF771BC10BD13
:101A20000064004080000020094808B5016841F0CA
:101A300080010160016801F080010091016841F0BE
:101A400001010160006800F00100009008BD000085
:101A50003038024010B586B0002417480094019435
:101A60000294039404944FF080410594016042F283
:101A7000CF01C0E901146321C0E903148021816111
:101A8000FFF780FB08B1FEF73BFC4FF4805000905D
:101A900069460948FFF700FC08B1FEF731FC0494E1
:101AA00004A905480594FFF725FB002801D0FEF79F
:101AB00027FC06B010BD0000A80000200C4810B59F
:101AC0000A4901604FF4E1314160002181600C223C
:101AD000C160C0E904128161C161FFF7B5FE002851
:101AE00003D0BDE81040FEF70BBC10BD0010014054
:101AF000F0000020FEE7FEE77047000000B58BB065
:101B000001AB03AA0021FEF7E7FC03981149401E30
:101B1000C0B20870104900EB800201EB420031F8BE
:101B200012300381BDF804305BBA21F81230BDF8E1
:101B3000061049BA4180BDF8081049BA81809DF865
:101B40000A108171B0F9021004A000F08BFA0BB0FA
:101B500000BD000014000020340100202564200D89
:101B60000A00000070472DE9F04389B00DF14808E4
:101B7000814698E8F000DDE9100C4FF000080DF107
:101B80000C0ECDF800808EE8F000CDE9018C0C0A37
:101B90008DF800408DF80110110A8DF80210190A15
:101BA0008DF804108DF80530010A8DF806108DF8B7
:101BB00003208DF8070008AB6A4602A94846FEF7E5
:101BC000A1FB09B0BDE8F083FEF744BF30B593B088
:101BD00030216846FEF72CFB14210CA8FEF728FBE9
:101BE0001E480025016841F080510160006800F046
:101BF000805011901A48016841F4804101600068EA
:101C0000022400F480401190012000900004019013
:101C10008001CDE90640082008904FF4A870CDE976
:101C2000090404200B906846FFF798F808B172B6D3
:101C3000FEE70CA90F2081E831004FF4A0500F906F
:101C40004FF48050109005210CA8FEF79DFF00284E
:101C500001D072B6FEE713B030BD0000403802403C
:101C6000007000400248016841F470010160704753
:101C700088ED00E00148FFF77EBB0000A8000020CF
:101C8000F0B50268254C264D264E274F274B4FF0C6
:101C9000804CA04209D0604507D0A84205D0B04290
:101CA00003D0B84201D0984204D122F0700E4A68A5
:101CB00042EA0E02A0421BD0604519D0A84217D0BC
:101CC000B04215D0B84213D0984211D0184DA84256
:101CD0000ED0184DA8420BD0174DA84208D0174D72
:101CE000A84205D0164DA84202D0164DA84203D1F5
:101CF00022F44075CA682A434D6922F080022A43C3
:101D000002608A68C2620A688262A04201D0984278
:101D100001D10969016301214161F0BD0000014069
:101D20000004004000080040000C00400004014096
:101D300000400140004401400048014000180040BC
:101D4000001C00400020004010B5846842EA0322D5
:101D500024F47F440A432243826010BD826822F04B
:101D600070020A4342F007018160704710B5036AB0
:101D7000046A24F001040462846924F0F00444EA53
:101D8000021423F00A020A438461026210BD10B5F6
:101D9000036A23F0100303628369046A23F4704327
:101DA00043EA023224F0A00343EA01118261016296
:101DB00010BD10B5806B0021C185C184FFF70EFCFA
:101DC00010BD01680C3151E8002F22F4907241E8F7
:101DD0000023002BF5D10168143151E8002F22F0C7
:101DE000010241E80023002BF5D1016B012909D143
:101DF00001680C3151E8002F22F0100241E8002365
:101E0000002BF5D1202180F83E100021016370479E
:101E100008B590F83E10222901D0022008BD826842
:101E20004FF480539A4201D1016921B1816A9A42EB
:101E30001BD04AB10AE00268816A5268C2F3080204
:101E40000A80816A891C08E0026972B102685268DE
:101E500002F07F020A70816A491C8162C18D491EAD
:101E60000904090CC18503D019E002685268F1E742
:101E70000168CA6822F02002CA600168CA6822F4B8
:101E80008072CA6001684A6922F001024A61202119
:101E900080F83E10016B012903D0FFF745FD0020BB
:101EA00008BD0021016301680C3151E8002F22F0C8
:101EB000100241E80023002BF5D101680A68D20620
:101EC00002D50A6849680091818DFFF786FBE6E735
:101ED00070B5044600680169E26821F4405111437D
:101EE00001612169A068E2690843616911430843FF
:101EF0002168CA6849F20C639A430243CA602068A9
:101F00004169A26921F4407111434161314920685E
:101F1000884202D03049884202D1FEF7DFFE01E05C
:101F2000FEF7CCFEE2690023192164253226B2F5C2
:101F3000004F626828D0A0FB0101930F9200FEF7CA
:101F40003FF90146B0FBF5F06FF01802504301EB8A
:101F5000800006EB0010B0FBF5F000F0F002B1FBE2
:101F6000F5F002EB0012B1FBF5F06FF018035843E7
:101F700001EB800006EB0010B0FBF5F000F00F0065
:101F800021681044886070BDA0FB010192185B417C
:101F9000FEF716F90146B0FBF5F00201B1FBF5F0D2
:101FA0006FF01803584301EB800006EBC000B0FB54
:101FB000F5F000F0F80002EB4002B1FBF5F05843F9
:101FC00001EB800006EBC000B0FBF5F000F007006D
:101FD000D6E7000000100140001401402DE9F04157
:101FE000984617460E460446069D27E0681C25D0F5
:101FF0002DB1FEF729FDA0EB0800A8421ED92068EC
:102000000C3050E8001F21F4D07140E80012002A83
:10201000F5D12068143050E8001F21F0010140E89C
:102020000012002AF5D1202084F83D0084F83E00FB
:10203000002084F83C000320BDE8F081206800689F
:1020400036EA000004D00020B842CFD00020F3E7E9
:102050000120F9E70148FFF7C3BA0000F0000020B3
:10206000FEE700000FB4054B10B503A9044A02981F
:1020700000F028F810BC5DF814FB00004D220008A9
:10208000180000200907090E002804DB00F1E020F9
:1020900080F80014704700F00F0000F1E02080F895
:1020A000141D704702E008C8121F08C1002AFAD1A7
:1020B00070477047002001E001C1121F002AFBD1C8
:1020C000704700002DE9FF4F89B09B46044600256C
:1020D00006E025280BD05A460B999047641C6D1CCE
:1020E00020780028F5D10DB02846BDE8F08F0027F4
:1020F000B8460122474900E0074314F8013F203B5E
:1021000002FA03F00842F7D120782E2819D114F8EA
:10211000010F47F004072A280ED06FF02F02207815
:10212000A0F1300109290CD808EB880102EB41012C
:1021300000EB0108641CF2E70A98641C50F8048B59
:102140000A9020780028CED0642808D0692806D0CC
:1021500075281ED05A460B9990476D1C58E00A9975
:102160004FF00A0901C90A91002802DA40422D21E4
:1021700002E0390504D52B218DF82010012103E060
:10218000F90704D02021F7E78A4608AE0DE00021C8
:10219000FAE70A994FF00A0901C90A91F7E7494697
:1021A000FEF764F8303106F8011D0028F7D1ADEBD9
:1021B000060000F12009780701D44FF00108C84556
:1021C00002DDA8EB090000E000208046002706E0C1
:1021D00008A85A46C05D0B9990476D1C7F1C574557
:1021E000F6DB04E030205A460B9990476D1CB8F19D
:1021F0000001A8F10108F5DC05E016F8010B5A46CC
:102200000B9990476D1CB9F10001A9F10109F4DCAB
:10221000641C65E70928010000B58BB0002001218E
:10222000CDE906010390059000900190029008917D
:10223000049069460448FEF7C9F8002801D0FEF76B
:102240005FF80BB000BD00008000002013B54FF612
:10225000FF73012269460248FFF768FB00981CBD26
:10226000F00000200EB5FEF7FDFB1F4D00241F4EB1
:102270002C8000BFB5F9000000EBC00101EB00109D
:1022800006EB800000F0C2F82888401C00B22880CD
:102290000128EFDB4FF4FA50CDE900400294C3105F
:1022A000B46DF7EE001A9FED121AF0EE040AB1EECB
:1022B000040A4FF4804201210C48A0470DA0FFF70B
:1022C000D1FEFFF783FCFFF7AFFBFFF78BFBFFF7B8
:1022D000F5FBFFF7BFFBFFF79FFF0B48FEF734FA54
:1022E0000A48FEF799FFFEE7000000201C000020CE
:1022F0008FC2F53D504944B3F5CABCBBAFBDE1CA7E
:10230000F8A1A30D0A00000080000020A800002012
:1023100010B504462DED028BB0EE408AC06C2065EE
:10232000FEF792FBE06494F85010401A84F85400D1
:1023300084ED068AD4ED071AC4ED081A94ED0C0A50
:1023400084ED0D0A94ED010A30EE480A84ED070A87
:10235000B5EEC00AF1EE10FA02DDF0EE400A01E03F
:10236000F1EE400A94ED101AF4EEC10AF1EE10FA03
:1023700046DDD4ED030A20EE801A84ED091AD4ED6F
:102380000A0A94ED042A42EE000A30EE610AC4ED16
:102390000A0AD4ED051A60EE211AC4ED0B1A94ED69
:1023A0000F0AF4EEC00AF1EE10FA01DD84ED0A0A1C
:1023B000D4ED0A0AB1EE400AF4EEC00AF1EE10FACA
:1023C00002D3B0EE600A01E084ED0A0A31EE000AA1
:1023D00070EE210AC4ED0C0A94ED0E0AF4EEC00A68
:1023E000F1EE10FA01DD84ED0C0AD4ED0C0AB1EE29
:1023F000400AF4EEC00AF1EE10FA01D284ED0C0AA4
:1024000094ED0C0ABDEC028B10BD00000349816500
:102410000349C1650349016670470000292400088B
:1024200081240008112300089DED003A9DED022A49
:10243000DDED012AB8EE433A017080ED113A80EDEE
:10244000100A00EE103AB8EE400A80ED0F0A00EED6
:10245000102AB8EE400A80ED0E0AB8EEE20A80EDCE
:10246000120AB8EEC20A80ED010A9FED040A80ED5F
:102470000C0A0C30C0EC030A70470000000000009A
:102480000C3080EC030A70470000000000000000E0
:10249000010203040607080900000000010203040A
:1024A000C0240008000000201C000000A420000838
:1024B000DC2400081C0000206C050000B42000088B
:1024C00000000000010000001000000000000000FB
:0C24D0000024F4000000000000000000E8
:040000050800018965
:00000001FF
