:020000040800F2
:10000000800400209D0100088F150008E1140008FD
:100010008D150008A90200086D19000800000000F5
:100020000000000000000000000000009315000820
:10003000B902000800000000911500081116000820
:10004000B7010008B7010008B7010008B7010008B0
:10005000B7010008B7010008B7010008B7010008A0
:10006000B7010008B7010008B7010008B701000890
:10007000B7010008B7010008B7010008B701000880
:10008000B7010008B7010008B7010008B701000870
:10009000AD020008B7010008B7010008B701000869
:1000A000B7010008B7010008B7010008B701000850
:1000B000B7010008B7010008B7010008B701000840
:1000C000B7010008B7010008B7010008B701000830
:1000D000B701000861190008B7010008B70100085E
:1000E000B7010008B7010008B7010008B701000810
:1000F000B7010008B7010008B7010008B701000800
:10010000B7010008B7010008B7010008B7010008EF
:10011000B7010008B7010008B7010008B7010008DF
:10012000B7010008B7010008B7010008B7010008CF
:10013000B7010008B7010008B7010008B7010008BF
:10014000B7010008B7010008B7010008B7010008AF
:10015000B7010008B7010008B7010008B70100089F
:10016000B7010008B7010008B7010008B70100088F
:10017000B7010008B7010008B7010008000000003F
:10018000B7010008B7010008DFF80CD000F07AF8DA
:1001900000480047F91900088004002006488047FD
:1001A00006480047FEE7FEE7FEE7FEE7FEE7FEE75C
:1001B000FEE7FEE7FEE7FEE7AD160008890100084E
:1001C0002DE9F05F0546002092469B46884606468C
:1001D000814640241BE0284641464746224600F01F
:1001E00041F853465A46C01A914110D31146184659
:1001F000224600F028F82D1A67EB01084F462246E8
:100200000120002100F01FF817EB00094E41201ECD
:10021000A4F10104DFDC484631462A464346BDE8E6
:10022000F09FD2B201E000F8012B491EFBD27047CB
:100230000022F6E710B513460A4604461946FFF7B2
:10024000F0FF204610BD202A04DB203A00FA02F11C
:10025000002070479140C2F1200320FA03F31943B4
:1002600090407047202A04DB203A21FA02F0002156
:10027000704721FA02F3D040C2F1200291400843B6
:1002800019467047064C074D06E0E06840F0010350
:1002900094E8070098471034AC42F6D3FFF778FF94
:1002A000581A0008781A0008FEE70000014800F01C
:1002B0006BB8000014000020704772B6FEE7F0B57E
:1002C00090F820500468A468012D05D0022D03D0B9
:1002D000416A41F4802153E014F0406F01D1E50000
:1002E0004BD5C4F30164022C03D9416A41F40001E7
:1002F00046E00125A5401D608D684FF4C0739DB197
:10030000CE6835434E6845EAC605066803EB041718
:10031000F5514FF4C275076805EB04150E697E515F
:10032000097D012905D009E00E88CD6845EA4655CA
:10033000EBE701684E5946F480764E511179D2F8B8
:1003400005504FF4C67641EA0525016806EB041610
:100350008D511178D2F801204FF4C47541EA022181
:10036000026805EB04155151006803EB0411425873
:1003700042F0010242500020F0BD416A41F40011F8
:1003800041620120F0BD70472DE9F05F054600682D
:1003900000244669D0F804908768D0F80CB0D0F8F3
:1003A00010A0D0F81880F10748D0F90714D0012127
:1003B0008160B80703D5284600F0E3F90CE0780720
:1003C00002D54FF4006407E0380702D54FF480549B
:1003D00002E0284600F0D4F9F80516D529684FF454
:1003E00080708860B80503D5284600F0CCF90CE091
:1003F000780502D544F4005407E0380502D544F4EA
:10040000804402E0284600F0BDF9F80316D52968BB
:100410004FF480308860B80303D5284600F0B5F962
:100420000CE0780302D544F4004407E0380302D519
:1004300044F4803402E0284600F0A6F9300707D5DE
:100440005FEACB6004D52968102044F40074C860CA
:1004500070074FF0080707D55FEA0B7004D52868CE
:10046000C760284600F05AF9B00706D52868C0686A
:10047000800702D0284600F052F9700607D55FEADF
:10048000CA6004D52968102044F480640861B0066D
:1004900007D55FEA0A7004D528680761284600F08E
:1004A0003FF9F00606D528680069800702D0284683
:1004B00000F037F9B00308D55FEAC96005D52968AF
:1004C00010204860284600F02DF9F00307D55FEAB8
:1004D000097004D528684760284600F057F93004B1
:1004E00046D55FEA497040D5F00504D55FEAC8708B
:1004F00001D044F00104B00504D55FEA887001D54D
:1005000044F00204700504D55FEA487001D544F058
:100510000404300529D518F0700F26D008F07000BB
:10052000402815D006DC102809D020280AD0302811
:1005300016D10AE050280ED0602811D10EE044F008
:1005400008040DE044F010040AE044F0200407E041
:1005500044F0400404E044F0800401E044F480747A
:100560002868816921F07001816129680420486050
:10057000002C05D0686A204368622846FFF703FF15
:10058000BDE8F09F70B5040003D094F8200010B1CE
:1005900004E0012070BD204600F082F82068016868
:1005A00041F00101016000F045FA0546052604E02E
:1005B00000F040FA401B0A2811D820684068C007A4
:1005C000F6D02068016821F00201016000F032FAE3
:1005D00005460BE000F02EFA401B0A2806D9606A97
:1005E00040F40030606284F82060D2E72068406800
:1005F0008007EFD4207E0128206801683DD021F0DB
:1006000080010160607E01282068016838D021F0F7
:1006100040010160A07E01282068016833D021F0EC
:1006200020010160E07E0128206801682ED041F0A1
:1006300010010160207F01282068016829D021F085
:1006400008010160607F01282068016824D021F042
:1006500004010160D4E902010843D4E90412114302
:1006600008436168491E08432168C8610020606230
:10067000012084F82000002070BD41F08001C0E717
:1006800041F04001C5E741F02001CAE721F0100127
:10069000CFE741F00801D4E741F00401D9E70000B9
:1006A00010B586B0044614216846FFF7C1FD18490D
:1006B0002068884229D117480021026842F0007260
:1006C0000260006800F0007005901248103802685F
:1006D00042F001020260006800F0010005904FF452
:1006E000C05000900220CDE90101032003900920B1
:1006F00004906946084800F0A5F80022114614202D
:1007000000F006FA142000F0F5F906B010BD000064
:1007100000640040403802400000024070477047CB
:10072000704770477047000070B5044690F820008D
:10073000012804D0606A40F40020606218E00220C2
:1007400084F820002068016821F00101016000F0B8
:1007500071F905460EE000BF00F06CF9401B0A2855
:1007600008D9606A40F400306062052084F82000F7
:10077000012070BD20684068C007EDD1606270BD87
:1007800070477047704770477047704770472DE952
:10079000F0410446876D00F04DF9064694F83500A7
:1007A0000025022806D08020606584F8345001209E
:1007B000BDE8F0812068016821F016010160206821
:1007C000416921F080014161206C08B9A06C20B121
:1007D0002068016821F0080101602068016821F0AB
:1007E000010101600CE000F025F9801B052807D904
:1007F00020206065032084F8350084F83450D7E762
:1008000020680068C007EED194F85C103F20884053
:10081000B860012084F8350084F834500020C7E720
:1008200090F83510022903D08021416501207047DE
:10083000052180F835100068016821F00101016090
:10084000002070472DE9F84FDFF8BCA100220125F8
:1008500003264FF00F090AF1040BAAF1040E00BFA2
:100860000B6805FA02F42340A34270D10F7907F018
:100870000307012F01D0022F16D187684FEA4208E3
:1008800006FA08FC27EA0C07D1F80CC00CFA08FCA1
:100890004CEA070CC0F808C04768A7430C79C4F3BA
:1008A000001494403C4344600C79E443A4070AD00C
:1008B000C4684FEA420C06FA0CF7BC438F6807FA8B
:1008C0000CF72743C7600C7904F00304022C12D103
:1008D000D40800EB840CDCF820405707FF0E09FA1F
:1008E00007F824EA0804D1F8108008FA07F848EA63
:1008F0000408CCF8208004684FEA420C06FA0CF792
:10090000BC430F7907F0030707FA0CF7274307608A
:100910004C6814F4403F70D03C4C276847F4804743
:100920002760246822F0030704F480440094384CC4
:1009300007EB040CDCF8084897074FEA177809FA28
:1009400008F7BC43334FB84202D1002724E054E0FB
:10095000314FB84201D101271EE0304FB84201D1DA
:10096000022719E02E4FB84201D1032714E02D4F82
:10097000B84201D104270FE02B4FB84201D105271F
:100980000AE02A4FB84201D1062705E0284FB842B5
:1009900001D1072700E0082707FA08F72743CCF81A
:1009A0000878DAF800405746D1F804C09C435FEA63
:1009B000CC2C00D51C433C60DBF800405F46D1F8EE
:1009C00004C09C435FEA8C2C00D51C433C60DEF8DD
:1009D00000407746D1F804C09C435FEA8C3C00D5C8
:1009E0001C433C60084F083F3C68D1F804C09C435E
:1009F0005FEACC3C00D51C433C60521C102AFFF43B
:100A00002FAFBDE8F88F0000083C01404438024099
:100A10000030014000000240000402400008024093
:100A2000000C024000100240001402400018024076
:100A3000001C024001488068704700000000002050
:100A400002488168027811448160704700000020EC
:100A50000B4810B5016841F400710160016841F470
:100A600080610160016841F480710160032000F041
:100A70006FF80F2000F006F800F024F8002010BDF9
:100A8000003C024070B50D4D04464FF47A71287851
:100A9000B1FBF0F00A490968B1FBF0F000F00AFB85
:100AA00048B9102C07D200222146501E00F030F821
:100AB00000206C6070BD012070BD000000000020AF
:100AC0000C0000200A4808B5016841F4804101602B
:100AD000006800F4804000900548001F016841F064
:100AE00080510160006800F08050009008BD000057
:100AF00044380240002809DB00F01F020121914028
:100B00004009800000F1E020C0F8001170470000AB
:100B1000F0B40E4B1B680C46C3F30223C3F1070568
:100B2000042D00D90425191D072901D2002300E056
:100B3000DB1E012606FA05F1491E214099409E4020
:100B4000761E16403143F0BC00F01ABF0CED00E0F9
:100B5000064900F0070208684FF6FF03184040EA14
:100B60000220034A10430860704700000CED00E0CB
:100B70000000FA052DE9F0470E46050065D0DFF8C4
:100B80001481D8F80000F7B200F00700B04207D295
:100B900088F80070D8F8000000F00700B04254D187
:100BA00028683D4C810712D5400703D5206840F4E2
:100BB000E05020602878000703D5206840F46040AA
:100BC00020602068A96820F0F000084320602878A1
:100BD000C0072DD0304968680839012812D0022892
:100BE00013D0032811D00968890700292DDA21685C
:100BF00021F0030101432160FFF71CFF814641F210
:100C0000883A0EE009688903EFE709688901ECE793
:100C1000FFF710FFA0EB0901514502D90320BDE801
:100C2000F0872068696800F00C00B0EB810FEFD10D
:100C3000D8F80010404601F00701B14207D907700B
:100C4000006800F00700B04201D00120E7E72878F3
:100C5000400705D52068E96820F4E050084320608B
:100C60002878000706D52068296920F4604040EA0A
:100C7000C100206000F038F82168084AC1F3031170
:100C8000515CC8400649086006480068FFF7FAFE54
:100C90000020C4E7003C024008380240401A000827
:100CA0000C00002004000020044805490068096881
:100CB000044AC1F38221515CC84070470C000020F7
:100CC00008380240501A00080448054900680968BD
:100CD000044AC1F34231515CC84070470C00002007
:100CE00008380240501A0008154810B5006810F086
:100CF0000C02144813D04110042A0FD0082A0ED138
:100D00000F4C241F2268236802F03F025B0207D5C4
:100D10002068C0F38810A0FB010106E0084610BD62
:100D20002168C1F38811A1FB00010023FFF748FAF5
:100D30002168C1F30141491C4900B0FBF1F010BD2D
:100D4000083802400024F4002DE9F84F04006ED06A
:100D50002078DFF84C93C007A9F104054AD009F1C7
:100D600004000168C1F38101012908D00068C0F3C3
:100D7000810002280AD1D9F80000400206D528686F
:100D8000800337D560680028E1D033E06068B0F5B3
:100D9000803F10D0B0F5A02F286810D020F480300C
:100DA0002860286820F4802028606068A8B1FFF7D8
:100DB00041FE06460DE0286840F48030F4E740F438
:100DC00080202860F7E700BFFFF734FE801B64280F
:100DD00073D828688003F7D50CE0FFF72BFE064692
:100DE00005E000BFFFF726FE801B6428F0D82868C6
:100DF0008003F7D42078DFF8AC8280074FF0000A38
:100E00003ED5A748001D016811F00C0F08D00068FE
:100E1000C0F3810002280BD1D9F80000400207D4AA
:100E20002868800716D5E068012800D112E033E178
:100E3000E068B8B10120C8F80000FFF7FBFD0646E6
:100E400005E000BFFFF7F6FD801B0228C0D8286828
:100E50008007F7D52868216920F0F80040EAC10032
:100E600028600DE0C8F800A0FFF7E4FD064604E0A6
:100E7000FFF7E0FD801B02281FD828688007F7D401
:100E80002078000722D5864F87486169703771B195
:100E900001210160FFF7CEFD064604E0FFF7CAFD21
:100EA000801B022809D838688007F7D50EE0C0F803
:100EB00000A0FFF7BFFD064605E082E0FFF7BAFDA0
:100EC000801B02287DD838688007F7D42078400737
:100ED00068D5DFF8CCB100270BF13C0BDBF8000044
:100EE000C0000BD4DBF8001041F08051CBF80010AB
:100EF000DBF80000012700F0805000906B4E306856
:100F0000C00510D4306840F480703060FFF792FD67
:100F1000009005E0FFF78EFD0099401A022850D896
:100F20003068C005F6D55E4EA0686C3601280FD03B
:100F30000528306810D020F001003060306820F0C3
:100F400004003060A068B8B1FFF774FD00900FE0B6
:100F5000306840F00100F4E740F004003060F7E74B
:100F6000FFF768FD0099411A41F28830814266D846
:100F700030688007F4D50EE0FFF75CFD009007E0D5
:100F8000FFF758FD0099411A41F28830814256D846
:100F900030688007F4D42FB1DBF8001021F08051C5
:100FA000CBF80010A069C8B33D49091D0968C1F319
:100FB000810102294AD00228504607D0C8F86000B3
:100FC00000E03CE0FFF736FD04463BE04746C8F84A
:100FD0006000FFF72FFD064605E000BFFFF72AFD82
:100FE000801B02282BD828688001F7D4D4E9070198
:100FF0000843A16A2E4A490802EB0141626A41EAAC
:101000008211084394F82C1040EA0161C9F80010DD
:1010100001203866FFF70EFD044606E03EE000BF03
:10102000FFF708FD001B022809D828688001F7D5C2
:1010300034E000BFFFF7FEFC001B022802D90320AA
:10104000BDE8F88F28688001F4D427E00128F7D0A4
:10105000D9F80000E26900F4800191421CD1226AB3
:1010600000F03F01914217D147F6C071626A01401A
:10107000B1EB821F10D1A26A4FF0FF3300F4403170
:1010800003EB5202B1EB024F06D194F82C1000F0A2
:101090007060B0EB016F01D00120D1E70020CFE7F5
:1010A0000438024000004742800E47420070004072
:1010B0000000FFFF10B5401EB0F1807F01D301207A
:1010C00010BD4FF0E02460610F21601700F058FC64
:1010D0000020A06107202061002010BD70477047EC
:1010E000F8B5016804460868CA684B6910F00F0F2C
:1010F0004FF0000559D003F0010602F49077374312
:1011000065D0C10705D0D10503D5216C41F001019F
:101110002164410705D5D90703D0216C41F00201B4
:101120002164810705D5D90703D0216C41F0040162
:101130002164010707D502F02001314303D0216C5F
:1011400041F008012164216C00293AD0800604D5C1
:10115000900602D5204600F0E0FA20684069216C34
:10116000C0F38010090700D460B3204600F0AEFA47
:1011700020684069400621D52068143050E8001FDF
:1011800021F0400140E80012002AF5D1A06BA8B17F
:101190006C490165A06BFFF743FB002811D0A06BE1
:1011A000016D01B0BDE8F040084783060FD59306F6
:1011B0000DD52046BDE8F84000F0AFBA2046FFF755
:1011C0008EFFF8BD2046FFF78AFF2564F8BD266B29
:1011D0002023012E79D1C60677D5D60675D50868A5
:1011E000486800904869400640D5A16B086840688F
:1011F0000004000CEAD0A28D8242E7D9E085C869DC
:10120000B0F5807F2DD020680C3050E8001F21F40D
:10121000807140E80012002AF5D12068143050E8AF
:10122000001F21F0010140E80012002AF5D12068DA
:10123000143050E8001F21F0400140E80012002A5D
:10124000F5D184F83E30256320680C3050E8001F4B
:1012500021F0100140E80012002AF5D1A06BFFF741
:1012600096FAA08DE18D401A81B229E0A08DE18D22
:10127000401A81B2E08D0028A8D00029A6D02068AD
:101280000C3050E8002F22F4907240E80026002E27
:10129000F5D12068143050E8002F22F0010240E818
:1012A0000026002EF5D184F83E30256320680C30EE
:1012B00050E8002F22F0100240E80023002BF5D167
:1012C0002046FFF70BFFF8BDFFE705062BD51506F7
:1012D00029D594F83D002128F5D1A068B0F5805FAC
:1012E00001D12069B0B1206A411C216221680078D7
:1012F0004860E08C401E0004000CE084E3D12068CC
:10130000C16821F08001C1602068C16841F04001DE
:10131000C160D8E7206A0088C0F308004860206AEE
:10132000801C2062E5E74006CDD55006CBD5CA68C3
:10133000204622F04002CA6084F83D3000F0CFF829
:10134000C1E70000BD16000870B5040004D094F891
:101350003D00002510B106E0012070BD84F83C502E
:10136000204600F023F8242084F83D002068C1685E
:1013700021F40051C160204600F030FA2068016974
:1013800021F4904101612068416921F02A01416105
:101390002068C16841F40051C1602564202084F8B0
:1013A0003D0084F83E00002070BD000010B586B0FE
:1013B000044614216846FEF73BFF1849206888421E
:1013C00029D117480021026842F01002026000682B
:1013D00000F01000059012481438026842F0010233
:1013E0000260006800F0010005904FF4C0600090BA
:1013F0000220CDE9010103200390072004906946F3
:101400000848FFF71FFA002211462520FFF780FB4E
:101410002520FFF76FFB06B010BD00000010014053
:101420004438024000000240704700002DE9F843B4
:10143000044690F83D001F4616460D4620284CD124
:10144000C5B1BEB194F83C00012846D0012084F813
:101450003C004FF00008C4F84080212084F83D0093
:10146000FFF7E8FAA6848146E684A068B0F5805FBD
:1014700003D004E00120BDE8F883206928B12E469E
:101480005FF0000584F83C800EE00026FAE780213A
:10149000204600F029FAA0B9AEB116F8010B216878
:1014A0004860E08C401EE084E08C4B464FF0000228
:1014B00000970028EBD14FF04001204600F014FACD
:1014C00030B10320D7E735F8020BC0F30800E6E798
:1014D000202084F83D000020CDE70220CBE77047B4
:1014E000FEE700000F4810B50D490160062141607C
:1014F00000214FF480328160C0E903124FF44012A2
:101500004261017641768176C17601774177FFF7B6
:1015100039F8002803D0BDE81040FEF7CEBE10BD5C
:101520000064004014000020094808B5016841F03B
:1015300080010160016801F080010091016841F0C3
:1015400001010160006800F00100009008BD00008A
:10155000303802400C4810B50A4901604FF4E131BF
:101560004160002181600C22C160C0E904128161E8
:10157000C161FFF7E9FE002803D0BDE81040FEF787
:101580009CBE10BD001001403C000020FEE7FEE7BD
:10159000704770472DE9F04389B00DF14808814646
:1015A00098E8F000DDE9100C4FF000080DF10C0E8A
:1015B000CDF800808EE8F000CDE9018C0C0A8DF8A2
:1015C00000408DF80110110A8DF80210190A8DF8EB
:1015D00004108DF80530010A8DF806108DF80320EF
:1015E0008DF8070008AB6A4602A94846FEF767FE79
:1015F000002802D002A000F0BBF909B0BDE8F083DA
:10160000B5E7C1F7B7A2CBCDB3C9B9A600000000BA
:10161000FFF716BA30B593B030216846FEF708FEE2
:1016200014210CA8FEF704FE1E480025016841F0B5
:1016300080510160006800F0805011901A480168E4
:1016400041F4804101600068022400F48040119060
:1016500001200090000401908001CDE9064008209F
:1016600008904FF4A870CDE9090404200B90684657
:10167000FFF76AFB08B172B6FEE70CA90F2081E8FC
:1016800031004FF4A0500F904FF48050109005217E
:101690000CA8FFF76FFA002801D072B6FEE713B06E
:1016A00030BD000040380240007000400248016830
:1016B00041F470010160704788ED00E010B5806B67
:1016C0000021C185C184FFF70AFD10BD01680C31FE
:1016D00051E8002F22F4907241E80023002BF5D14D
:1016E0000168143151E8002F22F0010241E8002383
:1016F000002BF5D1016B012909D101680C3151E8AA
:10170000002F22F0100241E80023002BF5D1202108
:1017100080F83E1000210163704708B590F83E1034
:10172000222901D0022008BD82684FF480539A42DA
:1017300001D1016921B1816A9A421BD04AB10AE004
:101740000268816A5268C2F308020A80816A891CB1
:1017500008E0026972B10268526802F07F020A7002
:10176000816A491C8162C18D491E0904090CC18529
:1017700003D019E002685268F1E70168CA6822F0F4
:101780002002CA600168CA6822F48072CA600168D7
:101790004A6922F001024A61202180F83E10016B63
:1017A000012903D0FFF740FE002008BD002101639E
:1017B00001680C3151E8002F22F0100241E80023AB
:1017C000002BF5D101680A68D20602D50A6849687B
:1017D0000091818DFFF782FCE6E7000070B50446BA
:1017E00000680169E26821F44051114301612169F7
:1017F000A068E26908436169114308432168CA6827
:1018000049F20C639A430243CA6020684169A269A5
:1018100021F440711143416131492068884202D06E
:101820003049884202D1FFF74FFA01E0FFF73CFA56
:10183000E2690023192164253226B2F5004F62685F
:1018400028D0A0FB0101930F9200FEF7B9FC0146DE
:10185000B0FBF5F06FF01802504301EB800006EB8F
:101860000010B0FBF5F000F0F002B1FBF5F002EB78
:101870000012B1FBF5F06FF01803584301EB800044
:1018800006EB0010B0FBF5F000F00F0021681044EB
:10189000886070BDA0FB010192185B41FEF790FCCF
:1018A0000146B0FBF5F00201B1FBF5F06FF0180353
:1018B000584301EB800006EBC000B0FBF5F000F0F0
:1018C000F80002EB4002B1FBF5F0584301EB800059
:1018D00006EBC000B0FBF5F000F00700D6E7000013
:1018E00000100140001401402DE9F04198461746D0
:1018F0000E460446069D27E0681C25D02DB1FFF753
:1019000099F8A0EB0800A8421ED920680C3050E8D6
:10191000001F21F4D07140E80012002AF5D12068A0
:10192000143050E8001F21F0010140E80012002AA5
:10193000F5D1202084F83D0084F83E00002084F892
:101940003C000320BDE8F0812068006836EA000012
:1019500004D00020B842CFD00020F3E70120F9E7FF
:101960000148FFF7BDBB00003C000020FEE700007F
:10197000014A024900F023B8E119000810000020D4
:101980000907090E002804DB00F1E02080F80014AC
:10199000704700F00F0000F1E02080F8141D704740
:1019A00002E008C8121F08C1002AFAD17047704728
:1019B000002001E001C1121F002AFBD170472DE970
:1019C000F04116460F460446002503E03946B0476D
:1019D000641C6D1C20780028F8D12846BDE8F081F1
:1019E00013B54FF6FF73012269460248FFF71EFD4B
:1019F00000981CBD3C00002086B0FFF729F8FFF7D7
:101A000009FEFFF791FDFFF76DFDFFF7A3FD0B4802
:101A1000FEF78AFE002408251226AF014FF624287F
:101A2000CDE90445CDE90264CDE9004700231A461B
:101A300041460248FFF7AEFDF2E700001400002027
:101A4000000000000000000001020304060708096E
:101A50000000000001020304781A000800000020C2
:101A600014000000A01900088C1A000814000020BF
:101A70006C040000B0190008010000001000000014
:0C1A8000000000000024F4000000000042
:040000050800018965
:00000001FF
