:020000040800F2
:10000000A804002045010008E31300084712000877
:10001000E1130008B10100085317000800000000B8
:100020000000000000000000000000000D140008A7
:10003000B301000800000000E51300080F140008D9
:100040005F0100085F0100085F0100085F01000810
:100050005F0100085F0100085F0100085F01000800
:100060005F0100085F0100085F0100085F010008F0
:100070005F0100085F0100085F0100085F010008E0
:100080005F0100085F0100085F0100085F010008D0
:100090005F0100085F0100085F0100085F010008C0
:1000A0005F0100085F0100085F0100085F010008B0
:1000B00065140008711400085F0100085F01000862
:1000C0005F0100085F0100085F0100085F01000890
:1000D0005F0100085F0100085F0100085F01000880
:1000E0005F0100085F0100085F0100085F01000870
:1000F0005F0100085F0100085F0100085F01000860
:100100005F0100085F0100085F0100085F0100084F
:100110005F0100085F0100085F0100085F0100083F
:100120005F0100085F0100085F0100085F0100082F
:10013000DFF80CD000F02AF80048004775170008D7
:10014000A80400200648804706480047FEE7FEE76F
:10015000FEE7FEE7FEE7FEE7FEE7FEE7FEE7FEE777
:100160006114000831010008D2B201E000F8012B4F
:10017000491EFBD270470022F6E710B513460A4627
:1001800004461946FFF7F0FF204610BD064C074D08
:1001900006E0E06840F0010394E807009847103457
:1001A000AC42F6D3FFF7C8FFB0170008D01700081D
:1001B000FEE77047704700002DE9F84F4FF0000C44
:1001C00000230A68002A7DD0DFF8F8810F2708F1A4
:1001D000040909F1040A0AF1040B012202FA0CF6DF
:1001E0000A683240B2426ED1DFF8DCE14C68A4EB21
:1001F0000E0574452BD00DDC032C34D005DC34B354
:10020000012C19D0022C2FD11BE0112C16D0122C4E
:100210002AD119E0B5F5881F19D006DCB5F5803F65
:1002200015D0B5F5801F1FD111E0B5F5001F0ED018
:10023000B5F5041F18D10AE0CB6815E0CB681B1D8B
:1002400012E0CB6808330FE0CB680C330CE08B680E
:1002500023B1012B04D00823466105E0042303E009
:100260000823066100E00023B2F5807F01D2054635
:1002700001E000F1040502D24FEA8C0403E0ACF186
:1002800008044FEA84042E6807FA04FE26EA0E06E4
:1002900003FA04F446EA04042C604C6814F0805F0E
:1002A00011D04A4CA56945F00105A561A46904F087
:1002B000010400942CF0030404F1804404F580341C
:1002C000A66801E07CE074E04FEA8C754FEA157592
:1002D00007FA05FE26EA0E0EA0F18046B6F5843632
:1002E00028D0A0F18046B6F5863625D0A0F180460C
:1002F000B6F5883622D0A0F18046B6F58A361FD0F2
:10030000A0F18046B6F58C361CD0A0F18046B6F53B
:100310008E3619D0062606FA05F545EA0E05A560C3
:100320004C6814F4803F11D0D8F800401443C8F84A
:10033000004010E00026EEE70126ECE70226EAE79F
:100340000326E8E70426E6E70526E4E7D8F80040B8
:100350009443C8F800404C6814F4003F05D0D9F825
:1003600000401443C9F8004004E0D9F80040944329
:10037000C9F800404C6814F4801F05D0DAF800403A
:100380001443CAF8004004E0DAF800409443CAF885
:1003900000404C6814F4001F05D0DBF800402243F5
:1003A000CBF8002005E0DBF8004024EA0202CBF89D
:1003B00000200CF1010C0A6832FA0CF27FF40DAF48
:1003C000BDE8F88F00040140000011100010024049
:1003D000002A01D0016170470904016170470000E3
:1003E00001488068704700000400002002488168CE
:1003F00002781144816070470400002010B507485E
:10040000016841F010010160032000F08BF800202A
:1004100000F006F800F026F8002010BD0020024091
:1004200070B504460D4D4FF47A712878B1FBF0F0A9
:100430000B490968B1FBF0F000F098FB08B101200E
:1004400070BD102C07D200222146501E00F036F855
:100450006C60002070BD012070BD00000400002011
:10046000100000200C4808B5816941F0010181614C
:10047000816901F001010091C16941F08051C161C0
:10048000C06900F0805000900448416821F0E061AC
:1004900041F00071416008BD0010024000000140C1
:1004A00000280ADB00F01F01012202FA01F14009D5
:1004B000800000F1E020C0F80011704710B4184B24
:1004C0001B68C3F30223C3F1070CBCF1040F01D96D
:1004D0004FF0040C1C1D072C01D2002300E0DB1E92
:1004E000012404FA0CFCACF1010C0CEA0101994066
:1004F00004FA03F35B1E1A401143002806DB00F1E7
:10050000E020090180F8001410BC704700F00F00D3
:1005100000F1E020090180F8141D10BC70470000B4
:100520000CED00E000F00700064A11684FF6FF03EB
:10053000194041EA002040F0FD7040F080601060FA
:10054000704700000CED00E02DE9F04704460D4631
:10055000002C17D0DFF85C81D8F8000000F007000D
:10056000A84212D2D8F8000020F007002843C8F8AB
:100570000000D8F8000000F00700A84205D00120D4
:10058000BDE8F0870120BDE8F08720684A4E10F0F2
:10059000020F14D010F0040F03D0706840F4E06034
:1005A0007060207810F0080F03D0706840F460503D
:1005B0007060706820F0F001A068084370602078D7
:1005C00010F0010F3AD06068012806D002280BD045
:1005D000316811F0020F27D00AE0316811F4003FB2
:1005E00006D10120BDE8F087316811F0007F18D0F6
:1005F000716821F0030108437060FFF7F1FE0746C0
:100600007068616800F00C00B0EB810F16D041F209
:100610008839FFF7E5FEC01B484508D90320BDE82F
:10062000F0870120BDE8F0870120BDE8F087706801
:10063000616800F00C00B0EB810FEAD1D8F800003F
:1006400000F00700A8420FD9D8F8000020F00700FA
:100650002843C8F80000D8F8000000F00700A842BE
:1006600002D00120BDE8F087207810F0040F05D0FB
:100670007068E16820F4E06008437060207810F052
:10068000080F06D07068216920F4605040EAC1006C
:10069000706000F019F87168084AC1F30311515CE9
:1006A000C8400749086007480068FFF7B9FE002006
:1006B000BDE8F0870020024000100240A0170008AB
:1006C000100000200800002085B015A08368426853
:1006D0000168C068039302920191049014A000681D
:1006E0000090144B5968144801F00C02042A11D0F0
:1006F000082A0FD101A8C1F38342805C11F4803F26
:100700000AD05968C1F340411DF801100A4A50430C
:10071000B0FBF1F005B07047084905B04843704799
:1007200002030405060708090A0B0C0D0E0F101032
:10073000010200000010024000127A0000093D0092
:100740002DE9F84F0446002C0FD02078F84D10F01A
:10075000010F6CD0686800F00C0004280CD06868A9
:1007600000F00C00082803D010E00120BDE8F88F4D
:10077000686810F4803F09D0286810F4003F56D014
:100780006068002853D10120BDE8F88F6068B0F59B
:10079000803F15D0C8B1B0F5A02F1FD0286820F435
:1007A00080302860286820F480202860606858B372
:1007B000FFF716FE0646286810F4003F17D036E013
:1007C000286840F480302860F0E7286820F4803002
:1007D0002860286820F480202860E7E7286840F433
:1007E00080202860286840F480302860DEE7FFF72A
:1007F000F7FD801B642802D90320BDE8F88F286824
:1008000010F4003FF3D012E0FFF7EAFD0646286837
:1008100010F4003F0BD0FFF7E3FD801B642802D9E2
:100820000320BDE8F88F286810F4003FF3D120784A
:10083000C04F10F0020F4FF0010B4FF0000854D0E2
:10084000686810F00C0F14D0686800F00C000828DD
:1008500003D1686810F4803F0BD0206978B3C7F8E3
:1008600000B0FFF7BDFD0646286810F0020F12D059
:100870001DE0286810F0020F05D02069012802D081
:100880000120BDE8F88F2868616920F0F80040EA8F
:10089000C100286029E0FFF7A3FD801B022802D9D0
:1008A0000320BDE8F88F286810F0020FF3D0286805
:1008B000616920F0F80040EAC100286015E0FFE718
:1008C000C7F80080FFF78CFD0646286810F0020F7D
:1008D0000BD0FFF785FD801B022802D90320BDE85D
:1008E000F88F286810F0020FF3D1207810F0080F6D
:1008F00030D09148A169C1B1C0F800B0FFF770FDD8
:100900000646686A10F0020F0BD1FFF769FD801BE5
:10091000022802D90320BDE8F88F686A10F0020FA0
:10092000F3D0012000F060FD14E0C0F80080FFF774
:1009300057FD0646686A10F0020F0BD0FFF750FD16
:10094000801B022802D90320BDE8F88F686A10F0E6
:10095000020FF3D1207810F0040F6FD00026E86961
:1009600010F0805F08D1E86940F08050E861E869E4
:1009700000F0805000900126DFF8C0A1DAF80000F6
:1009800010F4807F1BD1DAF8000040F48070CAF8C0
:100990000000FFF725FD8146DAF8000010F4807FA3
:1009A0000DD1FFF71DFDA0EB0900642802D903203B
:1009B000BDE8F88FDAF8000010F4807FF1D0E0682D
:1009C000012816D0D0B1052821D0286A20F00100D6
:1009D0002862286A20F004002862E06841F2883A20
:1009E00068B3FFF7FDFC8146286A10F0020F17D0AC
:1009F0003AE0286A40F001002862EEE7286A20F019
:100A000001002862286A20F004002862E5E7286ACD
:100A100040F004002862286A40F001002862DCE708
:100A2000FFF7DEFCA0EB0900504502D90320BDE82A
:100A3000F88F286A10F0020FF2D015E01AE0FFE7F5
:100A4000FFF7CEFC8146286A10F0020F0CD0FFF7AA
:100A5000C7FCA0EB0900504502D90320BDE8F88F80
:100A6000286A10F0020FF2D1012E03D1E86920F0BC
:100A70008050E861E069E8B3696801F00C01082979
:100A80005ED0022810D0C7F86080FFF7A9FC0446AA
:100A9000286810F0007F66D0FFF7A2FC001B022838
:100AA00041D90320BDE8F88FC7F86080FFF798FCB4
:100AB0000646286810F0007F0BD0FFF791FC801BE2
:100AC000022802D90320BDE8F88F286810F0007FC3
:100AD000F3D1206AB0F5803F05D16868A16820F4A1
:100AE000003008436860616A206A0843696821F43D
:100AF000741100E037E008436860C7F860B0FFF7A2
:100B00006FFC0446286810F0007F2CD1FFF768FCCA
:100B1000001B022802D90320BDE8F88F286810F0D6
:100B2000007FF3D01FE0286810F0007FB4D11AE0F6
:100B30000010024000004242800442420070004027
:100B400001280DD06868226A00F48031914204D1F6
:100B5000616A00F47010884205D00120BDE8F88F6A
:100B60000120BDE8F88F0020BDE8F88F401EB0F1ED
:100B7000807F01D3012070474FF0E0214861044A93
:100B8000F020107000208861072008610020704765
:100B900023ED00E07047704730B490F83C20012A04
:100BA0003AD0012480F83C40022280F83D200268BF
:100BB000D2F804C093682CF0700C0D6845EA0C0C58
:100BC000C2F804C00268A2F1804CBCF5963C16D075
:100BD000A2F1804CBCF59A3C11D0B2F1804F0ED0FE
:100BE000A2F1804CBCF5806C09D0A2F1804CBCF520
:100BF000006C04D0A2F1804CBCF5406C04D123F011
:100C0000800349681943916080F83D40002180F8D5
:100C10003C1030BC0020704730BC0220704710B53B
:100C20000446002C03D094F83D0010B107E00120E9
:100C300010BD002084F83C00204600F01FF8022080
:100C400084F83D00211D206800F018FC012084F884
:100C5000460084F83E0084F83F0084F8400084F8A1
:100C6000410084F8420084F8430084F8440084F88A
:100C7000450084F83D00002010BD000008B5016863
:100C80001448B1F1804F14D0134A914220D1C16968
:100C900041F00201C161C069002200F00200009031
:100CA00011461D20FFF70AFC1D20BDE80840FFF794
:100CB000F7BBC16941F00101C161C069002200F0C8
:100CC0000100009011461C20FFF7F8FB1C20ECE708
:100CD00008BD0000001002400004004090F83D10E4
:100CE000012901D001207047022180F83D100168E0
:100CF000CA6842F00102CA600068A0F18041B1F503
:100D000096311CD0A0F18041B1F59A3117D0B0F1E5
:100D1000804F14D0A0F18041B1F580610FD0A0F1D7
:100D20008041B1F500610AD0A0F18041B1F5406188
:100D300005D0016841F00101016000207047816821
:100D400001F007010629F8D0016841F001010160B6
:100D5000F3E770B5044694F83C00012818D001254B
:100D600084F83C50022084F83D002068826822F01C
:100D7000770222F47F4282600868502832D00EDC6D
:100D800020284DD006DC00284AD010284DD147E05D
:100D9000022070BD302843D0402846D136E060287C
:100DA0002AD0702806D0B0F5805F3ED0B0F5005F45
:100DB0003BD10BE0CB684A688968206800F0B5FB3E
:100DC0002068816841F0770181602EE0CB684A6835
:100DD0008968206800F0A9FB2068816841F480419F
:100DE000816022E0CA684968206800F08DFC5021CB
:100DF000206800F0A5FB18E0CA684968206800F088
:100E000096FC6021206800F09BFB0EE0CA684968F0
:100E1000206800F079FC4021206800F091FB04E09C
:100E200022680146104600F08BFB84F83D500020FC
:100E300084F83C0070BD704770B5044620680169B5
:100E40004FF0000511F0020F17D0C16811F0020F2A
:100E500013D0E91E0161012020772068806910F01D
:100E6000030F03D02046FFF7E6FF05E0204600F021
:100E7000C1F8204600F057F925772068016911F084
:100E8000040F18D0C16811F0040F14D06FF00401E2
:100E90000161022020772068806910F4407F03D030
:100EA0002046FFF7C8FF05E0204600F0A3F82046E3
:100EB00000F039F925772068016911F0080F18D082
:100EC000C16811F0080F14D06FF00801016104200F
:100ED00020772068C06910F0030F03D02046FFF789
:100EE000AAFF05E0204600F085F8204600F01BF937
:100EF00025772068016911F0100F18D0C16811F032
:100F0000100F14D06FF010010161082020772068C5
:100F1000C06910F4407F03D02046FFF78CFF05E046
:100F2000204600F067F8204600F0FDF8257720689D
:100F3000016911F0010F09D0C16811F0010F05D04E
:100F40006FF001010161204600F052F9206801694B
:100F500011F0800F09D0C16811F0800F05D06FF03B
:100F6000800101612046FFF715FE2068016911F03C
:100F7000400F09D0C16811F0400F05D06FF040015B
:100F80000161204600F05EF92068016911F0200F30
:100F90000BD0C16811F0200F07D06FF02001016164
:100FA0002046BDE87040FFF7F6BD70BD00B585B0C6
:100FB000002100910191029103910068B0F1804FEE
:100FC00011D10A48816941F0040181618069694653
:100FD00000F0040004900120009002200190039092
:100FE0000348FFF7E9F805B000BD0000001002401B
:100FF00000080140704770B504460D4694F83C0067
:1010000001280AD0012084F83C0042B1042A1AD0F9
:10101000082A2DD00C2A53D13EE0022070BD29466B
:10102000206800F095FA2068816941F0080181612B
:101030002068816921F004018161206881692A6941
:10104000114381613CE02946206800F0B9FA20682C
:10105000816941F4006181612068816921F48061C6
:101060008161206881692A6941EA0221816127E062
:101070002946206800F0E0FA2068C16941F00801C3
:10108000C1612068C16921F00401C1612068C169A2
:101090002A691143C16113E02946206800F008FB6A
:1010A0002068C16941F40061C1612068C16921F40F
:1010B0008061C1612068C1692A6941EA0221C16178
:1010C000002084F83C0070BD10B50446002C03D00D
:1010D00094F83D0010B107E0012010BD002084F815
:1010E0003C00204600F01EF8022084F83D00211D3F
:1010F000206800F0C3F9012084F8460084F83E001F
:1011000084F83F0084F8400084F8410084F84200ED
:1011100084F8430084F8440084F8450084F83D00D6
:10112000002010BD7047704710B50446002909D053
:1011300004290AD008290BD094F8410001280AD0CC
:10114000012010BD94F83E00F8E794F83F00F5E761
:1011500094F84000F2E7022089B304293DD0082921
:101160003ED084F841000122206800F0CFF91E49EA
:1011700020681E4A884201D0904203D1436C43F458
:1011800000434364206888421AD0904218D0B0F1DE
:10119000804F15D0A0F18041B1F5806110D0A0F151
:1011A0008041B1F500610BD0A0F18041B1F5406103
:1011B00006D0016841F001010160002010BD09E086
:1011C000816801F007010629F7D0016841F00101AB
:1011D0000160F2E784F83E00C5E784F83F00C2E70B
:1011E00084F84000BFE70000002C014000340140BB
:1011F00010B50068104988421DD11048B0F90010A0
:10120000B1F5C87F01D011B103E0002200E0012256
:101210004280B0F902300A4A012B04D1491C09B2BC
:10122000018014686163002B05D10188491E09B251
:1012300001801068416310BD0004004000000020E0
:10124000140000207047FEE72DE9F04385B000242C
:1012500020480094019402940394816941F0400174
:101260008161816901F040010491816941F00401CB
:101270008161816901F004010491816941F00801F3
:1012800081618069DFF8508000F00800049000223E
:1012900020214046FFF79CF8DFF8409000222021F3
:1012A0004846FFF795F82025022701260397009569
:1012B000CDE9016469464046FEF77EFF039700953D
:1012C000CDE9016469464846FEF776FF05B0BDE802
:1012D000F08300000010024000180140000C0140A3
:1012E00010B58EB000240794089409940A940B94C6
:1012F0001C2168460C94FEF73EFF1E484FF08041CB
:1013000001604721C0E9011440F2F311C0E9031460
:101310008461FFF784FC08B1FEF74CFF4FF4805066
:10132000079007A91348FFF714FD08B1FEF742FF25
:101330001048FFF7C9FE08B1FEF73CFF0B940BA95C
:101340000C480C94FFF728FC08B1FEF733FF60202F
:10135000CDE9000402940022694606480494FFF790
:101360004AFE08B1FEF726FF0248FFF71FFE0EB047
:1013700010BD00001400002010B586B000241748EE
:101380000094019402940394049413490594016019
:1013900041F61F41C0E901146321C0E90314802113
:1013A0008161FFF73CFC08B1FEF704FF4FF4805069
:1013B000009069460948FFF7CCFC08B1FEF7FAFE39
:1013C000049404A905480594FFF7E6FB002801D022
:1013D000FEF7F0FE06B010BD000400405C000020E7
:1013E000FEE770477047000081B007494FF4FA529A
:1013F0000968B1FBF2F14843009000BF0098411E1C
:101400000091FAD201B07047100000207047FEF73B
:10141000EDBF30B58FB028216846FEF7ACFE142131
:101420000AA8FEF7A8FE01210804CDE90010002457
:10143000029402250491CDE907504FF4E010099081
:101440006846FFF77DF90F20CDE90A056802CDE96E
:101450000C4002210AA80E94FFF776F80FB030BDB9
:10146000704700000148FFF7E7BC000014000020AF
:101470000148FFF7E1BC00005C000020F0B4026806
:10148000DFF874C01D4C1E4D1E4E1F4B60450AD028
:10149000984208D0B0F1804F05D0A04203D0A842B6
:1014A00001D0B04203D122F070024F683A43604548
:1014B0000AD0984208D0B0F1804F05D0A04203D0A6
:1014C000A84201D0B04203D122F44072CC6822433A
:1014D0004C6922F08002224302608A68C2620A6874
:1014E0008262604501D0984201D1096901630121FE
:1014F0004161F0BC70470000002C01400004004036
:1015000000080040000C00400034014001F01F01C1
:1015100001238B40D0F820C02CEA03030362036A46
:1015200002FA01F1194301627047D0F808C02CF4A7
:101530007F4C42EA0322114341EA0C01816070476B
:10154000826822F07002114341F007018160704708
:1015500070B4026A22F001020262036A4268D0F8A3
:1015600018C02CF0700C2CF0030C0C6844EA0C0C26
:1015700023F002038C6823430F4C104DA04201D08E
:10158000A84205D123F00803CE68334323F00403B7
:10159000A04201D0A84207D122F4807222F4007246
:1015A0004C6922438C6922434260C0F818C04968E4
:1015B0004163036270BC7047002C0140003401405D
:1015C00070B4026A22F010020262036A4268D0F824
:1015D00018C02CF4E04C2CF4407C0C684CEA042C31
:1015E00023F020038C6843EA0413114C114DA042F0
:1015F00001D0A84206D123F08003CE6843EA061347
:1016000023F04003A04201D0A84209D122F4806215
:1016100022F400624C6942EA84028C6942EA840244
:101620004260C0F818C049688163036270BC7047AB
:10163000002C01400034014070B4026A22F4807230
:101640000262036A4268D0F81CC02CF0700C2CF0C7
:10165000030C0C6844EA0C0C23F400738C6843EA16
:101660000423114C114DA04201D0A84206D123F40D
:101670000063CE6843EA062323F48063A04201D0CE
:10168000A84209D122F4805222F400524C6942EA65
:1016900004128C6942EA04124260C0F81CC0496816
:1016A000C163036270BC7047002C014000340140EC
:1016B00010B4026A22F480520262D0F820C042685C
:1016C000C36923F4E04323F440730C6843EA042322
:1016D0002CF4005C8C684CEA043CA0F18044B4F526
:1016E000963404D0A0F18044B4F59A3404D122F4A5
:1016F00080424C6942EA84124260C36149680164D5
:10170000C0F820C010BC7047036AD0F820C02CF08D
:10171000010CC0F820C0D0F818C02CF0F00C4CEA36
:10172000021223F00A031943826101627047036ABF
:1017300023F010030362D0F818C0036A2CF4704C35
:101740004CEA023223F0A00343EA011182610162F4
:101750007047FEE702E008C8121F08C1002AFAD14C
:1017600070477047002001E001C1121F002AFBD121
:1017700070470000FEF742FEFFF74BFEFFF764FDE7
:10178000FFF7AEFDFFF7F8FD00210348FFF7CCFCA3
:101790000248FFF7A3FAFEE7140000205C000020D7
:1017A0000000000000000000010203040607080911
:1017B000D017000800000020140000005417000893
:1017C000E4170008140000209404000064170008C7
:1017D00000000100010000001000000000000000F7
:0417E0000024F400ED
:0400000508000131BD
:00000001FF
