:020000040800F2
:10000000B80D0020D502000819250008C3230008F8
:1000100015250008D1220008CF2D0008000000009F
:10002000000000000000000000000000352700086C
:10003000D522000800000000A92500084D2800086E
:10004000EF020008EF020008EF020008EF020008CC
:10005000EF020008EF020008EF020008EF020008BC
:10006000EF020008EF020008EF020008EF020008AC
:10007000EF020008EF020008EF020008EF0200089C
:10008000EF020008EF020008EF020008EF0200088C
:10009000EF020008EF020008EF020008EF0200087C
:1000A000EF020008EF020008EF020008EF0200086C
:1000B000EF020008EF020008EF020008EF0200085C
:1000C000EF020008EF020008EF020008EF0200084C
:1000D000EF0200081D2A0008EF020008A52A000808
:1000E000EF020008EF020008EF020008EF0200082C
:1000F000EF020008EF020008EF020008EF0200081C
:10010000EF020008EF020008EF020008EF0200080B
:10011000EF020008EF020008EF020008B92800080B
:10012000EF020008EF020008EF020008EF020008EB
:10013000EF020008EF020008EF020008EF020008DB
:10014000EF020008EF020008EF020008EF020008CB
:10015000EF020008EF020008EF020008EF020008BB
:10016000EF020008EF020008EF020008EF020008AB
:10017000EF020008EF020008EF020008EF0200089B
:10018000EF020008EF02000800F002F800F092F819
:100190000AA090E8000C82448344AAF10107DA45E2
:1001A00001D100F087F8AFF2090EBAE80F0013F0A2
:1001B000010F18BFFB1A43F0010318474831000034
:1001C00068310000103A24BF78C878C1FAD85207C5
:1001D00024BF30C830C144BF04680C6070470000C1
:1001E0000023002400250026103A28BF78C1FBD840
:1001F000520728BF30C148BF0B6070476E2900F01E
:10020000D282702900F03D84662902F0F8876529C2
:1002100002F0F587672902F0F287612902F0F18781
:1002200003681B0A28BF41F08001692900F0D280D1
:10023000642900F0CF80752900F0CC806F2900F090
:10024000CA83782900F00984E92900F06583E4294C
:1002500000F06283F52900F05F83EF2900F0C78387
:10026000F82900F008840368DB0928BF41F0800109
:10027000632900F0D482732900F0D982E32901F0C8
:100280000D80F32901F01280002070471FB502F0A5
:10029000B1FF01F061F804000020002102F094FF9A
:1002A000401C60600020002102F078FFE0601FBD6C
:1002B00010B510BD01F022F81146FFF7E7FF02F07C
:1002C00071FE01F0FBF803B4FFF7F2FF03BC02F08C
:1002D0009FFD00000948804709480047FEE7FEE708
:1002E000FEE7FEE7FEE7FEE7FEE7FEE7FEE7FEE7E6
:1002F00004480549054A064B70470000512800088C
:1003000089010008B8070020B80D0020B8090020B6
:10031000B8090020704700001CB50C46064B7B4412
:1003200069460090204600F058FA044600206946CD
:1003300000F066FA20461CBDDF0400000FB404493B
:1003400010B503AA029800F077FA10BC5DF814FB10
:10035000080000200FB41CB5084B06AA7B44694670
:100360000090059800F039FA04460020694600F034
:1003700047FA20461CBC5DF814FB0000A1040000F5
:1003800070B50C460546012A05D02878800600D5B0
:10039000EA69002302E0012305E05B1C934202D2DC
:1003A000E05C0028F9D1A869E618C01AA861286A9B
:1003B00018442862284600F064F904E0D5E90121D8
:1003C00014F8010B9047B442F8D3284600F06FF9B7
:1003D00070BD00002DE9F041064600241068752923
:1003E000314616A510D000F073F9002802DA404219
:1003F00013A507E031688A0701D512A502E0490775
:1004000004D511A5012401E000F06BF900210A22B6
:1004100006F1240709E0B0FBF2FCB0FBF2F302FBAB
:100420001C00303078541846491C0028F3D123466C
:100430002A463046BDE8F04100F05CB900000000FB
:100440002D0000002B000000200000002DE9F05FCF
:10045000894604464FF0000ADFF874B1FB44C0F847
:1004600020A02046E1688847002874D0252806D0BF
:10047000D4E901219047206A401C2062F1E7002660
:100480005F462046E16888472028054607DB312D76
:1004900005D2781910F8200C08B10643F1E7B0072F
:1004A00001D526F00406C4F81CA00027C4F818A043
:1004B0002A2D09D0284602F0A4FC38B304EB8708A3
:1004C000303DC8F8185019E059F8041B204604EBD9
:1004D00087029161E1688847012F054618D1E069DC
:1004E000002820DA26F020061DE0D8F8180000EBDE
:1004F000800005EB40003038C8F818002046E1685D
:100500008847054602F07DFC0028EED1012F0AD075
:100510002E2D08D12046E16888477F1C0546022F12
:1005200046F02006C4DBA069002803DA404246F00A
:100530000106A061F00701D026F010066C2D0BD04B
:10054000682D09D04C2D39D06A2D35D0742D35D079
:100550007A2D33D016E038E0E1682F4620468847F0
:10056000B842054609D16C2F26D04FF48060E1686F
:10057000064320468847054604E06C2F1AD04FF406
:10058000807006430DB3A5F14100192802D820352B
:1005900046F400664A462946204626604E46FFF746
:1005A0002DFE80B101280BD0F61D26F0070000F1CA
:1005B000080956E74020E4E78020D8E70020D6E786
:1005C00006F104094DE7284652E7206ABDE8F09F8E
:1005D000A62D000030B505460B462A4613F8014B00
:1005E00012F8010B08B1A042F8D01CB1002802D0CB
:1005F0006D1CF1E7284630BD10B5431C02E010F831
:10060000011B71B18107FAD14FF0013202C88C1A77
:100610008C4314EAC211F9D0C01A0A0603D0C01ED6
:1006200010BDC01A10BD0A0401D0801E10BD090201
:10063000FCD0401E10BD4FF000020429C0F0128013
:1006400010F0030C00F02A82CCF1040CBCF1020F74
:1006500018BF00F8012BA8BF20F8022BA1EB0C015A
:1006600000F01CBA5FEAC17C24BF00F8012B00F83F
:10067000012B48BF00F8012B704770477047704747
:10068000704770B5044685690068C10601D53026FB
:1006900000E02026C00707D070BDD4E90121304614
:1006A0009047206A401C20626D1EF6D570BD70B563
:1006B000044685690078C00707D170BDD4E90121DF
:1006C00020209047206A401C20626D1EF6D570BD28
:1006D00009684A0501D540B27047C905FCD500B28A
:1006E000704709684A0501D5C0B27047C905FCD5F5
:1006F00080B270472DE9F0470D4699469246044670
:1007000000F124080168880604D5E06921F0100191
:10071000216000E00120A84201DD471B00E0002726
:10072000A1697A1902EB0900081AA0612078C006B5
:1007300002D42046FFF7A5FF002608E0D4E90121F6
:100740001AF806009047206A401C761C20624E452D
:10075000F4DB2078C0060AD52046FFF792FF06E0BA
:10076000D4E9012130209047206A401C2062381EC5
:10077000A7F10107F4DC07E0D4E9012118F805002E
:100780009047206A401C2062281EA5F10105F3DC79
:100790002046FFF78CFF2078000602D50220BDE836
:1007A000F0870120FBE711680268006A530501D554
:1007B00008700AE0D30501D5088006E0130603D5CA
:1007C000C217C1E9000200E0086001207047000084
:1007D00001694A1C02610878704700B58FB0CDE905
:1007E00001310021059105497944CDE903101146F5
:1007F0006846FFF72BFE0FB000BD0000E5FFFFFFCE
:100800000A6802F8010B0A60704710B5436913B11A
:10081000AFF3008001E0FFF7B3FD012010BD1278B7
:1008200000F124010A7000224A700122EDE71168EC
:100830004FF0FF32E9E70000074B70B50D467B44EF
:10084000FFF7CBFF0446284600F034FD10B14FF00F
:10085000FF3070BD204670BD472700002DE9FF5FC7
:1008600015468A460446DFF8AC80F8440027D8E9EC
:1008700000103E46CDE9001010E03AF816106A4626
:1008800002A800F01BFD411C07D02178890603D582
:10089000E269391891420DD80744761C2078800609
:1008A00002D5E069B84205DDAE42E6DB3AF8160053
:1008B0000028E2D1A069C01BA0612046FFF7E1FE3D
:1008C000D8E90010CDE90010002017E03AF8181020
:1008D0006A4602A800F0F2FCB0F1FF3F81460BD05F
:1008E00000250DF1080B05E0D4E901211BF80500F6
:1008F00090476D1C4D45F7D308F10100B04280468A
:10090000E4DB206A384420622046FFF7D0FEBDE8D1
:10091000FF9F0000AA2900002DE9F0418046D21D6A
:1009200022F007020025D2E90002F52915A614D00D
:10093000011E72F1000106DA0023D0EB030063EB25
:10094000020211A608E0D8F800108B0701D50FA607
:1009500002E0490701D50EA601251146002408F141
:10096000240704E000F0BFF830323A55641C50EA26
:100970000102F7D12B46324621464046BDE8F04100
:10098000FFF7B8BE000000002D0000002B000000A3
:100990002000000030B4002100F1240408E002F03F
:1009A0000705D208303542EA4372DB086554491C1A
:1009B00052EA0305F3D10468002310A2250707D5E6
:1009C000A40600D421B1C46901230DA2641EC46130
:1009D00030BCFFF78FBE10B5044621461068FFF704
:1009E00080FE02462046BDE810400023D2E7D21D1B
:1009F00022F00701D1E90023CCE70000000000004D
:100A000030000000F0B40D460188090502D5214CE4
:100A10007C4402E01F4C7C440E34002100F124068B
:100A200008E002F00F071209E75D42EA03721B09B2
:100A30007754491C52EA0307F3D1027800231207C6
:100A400004D5702D06D009B1022311342246F0BC22
:100A5000FFF750BE01231034F8E770B504460D4689
:100A600021461068FFF73DFE024629462046BDE8B4
:100A700070400023C6E7D21D22F00703D3E900230C
:100A8000C0E70368126843F0200303600823C361D2
:100A90000023B7E70C2800004FF0000200B5134612
:100AA00094469646203922BFA0E80C50A0E80C508E
:100AB000B1F12001BFF4F7AF090728BFA0E80C503F
:100AC00048BF0CC05DF804EB890028BF40F8042B38
:100AD00008BF704748BF20F8022B11F0804F18BFA5
:100AE00000F8012B704730B5B0F10A024FEA900EC2
:100AF00071F100034EEA817EB0EB0E0061EB9101D3
:100B00004FEA101E4EEA017E10EB0E0041EB111170
:100B10004FEA102E4EEA016E10EB0E0041EB112150
:100B20004FEA104E4EEA014E10EB0E0041EB114120
:100B3000401841F100014FEAD00040EA41704FEA0D
:100B4000D10110EB80054FEA810444EA907444EB34
:100B500001046D1944EB0404521BA3414FF0000340
:100B600048BF0A3200D530BD401C41F1000130BD04
:100B700070472DE9FF4F0C461E464FF0FF378BB0F4
:100B8000D2E90001DDF860800A908A46C1F30A5577
:100B900005B93D46002108464FF00000BAF1000FAC
:100BA00000F4400005DA00EB80004FF4400101EA58
:100BB00050004FEA9059B9F1010F00DDB9460A988B
:100BC00050EA4A000ED044F61050A5F2FF354543D6
:100BD0002F14B8F1000F1ED07542291E1EDDC9F179
:100BE00000021CE0B8F1010F4FF0000001D03021ED
:100BF00003E0F24305E02154401CB042FBDB3046E9
:100C00000022002121540B99C1F80880C1E900207D
:100C10000FB0BDE8F08FBD1B6D1CDEE74A4600DA61
:100C2000694206A800F0DCFB06AB93E8070003ABC3
:100C300083E8070050460A9900F08EFC8DE8070013
:100C4000A0F500501F3800900398002D09DD42F2F6
:100C50001F014A46084403A90390684600F0EDFED0
:100C600008E0A0F500504A461F3803A903906846E3
:100C700000F0F7FE8DE807000004000C03D04FF0F1
:100C8000FF30410800E01046B8F1000F03D0002209
:100C9000009215461EE0751E05D4FFF724FF303282
:100CA00062556D1EF9D5B3460122084302D00022D9
:100CB0007F1C04E02078302801D100227F1E002A0A
:100CC000099786D01DE0112D07DAFFF70CFF3032AF
:100CD00062556D1C50EA0102F5D1084302D000981C
:100CE000C8B10EE00021681E05E0235C625C63541D
:100CF0002254401E491C8142F7DBAB46A81B401E14
:100D00000990002004F80B000B98099AC0F808809D
:100D1000C0E9002B7CE711264FF0000859E72DE9C8
:100D2000F04F88460446D21D22F0070191B0D1E968
:100D30000001CDE90A0102F04CF802460B98C00F01
:100D400001D02D2007E02068810701D52B2002E08B
:100D5000202101EAC000032A099001D0072A05DBFF
:100D600003464146204600F0FBFA0BE1207880065E
:100D700001D5E06900E00620B8F1650F814606D094
:100D8000B8F1660F18D0B8F1670F70D131E00020CC
:100D9000B9F1110F009001DB112301E009F101030A
:100DA0000AAA01A90CA8FFF7E4FEDDE90C700026F1
:100DB00009F10105834647E001204B4600904FF0C2
:100DC00000470AAA01A90CA8FFF7D3FEDDE90DB080
:100DD0000C995D46002610B909F101000D18B9EB18
:100DE000050003D4C0F1FF3609F10105A5EB0900A8
:100DF0002BE0B9F1010F01DA4FF001090020B9F140
:100E0000110F0090484601DD112300E003460AAAB5
:100E100001A90CA8FFF7ADFEDDE90C704D460026D8
:100E20008346207800070AD4AB4500DA5D4601A866
:100E3000012D04DD411911F8011C302907D04F455F
:100E400002DA17F1040F04DA012082460FE06D1E6A
:100E5000EEE7002F02DCED1B3E4403E0781CA842C5
:100E600000DD7D1CB81B00F1010A4FF0004720781F
:100E7000000703D4AA4501DB4FF0FF3A0021B7F188
:100E8000004F0DF143088DF8431024D002202B238E
:100E9000002F01DA7F422D230A21021EA0F101005A
:100EA00000DC5FB197FBF1FC97FBF1F201FB1C7CCE
:100EB00017460CF1300C08F801CDEEE7A8F101005F
:100EC00003702188090501D5452100E06521A0F1C5
:100ED000010800F8011C09980FA9A1EB0807FF1DE4
:100EE00000B10120411901EBEA70A1693844081AE8
:100EF000401EA0612078C00602D42046FFF7C1FB47
:100F0000099828B1D4E901219047206A401C206249
:100F10002078C00622D52046FFF7B3FB1EE0002E46
:100F200004DBB34502DD01A8805D00E03020D4E998
:100F300001219047206A401C2062761CAAF1010022
:100F40005FEA000A0AD100F007FAC0680168405C55
:100F5000D4E901219047206A401C2062281EA5F197
:100F60000105DCDC07E0D4E9012118F8010B90470A
:100F7000206A401C2062381EA7F10107F3DC2046DE
:100F8000FFF795FB032011B043E600002DE9F04F79
:100F900004460D46D21D22F0070089B0D0E9009723
:100FA0004846394601F015FF0246F80F01D02D23BF
:100FB00007E02068810701D52B2302E0202101EA08
:100FC000C0038DF820300BB1012000E00020032A7F
:100FD000824601D0072A04DB2946204600F0C0F9EA
:100FE0003FE12078800601D40D2500E0E569C7F3D4
:100FF0000A560D2D49DA00214FEA175B08464FF0DB
:101000000000002F00F4400007DA00EB80004FF4EE
:10101000400100EBD07001EA60008115012901DD7B
:101020004FF0FF3100224FEA850CBCF1180F06D3B8
:101030001346ACF118004FF08052C24003E04FF469
:10104000801323FA0CF30CF10C0CBCF1200F04D329
:10105000ACF1200C09FA0CF001E007FA0CF00029C1
:101060004FF0004801DD18B90FE00ED140450CD318
:1010700019EB02095F4121B9404502D19F4329EA9A
:101080000209BBEB175F00D0761C2088000502D553
:101090007B48784402E07A487844193808AA30231B
:1010A00002F80A30037C0AF10101002E0AF1020A5B
:1010B00053546A4602DC4FF0300101E04FF0310139
:1010C0004FF001088DF8001002D0A6F2FF3603E0C1
:1010D00059EA470100D06B4E002D02DC2178090748
:1010E00004D54FF002082E218DF80110C4460021CE
:1010F0000BE0C7F303433F01C35C491C6D1E02F8BC
:101100000830052908F1010801DA002DF1DC002181
:101110000CE000EB1973491C1B786D1E082902F8BE
:1011200008304FEA091908F1010801DA002DF0DC56
:1011300021688B0602D516E0A8F10108E04505DD1F
:1011400002EB080313F8013C302BF5D0B8F1000F87
:1011500009DD02EB080313F8013C2E2B03D109072C
:1011600001D4A8F10108002D05DD3E2102F8081088
:101170006D1E08F10108407C002E02F8080008F1FD
:10118000010804DA2D20764202F8080002E02B2044
:1011900002F808000A214FF47A70864208F101082B
:1011A0000BDB96FBF0F3303302F8083096FBF0F3DC
:1011B00008F1010800FB136601E0642E0CDB6420DB
:1011C00096FBF0F3303302F8083096FBF0F308F1A9
:1011D000010800FB136601E00A2E06DB96FBF1F026
:1011E000303002F8080008F1010896FBF1F001FB2D
:1011F0001060303002F80800A16908F1010808EB1E
:10120000050202EB0A00081AA0612078C00602D489
:101210002046FFF736FA216A08AE01EB0A00206289
:1012200004E0D4E9012116F8010B9047BAF1010A54
:10123000F7D22078C00602D52046FFF722FA6E4684
:1012400009E016F8010B3E280FD0D4E901219047A0
:10125000206A401C2062B8F10108F2D22046FFF754
:1012600026FA09B00320BDE8F08F206A28442062E6
:1012700003E0D4E90121302090476D1EEBD3F8E75D
:10128000C521000002FCFFFF10B5436913B1AFF3A5
:10129000008001E0FFF7E2FA012010BD128800F1A2
:1012A000240182840022C2840122EDE711684FF0FC
:1012B000FF32E9E7007B00F08000704770B516460A
:1012C0000C46054600F040F8036893F80101012838
:1012D00006D0FF2C0FD8185D68B101202C7070BDAE
:1012E000D3F807013246214603F207130344284688
:1012F000BDE8704018474FF0FF3070BD754600F0F4
:10130000E7F8AE4605006946534620F007008546DB
:1013100018B020B5FEF7ECFFBDE820404FF0000606
:101320004FF000074FF000084FF0000B21F00701CD
:10133000AC46ACE8C009ACE8C009ACE8C009ACE810
:10134000C0098D467047000010B500F005F8001D7B
:1013500010BD00BF751E00000048704778070020D0
:101360002DE9F0411F46044603260168072A01F4CF
:10137000006004DB08B116A505E016A503E008B17E
:1013800015A500E015A521F010002060A069C01E81
:10139000A0610FB1401EA0612046FFF772F94FB166
:1013A000D4E9012138469047206A401C2062C01CC5
:1013B000206206E0206AFAE7D4E9012115F8010B62
:1013C0009047761EF8D22046FFF771F9BDE8F0810C
:1013D0004E414E006E616E00494E4600696E6600D9
:1013E0002DE9F047814616468AB0334878440DC847
:1013F0008DE80D0030487844801C03AC0DC884E8AB
:101400000D0041F69B300844372190FBF1F290FB30
:10141000F1F5A5F1800501FB12041B3C02D56442E5
:10142000012000E00020DFF890A080460027FA4469
:10143000AAF1BE0A0DE0E00709D03246684607EB84
:1014400047010AEB810100F00CFB8DE807006410F6
:101450007F1C002CEFD1184F7F44AC3F18E0E80709
:1014600014D007EB04100DF1180A90E80E008AE87A
:101470000E00C068F04201D198190890324606A9C2
:1014800003A800F0EEFA03AB83E807006D10641CBC
:10149000002DE4D132466946B8F1000F03A802D00E
:1014A00000F0CBFA01E000F0DCFAC9E90001C9F86C
:1014B00008200AB0BDE8F087FC1E000010B5044605
:1014C000AFF300802046BDE81040FEF7FCBE0000F0
:1014D00000487047580700204FF0013C50F8042B9B
:1014E00051F8043B9A4221D1A2EB0C03934313EA37
:1014F000CC1317D150F8042B51F8043B9A4215D164
:10150000A2EB0C03934313EACC130BD150F8042B3A
:1015100051F8043B9A4209D1A2EB0C03934313EA1E
:10152000CC13DBD04FF00000704700BFD01A01BAD7
:10153000B1FA81F101F0180122FA01F0CB40C1F1BA
:101540002001DBB2C0B2C01A2CFA01F3D11A9143C8
:1015500011EAC311E6D170475FEA400C08BF91F071
:10156000000F4FEA8C234FEAC12243EA51514FEA60
:101570001C5018BF00F5F0404FEA300018BF41F092
:1015800000415FEA6C5C00F02980BCF1FF3F08BFBE
:1015900040F080407047130C06BF12044FF0100C4F
:1015A0004FF0000C130E04BF12020CF1080C130FC5
:1015B00004BF12010CF1040C930F04BF92000CF154
:1015C000020CD30F04BF52000CF1010C11464FF076
:1015D0000002A0F11F00A0EB0C00704711F0004FBB
:1015E00008BF704731F000413FF4D5AF0B0C06BF88
:1015F00009044FF0100C4FF0000C0B0E04BF090251
:101600000CF1080C0B0F04BF09010CF1040C8B0F3B
:1016100004BF89000CF1020CCB0F04BF49000CF190
:10162000010CCCF12003A0EB0C0022FA03F302FA28
:101630000CF241EA030100F10100704720F07F4CF9
:1016400080EA030023F07F47ACEB070303F57C53EC
:1016500000F0004003F1FF032DE980494FEA154BEC
:1016600009B44FEA144325EA0B4E24EA03480FF26B
:10167000042606EB132749083E785FEA320203FB93
:101680000667C7F5000707FB06F64FEA54374FEA2F
:10169000D64606F1020607FB066CCCF1005C4FEA69
:1016A0001C472CEA074C07FB06F40CFB06F504EB81
:1016B00015464FEA961634BF00204FF000404FEA1F
:1016C000D13706FB07FC4FEA1C4C0CFB0BF7D21B77
:1016D00003FB0CF761EB07010CFB0EF7B0EB0740C7
:1016E00072EB17420CFB08F734BFA2EB0742B2EBD8
:1016F000074261EB17414FEA0C444FEA910706FBA2
:1017000007FC4FEA1C4C0CFB0BF7B0EBC74072EB2D
:10171000573203FB0CF734BFA2EBC742B2EBC74210
:1017200061EB57310CFB0EF7B0EBC70072EB577251
:101730000CFB08F734BFA2EBC702B2EBC70261EBA8
:101740005771039F4FEA816141EA921104EBCC0487
:101750004FEAD1374FEA826206FB07FC42EA901259
:101760004FEA80604FEA1C4C0CFB0BF7D21B03FBCB
:101770000CF761EB07010CFB0EF7B0EB074072EBC7
:1017800017420CFB08F734BFA2EB0742B2EB07424B
:1017900061EB17414FEA8C554FEA910704EB9C240B
:1017A00006FB07FC4FEA1C4C0CFB0BF7B0EBC740E9
:1017B00072EB573203FB0CF734BFA2EBC742B2EB1C
:1017C000C74261EB57310CFB0EF7B0EBC70072EB71
:1017D00057720CFB08F734BFA2EBC702B2EBC7028B
:1017E00061EB577115EB4C254FEA816141EA92118B
:1017F0004FEA82624FEAD13742EA901206FB07FCB9
:1018000044F100044FEA80604FEA1C4C0CFB0BF7DC
:10181000D21B03FB0CF761EB07010CFB0EF7B0EBDF
:10182000074072EB17420CFB08F734BFA2EB0742EC
:10183000B2EB074261EB174115EB1C154FEA813102
:1018400041EA92414FEA823242EA90424FEA8030C6
:101850004FEA0C7644F1000448EA03434EEA0B4891
:101860004FF0000EB2EB080C71EB030724BF624689
:1018700039464EEB0E0E4FF0000B00185241494115
:101880004BEB0B0BB2EB080C71EB03077BF1000B7E
:1018900024BF624639464EEB0E0E4FF0000B001887
:1018A000524149414BEB0B0BB2EB080C71EB0307B8
:1018B0007BF1000B24BF624639464EEB0E0E51EA17
:1018C000020718BF46F0010616EB0E7655F100022E
:1018D00054F1000103D5BDE88901BDE80088BDE8E9
:1018E0008901BDE80048B619524141EB0101A3F15D
:1018F0000103704780807F7E7D7C7B7A7978777664
:1019000076757473727171706F6E6E6D6C6C6B6ADC
:101910006A6968686766666564646363626161607A
:10192000605F5F5E5E5D5D5C5C5B5B5A5A595958F7
:101930005857575656555555545453535252525161
:10194000515050504F4F4F4E4E4D4D4D4C4C4C4BB7
:101950004B4B4A4A4A4949494848484747474746FE
:10196000464645454544444444434343434242423A
:1019700042414141002B26D4770021D01CB54FEACB
:10198000370703B44FF010004FF010014FF0000084
:101990000FBCBDE810400BF1010BBBF1010F08BFFC
:1019A0005FEA170722BF12F1010211F101014FF0A6
:1019B000004143F1000300F0004043EA000070479B
:1019C000F9D35708DAE746EA064613F1400F4FEA23
:1019D00016461FDD13F1200FDFBF16430A46002114
:1019E00020335B42C8D0C3F1200746EA064602FA1C
:1019F00007F74FEA164646EA0706C3F1200722FA20
:101A000003F201FA07F721FA03F14FF0000342EA6B
:101A10000702B1E746EA020646EA06464FEA1646DC
:101A200046EA0106BCBF46EA0646360C4FF0000304
:101A30004FF000024FF000019EE72DE9C0489346A9
:101A400030B491E8380007C831EA400C48BF34EAA6
:101A5000430C03D5FFF7F2FDFFF78CFFF0BCBDE8A8
:101A600000882DE9C048934630B491E8380007C893
:101A700010F0804F08BF13F0804F03D100F005F83D
:101A8000FFF778FFF0BCBDE8008820F07F4780EAD0
:101A9000030023F07F4C07EB0C03A3F57C5300F00D
:101AA0000040A3F1FE0392F0000F00F0B38095F028
:101AB000000F00F077802DE901494FEA11404FEA0D
:101AC000144621EA004800FB06FC24EA064708FB0E
:101AD00006F607FB08F800FB07F718EB06484CEB87
:101AE000164C4FEA124B18EB07484FEA15464CEBE1
:101AF000174022EA0B4E0BFB06FC25EA06470EFBBD
:101B000006F607FB0EFE0BFB07F71EEB064E4CEB33
:101B1000164C4FF000061EEB074E4CEB174B18EB24
:101B20000B0840F1000018EB0E0B58EB000840F1D9
:101B300000008F1A4FF000013CBFC943661B14BF61
:101B4000B5EB040C00213CBFC943F61B4FEA174418
:101B50004EEA8E0E27EA04454FEA1C4704FB076253
:101B60002CEA074C05FB07F70CFB05F604FB0CFC05
:101B700016EB074642EB174216EB0C4642EB1C42B3
:101B80001BEB060658EB0202414146EA9E0601D5D0
:101B9000BDE80189B619524141EB0101A3F10103EE
:101BA000BDE801894FEA14454FEA114724EA05468A
:101BB00021EA074C05FB07F406FB07F70CFB06F1CF
:101BC00005FB0CFC11EB074144EB17444FEA1247AD
:101BD00011EB0C4144EB1C4422EA074C05FB07F2D5
:101BE00006FB07F70CFB06F605FB0CFC16EB07469D
:101BF00042EB174216EB0C4642EB1C456A1854F1B7
:101C0000000148BF7047B619524141EB0101A3F1F1
:101C10000103704795F0000F37D04FEA11424FEAA9
:101C2000144721EA024624EA074C02FB07F106FBAF
:101C300007F70CFB06F402FB0CFC14EB074441EB2A
:101C400017414FEA154714EB0C4441EB1C4125EAC0
:101C5000074C02FB07F506FB07F70CFB06F602FB39
:101C60000CFC16EB074645EB174516EB0C4645EB0F
:101C70001C42121951F1000148BF7047B619524178
:101C800041EB0101A3F1010370474FEA14454FEA0C
:101C9000114724EA054621EA074C05FB07F106FB3C
:101CA00007F70CFB06F24FF0000605FB0CFC12EBED
:101CB000074241EB174112EB0C4251EB1C4148BF6C
:101CC0007047921841EB0101A3F101037047000036
:101CD0001CB50121242000F069FC0121880300F0DB
:101CE00095FC012000908DF8040000208DF806007E
:101CF00003208DF8050002208DF8070069460D4885
:101D000000F0E9FA01200C49086040200090002012
:101D10008DF8040003208DF8050002208DF80700DF
:101D20006946064800F0D7FA4FF4E13001F0D0F9E7
:101D30001CBD000000080240800241420014024025
:101D40000025002400261EA0FEF7F8FA37E0002048
:101D500000F05CFB0546022D02D10EB100F0B2F896
:101D600000F054F81B48006868B101261A48007852
:101D7000B0B901201849087000201849087018A04F
:101D8000FEF7DCFA0CE000261448007840B9012088
:101D90001249087000201049087016A0FEF7CEFA0C
:101DA000601CC4B2142C07D100240A48903000688B
:101DB000C0431549C1F8A8020A2001F0A3F8C6E7FC
:101DC0000D0A4B4559313AB7A2CBCDCAFDBEDD0D48
:101DD0000A000000188242421F000020200000205C
:101DE0000D0A626C6520636F6E6E656374210D0A67
:101DF000000000000D0A626C6520646973636F6EF9
:101E00006E656374210D0A000080424270B50025A2
:101E100000242048008800F40040002839D01D48E4
:101E20000088C0F30E0400201B490855194908809A
:101E30001AA0FEF783FA00BF0DE000BF402118484A
:101E400000F0F6FE0028F9D01348415D144800F078
:101E5000BAFF681C85B2A542EFDB12A10E48FEF75F
:101E6000B9FB28B1082C03D100201149086009E012
:101E700010A10948FEF7AEFB20B1092C02D10120C8
:101E80000B49086021460448FEF7D5FB0CA0FEF77D
:101E900055FA70BD0200002080020020523A000076
:101EA000001001402B4C4544303A4F4E00000000DA
:101EB000A48242422B4C4544303A4F464600000033
:101EC0000D0A000010B50B4801780BA001F07EF858
:101ED000084801780DA0FEF731FA06480078401C4A
:101EE0000449087008460078FF2801D100200870D6
:101EF00010BD00001E00002041544B2D424C4530C7
:101F00003120544553542025640D0A00533A204192
:101F1000544B2D424C4530312054455354202564B8
:101F20000D0A000000B58FB000206E49086010E077
:101F30000A226DA16EA000F087FF00B910E0694889
:101F4000001D0068C0436C49C1F8A802642000F07D
:101F5000D9FF052269A166A000F076FF0028E7D12D
:101F600000BF052267A168A000F06EFF10B967A04E
:101F7000FEF7E4F967A26AA102A8FEF7EBF90A22CC
:101F800060A102A800F060FF20B902A967A0FEF7D7
:101F9000D5F903E002A968A0FEF7D0F95DA269A116
:101FA00002A8FEF7D7F90A2256A102A800F04CFFBA
:101FB00020B902A95DA0FEF7C1F903E002A95EA065
:101FC000FEF7BCF9062262A102A8FEF7C3F90A22B5
:101FD0004CA102A800F038FF20B902A953A0FEF7D7
:101FE000ADF903E002A954A0FEF7A8F901200021F1
:101FF00008234FF4E132CDE9001058A102A8FEF702
:10200000A9F90A223FA102A800F01EFF20B902A9E7
:1020100046A0FEF793F903E002A947A0FEF78EF968
:10202000052253A102A8FEF795F90A2235A102A8BC
:1020300000F00AFF20B902A93CA0FEF77FF903E0F7
:1020400002A93DA0FEF77AF90A222EA14CA000F0C9
:10205000FBFE18B94FA0FEF771F902E053A0FEF79E
:102060006DF90A2227A158A000F0EEFE18B959A078
:10207000FEF764F902E05CA0FEF760F90A2221A1F4
:102080005FA000F0E1FE18B962A0FEF757F902E088
:1020900067A0FEF753F90A221AA16DA000F0D4FE42
:1020A00018B96FA0FEF74AF902E072A0FEF746F9F0
:1020B000532276A102A8FEF74DF90A2211A102A827
:1020C00000F0C2FE20B902A918A0FEF737F903E01C
:1020D00002A919A0FEF732F90120024908600FB0E9
:1020E00000BD0000A48242424552524F52000000FF
:1020F0002B2B2B610000000000804242612B6F6B94
:10210000000000004F4B0000415400004154204F9C
:102110004B0D0A0041544B2D424C4530310000001C
:1021200041542B4E414D453D257300002573202021
:102130004F4B0D0A00000000257320204552524FDE
:10214000520D0A0041542B48454C4C4F3D2573001D
:1021500041542B54504C3D256400000041542B55F4
:102160004152543D25642C25642C25642C256400A3
:1021700041542B41445054494D3D2564000000001A
:1021800041542B4C494E4B50415353454E3D4F46C5
:102190004600000041542B4C494E4B50415353458F
:1021A0004E3D4F464620204F4B0D0A0041542B4CCC
:1021B000494E4B50415353454E3D4F4646202045D6
:1021C00052524F520D0A000041542B4C4544454E8B
:1021D0003D4F4E0041542B4C4544454E3D4F4E2003
:1021E000204F4B0D0A00000041542B4C4544454EF6
:1021F0003D4F4E20204552524F520D0A0000000024
:1022000041542B534C415645534C454550454E3D4A
:102210004F46460041542B534C415645534C45457F
:1022200050454E3D4F464620204F4B0D0A000000C2
:1022300041542B534C415645534C454550454E3D1A
:102240004F464620204552524F520D0A00000000D2
:1022500041542B4D41585055543D4F4646000000C7
:1022600041542B4D41585055543D4F464620204F28
:102270004B0D0A0041542B4D41585055543D4F468B
:102280004620204552524F520D0A000041542B4D1A
:102290004F44453D2563000004A0FEF74FF8FFF7CB
:1022A00017FDFFF73FFEFFF74BFD00000D0A4154FD
:1022B0004B2D424C453031C4A3BFE920CAD6BBFAEE
:1022C000CDA8D0C5CAB5D1E90D0A0D0A000000009D
:1022D00000BFFEE77047F0B50A4600210023002446
:1022E00000BF3DE0012505FA01F3156805EA030486
:1022F0009C4234D105684F000326BE40B5430560BB
:1023000015794E00B5400668354305601579012DF5
:1023100002D01579022D16D185684F000326BE40E4
:10232000B543856055794E00B54086683543856074
:10233000456801268E40B5434560456896798E40D4
:10234000B6B235434560C5684F000326BE40B5436D
:10235000C560D5794E00B540C6683543C560491C97
:102360001029BFD3F0BDF0B5002300244D07ED0EBA
:1023700002FA05F3CE1000F1200555F826504E075D
:10238000F70E0F26BE40B543CF1000F1200646F8E9
:102390002750CE1000F1200555F8265045EA0304D9
:1023A000CE1000F1200545F82640F0BD0246002081
:1023B00013690B400BB1012000E00020704701833E
:1023C000704700BFFEE700001CB50121112000F09E
:1023D000EDF81C20009000208DF8040003208DF8FB
:1023E000050001208DF8070069460648FFF773FFD6
:1023F0000120009002208DF8070069460248FFF78F
:102400006AFF1CBD001002400000024010B50446E7
:1024100014B101202C4908702B480078002837D0CF
:1024200010212A48FFF7C2FF78B108212748FFF79B
:10243000BDFF50B104212548FFF7B8FF28B10121A5
:102440002348FFF7B3FF012822D10A2000F05AFDEC
:1024500000201D49087010211C48FFF7A7FF08B98C
:10246000012010BD08211948FFF7A0FF08B902207C
:10247000F7E704211548FFF799FF08B90320F0E7B3
:1024800001211348FFF792FF01281BD10420E8E740
:1024900010210E48FFF78AFF012813D108210B48AD
:1024A000FFF784FF01280DD104210848FFF77EFFC4
:1024B000012807D101210648FFF778FF10B9012054
:1024C000014908700020CCE7000000200010024005
:1024D000000002401CB50121202000F067F84FF4F5
:1024E000C060009001208DF8040000208DF80600E7
:1024F00003208DF8050001208DF807006946044887
:10250000FFF7E9FE4FF4C0610148FFF758FF1CBD1B
:102510000014024000BFFEE77047000070B50021C4
:1025200000230F22C4781CB3174C246804F4E06421
:10253000C4F5E064C4F30721C1F10404E3B20A4125
:1025400044789C40E1B28478144021430C07210E6A
:102550000E4C05786155047804F01F050124AC4049
:1025600005786D11AD0005F1E025C5F8004109E0E1
:10257000047804F01F050124AC40054D067876115F
:1025800045F8264070BD00000CED00E000E400E0DE
:1025900080E100E002490143024A116070470000F7
:1025A0000000FA050CED00E07047000029B1064A72
:1025B00012680243044B1A6004E0034A1268824323
:1025C000014B1A60704700003038024029B1064ABA
:1025D00012680243044B1A6004E0034A1268824303
:1025E000014B1A60704700004038024029B1064A8A
:1025F00012680243044B1A6004E0034A12688243E3
:10260000014B1A60704700002038024029B1064A89
:1026100012680243044B1A6004E0034A12688243C2
:10262000014B1A60704700004438024029B1064A45
:1026300012680243044B1A6004E0034A12688243A2
:10264000014B1A607047000024380240F0B50021A9
:1026500000220024022500260223324F3F6807F0A3
:102660000C0121B1042905D0082937D105E02E4FEE
:10267000076036E02D4F076033E02A4F3F1F3F6869
:10268000C7F38056274F3F1F3F6807F03F036EB1E7
:10269000264FB7FBF3F7DFF88CC0ACF1040CDCF885
:1026A00000C0CCF3881C07FB0CF40CE01E4FB7FBFA
:1026B000F3F7DFF870C0ACF1040CDCF800C0CCF329
:1026C000881C07FB0CF4174F3F1F3F68C7F30147F7
:1026D0007F1C7D00B4FBF5F7076002E0124F076036
:1026E00000BF00BF0F4F3F6807F0F0010909104F0E
:1026F0007A5C0768D74047600A4F3F6807F4E051AB
:10270000890A0B4F7A5C4768D7408760054F3F685E
:1027100007F46041490B064F7A5C4768D740C760B1
:10272000F0BD0000083802400024F40000127A00D6
:102730000E000020704700000CB5002001900090B2
:102740003448006840F480303249086000BF3148A6
:10275000006800F4003000900198401C019000983F
:1027600018B90198B0F5A04FF1D12A48006800F4DB
:10277000003010B10120009001E00020009000988E
:10278000012846D123484030006840F0805021495C
:10279000403108602048006840F440401E4908600D
:1027A0001C48083000681B4908310860084600686A
:1027B00040F4004008600846006840F4A0500860FB
:1027C0001648091F0860081F006840F08070091F44
:1027D000086000BF0F48006800F000700028F9D0C2
:1027E00040F205700E4908600A480830006820F081
:1027F00003000849083108600846006840F00200FC
:10280000086000BF03480830006800F00C0008288A
:10281000F8D10CBD00380240007000400854400759
:10282000003C0240042808D14FF0E021096941F042
:1028300004014FF0E022116107E04FF0E021096947
:1028400021F004014FF0E022116170477047000051
:1028500010B51548006840F470001349086013482B
:10286000006840F001001149086000200F4908315C
:1028700008600E4800680E4908400C4908600D4881
:10288000091D0860081F006820F48020091F0860E7
:10289000002006490C310860FFF74EFF4FF0006042
:1028A00001498039086010BD88ED00E00038024021
:1028B000FFFFF6FE1030002410B50121094800F09A
:1028C0004EF868B10121074800F03AF80648008840
:1028D00040F40040044908800021024800F033F829
:1028E00010BD000000140040020000207FB5054626
:1028F0000C4601212020FFF769FE0195ADF800404C
:102900000020ADF80800ADF8020069460B4800F061
:1029100043F801221146094800F032F837208DF8BB
:102920000C0000208DF80D0001208DF80E008DF8B0
:102930000F0003A8FFF7F2FD7FBD00000014004068
:10294000CA430282704721B1028842F0010202802C
:1029500004E002884FF6FE731A400280704730B5DB
:102960000246002000230024158A05EA0103958908
:1029700005EA010413B10CB1012000E0002030BDD4
:102980001AB183890B43838102E083898B4383815E
:10299000704741627047000000220288184B98423D
:1029A0000ED0184B98420BD0B0F1804F08D0164B88
:1029B000984205D0154B984202D0154B984204D14D
:1029C0004FF68F731A404B881A43124B984207D028
:1029D000114B984204D04FF6FF431A400B891A431B
:1029E00002804B68C3620B880385054B984202D076
:1029F000044B984201D18B7A03860123838270476E
:102A000000000140000401400004004000080040B4
:102A1000000C0040001000400014004010B540F2CF
:102A200025511D4800F011F910B31B4800F0C6F9FC
:102A3000C4B21A48008800F40040C8B9174800889A
:102A400000F4804060B10A2C03D0002013490880B4
:102A500020E01248008840F400401049088019E046
:102A60000D2C06D10D48008840F480400B490880A9
:102A700010E00A480088C0F30D0009490C540748CB
:102A80000088401C0549088008460088C72801DDE9
:102A90000020088010BD0000001001400C00002044
:102AA0009006002010B540F22551164800F0CDF8F0
:102AB00000B3144800F082F9C4B21348008800F44F
:102AC0000040B8B910480088B0F5806F13DA0021D3
:102AD0000E48FFF75EFF0C48008818B901210B482B
:102AE000FFF731FF084801880088401C064A108023
:102AF0000748445405E00448008840F40040024977
:102B0000088010BD00480040020000200014004072
:102B10008002002001F40072B2F5007F00D100BFF6
:102B2000CA430280704721B1828942F400528281F7
:102B300004E082894DF6FF731A40828170470000DD
:102B400010B504463248844208D101211020FFF715
:102B50006DFD00211020FFF769FD57E02D488442EC
:102B600009D101214804FFF741FD00214FF4003055
:102B7000FFF73CFD4AE02848844209D1012188043E
:102B8000FFF734FD00214FF48020FFF72FFD3DE0DB
:102B90002248844209D10121C804FFF727FD002102
:102BA0004FF40020FFF722FD30E01D48844209D198
:102BB00001210805FFF71AFD00214FF48010FFF7EF
:102BC00015FD23E01748844208D101212020FFF79A
:102BD0002DFD00212020FFF729FD17E01248844237
:102BE00009D101218807FFF701FD00214FF0804046
:102BF000FFF7FCFC0AE00D48844207D101214005A3
:102C0000FFF7F4FC00216005FFF7F0FC10BD0000A9
:102C1000001001400044004000480040004C0040CB
:102C2000005000400014014000780040007C00404B
:102C300002460020B1F5007F00D100BF13880B4091
:102C40000BB1012000E00020704770B5024600245F
:102C500000230025002040F66A16B14200D100BFD3
:102C6000C1F3421501F01F03012606FA03F3012DFB
:102C700002D19689334006E0022D02D1168A3340F4
:102C800001E0968A33400C12012606FA04F41688F5
:102C9000344013B10CB1012000E0002070BDF0B54C
:102CA0000346002400260025002040F66A17B9429A
:102CB00000D100BF1846C1F3421401F01F060127DE
:102CC00007FA06F5012C01D10C3004E0022C01D1E9
:102CD000103000E014301AB107682F43076002E09B
:102CE0000768AF430760F0BD2DE9FF4705460E4674
:102CF0000024A14600BFA046B08900B100BF2C8AC5
:102D000024F44054F08804432C82AC8941F20C60D6
:102D10008443B08831890843718908430443AC81F6
:102D2000AC8A24F44074B0890443AC826846FFF74F
:102D30008DFC2048854202D01F48854202D1DDF833
:102D40000C9001E0DDF80890A88900F4004040B143
:102D500009EBC90000EB091031684900B0FBF1F73D
:102D600007E009EBC90000EB091031688900B0FBEE
:102D7000F1F76420B7FBF0F004012009642101FBA6
:102D80001078A88900F4004040B1322000EBC80060
:102D9000B0FBF1F000F00700044308E0322000EB44
:102DA00008106421B0FBF1F000F00F0004432C8107
:102DB000BDE8FF87001001400014014001468888EB
:102DC000C0F308007047C1F308028280704700BF5B
:102DD000FEE703B401984100009850EAC12018BFF3
:102DE00004204A0D18BF40F0010040F2FF72B2EB20
:102DF000515F08BF40F00200012808BF052002B063
:102E0000704730380A2801D20120704700207047EF
:102E100000BF704770B5044600250948008800F4DB
:102E2000004058B1002006490988C1F30E01054A47
:102E3000505421461046FDF7CDFB0546284670BD8F
:102E400002000020800200202DE9F04104460E46D9
:102E500015460027002018490880FF2C0AD800BF1B
:102E60001648008800F040000028F9D01349091DD9
:102E70000C8003E0214612A000F0A8F8C6B1BDB155
:102E80000FE00A2000F03EF80B48008800F40040F4
:102E900038B13046FFF7BEFF18B100200649088060
:102EA00003E0681E80B2051EEBD100BF05B9012703
:102EB0003846BDE8F08100000200002000480040D4
:102EC00025730D0A0000000010B504466FF00400E1
:102ED000FFF7A8FCE11704EB5171C1F3C701074AE2
:102EE00011701046007800EB4001C1EBC0104FF6A6
:102EF000FF7101EAC0000249088010BD04000020F3
:102F00000600002070B504464FF4077094FBF0F003
:102F1000C6B24FF4077094FBF0F100FB114085B28C
:102F200005E04FF4077000F009F8701EC6B2002EDD
:102F3000F7D115B1284600F001F870BD0146114ADD
:102F400012884A434FF0E0235A6100229A611A46E0
:102F5000126942F001021A6100BF4FF0E0221069CD
:102F600000F001021AB100F48032002AF5D04FF0CF
:102F7000E022126922F001024FF0E0231A610022E0
:102F80009A6170470600002000BF054A128802F0CF
:102F90004002002AF9D0C2B2014B9A80704700006B
:102FA0000010014010B54FF4A060FFF7F3FAA8201D
:102FB000FFF78AFF4FF4E13000F030F8FFF78AFAAC
:102FC000FFF702FAFFF768F9002010BD0FB438B51B
:102FD00005A800900F48009A0499FDF79DF900207C
:102FE00000900C48FDF708FB85B200240DE000BFFF
:102FF00040210948FFF71CFE0028F9D00548015D73
:103000000548FFF7E0FE601C84B2AC42EFDB38BC41
:103010005DF814FB280000200048004010B588B07F
:10302000044601210846FFF7C1FA01211020FFF7ED
:10303000EDFA072209212448FFF795F907220A2112
:103040002148FFF790F94FF4C060069002208DF8F8
:103050001C008DF81D0000208DF81E0001208DF849
:103060001F0006A91848FFF736F902940020ADF8B2
:103070000C00ADF80E00ADF81000ADF814000C20F7
:10308000ADF8120002A91148FFF72EFE01210F48EA
:10309000FFF749FD40210D48FFF73CFD012240F2BA
:1030A00025510A48FFF7FBFD25208DF80400032079
:1030B0008DF805008DF8060001208DF8070001A8A5
:1030C000FFF72CFA08B010BD0000024000100140CC
:1030D0003EB5044601210220FFF768FA0121880469
:1030E000FFF774FA2848FFF72BFD07220B2127482A
:1030F000FFF739F907220A212448FFF734F94FF482
:103100004060009002208DF804008DF8050000203A
:103110008DF8060001208DF8070069461B48FFF76F
:10312000DAF81B480460002019498880C8800881AB
:1031300088810C2048811448FFF7D6FD01211248F0
:10314000FFF7F1FC012240F225510F48FFF7A7FDE0
:1031500027208DF8080002208DF8090003208DF843
:103160000A0001208DF80B0002A8FFF7D7F942F200
:10317000CF016320FFF7BAFB002006490880002139
:103180000548FFF7E0FB3EBD004800400004024058
:1031900080060020020000200014004010B5002925
:1031A0000AD00878002807D005487844FEF794F93B
:1031B000002801D0002010BD0248784410BD000056
:1031C0007A0100007201000010B500290AD00878C9
:1031D000002807D005487844FEF77EF9002801D082
:1031E000002010BD0248784410BD00006A010000B4
:1031F000620100004FF04070E1EE100A7047FDF7E9
:103200008EBDFDF7C3BE04000008000000000000F2
:10321000000200010000100000000000000000009B
:1032200030313233343536373839414243444546FC
:1032300040305800303132333435363738396162F6
:103240006364656640307800303132333435363768
:1032500038396162636465667870003031323334C6
:10326000353637383941424344454658500000000E
:1032700002400000000000A0000000000540000027
:10328000000000C8000000000C4000000000409C4E
:1032900000000000194000000020BCBE000000003B
:1032A00034400000BFC91B8E00000004B540000080
:1032B000504BCFD06607E2CF010000006C41000008
:1032C0003E8251AADFEEA73401000000D94200007F
:1032D000DCB5A0E23A301F97FFFFFFFFB4450000C6
:1032E000FD25A0C8E9A3C14FFFFFFFFFFF3F00007E
:1032F0000000008000000000FF3F00000000008090
:1033000000000000503400080000002024000000ED
:10331000C40100087434000824000020940D00004B
:10332000E00100081C00000043000000F8FFFFFF60
:103330000C0000000E0000000F0000002E00000036
:103340001001000043000000F8FFFFFF0040404074
:103350004040404040404141414141404040404068
:103360004040404040404040404040404005020214
:1033700002020202020202020202020202202020D3
:10338000202020202020200202020202020290902F
:10339000909090901010101010101010101010102D
:1033A0001010101010101010020202020202888881
:1033B000888888880808080808080808080808088D
:1033C0000808080808080808020202024000000075
:1033D00000000000000000000000000000000000ED
:1033E00000000000000000000000000000000000DD
:1033F00000000000000000000000000000000000CD
:1034000000000000000000000000000000000000BC
:1034100000000000000000000000000000000000AC
:10342000000000000000000000000000000000009C
:10343000000000000000000000000000000000008C
:10344000000000000000000000000000000000007C
:10345000010000000000000000000000000000006B
:10346000000001020304010203040607080900002A
:043470000000000058
:040000050800018965
:00000001FF
