:020000040800F2
:1000000010090020CD010008CB1800084F18000887
:10001000C9180008690300084D1B00080000000013
:10002000000000000000000000000000CF180008E1
:100030006B03000800000000CD180008D11800086C
:10004000E7010008E7010008E7010008E7010008F0
:10005000E7010008E7010008E7010008E7010008E0
:10006000E7010008E7010008E7010008E7010008D0
:10007000E7010008E7010008E7010008E7010008C0
:10008000E7010008E7010008E7010008E7010008B0
:10009000411B0008E7010008E7010008E70100082C
:1000A000E7010008E7010008E7010008E701000890
:1000B000E7010008E7010008E7010008E701000880
:1000C000E7010008E7010008E7010008E701000870
:1000D000E7010008151B0008E7010008E701000818
:1000E000E7010008E7010008E7010008E701000850
:1000F000E7010008E7010008E7010008E701000840
:10010000E7010008E7010008E7010008E70100082F
:10011000E7010008E7010008E7010008E70100081F
:10012000E7010008E7010008E7010008E70100080F
:1001300000F002F800F03AF80AA090E8000C8244BF
:100140008344AAF10107DA4501D100F02FF8AFF29C
:10015000090EBAE80F0013F0010F18BFFB1A43F0A5
:1001600001031847CC210000EC210000103A24BF05
:1001700078C878C1FAD8520724BF30C830C144BF0C
:1001800004680C607047000000230024002500264E
:10019000103A28BF78C1FBD8520728BF30C148BFEA
:1001A0000B6070471FB51FBD10B510BD00F096F86D
:1001B0001146FFF7F7FF01F013FD00F0C8F803B494
:1001C000FFF7F2FF03BC01F0D2FC000009488047B2
:1001D00009480047FEE7FEE7FEE7FEE7FEE7FEE729
:1001E000FEE7FEE7FEE7FEE704480549054A064B41
:1001F000704700002D19000831010008100300208D
:100200001009002010050020100500207047000094
:100210000FB4044910B503AA029800F031F810BCDD
:100220005DF814FB2C0000204FF0000200B51346CF
:1002300094469646203922BFA0E80C50A0E80C5006
:10024000B1F12001BFF4F7AF090728BFA0E80C50B7
:1002500048BF0CC05DF804EB890028BF40F8042BB0
:1002600008BF704748BF20F8022B11F0804F18BF1D
:1002700000F8012B704770477047704770470000C7
:10028000074B70B50D467B4400F011F80446284634
:1002900000F020F810B14FF0FF3070BD204670BD67
:1002A000E718000001694A1C02610878704700B530
:1002B0008FB0CDE901310021059105497944CDE99F
:1002C00003101146684600F02EF80FB000BD000084
:1002D000E5FFFFFF007B00F080007047754600F0EF
:1002E0003FF8AE4605006946534620F007008546B4
:1002F00018B020B5FFF778FFBDE820404FF00006AA
:100300004FF000074FF000084FF0000B21F00701FD
:10031000AC46ACE8C009ACE8C009ACE8C009ACE840
:10032000C0098D4670472DE9F04106460024D6E904
:100330000170F5688046304603E04146B847641CCA
:100340003046A8470028F8D12046BDE8F08110B516
:100350000446AFF300802046BDE81040FFF72FBFF2
:1003600000487047AC020020FEE7704772B602A05A
:10037000FFF74EFFFEE700004552524F5221210D7C
:100380000A00000090F82020012A07D0022A05D098
:10039000416A41F48021416201207047006842694E
:1003A0000A43426100207047F0B590F8205004687D
:1003B000A468012D05D0022D03D0416A41F48021AB
:1003C00053E014F0406F01D1E5004BD5C4F3016454
:1003D000022C03D9416A41F4000146E00125A54001
:1003E0001D608D684FF4C0739DB1CE6835434E6873
:1003F00045EAC605066803EB0417F5514FF4C275CC
:10040000076805EB04150E697E51097D012905D0A9
:1004100009E00E88CD6845EA4655EBE701684E597C
:1004200046F480764E511179D2F805504FF4C676D5
:1004300041EA0525016806EB04168D511178D2F8C2
:1004400001204FF4C47541EA0221026805EB04154E
:100450005151006803EB0411425842F0010242502E
:100460000020F0BD416A41F4001141620120F0BD5D
:1004700010B590F820300268012B07D0022B05D070
:10048000416A41F480214162012010BDD2F800028E
:1004900040F00100C2F80002087D00F01F030120B7
:1004A0009840D2F81C328343C2F81C32CB69B3B9EE
:1004B000D2F80C328343C2F80C328C894B6864F357
:1004C0001F434C6902EBC404C4F840320C890B682A
:1004D00064F31F434C6902EBC404C4F84432CB6993
:1004E000012B16D1D2F80C320343C2F80C320C881F
:1004F0004B6864F31F434C6902EBC404C4F84032F8
:100500000C89CB6864F31F434C6902EBC404C4F844
:1005100044328B69002BD2F804320FD053EA000327
:10052000C2F804320B69002BD2F8143208D003430E
:10053000C2F81432096A012904D008E08343EFE7C6
:100540008343F5E7D2F81C120143C2F81C12D2F81B
:10055000000220F00100C2F80002002010BD704728
:1005600030B590F82040012C05D0022C03D0416A10
:1005700041F480215DE00468002955D02469A40776
:1005800054D04FF4D874056804EB01142D5915F0BC
:100590000405956005682D594ED0ED085560056835
:1005A0002C5904F00204D4604FF4DA74056804EBAB
:1005B00001142D5905F00F05156105682D59C5F376
:1005C0000725956105682C59240C54614FF4DC72A1
:1005D000046802EB0112A4581C700468A458240A91
:1005E0005C700468A458240C9C700468A258120E15
:1005F000DA704FF4DE72046802EB0112A4581C7129
:100600000468A458240A5C710468A458240C9C71E2
:100610000468A258120EDA71006881B1016941F0D4
:1006200020010161002030BDE468A8E7416A41F47F
:1006300000114162012030BD6D0D1560AFE7C1684A
:1006400041F02001C160EDE72DE9F05F054600684B
:1006500000244669D0F804908768D0F80CB0D0F830
:1006600010A0D0F81880F10748D0F90714D0012164
:100670008160B80703D5284600F02BFA0CE0780714
:1006800002D54FF4006407E0380702D54FF48054D8
:1006900002E0284600F01CFAF80516D529684FF448
:1006A00080708860B80503D5284600F014FA0CE085
:1006B000780502D544F4005407E0380502D544F427
:1006C000804402E0284600F005FAF80316D52968B0
:1006D0004FF480308860B80303D5284600F0FDF958
:1006E0000CE0780302D544F4004407E0380302D557
:1006F00044F4803402E0284600F0EEF9300707D5D4
:100700005FEACB6004D52968102044F40074C86007
:1007100070074FF0080707D55FEA0B7004D528680B
:10072000C760284600F05AF9B00706D52868C068A7
:10073000800702D0284600F053F9700607D55FEA1B
:10074000CA6004D52968102044F480640861B006AA
:1007500007D55FEA0A7004D528680761284600F0CB
:1007600087F9F00606D528680069800702D0284678
:1007700000F07FF9B00308D55FEAC96005D52968A4
:1007800010204860284600F075F9F00307D55FEAAD
:10079000097004D528684760284600F09FF93004A6
:1007A00046D55FEA497040D5F00504D55FEAC870C8
:1007B00001D044F00104B00504D55FEA887001D58A
:1007C00044F00204700504D55FEA487001D544F096
:1007D0000404300529D518F0700F26D008F07000F9
:1007E000402815D006DC102809D020280AD030284F
:1007F00016D10AE050280ED0602811D10EE044F046
:1008000008040DE044F010040AE044F0200407E07E
:1008100044F0400404E044F0800401E044F48074B7
:100820002868816921F0700181612968042048608D
:10083000002C05D0686A204368622846FFF78FFEC7
:10084000BDE8F09F70B5040003D094F8200010B10B
:1008500004E0012070BD204600F082F820680168A5
:1008600041F00101016000F003FB0546052604E0AC
:1008700000F0FEFA401B0A2811D820684068C00723
:10088000F6D02068016821F00201016000F0F0FA62
:1008900005460BE000F0ECFA401B0A2806D9606A16
:1008A00040F40030606284F82060D2E7206840683D
:1008B0008007EFD4207E0128206801683DD021F018
:1008C00080010160607E01282068016838D021F035
:1008D00040010160A07E01282068016833D021F02A
:1008E00020010160E07E0128206801682ED041F0DF
:1008F00010010160207F01282068016829D021F0C3
:1009000008010160607F01282068016824D021F07F
:1009100004010160D4E902010843D4E9041211433F
:1009200008436168491E08432168C861002060626D
:10093000012084F82000002070BD41F08001C0E754
:1009400041F04001C5E741F02001CAE721F0100164
:10095000CFE741F00801D4E741F00401D9E70000F6
:1009600010B586B0002100910191029103910068B9
:10097000174988422AD11748C16941F00071C16105
:10098000C16901F000710491816941F00401816144
:100990008069114C00F0040004904FF40060009056
:1009A0006946204600F068F9A014009002200190EA
:1009B000032003906946204600F05EF901221146AB
:1009C000142000F0BFFA142000F0AEFA06B010BDFB
:1009D0000064004000100240000801407047000021
:1009E00070B51E4B1E4A00211E48FFF7B9FD08B125
:1009F000FFF7BCFC1A480068A0F50071013905D06A
:100A0000012903D0022901D003291FD1401E164C11
:100A1000C0B200EB40012070144D01EBC00005EBAB
:100A20008000816A4A1C32290C49826202D801F096
:100A3000D1F801E001F0A8F8207800EB400101EBCB
:100A4000C00005EB8000054901F09EF805480068EC
:100A5000416941F00201416170BD00000C000020BD
:100A60001801002030000020240000203401002064
:100A7000704770477047000070B5044690F820003A
:100A8000012804D0606A40F40020606218E002206F
:100A900084F820002068016821F00101016000F065
:100AA000E7F905460EE000BF00F0E2F9401B0A2816
:100AB00008D9606A40F400306062052084F82000A4
:100AC000012070BD20684068C007EDD1606270BD34
:100AD000704770477047704770477047704710B550
:100AE00090F821100022022905D00421816380F8AA
:100AF0002020012010BD01680B6823F00E030B605D
:100B000001680B6823F001030B6090F84030C46B60
:100B1000012101FA03F3636080F8211080F820209E
:100B2000104610BD2DE9F05F90F821100024022935
:100B300003D004218163012485E001680A6822F062
:100B40000E020A6001680A6822F001020A603F4E44
:100B50003E4FB215DFF8F4C0DFF8F090DFF8ECA0FC
:100B6000DFF8E8B0DFF8E4E00168783F1301150230
:100B7000ACF1640CA9F15009AAF13C0AABF1280BC5
:100B8000AEF1140E4FF48018B14227D9B9420ED0FD
:100B9000614512D049451DD0514518D0594518D04E
:100BA000714501D1424615E0294EB14201D10122E1
:100BB00010E0274E1436B14201D110220AE0244E33
:100BC0002836B14206D0224A3C32914201D11A461F
:100BD00000E02A461E49091F0A602BE0B94213D0E3
:100BE000614517D0494522D051451DD059451DD0EA
:100BF000714501D142461AE0B14202D14FF08072F4
:100C000015E0134EB14201D1012210E0104E14360E
:100C1000B14201D110220AE00D4E2836B14206D071
:100C20000B4A3C32914201D11A4600E02A4607495C
:100C300080394A60012180F82110002180F82010BD
:100C4000416B01B188472046BDE8F09F800002401B
:100C50000804024070B5044600F00AF90546601C1D
:100C600002D004480078044400F002F9401BA0427E
:100C7000FAD370BD140000202DE9F84FDFF8C891B9
:100C8000002409F1040A0AF1040B23460F270BF193
:100C9000040ED1E00125A54006EA0502AA4276D15C
:100CA000DFF8A8C14E68A6EB0C0866452BD00DDC1A
:100CB000032E34D005DC36B3012E19D0022E2FD1ED
:100CC0001BE0112E16D0122E2AD119E0B8F5881F7C
:100CD00019D006DCB8F5803F15D0B8F5801F1FD1BC
:100CE00011E0B8F5001F0ED0B8F5041F18D10AE0C6
:100CF000CB6815E0CB681B1D12E0CB6808330FE012
:100D0000CB680C330CE08B682BB1012B4FF0080340
:100D100003D0456104E0042302E0056100E0002304
:100D2000FF2A01D8064601E000F104064FEA8405D7
:100D300001D9A5F12005D6F8008007FA05FC28EABC
:100D40000C0803FA05F548EA0508C6F800804D6866
:100D5000ED0070D53E4DAE6946F00106AE61AD695D
:100D600024F0030605F0010500953A4D06EB050C4D
:100D7000DCF80850A607360F07FA06F825EA08053A
:100D8000DFF8D480404503D14FF0000825E052E061
:100D9000DFF8C880404502D14FF001081DE0DFF8C0
:100DA000C080404502D14FF0020816E0DFF8B48061
:100DB000404502D14FF003080FE0DFF8AC8040451A
:100DC00002D14FF0040808E0DFF8A080404502D1CE
:100DD0004FF0050801E04FF0060808FA06F848EA67
:100DE0000508CCF808804D68D9F80060ED034D4641
:100DF00001D5164300E096432E604D68DAF8006096
:100E0000AD03554601D5164300E096432E604D686C
:100E1000DBF80060ED025D4601D5164300E0964325
:100E20002E604D68DEF80060AD02754601D51643B0
:100E300000E096432E60641C0A681646E2407FF488
:100E400029AFBDE8F88F0000000401400000111038
:100E5000001002400000014000080140000C014069
:100E6000001001400014014000180140001C014026
:100E70000148806870470000140000200248816823
:100E8000027811448160704714000020074810B5B3
:100E9000016841F010010160052000F073F80F2097
:100EA00000F006F800F024F8002010BD00200240F9
:100EB00070B50D4D04464FF47A712878B1FBF0F00F
:100EC0000A490968B1FBF0F000F0EAFA48B9102CC1
:100ED00007D200222146501E00F034F800206C603A
:100EE00070BD012070BD0000140000202000002013
:100EF0000B4808B5816941F001018161816901F008
:100F000001010091C16941F08051C161C06900F0E7
:100F1000805000900348416821F0E061416008BDC5
:100F20000010024000000140002809DB00F01F0211
:100F3000012191404009800000F1E020C0F800113B
:100F400070470000F0B40E4B1B680C46C3F302233D
:100F5000C3F10705042D00D90425191D072901D265
:100F6000002300E0DB1E012606FA05F1491E2140A0
:100F700099409E40761E16403143F0BC00F0E7BD1C
:100F80000CED00E0064900F0070208684FF6FF0389
:100F9000184040EA0220034A1043086070470000EE
:100FA0000CED00E00000FA052DE9F0470F460500C2
:100FB00061D0434E306800F00700B84209D2306873
:100FC00020F0070038433060306800F00700B84276
:100FD00051D128683B4C810712D5400703D5606882
:100FE00040F4E06060602878000703D5606840F452
:100FF000605060606068A96820F0F000084360609D
:101000002878C00728D06868012810D021680228F5
:1010100010D0890700292EDA616821F0030101430D
:101020006160FFF725FF804641F288390DE02168B5
:101030008903EFE78901EDE7FFF71AFFA0EB08014D
:10104000494502D90320BDE8F0876068696800F06F
:101050000C00B0EB810FEFD1306800F00700B84210
:101060000BD9306820F0070038433060306800F05A
:101070000700B84201D00120E5E72878400705D5F0
:101080006068E96820F4E060084360602878000741
:1010900006D56068296920F4605040EAC1006060AC
:1010A00000F038F86168084AC1F30311515CC84088
:1010B0000649086006480068FFF7FAFE0020C2E70C
:1010C00000200240001002401623000820000020EB
:1010D000180000200448054900684968044AC1F323
:1010E0000221515CC84070472000002000100240DF
:1010F000262300080448054900684968044AC1F3EA
:10110000C221515CC84070472000002000100240FE
:101110002623000812A185B00FC98DE80F0014A086
:10112000144A006804905168134801F00C03042B22
:1011300010D0082B0ED1C1F38343C9031DF803005F
:101140000AD5516804AAC1F34041515C0A4A504390
:10115000B0FBF1F005B0704708494843FAE70000DA
:1011600002030405060708090A0B0C0D0E0F1010E8
:10117000010200000010024000127A0000093D0048
:101180002DE9F84F040070D02078C04DC00749D039
:101190006868C0F38100012807D06868C0F3810047
:1011A000022809D16868C00306D52868800339D5AC
:1011B00060680028E7D035E06068B0F5803F0BD06C
:1011C00010B1B0F5A02F11D0286820F4803028602D
:1011D000286820F4802002E0286840F480302860ED
:1011E000606890B1FFF744FE06460AE0286840F4C4
:1011F00080202860F0E700BFFFF73AFE801B6428DC
:1012000073D828688003F7D50CE0FFF731FE064657
:1012100005E000BFFFF72CFE801B6428F0D828688B
:101220008003F7D420789A4E80074FF001094FF0E1
:10123000000839D5686810F00C0F07D06868C0F353
:101240008100022809D16868C00306D42868800795
:1012500014D52069012808D110E02069B0B1C6F882
:101260000090FFF705FE074605E00AE1FFF700FEE4
:10127000C01B0228C4D828688007F7D52868616990
:1012800020F0F80040EAC10028600DE0C6F80080B8
:10129000FFF7EEFD074604E0FFF7EAFDC01B02285A
:1012A00023D828688007F7D4207800072CD5794800
:1012B000A169D9B1C0F80090FFF7DAFD074604E054
:1012C000FFF7D6FDC01B02280FD8686A8007F7D544
:1012D00071484FF4FA510068B0FBF1F0009000BF84
:1012E0000098411E0091FAD20EE080E0C0F8008024
:1012F000FFF7BEFD074604E0FFF7BAFDC01B02285A
:1013000075D8686A8007F7D42078400760D5E86907
:101310000027C00008D4E86940F08050E861E8691F
:10132000012700F0805000905C480168C90513D483
:101330000168834641F480710160FFF799FD8246A0
:1013400006E000BFFFF794FDA0EB0A0064284ED82A
:10135000DBF80000C005F5D5E06801280AD008B127
:10136000052813D0286A20F001002862286A20F09E
:10137000040002E0286A40F001002862E06841F2BF
:10138000883B98B1FFF774FD82460BE0286A40F075
:1013900004002862EEE700BFFFF76AFDA0EB0A0138
:1013A00059455AD8286A8007F6D50CE0FFF760FD4A
:1013B000824605E0FFF75CFDA0EB0A0159454CD8D9
:1013C000286A8007F6D41FB1E86920F08050E861F0
:1013D000E06988B36968C1F38101022944D0022819
:1013E000C6F8608004D0FFF743FD044638E034E0DF
:1013F000FFF73EFD074604E0FFF73AFDC01B022859
:101400002BD828688001F7D4206AB0F5803F05D139
:101410006868A16820F4003008436860D4E90801D6
:101420000843696821F4741108436860C6F8609045
:10143000FFF71EFD044606E025E000BFFFF718FD9C
:10144000001B022809D828688001F7D51BE000BFDF
:10145000FFF70EFD001B022802D90320BDE8F88F1C
:1014600028688001F4D40EE00128F7D06868226A69
:1014700000F48031914204D1616A00F47010884216
:1014800001D00120EAE70020E8E700000010024058
:1014900000004242800442422000002000700040D0
:1014A00010B5401EB0F1807F01D3012010BD4FF078
:1014B000E02460610F21601700F049FB0020A0616B
:1014C00007202061002010BD7047704710F83D1FB5
:1014D0004078084370470000F8B502680446106879
:1014E000D168536910F00F0F4FF0000553D003F08F
:1014F000010601F4907737435FD0C20705D0CA05D3
:1015000003D5226C42F001022264420705D5DA07B6
:1015100003D0226C42F002022264820705D5DA076A
:1015200003D0226C42F004022264020707D501F0C6
:101530002002324303D0226C42F008022264226C63
:10154000002A34D0800604D5880602D5204600F053
:101550000EFA20684069216CC0F38010090700D49E
:1015600030B3204600F0EBF92068416949061BD5ED
:10157000416921F040014161A06BA8B15849416324
:10158000A06BFFF7CFFA002811D0A06B416B01B020
:10159000BDE8F040084783060FD58B060DD52046E1
:1015A000BDE8F84000F0E3B92046FFF78EFFF8BD34
:1015B0002046FFF78AFF2564F8BD266B2023012E05
:1015C00052D1C60650D5CE064ED510685068009050
:1015D000506940062AD5A16B086840680004000CD9
:1015E000EAD0A68D8642E7D9E0858869202818D000
:1015F000D06820F48070D0602068416921F001013A
:1016000041612068416921F04001416184F83E3028
:1016100025632068C16821F01001C160A06BFFF74D
:101620005EFAA08DE18D401A81B219E0A08DE18DA6
:10163000401A81B2E08D0028BED00029BCD0D0680D
:1016400020F49070D0602068426922F0010242616B
:1016500084F83E3025632068C26822F01002C26020
:101660002046FFF731FFF8BD05062BD50D0629D51D
:1016700094F83D002128F6D1A068B0F5805F01D133
:101680002069B0B1206A411C21622168007848605D
:10169000E08C401E0004000CE084E4D12068C168A6
:1016A00021F08001C1602068C16841F04001C16043
:1016B000F8BD206A0088C0F308005060206A801CD2
:1016C0002062E5E74006F3D54806F1D5D16820460B
:1016D00021F04001D16084F83D3000F0B7F8F8BD4A
:1016E0002F19000870B5040004D094F83D000025BF
:1016F00010B106E0012070BD84F83C50204600F097
:1017000023F8242084F83D002068C16821F40051AA
:10171000C160204600F086F92068016921F49041FB
:1017200001612068416921F02A0141612068C16896
:1017300041F40051C1602564202084F83D0084F804
:101740003E00002070BD000030B585B0002400943C
:101750000194029403940068184988422CD11848D7
:10176000816941F480418161816901F48041049182
:10177000816941F0040181618069124D00F004002B
:1017800004904FF400700090022001900320039019
:1017900069462846FFF770FA2815CDE90004694626
:1017A00028460294FFF768FA032211462520FFF726
:1017B000C9FB2520FFF7B8FB05B030BD003801405C
:1017C000001002400008014090F83E30202B0ED15E
:1017D00059B152B190F83C30012B08D0012380F868
:1017E0003C300023036300F079B9012070470220E8
:1017F0007047000030B50068114988420CD111488B
:1018000041880A0408D402464C0412784FF00003C1
:1018100006D50A2A01D0438030BD41F400410DE0D5
:101820000D2A09D0C1F30D04074D491C89B22A5570
:101830004180C729EFD830BD41F48041418030BD9F
:101840000038014026000020E40100207047FEE738
:1018500030B51C488BB01A49016002210024C0E950
:1018600001148904C0E903414FF4E00141610476A9
:10187000012545768576C47604774477FEF7E2FF46
:10188000C8B903940E200494CDE90850CDE906456B
:10189000059400940194029469460A48FEF7E8FD15
:1018A00048B90848FFF7E8F828B902210548FEF7CB
:1018B00069FD002801D0FEF759FD0BB030BD0000D6
:1018C0000064004030000020FEE7FEE770477047EC
:1018D000FFF7D4BA30B58FB028216846FEF7A4FCD4
:1018E00014210AA8FEF7A0FC01210804CDE900108C
:1018F0000024029402250491CDE907504FF4E01032
:1019000009906846FFF73CFC60B90F20CDE90A0555
:101910006802CDE90C4002210AA80E94FFF744FBAF
:10192000002801D0FEF722FD0FB030BD704710B582
:10193000406A0021C185C184FFF7C7FD10BD016861
:10194000CA6822F49072CA6001684A6922F00102F2
:101950004A61016B012904D10168CA6822F01002B2
:10196000CA60202180F83E1000210163704708B54D
:1019700090F83E10222901D0022008BD82684FF461
:1019800080539A4201D1016921B1816A9A421BD0E8
:101990004AB10AE00268816A5268C2F308020A800A
:1019A000816A891C08E0026972B10268526802F01B
:1019B0007F020A70816A491C8162C18D491E090437
:1019C000090CC18503D019E002685268F1E701688B
:1019D000CA6822F02002CA600168CA6822F48072D4
:1019E000CA6001684A6922F001024A61202180F838
:1019F0003E10016B012903D0FFF7FCFE002008BD5B
:101A0000002101630168CA6822F01002CA600168FF
:101A10000A68D20602D50A6849680091818DFFF7ED
:101A200053FDEBE770B5044600680169E26821F4F4
:101A30004051114301612169A0680843616908436D
:101A40002168CA6841F20C639A430243CA60206865
:101A50004169A26921F44071114341611E49206826
:101A6000884202D1FFF746FB01E0FFF733FB00EBB2
:101A7000C00101EB0012606864218000B2FBF0F34A
:101A8000B3FBF1F36FF018067343B2FBF0F5B2FB52
:101A9000F0F605EB8305322303EB0515B5FBF1F5F5
:101AA000B6FBF1F605F0F00505EB0615B2FBF0F616
:101AB000B2FBF0F0B0FBF1F06FF01802504306EB10
:101AC000800003EB0010B0FBF1F0216800F00F0084
:101AD0002844886070BD0000003801408162828522
:101AE000C28500210164222280F83E2080F83C104B
:101AF0000168CA6842F48072CA6001684A6942F0AB
:101B000001024A610068C16841F02001C160002003
:101B10007047000010B50848FFF7DEFC0648FFF7E5
:101B2000D5FC2028FAD1012204490348FFF74CFED6
:101B30000028F8D110BD0000580000202600002029
:101B40000148FEF781BD000030000020FEE70907D4
:101B5000090E002804DB00F1E02080F80014704733
:101B600000F00F0000F1E02080F8141D704770476E
:101B700004490A685206FCD5024AC1B2121D11601E
:101B8000704700000038014030B5048944810A885C
:101B90006FF0040552BA02814B885BBA4380038020
:101BA0008B885BBA1BB293FBF5F3838089798171D3
:101BB000131B0169B3F5805F01DD491E03E013F5D6
:101BC000805F01DA491C016102EB41318289891A87
:101BD000416130BD098849BA0181818170470000A7
:101BE00088B0FFF753F9FFF775FE2E48816941F081
:101BF00004018161806900F004000090FFF728FE75
:101C00002A482949002401604FF4E131C0E9011458
:101C10000C21C460C0E904418461C461FFF762FD26
:101C200008B1FEF7A3FB214800F02EF91F4D5C35EB
:101C3000284600F0C5F81F491D48CDE90341CDE90C
:101C400005041D4900914FF4FA50CDE90140AE6DF5
:101C5000164841F2883501212B464FF480425C3012
:101C6000B0476800CDE900041049144B4431029498
:101C70001A1DA1F16C00039400F0DAF810A0FEF731
:101C8000C7FA00BF0949CDE900540C4B4431029416
:101C90001A1DA1F16C00039400F0CAF80120FEF7B0
:101CA000D9FFEFE700100240003801405800002043
:101CB0009A99193E000020410000A0400000002039
:101CC0002B2B2B2B2B2B2B2B2B2B2B2B2B2B2B2B64
:101CD0002B2B2B2B2B2B2B2B2B2B2B2B2B2B2B2B54
:101CE0002B2B2B2B2B2B2B2B2B2B2B2B2B2B2B2B44
:101CF0002B2B2B2B2B00000070B50446C06C0D461F
:101D00002065FFF7B5F8E06494F85010401A84F8A5
:101D10005400A561E0692062206B60632946606819
:101D200000F084FAE061B0F5000F01DA80F00040C5
:101D3000216C00F049FA41D2E569E068294600F0DB
:101D400077F960622946206900F072F9A16A00F013
:101D5000A1F8A06206462846216A00F067FA616988
:101D600000F066F9E0623046E16B00F02DFA01D236
:101D7000E06BA062E06BA16A80F0004000F024FA02
:101D800003D2E06B80F00040A062D4E9090100F0CA
:101D900081F8E16A00F07EF82063A16B00F014FA8C
:101DA00001D2A06B2063A06B216B80F0004000F09B
:101DB0000BFA03D2A06B80F000402063206B70BD53
:101DC000034981650349C165034901667047000005
:101DD000DD1D0008271E0008F91C00082DE9FF5F23
:101DE0009B4610AB044693E8E005DDE90E902170B8
:101DF00000F0D6F8C4E91090584600F0D1F8E0633E
:101E0000029800F0CDF8A063284600F0B1F8A06475
:101E1000304600F0ADF86060002020630C3484E8A8
:101E20008005BDE8FF9F0C3080E80E007047000081
:101E30002DE9F0414FF40077DDE90840DDE9066562
:101E40000F6000278F60CF6008270F61370A177077
:101E500056702E0A9670D570250A15715471040AB1
:101E60009471D0710548FEF79FFA002804D0BDE8B0
:101E7000F04103A0FEF7CCB9BDE8F08130000020AE
:101E80004552524F520D0A0001220149FFF79CBCF6
:101E90002600002090EA010F48BF81F0004100F1C8
:101EA000CC81421A3CBF801A89184FEAD0524FF0B9
:101EB0007F4C1CEA410FA2EBD15318BF9CEA026F82
:101EC00000F03B804FF0004C4CEA00204CEA01212E
:101ED00021FA03FC10EB0C0C1ED202F1FF325FEA78
:101EE0001C2040EBC25038BF70471CF07F0F4FEAF8
:101EF000400C18BFBCF17F4F38BF7047C3F12003BF
:101F0000994008BF20F00100BCF17F4F38BF7047F7
:101F1000A0F1C04000F053B94FEA3C00000A40EB8A
:101F2000C25028BF1CF0FF0F4FEA400CE6D018BF8C
:101F3000BCF17F4F38BF7047EAE79CEA026F05D0DB
:101F400010EA5C0F08BF00F00040704710B500F0C9
:101F5000F0F800BF64FBBE3E401058BFC0F14040E7
:101F6000491058BFC1F140418142EFF300807047F2
:101F700010F0004148BF4042B0FA80F310FA03F27B
:101F8000C3F19D030BD051EAC35101EB122053065C
:101F900038BF704700F1010008BF20F00100704712
:101FA000B0FA80F310FA03F2C3F19D030AD0D90509
:101FB00001EB1220530638BF704700F1010008BF43
:101FC00020F001007047000050EA010C00F113807E
:101FD0001CF5000F58BFBCF5000F01D488427047B4
:101FE00007D710F5000F58BF11F5000F15D4884220
:101FF0007047894270471CF5000F04D5BCF5000FEF
:10200000F7D5814270474FF0807C1CEB400F38BF02
:102010001CEB410F01D28142704710B500F089F8E6
:10202000922449004FF000504FF08051FFF794BFC9
:102030004FF47F0C1CEAD0121EBF1CEAD11392EAA7
:102040000C0F93EA0C0F00F0478090EA010F48BF95
:1020500042F480724FF0004C4CEA00204CEA01211F
:1020600002EB0302A0FB0113A2F50002002918BF36
:1020700043F001035B0028BF4FEA330342EB2242E7
:102080005FEA132C4CEBC2502EBFBCEB436FB2F592
:102090007C0F70474FEA036CBCF1004F08BF20F083
:1020A0000100B2F57C0F38BF70470BD582F0FF02FC
:1020B00012F5803FC8BF704700F1C040D8BF00F0A4
:1020C0000040704700F5000C5FEA4C0C48BF7047B9
:1020D000B0F1C04000F073B890EA010F0CEAD113E0
:1020E00048BF42F48072624538BF634504D280EA3B
:1020F000010000F00040704710B500F01AF800BF72
:102100008900013E00F007B800F009B85FEA410C11
:102110005FEA1C6C08D080EA010000F050B85FEA6A
:10212000400C5FEA1C6CF6D14FF00040A0F5800037
:1021300070470EF1020E2EF0030E5EF8044B24429F
:1021400004D44FEA4102B2F17F4F11D84FEA400365
:10215000B3F17F4F0CD80ED14FEAD07CB2F17F4F54
:102160000CEB4C0C0CF1020C08BF4CEBD17C04E0E6
:102170004FF0080C01E04FEAD17C0CEB4C0324FA41
:1021800003F404F00704B4F1040C06D20EEB840C43
:10219000BDE810404CF0010C6047DFE80CF0070888
:1021A00002024FF00040A0F5800010BD084642003A
:1021B00018BFD2F1807288BF00F0004010BDFF212F
:1021C00041EAD050C005704751EA000C00F113807D
:1021D0001CF5000F58BFBCF5000F01D481427047B9
:1021E00007D711F5000F58BF10F5000F15D4814225
:1021F0007047894270471CF5000F04D5BCF5000FED
:10220000F7D5884270474FF0807C1CEB410F38BFF8
:102210001CEB400F01D28842704780EA010081EA3E
:10222000000180EA0100FFF7F8BE000090EA010F0C
:1022300048BF81F000413FF534AE421A04D882F025
:102240000042A0EB020011444FEAD0524FF07F4C05
:102250001CEA410FA2EBD15318BF9CEA026F4AD08F
:102260004FF0004C4CEA00204CEA012121FA03FC1B
:10227000B0EB0C0C0FD412F0FE0F36D05FEA4C001E
:102280001DD5001240EBC25038BF70471CF03F0F05
:1022900018BF70470BE0A2F101025FEA1C2040EB7F
:1022A000C25038BF70471CF07F0F18BF7047C3F192
:1022B0002003994014BF401E20F0010070478008A1
:1022C0004FEA122308BF7047B0FA80FCA2EB0C0261
:1022D000CCF1280C60FA0CF093EA122F04BF00EB4B
:1022E000C25070474FEAC3707047130A5FEADC10B0
:1022F00008BF7047F6E79CEA026F04D010EA5C0F53
:1023000008BF0020704710B5FFF713FF40DFF63E0F
:1023100081F0004070470000000000000000010252
:10232000030406070809000000000102030400007E
:102330005023000800000020300000006C0100085D
:102340008023000830000020E00800008801000819
:10235000000000000000000000000000000000007D
:10236000000000000100000010000000000000005C
:102370000024F40000000000000000000000000045
:0400000508000131BD
:00000001FF
