:020000040800F2
:10000000E82B00209D0100087717000881160008E2
:1000100075170008330700081D1B000800000000CA
:100020000000000000000000000000007B17000836
:100030003507000800000000791700087D17000848
:10004000B7010008B7010008B7010008B7010008B0
:10005000B7010008B7010008B7010008B7010008A0
:10006000B7010008B7010008B7010008B701000890
:10007000B7010008B7010008B7010008B701000880
:10008000B7010008B7010008B7010008B701000870
:10009000B7010008B7010008B7010008B701000860
:1000A000B7010008B7010008B7010008B701000850
:1000B000B7010008B7010008B7010008B701000840
:1000C000B7010008B7010008B7010008B701000830
:1000D000B7010008051B0008B7010008111B000844
:1000E000B7010008B7010008B7010008B701000810
:1000F000B7010008B7010008B7010008B701000800
:10010000B7010008B7010008B7010008B7010008EF
:10011000B7010008B7010008B7010008B7010008DF
:10012000B7010008B7010008B7010008B7010008CF
:10013000B7010008B7010008B7010008B7010008BF
:10014000B7010008B7010008B7010008B7010008AF
:10015000B7010008B7010008B7010008B70100089F
:10016000B7010008B7010008B7010008B70100088F
:10017000B7010008B7010008B7010008000000003F
:10018000B7010008B7010008DFF80CD000F050FA02
:10019000004800474D240008E82B0020064880470F
:1001A00006480047FEE7FEE7FEE7FEE7FEE7FEE75C
:1001B000FEE7FEE7FEE7FEE71518000889010008E4
:1001C0002DE9F05F0546002092469B46884606468C
:1001D000814640241BE0284641464746224600F01F
:1001E0005EF853465A46C01A914110D3114618463C
:1001F000224600F045F82D1A67EB01084F462246CB
:100200000120002100F03CF817EB00094E41201EB0
:10021000A4F10104DFDC484631462A464346BDE8E6
:10022000F09FD2B201E000F8012B491EFBD27047CB
:100230000022F6E710B513460A4604461946FFF7B2
:10024000F0FF204610BD421C10F8011B0029FBD115
:10025000801A704730B50B46014600202022012449
:1002600009E021FA02F59D4205D303FA02F5491B84
:1002700004FA02F52844151EA2F10102F1DC30BD9A
:10028000202A04DB203A00FA02F100207047914056
:10029000C2F1200320FA03F3194390407047202A4B
:1002A00004DB203A21FA02F00021704721FA02F320
:1002B000D040C2F1200291400843194670472DE911
:1002C000FE4F804681EA0300C00F0C46009021F0EB
:1002D000004123F00045B8EB0200A94105D2404699
:1002E000214690461C460B46024623F00040104330
:1002F00047D0270DC7F30A00C3F30A510290401AF2
:10030000019040286BDAC3F3130040F4801B00987F
:10031000924620B10023D2EB030A63EB0B0B01984A
:100320005946C0F140025046FFF7AAFF06460D4667
:1003300050465946019A00F08DF910EB08006141D2
:10034000002487EA115284EAE7731A4340D0009AE6
:1003500062B3019A012A4FEA075215DC001B61EBD8
:1003600002014FF0004202EA0752CDE90042001CB0
:1003700041F5801132462B4600F08DF903B0BDE8FF
:10038000F08F40462146F9E7001B61EB0201001C9B
:1003900041F5801300185B412018A2F5001747EBC8
:1003A000030140EAD570B6196D4111E06D084FEABE
:1003B000360645EAC0754FEA0752001B61EB0201A1
:1003C000001C41F5801149084FEA300000195141E5
:1003D00032462B4603B0BDE8F04F00F04DB900980F
:1003E000012240000023D0EB020263EBE07300988F
:1003F00021464FEAE074B8EB000061EB0401E9E745
:1004000083F000435BE781F0004158E72DE9FE4FA0
:1004100081EA030404F0004421F0004100944FF00D
:10042000000B23F0004350EA01045ED052EA0304BB
:100430005BD0C3F30A54C1F30A552C44A4F2F3343D
:100440000194A0FB0254C1F3130141F48011C3F3E2
:10045000130343F4801301FB024400FB034E840AA0
:10046000970A44EA815447EA8357A4FB0768029538
:100470008D0A05FB07854FEA932C04FB0C542705D6
:10048000029D4FEA065847EA1637B5EB08056EEBB2
:10049000070C870E920E47EA811742EA8312A7FBE8
:1004A0000201B6EB0B0164EB00042B0D43EA0C33A5
:1004B0005E1844EB1C50DA465146E7FB0201C5F3D7
:1004C00013044FEA0B3343EA14534FEA0432019CFE
:1004D00043EA0603A4F10C040294009CCDE900B4A5
:1004E00000F0D9F803B0BDE8F08F00200146F9E72D
:1004F0002DE9F04D81EA030404F0004B21F00045A2
:1005000014464FF0000A23F0004150EA050220D0C3
:1005100054EA01021DD0C5F30A570246C5F313037E
:10052000C1F31300C1F30A5640F4801543F480135D
:10053000A7EB0608101BD64608F2FD3873EB050042
:1005400002D308F1010801E092185B41B8F1000FF5
:1005500003DA00200146BDE8F08D00204FF4801141
:10056000064684460EE0171B73EB050705D3121BE6
:1005700063EB050306434CEA010C49084FEA3000DF
:1005800092185B4150EA0107EDD152EA030012D004
:1005900082EA040083EA0501084305D0101BAB4141
:1005A00006D20122002306E000224FF0004302E0C1
:1005B0006FF0010253101AEB06004CEB085110EBE0
:1005C0000A0041EB0B01BDE8F04D00F055B8C1F356
:1005D0000A52C1F3130140F2FF3341F480119A42F1
:1005E00002DA00200146704740F233439A42A2F2F9
:1005F000334202DC5242FFF752BEFFF741BE000019
:1006000030B5041E71F1000404DB4FF00044404299
:1006100064EB0101141E73F1000405DB1C464FF06E
:100620000043524263EB0403994208BF904230BD3D
:10063000064C074D06E0E06840F0010394E807002F
:1006400098471034AC42F6D3FFF7A2FDB824000857
:10065000D8240008202A06DBCB17203A41FA02F002
:1006600043EAE07306E041FA02F3D040C2F120020F
:10067000914008431946704710B5141E73F10004E9
:1006800008DA401C41F1000192185B411A4301D184
:1006900020F0010010BD2DE9F04D92469B4611B1AE
:1006A000B1FA81F202E0B0FA80F220329046FFF710
:1006B000E7FD04460F4640EA0A0041EA0B015346B3
:1006C0005A46084313D0114653EA010019D0C8F125
:1006D00040025046FFF7E3FD05460E465046594698
:1006E0004246FFF7CDFD084305D0012004E0204637
:1006F0003946BDE8F08D0020054346EAE0762C43FC
:1007000037430A986305E40AA0EB08000022FD0ABB
:1007100044EA47540A3002D500200146E9E70105C2
:1007200010196941DDE9084500196941BDE8F04D3E
:10073000A2E7FEE7704772B6FEE72DE9F0410446F6
:10074000876D00F053F9064694F83500002502281D
:1007500006D08020606584F834500120BDE8F08127
:100760002068016821F0160101602068416921F0CC
:1007700080014161206C08B9A06C20B1206801683B
:1007800021F0080101602068016821F00101016089
:100790000CE000F02BF9801B052807D920206065AC
:1007A000032084F8350084F83450D7E720680068C7
:1007B000C007EED194F85C103F208840B86001205B
:1007C00084F8350084F834500020C7E790F83510DD
:1007D000022903D08021416501207047052180F85E
:1007E00035100068016821F00101016000207047A8
:1007F0002DE9F84FDFF8BCA10022012503264FF0B8
:100800000F090AF1040BAAF1040E00BF0B6805FAE8
:1008100002F42340A34270D10F7907F00307012FA0
:1008200001D0022F16D187684FEA420806FA08FC69
:1008300027EA0C07D1F80CC00CFA08FC4CEA070CAC
:10084000C0F808C04768A7430C79C4F3001494406B
:100850003C4344600C79E443A4070AD0C4684FEADF
:10086000420C06FA0CF7BC438F6807FA0CF72743D3
:10087000C7600C7904F00304022C12D1D40800EBF9
:10088000840CDCF820405707FF0E09FA07F824EA29
:100890000804D1F8108008FA07F848EA0408CCF8F0
:1008A000208004684FEA420C06FA0CF7BC430F792B
:1008B00007F0030707FA0CF7274307604C6814F4A6
:1008C000403F70D03C4C276847F48047276024683D
:1008D00022F0030704F480440094384C07EB040C26
:1008E000DCF8084897074FEA177809FA08F7BC437D
:1008F000334FB84202D1002724E054E0314FB842D0
:1009000001D101271EE0304FB84201D1022719E082
:100910002E4FB84201D1032714E02D4FB84201D128
:1009200004270FE02B4FB84201D105270AE02A4FD8
:10093000B84201D1062705E0284FB84201D1072768
:1009400000E0082707FA08F72743CCF80878DAF818
:1009500000405746D1F804C09C435FEACC2C00D538
:100960001C433C60DBF800405F46D1F804C09C4368
:100970005FEA8C2C00D51C433C60DEF800407746D3
:10098000D1F804C09C435FEA8C3C00D51C433C601A
:10099000084F083F3C68D1F804C09C435FEACC3C58
:1009A00000D51C433C60521C102AFFF42FAFBDE859
:1009B000F88F0000083C01404438024000300140FC
:1009C000000002400004024000080240000C024007
:1009D000001002400014024000180240001C0240B7
:1009E0000AB1816170470904FBE700000148806893
:1009F000704700003C0000200248816802781144E2
:100A0000816070473C0000200B4810B5016841F43C
:100A100000710160016841F480610160016841F486
:100A200080710160032000F06FF80F2000F006F8DD
:100A300000F024F8002010BD003C024070B50D4DC0
:100A400004464FF47A712878B1FBF0F00A4909683E
:100A5000B1FBF0F000F00AFB48B9102C07D20022DD
:100A60002146501E00F030F800206C6070BD01205F
:100A700070BD00003C000020480000200A4808B576
:100A8000016841F480410160006800F480400090FA
:100A90000548001F016841F080510160006800F0C6
:100AA0008050009008BD000044380240002809DB57
:100AB00000F01F02012191404009800000F1E02078
:100AC000C0F8001170470000F0B40E4B1B680C46D4
:100AD000C3F30223C3F10705042D00D90425191D12
:100AE000072901D2002300E0DB1E012606FA05F1EA
:100AF000491E214099409E40761E16403143F0BC6D
:100B000001F01EB80CED00E0064900F0070208688D
:100B10004FF6FF03184040EA0220034A10430860E2
:100B2000704700000CED00E00000FA052DE9F047E9
:100B30000E46050065D0DFF81481D8F80000F7B242
:100B400000F00700B04207D288F80070D8F8000023
:100B500000F00700B04254D128683D4C810712D5FF
:100B6000400703D5206840F4E05020602878000753
:100B700003D5206840F4604020602068A96820F018
:100B8000F000084320602878C0072DD030496868FD
:100B90000839012812D0022813D0032811D009687F
:100BA000890700292DDA216821F003010143216022
:100BB000FFF71CFF814641F2883A0EE0096889037D
:100BC000EFE709688901ECE7FFF710FFA0EB0901E7
:100BD000514502D90320BDE8F0872068696800F01C
:100BE0000C00B0EB810FEFD1D8F80010404601F0B7
:100BF0000701B14207D90770006800F00700B04252
:100C000001D00120E7E72878400705D52068E9688A
:100C100020F4E050084320602878000706D52068BB
:100C2000296920F4604040EAC100206000F038F8F3
:100C30002168084AC1F30311515CC84006490860A5
:100C400006480068FFF7FAFE0020C4E7003C0240B7
:100C500008380240A024000848000020400000207E
:100C60000448054900680968044AC1F38221515CBF
:100C7000C84070474800002008380240B0240008EF
:100C80000448054900680968044AC1F34231515CCF
:100C9000C84070474800002008380240B0240008CF
:100CA000154810B5006810F00C02144813D041101C
:100CB000042A0FD0082A0ED10F4C241F2268236863
:100CC00002F03F025B0207D52068C0F38810A0FB4A
:100CD000010106E0084610BD2168C1F38811A1FB9F
:100CE00000010023FFF76CFA2168C1F30141491CA0
:100CF0004900B0FBF1F010BD083802400024F400B8
:100D00002DE9F84F04006ED02078DFF84C93C0072F
:100D1000A9F104054AD009F104000168C1F3810179
:100D2000012908D00068C0F3810002280AD1D9F84F
:100D30000000400206D52868800337D56068002887
:100D4000E1D033E06068B0F5803F10D0B0F5A02F5F
:100D5000286810D020F480302860286820F4802093
:100D600028606068A8B1FFF741FE06460DE02868DC
:100D700040F48030F4E740F480202860F7E700BFBB
:100D8000FFF734FE801B642873D828688003F7D5EA
:100D90000CE0FFF72BFE064605E000BFFFF726FE3E
:100DA000801B6428F0D828688003F7D42078DFF807
:100DB000AC8280074FF0000A3ED5A748001D0168AD
:100DC00011F00C0F08D00068C0F3810002280BD18D
:100DD000D9F80000400207D42868800716D5E068DB
:100DE000012800D112E033E1E068B8B10120C8F871
:100DF0000000FFF7FBFD064605E000BFFFF7F6FD2C
:100E0000801B0228C0D828688007F7D52868216988
:100E100020F0F80040EAC10028600DE0C8F800A00A
:100E2000FFF7E4FD064604E0FFF7E0FD801B022823
:100E30001FD828688007F7D42078000722D5864F6E
:100E400087486169703771B101210160FFF7CEFDFC
:100E5000064604E0FFF7CAFD801B022809D838685F
:100E60008007F7D50EE0C0F800A0FFF7BFFD0646EB
:100E700005E082E0FFF7BAFD801B02287DD83868C4
:100E80008007F7D42078400768D5DFF8CCB1002779
:100E90000BF13C0BDBF80000C0000BD4DBF80010BA
:100EA00041F08051CBF80010DBF80000012700F082
:100EB000805000906B4E3068C00510D4306840F40C
:100EC00080703060FFF792FD009005E0FFF78EFD27
:100ED0000099401A022850D83068C005F6D55E4EF9
:100EE000A0686C3601280FD00528306810D020F09B
:100EF00001003060306820F004003060A068B8B1B4
:100F0000FFF774FD00900FE0306840F00100F4E757
:100F100040F004003060F7E7FFF768FD0099411AE0
:100F200041F28830814266D830688007F4D50EE0FF
:100F3000FFF75CFD009007E0FFF758FD0099411AAC
:100F400041F28830814256D830688007F4D42FB1FE
:100F5000DBF8001021F08051CBF80010A069C8B375
:100F60003D49091D0968C1F3810102294AD00228BF
:100F7000504607D0C8F8600000E03CE0FFF736FDBF
:100F800004463BE04746C8F86000FFF72FFD0646E1
:100F900005E000BFFFF72AFD801B02282BD8286838
:100FA0008001F7D4D4E907010843A16A2E4A490811
:100FB00002EB0141626A41EA8211084394F82C1065
:100FC00040EA0161C9F8001001203866FFF70EFD04
:100FD000044606E03EE000BFFFF708FD001B0228C4
:100FE00009D828688001F7D534E000BFFFF7FEFC80
:100FF000001B022802D90320BDE8F88F2868800171
:10100000F4D427E00128F7D0D9F80000E26900F411
:10101000800191421CD1226A00F03F01914217D118
:1010200047F6C071626A0140B1EB821F10D1A26A1B
:101030004FF0FF3300F4403103EB5202B1EB024FAB
:1010400006D194F82C1000F07060B0EB016F01D065
:101050000120D1E70020CFE70438024000004742DA
:10106000800E4742007000400000FFFF10B5401E98
:10107000B0F1807F01D3012010BD4FF0E02460610A
:101080000F21601700F05CFD0020A06107202061A7
:10109000002010BD70477047F8B501680446086825
:1010A000CA684B6910F00F0F4FF0000559D003F0DC
:1010B000010602F49077374365D0C10705D0D1050A
:1010C00003D5216C41F001012164410705D5D90701
:1010D00003D0216C41F002012164810705D5D907B5
:1010E00003D0216C41F004012164010707D502F00F
:1010F0002001314303D0216C41F008012164216CAF
:1011000000293AD0800604D5900602D5204600F08A
:10111000B8FB20684069216CC0F38010090700D437
:1011200060B3204600F086FB20684069400621D568
:101130002068143050E8001F21F0400140E8001200
:10114000002AF5D1A06BA8B16C490165A06BFFF72F
:101150003DFB002811D0A06B016D01B0BDE8F0404F
:10116000084783060FD593060DD52046BDE8F84005
:1011700000F087BB2046FFF78EFFF8BD2046FFF743
:101180008AFF2564F8BD266B2023012E79D1C6067F
:1011900077D5D60675D50868486800904869400636
:1011A00040D5A16B086840680004000CEAD0A28D0D
:1011B0008242E7D9E085C869B0F5807F2DD02068EC
:1011C0000C3050E8001F21F4807140E80012002A22
:1011D000F5D12068143050E8001F21F0010140E8EB
:1011E0000012002AF5D12068143050E8001F21F0C9
:1011F000400140E80012002AF5D184F83E30256312
:1012000020680C3050E8001F21F0100140E8001267
:10121000002AF5D1A06BFFF790FAA08DE18D401A5E
:1012200081B229E0A08DE18D401A81B2E08D0028C5
:10123000A8D00029A6D020680C3050E8002F22F456
:10124000907240E80026002EF5D12068143050E856
:10125000002F22F0010240E80026002EF5D184F88C
:101260003E30256320680C3050E8002F22F0100239
:1012700040E80023002BF5D12046FFF70BFFF8BD17
:10128000FFE705062BD5150629D594F83D00212842
:10129000F5D1A068B0F5805F01D12069B0B1206AB6
:1012A000411C2162216800784860E08C401E0004E7
:1012B000000CE084E3D12068C16821F08001C160A6
:1012C0002068C16841F04001C160D8E7206A008809
:1012D000C0F308004860206A801C2062E5E74006F1
:1012E000CDD55006CBD5CA68204622F04002CA6050
:1012F00084F83D3000F0C3F9C1E70000251800086C
:1013000070B5040004D094F83D00002510B106E04B
:10131000012070BD84F83C50204600F023F82420C2
:1013200084F83D002068C16821F40051C160204666
:1013300000F008FB2068016921F4904101612068F8
:10134000416921F02A0141612068C16841F40051DE
:10135000C1602564202084F83D0084F83E00002010
:1013600070BD000070B586B0044614216846FEF7D3
:101370005FFF2B4E226800212A4802230324072501
:10138000B24222D1274A1432166846F0100616607F
:10139000126802F010020592026842F00102026037
:1013A000006802AA00F00100059082E832006002A5
:1013B000CDE9000369461C48FFF71AFA0022032111
:1013C0002520FFF781FB252025E0184EB24224D1CD
:1013D000144A1032166846F480261660126802F429
:1013E00080220592026842F002020260006802AAAE
:1013F00000F00200059082E832004FF44060CDE931
:10140000000369460A48FFF7F3F90022012127206B
:10141000FFF75AFB2720FFF749FB06B070BD00001D
:1014200000100140303802400000024000480040F7
:101430000004024090F83E30202B0ED159B152B139
:1014400090F83C30012B08D0012380F83C30002379
:10145000036300F0FDBA01207047022070470000CE
:101460002DE9F0473A4A01683A48002541F2883AA6
:1014700091422DD141680646491C374F4160327870
:101480007B18FF2A03F8012C1DD1804633A000F001
:1014900047FBB9460024474609E0214634A000F046
:1014A0003FFB19F8041038A000F03AFB641C786880
:1014B0008442F2DB51462848FEF7BAFE25487D609B
:1014C000123000F02DFB357001222249304839E0FE
:1014D000304A91423AD181681E4E491C761C2E4FEB
:1014E000816032787B18FF2A03F8012C25D18046D1
:1014F0002AA000F015FBB9460024474609E0214622
:101500002BA000F00DFB19F804101FA000F008FB41
:10151000641CB8688442F2DB51461F48FEF788FE1F
:101520000C48BD602430FEF78EFE0A4982B242F2BA
:1015300010732431244800F049F80649012222485A
:101540003570491CBDE8F047FFF774BFBDE8F08770
:1015500000100140000000204C0000205561727412
:10156000312052584C656E3D25640D0A0000000084
:1015700055415254312044617461427566665B2561
:10158000645D203D20000000307825780D0A0000C1
:101590005C27002000480040D4130020556172747D
:1015A000332052584C656E3D25640D0A0000000042
:1015B00055415254332044617461427566665B251F
:1015C000645D203D20000000A02700202DE9F843A5
:1015D000044690F83D001F4616460D4620284CD183
:1015E000C5B1BEB194F83C00012846D0012084F872
:1015F0003C004FF00008C4F84080212084F83D00F2
:10160000FFF7F4F9A6848146E684A068B0F5805F10
:1016100003D004E00120BDE8F883206928B12E46FC
:101620005FF0000584F83C800EE00026FAE7802198
:10163000204600F02AFAA0B9AEB116F8010B2168D5
:101640004860E08C401EE084E08C4B464FF0000286
:1016500000970028EBD14FF04001204600F015FA2A
:1016600030B10320D7E735F8020BC0F30800E6E7F6
:10167000202084F83D000020CDE70220CBE7704712
:10168000FEE7000070B586B014216846FEF7D0FD75
:101690001A480024016841F020010160016801F04E
:1016A00020010591016841F080010160016801F0AD
:1016B00080010591016841F002010160016801F0BB
:1016C00002010591016841F00101016000680C4EC2
:1016D00000F001004FF400750590002229463046C5
:1016E000FFF77EF901200095CDE9010469463046F7
:1016F0000394FFF77DF806B070BD0000303802405B
:10170000001402400C4810B50A4901604FF4E13161
:101710004160002181600C22C160C0E90412816136
:10172000C161FFF7EDFD002803D0BDE81040FFF7D1
:1017300002B810BD001001405C2700200C4810B515
:101740000A4901604FF4E1314160002181600C22BF
:10175000C160C0E904128161C161FFF7D1FD0028B9
:1017600003D0BDE81040FEF7E6BF10BD00480040C2
:10177000A0270020FEE7FEE770477047FFF73CB95F
:1017800030B593B030216846FEF752FD14210CA805
:10179000FEF74EFD1D480025016841F080510160B3
:1017A000006800F0805011901948016841F48041B0
:1017B00001600068022400F4804011900120009034
:1017C000000401908001CDE9064008AA0420A82168
:1017D00082E813000B906846FFF792FA08B172B6E0
:1017E000FEE70CA90F2081E831004FF4A0500F90C4
:1017F0004FF48050109005210CA8FFF797F90028AE
:1018000001D072B6FEE713B030BD00004038024090
:10181000007000400248016841F4700101607047A7
:1018200088ED00E010B5806B0021C185C184FFF711
:1018300032FC10BD01680C3151E8002F22F4907287
:1018400041E80023002BF5D10168143151E8002F45
:1018500022F0010241E80023002BF5D1016B0129A0
:1018600009D101680C3151E8002F22F0100241E843
:101870000023002BF5D1202180F83E1000210163C8
:10188000704708B590F83E10222901D0022008BD0B
:1018900082684FF480539A4201D1016921B1816A73
:1018A0009A421BD04AB10AE00268816A5268C2F3C8
:1018B00008020A80816A891C08E0026972B1026824
:1018C000526802F07F020A70816A491C8162C18DF0
:1018D000491E0904090CC18503D019E00268526849
:1018E000F1E70168CA6822F02002CA600168CA688C
:1018F00022F48072CA6001684A6922F001024A61DA
:10190000202180F83E10016B012903D0FFF7A8FDCC
:10191000002008BD0021016301680C3151E8002F4F
:1019200022F0100241E80023002BF5D101680A687B
:10193000D20602D50A6849680091818DFFF7AAFB9B
:10194000E6E7000070B5044600680169E26821F42A
:101950004051114301612169A068E269084361694E
:10196000114308432168CA6849F20C639A43024351
:10197000CA6020684169A26921F440711143416144
:1019800031492068884202D03049884202D1FFF7AD
:1019900077F901E0FFF764F9E26900231921642572
:1019A0003226B2F5004F626828D0A0FB0101930FE8
:1019B0009200FEF705FC0146B0FBF5F06FF018024F
:1019C000504301EB800006EB0010B0FBF5F000F097
:1019D000F002B1FBF5F002EB0012B1FBF5F06FF095
:1019E0001803584301EB800006EB0010B0FBF5F044
:1019F00000F00F0021681044886070BDA0FB010159
:101A000092185B41FEF7DCFB0146B0FBF5F00201EA
:101A1000B1FBF5F06FF01803584301EB800006EBC3
:101A2000C000B0FBF5F000F0F80002EB4002B1FBA3
:101A3000F5F0584301EB800006EBC000B0FBF5F079
:101A400000F00700D6E7000000100140001401403C
:101A500081628285C28500210164222280F83E20B5
:101A600080F83C10016921B10168CA6842F48072B3
:101A7000CA6001684A6942F001024A610068C168AF
:101A800041F02001C160002070472DE9F0419846E7
:101A900017460E460446069D27E0681C25D02DB14A
:101AA000FEF7A4FFA0EB0800A8421ED920680C3066
:101AB00050E8001F21F4D07140E80012002AF5D14F
:101AC0002068143050E8001F21F0010140E80012A6
:101AD000002AF5D1202084F83D0084F83E00002043
:101AE00084F83C000320BDE8F0812068006836EAF5
:101AF000000004D00020B842CFD00020F3E701203E
:101B0000F9E700000148FFF7C7BA00005C27002092
:101B10000148FFF7C1BA0000A0270020FEE700003F
:101B20000FB4054B10B503A9044A029800F0EAF877
:101B300010BC5DF814FB00003524000838000020BC
:101B40000907090E002804DB00F1E02080F80014EA
:101B5000704700F00F0000F1E02080F8141D70477E
:101B600002E008C8121F08C1002AFAD17047704766
:101B7000002001E001C1121F002AFBD170470000C4
:101B80002DE9FF5F82B00021DDE90430020DDDF8B0
:101B900040B0034318D044F61050A2F2FF32424343
:101BA0001514119801281FD0A5EB0B00401C5FEA0B
:101BB000000A4FF000064E4FDFF83891B04650460D
:101BC00015D5CAF1000413E0119801244AA3012895
:101BD00001D16FEA0B010298119AC0E90031C0E906
:101BE000024206B0BDE8F09FCBF10000DFE70446FB
:101BF0000021404A491842EB0450CDE9001012E0A0
:101C0000E00707D032463B4640464946FEF7FEFB1A
:101C10008046894632463B4610461946FEF7F6FB9B
:101C200006460F466410002CEAD1DDE90401DDE927
:101C30000023BAF1000F06DAFEF7E8FB42464B46F6
:101C4000FEF7E4FB05E0FEF753FC42464B46FEF789
:101C50004FFC04460E460022284BFEF7D1FC03D869
:101C60004FF0FF30014607E00022254B2046314669
:101C7000FEF725FBFEF7ABFC102409E0002C0ADB85
:101C80000A220023FEF79CFA039B30321A55641E89
:101C900050EA0102F2D1641C039AC4F11103144406
:101CA000119A012A03D0012208430DD10AE008430A
:101CB00004D000204FF0110B119072E7A3EB0B053D
:101CC0006D1E0DE05B4504DD4FF0000205F10105DE
:101CD00004E003DA4FF00002A5F10105002AECD080
:101CE00002981199C0E90231C0E9004579E7000086
:101CF000000014400000F03F300000000000F043FE
:101D00000000E03F2DE9FF4F95B09B46894606460F
:101D100000250FE2252877D100242746F84A012123
:101D2000059400E0044316F8013F203B01FA03F05C
:101D30001042F7D130782A2811D06FF02F03307875
:101D4000A0F13002092A16D8059A44F0020402EBE9
:101D5000820203EB42021044761C0590EFE759F82B
:101D6000042B0592002A03DA504244F400540590F3
:101D700044F00204761C30782E2816D116F8010F94
:101D800044F004042A280DD06FF02F023078A0F11F
:101D90003003092B09D807EB870302EB4303C7186D
:101DA000761CF3E759F8047B761C30786C280FD04A
:101DB00006DC4C2817D068280DD06A2814D104E01E
:101DC000742810D07A280FD10DE044F400140AE0F2
:101DD00044F4801401E044F440147278824202D149
:101DE00004F58014761C761C307866280BD013DC42
:101DF000582877D009DC002875D04528F6D0462829
:101E0000F4D047281AD19DE118E0632835D0642822
:101E100079D0652812D195E1702873D008DC672845
:101E2000F1D069286FD06E280DD06F2806D1B5E0AB
:101E300073282CD0752875D0782874D05A461799F5
:101E400090476D1C75E1C4F30250022809D00328A5
:101E50000DD0D9F8001004280DD00D6009F1040947
:101E600067E1D9F80010EA17C1E90052F6E7D9F89E
:101E700000100D80F2E70D70F0E719F8041B8DF8E3
:101E8000001000208DF80100EA46012003E059F817
:101E900004AB4FF0FF3061074FF0000102D40DE0BA
:101EA00008F101018846B9420FDA8045F8DB1AF8DB
:101EB00008100029F4D108E008F1010188468142A8
:101EC000FADB1AF808100029F6D105985B46A0EB5A
:101ED000080721463846179A00F094FA284400EB88
:101EE000080507E04DE029E10DE01AF8010B5A461C
:101EF00017999047B8F10108F7D25B46214638465A
:101F0000179A13E142E00A220092C4F302524FF002
:101F1000000A022A08D059F804CB032A4FEAEC71D0
:101F20000AD00DE029E02AE009F1070121F00702BB
:101F3000F2E802C1914609E00FFA8CFC4FEAEC711D
:101F4000042A03D14FFA8CFC4FEAEC71002907DA1E
:101F50000A460021DCF1000C61EB02012D2202E0B7
:101F6000220504D52B228DF80420012203E0E2078C
:101F700001D02022F7E7904659E00A2102E0102222
:101F80000DE010214FF0000A00910BE010224FF0FD
:101F9000000A44F004040827009203E008224FF0EE
:101FA000000A0092C4F30252022A05D059F804CB69
:101FB0000021032A08D009E009F1070121F00702F6
:101FC000F2E802C1914605E01FFA8CFC042A01D117
:101FD0000CF0FF0C4FF00008220728D5702806D01F
:101FE000009B83F0100353EA0A0305D00EE0402261
:101FF0008DF80420012208E05CEA010206D03022BC
:102000008DF804208DF8050002229046009B83F095
:10201000080353EA0A030AD15CEA010201D162070C
:1020200005D530228DF804204FF001087F1E582876
:1020300004D034A003900EA802900DE036A0F9E77A
:1020400053466046009AFEF7BBF884460398825CCC
:102050000298401E029002705CEA0100F0D10298E2
:1020600006A9081A00F1200A600702D524F480347A
:1020700000E00127574502DDA7EB0A0000E0002041
:1020800000EB0A01009005984144401A0590E003D6
:1020900006D45B462146179A059800F0B3F905442B
:1020A000002706E001A85A46C05D179990476D1CAD
:1020B0007F1C4745F6DBE0030CD55B462146179AAB
:1020C000059800F09FF9054404E030205A4617991E
:1020D00090476D1C0099481E00900029F5DC08E02F
:1020E000029802995A460078491C02911799904724
:1020F0006D1CBAF10001AAF1010AF1DC65E10000F2
:1021000009280100303132333435363738396162CD
:102110006364656600000000303132333435363791
:1021200038394142434445460000000000F058F968
:102130000544761C307800287FF4ECAD19B02846B1
:10214000BDE8F08F620700D4062709F1070222F0EC
:10215000070CFCE80223E14603F000485FEA080CA4
:1021600002D00FF2702C0DE05FEA045C02D50FF292
:10217000682C07E05FEAC47C02D00FF2602C01E01B
:10218000AFF2700C4FF0FF3823F00043CDF850C091
:1021900065280CD006DC452809D046281DD04728E4
:1021A0003DD13DE0662818D067287ED138E0002177
:1021B000112F01DB112000E0781CCDE9000106A9F8
:1021C0000EA8FFF7DDFCDDE90F010E9A0391002157
:1021D000009207F1010A04914DE04FF00040009792
:1021E000CDE9011006A90EA8FFF7CAFCDDE90F0230
:1021F00003920E9B11990022DDF80CA0009304922B
:1022000011B9791C00EB010AB7EB0A0004D4C0F144
:10221000FF3007F1010A0490AAEB0700019044E0A7
:10222000012F00DA01270021112F01DD112000E02C
:102230003846CDE9000106A90EA8FFF7A1FCDDE9AB
:102240000F010E9A0391002104910092BA462107D2
:102250000CD40399514500DA8A46BAF1010F05DD25
:10226000009AAAF10101515C302908D0B84202DA83
:1022700010F1040F06DA0121CDE9011015E0AAF1F1
:102280000101E9E7002805DC049901440491AAEB67
:10229000000102E0411C514500DD8A460499401AC4
:1022A000401C01904FF000400290200704D4019898
:1022B000504501DBCDF8048000208DF84F000298D6
:1022C0000DF14F07B0F1004F25D02B200E90029852
:1022D0004FF0020800280CDA404202902D200E90A8
:1022E00007E00A210298FDF7B5FF3031029007F8A8
:1022F000011DB8F10001A8F10108F2DC02980028E4
:10230000EFD1791E0E980870307800F0200040F070
:10231000450007F8020D12A8C01B00F10708149829
:10232000007800B1012000EB0A01019801EBE07197
:1023300005984144401A401E0590E00306D45B46D0
:102340002146179A059800F05DF805441498007826
:1023500018B15A46179990476D1CE00324D55B4687
:102360002146179A059800F04DF805441CE00498A2
:10237000002807DBDDE90301884203DD0098405CAB
:10238000179901E0179930205A469047049805F1B3
:102390000105401C04900198401E019004D12E209C
:1023A0005A46179990476D1CBAF10001AAF1010A2B
:1023B000DDDC05E017F8010B5A46179990476D1CB4
:1023C000B8F10001A8F10108F4DC5B462146179A38
:1023D0000598ABE62D0000002B0000002000000057
:1023E0002DE9F041044600251E461746880404D412
:1023F00005E039462020B0476D1C641EF9D52846FB
:10240000BDE8F0812DE9F041044600251E469046C6
:10241000C80301D5302700E02027880404D505E053
:1024200041463846B0476D1C641EF9D52846BDE8C4
:10243000F081000013B56423012269460248FFF7CA
:10244000C5F800981CBD00005C270020FFF798F934
:10245000FEF7DAFAFFF794F9FFF714F9FFF76EF9D0
:10246000FFF750F90B48FDF7EEFE82B242F210730F
:1024700008490948FFF7AAF8064901220C3907481C
:10248000FEF7D8FF034901220B390348FEF7D2FFBC
:10249000FEE700000C000020A02700205C270020A1
:1024A0000000000000000000010203040607080904
:1024B0000000000001020304D824000800000020EE
:1024C0004C000000601B0008242500084C00002080
:1024D0009C2B0000701B00080000000000000000A2
:1024E0000000000068656C6C6F00556172743120EB
:1024F000446174612046696E697368005561727445
:102500003320446174612046696E6973680000007D
:1025100000000000010000001000000000000000AA
:042520000024F4009F
:040000050800018965
:00000001FF
