:020000040800F2
:10000000E80600209D010008512300080123000894
:100010004D2300082F080008352A000800000000C2
:100020000000000000000000000000008F23000816
:10003000310A0008000000008D2300085D2400083C
:10004000B7010008B7010008B7010008B7010008B0
:10005000B7010008B7010008B7010008B7010008A0
:10006000B7010008B7010008B7010008B701000890
:10007000B7010008B7010008B7010008B701000880
:10008000B7010008B7010008B701000845080008DB
:1000900035080008B7010008B7010008B7010008DB
:1000A000B7010008B7010008B7010008B701000850
:1000B000B7010008B7010008B7010008B701000840
:1000C000B7010008B7010008B7010008B701000830
:1000D000B7010008F5290008B7010008B7010008BA
:1000E000B7010008B7010008B7010008B701000810
:1000F000B7010008B7010008B7010008B701000800
:10010000B7010008B7010008B7010008B7010008EF
:10011000B7010008B7010008B7010008B7010008DF
:10012000B7010008B7010008B7010008B7010008CF
:10013000B7010008B7010008B7010008B7010008BF
:10014000B7010008B7010008B7010008B7010008AF
:10015000B7010008B7010008B7010008B70100089F
:10016000B7010008B7010008B7010008B70100088F
:10017000B7010008B7010008B7010008000000003F
:10018000B7010008B7010008DFF80CD000F0ECFA66
:100190000048004719420008E8060020064880474A
:1001A00006480047FEE7FEE7FEE7FEE7FEE7FEE75C
:1001B000FEE7FEE7FEE7FEE7652400088901000888
:1001C0002DE9FE4F804681EA0300C00F0C460090E7
:1001D00021F0004123F00045B8EB0200A94105D20F
:1001E0004046214690461C460B46024623F00040FE
:1001F000104347D0270DC7F30A00C3F30A510290FA
:10020000401A019040286BDAC3F3130040F4801BBE
:100210000098924620B10023D2EB030A63EB0B0B4C
:1002200001985946C0F14002504600F0C8F9064610
:100230000D4650465946019A00F0E0F910EB0800CF
:100240006141002487EA115284EAE7731A4340D0DF
:10025000009A62B3019A012A4FEA075215DC001B8B
:1002600061EB02014FF0004202EA0752CDE9004281
:10027000001C41F5801132462B4600F0E0F903B036
:10028000BDE8F08F40462146F9E7001B61EB020113
:10029000001C41F5801300185B412018A2F50017DF
:1002A00047EB030140EAD570B6196D4111E06D08C6
:1002B0004FEA360645EAC0754FEA0752001B61EB6C
:1002C0000201001C41F5801149084FEA3000001975
:1002D000514132462B4603B0BDE8F04F00F0A0B9C3
:1002E0000098012240000023D0EB020263EBE07390
:1002F000009821464FEAE074B8EB000061EB04017E
:10030000E9E783F000435BE781F0004158E72DE91E
:10031000FE4F81EA030404F0004421F00041009400
:100320004FF0000B23F0004350EA01045ED052EA84
:1003300003045BD0C3F30A54C1F30A552C44A4F25E
:10034000F3340194A0FB0254C1F3130141F4801172
:10035000C3F3130343F4801301FB024400FB034E79
:10036000840A970A44EA815447EA8357A4FB076842
:1003700002958D0A05FB07854FEA932C04FB0C546C
:100380002705029D4FEA065847EA1637B5EB0805E0
:100390006EEB070C870E920E47EA811742EA831232
:1003A000A7FB0201B6EB0B0164EB00042B0D43EA43
:1003B0000C335E1844EB1C50DA465146E7FB020151
:1003C000C5F313044FEA0B3343EA14534FEA0432E4
:1003D000019C43EA0603A4F10C040294009CCDE9BD
:1003E00000B400F02CF903B0BDE8F08F0020014606
:1003F000F9E72DE9F04D81EA030404F0004B21F008
:10040000004514464FF0000A23F0004150EA05026F
:1004100020D054EA01021DD0C5F30A570246C5F3A5
:100420001303C1F31300C1F30A5640F4801543F4DB
:100430008013A7EB0608101BD64608F2FD3873EBB5
:10044000050002D308F1010801E092185B41B8F100
:10045000000F03DA00200146BDE8F08D00204FF4C4
:100460008011064684460EE0171B73EB050705D383
:10047000121B63EB050306434CEA010C49084FEAE3
:10048000300092185B4150EA0107EDD152EA0300B7
:1004900012D082EA040083EA0501084305D0101B4C
:1004A000AB4106D20122002306E000224FF00043B8
:1004B00002E06FF0010253101AEB06004CEB0851FA
:1004C00010EB0A0041EB0B01BDE8F04D00F0A8B8BD
:1004D0000EB5C10F80EAE0700844CA07002140F25F
:1004E00033438DE80E000A460B4600F0A8F803B02F
:1004F00000BD70B5C1F30A5201F000450024C1F3FC
:10050000130140F2FF3341F480119A4201DA0020D6
:1005100070BD40F233439A42A2F2334203DC5242AE
:1005200000F05CF800E090402C43F1D0404270BDF8
:1005300030B50B46014600202022012409E021FAB3
:1005400002F59D4205D303FA02F5491B04FA02F5B0
:100550002844151EA2F10102F1DC30BD2DE9F05F47
:100560000546002092469B46884606468146402422
:100570001BE0284641464746224600F02FF85346E6
:100580005A46C01A914110D311461846224600F02F
:1005900016F82D1A67EB01084F462246012000216C
:1005A00000F00DF817EB00094E41201EA4F10104E4
:1005B000DFDC484631462A464346BDE8F09F202A04
:1005C00004DB203A00FA02F1002070479140C2F1AA
:1005D000200320FA03F3194390407047202A04DBDC
:1005E000203A21FA02F00021704721FA02F3D040AC
:1005F000C2F120029140084319467047202A06DBC9
:10060000CB17203A41FA02F043EAE07306E041FAE0
:1006100002F3D040C2F120029140084319467047CE
:1006200010B5141E73F1000408DA401C41F10001FA
:1006300092185B411A4301D120F0010010BD2DE951
:10064000F04D92469B4611B1B1FA81F202E0B0FA48
:1006500080F220329046FFF7B2FF04460F4640EA90
:100660000A0041EA0B0153465A46084313D011468B
:1006700053EA010019D0C8F140025046FFF7AEFF1F
:1006800005460E46504659464246FFF798FF084336
:1006900005D0012004E020463946BDE8F08D002059
:1006A000054346EAE0762C4337430A986305E40A9B
:1006B000A0EB08000022FD0A44EA47540A3002D5A4
:1006C00000200146E9E7010510196941DDE9084507
:1006D00000196941BDE8F04DA2E770B521F0004373
:1006E00003430CD0C1F30A550024D5EB040564EB99
:1006F0000403D617AD1AB34102DB0020014670BDDA
:10070000201841EB025170BDC1F30A52C1F313012D
:1007100040F2FF3341F480119A4202DA0020014690
:10072000704740F233439A42A2F2334202DC524213
:10073000FFF754BFFFF743BF30B5041E71F100044B
:1007400004DB4FF00044404264EB0101141E73F1DE
:10075000000405DB1C464FF00043524263EB0403E8
:10076000994208BF904230BD064C074D06E0E06854
:1007700040F0010394E8070098471034AC42F6D3E8
:10078000FFF706FDF0490008104A00082DE9F04D7A
:1007900000231A461B1A8A4103DB00200146BDE8EC
:1007A000F08DC1F30A52C1F3130141F480154FF0EB
:1007B000000BD10702D100186D41521E00270446DC
:1007C00040F2FF11384601EB620A3E46804602467F
:1007D00000204FF48011FFF701FFC2197141BB18CF
:1007E00046EB0100B4EB030C75EB000C04D3E41AE8
:1007F00065EB000517460E46241908F101006D410E
:1008000080463428E3DDF91946EB0600091BA841B0
:1008100003D24FF0FF32134601E0002213461BEBD8
:10082000070046EB0A51BDE8F04DFFF7F9BE00BFE7
:10083000FEE7000010B5024800F084F910BD00008A
:100840008400002010B5024800F07CF910BD0000C3
:100850008400002010B501F055FD044803F0DCFED3
:100860000021024800F0DEFB10BD000084000020E3
:1008700070B504460D46206800F5D87000EB0510F1
:10088000006800F00400616B8860606B806860B98C
:10089000206800F5D87000EB0510006840F2FF7189
:1008A00001EA5050616B08600BE0206800F5D870D9
:1008B00000EB051000686FF0604101EAD000616B49
:1008C0004860206800F5D87000EB0510006800F063
:1008D0000200616BC860206800F5D87000EB05105D
:1008E000406800F00F00616B0861606B0562206872
:1008F00000F5D87000EB05104068C0F30720616B6D
:10090000C861206800F5D87000EB05108068616B45
:100910000875206800F5D87000EB05108068010AA2
:10092000606B4175206800F5D87000EB0510806899
:10093000010C606B8175206800F5D87000EB051024
:100940008068000E616BC875206800F5D87000EBF8
:100950000510C068C1B2606B0176206800F5D870E0
:1009600000EB0510C068010A606B4176206800F555
:10097000D87000EB0510C068010C606B81762068B0
:1009800000F5D87000EB0510C068000E616BC876EA
:100990004DB920202168C8602068406920F002001D
:1009A0002168486108E020202168086120684069CA
:1009B00020F010002168486194F83800222805D101
:1009C0002068406920F40F402168486194F838009D
:1009D000322803D1122084F8380002E0012084F884
:1009E0003800204600F04EFB002070BD10B50446D4
:1009F0002068406920F001002168486194F83800BF
:100A0000122805D12068406920F40F402168486110
:100A100094F83800322803D1222084F8380002E00C
:100A2000012084F83800204600F0DEFC002010BDD4
:100A3000704700BFFEE7000070B504460A46002379
:100A4000157D012000FA05F33C4901F500710868A5
:100A500040F001000860086820F47C5008600868D5
:100A6000556A40EA05200860C8699843C861A1F545
:100A70000071D069C8B9D1F80C029843C1F80C02D2
:100A8000908880B2958940EA054501F51070566955
:100A900040F83650108880B2158940EA054501F5C6
:100AA0001070566900EBC6004560D069012819D165
:100AB000D1F80C021843C1F80C02908880B2158856
:100AC00040EA054501F51070566940F836509089A6
:100AD00080B2158940EA054501F51070566900EBB2
:100AE000C6004560906928B9D1F804029843C1F85E
:100AF000040204E0D1F804021843C1F804021069AA
:100B000020B9D1F814029843C1F8140210690128E1
:100B100004D1D1F814021843C1F81402106A012854
:100B200004D1D1F81C021843C1F81C02D1F800020C
:100B300020F00100C1F80002002070BD00640040F8
:100B4000704700002DE9F0410446002500260027EB
:100B50002068406900F0010018B320688068694986
:100B60000840884201D1012000E0002005462068AD
:100B7000806865490840884201D1012000E00020DA
:100B800006462068806861490840884201D10120FA
:100B900000E0002007460DB906B917B12046FFF75F
:100BA00025FF2068C06800F0030520684069C0F395
:100BB000400625B11EB100212046FFF759FE2068EE
:100BC000006900F0030520684069C0F3001625B1F4
:100BD0001EB101212046FFF74BFE2068806900F01E
:100BE000010520684069C0F3002620684069C0F311
:100BF000C0372DB126B11FB1E06B40F00100E063BA
:100C000020688069C0F3400520684069C0F3402631
:100C100020684069C0F3C0372DB126B11FB1E06B29
:100C200040F00200E06320688069C0F3800520681E
:100C30004069C0F3802620684069C0F3C0372DB1F9
:100C400026B11FB1E06B40F00400E06320688069CA
:100C500000F0700008B9012000E00020054620687F
:100C60004069C0F3C02620684069C0F3C03795BB17
:100C70008EB387B32068806900F07005402D1BD0CB
:100C800006DC102D09D0202D0CD0302D24D10EE003
:100C9000502D16D0602D1FD118E0E06B40F00800F9
:100CA000E0631AE0E06B40F01000E06315E0E06BF9
:100CB00040F02000E06310E0E06B40F04000E063B3
:100CC0000BE0E06B40F08000E06306E0E06B40F496
:100CD0008070E06301E007E000BF00BF206880692A
:100CE00020F0700021688861E06B40B10420216829
:100CF0004860012084F838002046FFF721FFBDE856
:100D0000F08100000300000400030008000003104D
:100D100070B50446002600250CB9012070BD94F87A
:100D2000380028B9002084F83900204600F0CEF8B9
:100D3000022084F838002068006820F00200216852
:100D400008602068006840F001002168086000F039
:100D50006DFC05460EE000F069FC401B642809D9D3
:100D6000032084F8380000BF002084F8390000BF59
:100D70000320D3E72068406800F001000028EAD093
:100D80002068406800F00100002875D0A0690128A3
:100D900006D12068006840F080002168086005E006
:100DA0002068006820F0800021680860E069012860
:100DB00006D12068006840F040002168086005E026
:100DC0002068006820F0400021680860206A01283F
:100DD00006D12068006840F020002168086005E026
:100DE0002068006820F0200021680860606A0128FF
:100DF00006D12068006840F010002168086005E016
:100E00002068006820F0100021680860A06A0128AE
:100E100006D12068006840F008002168086005E0FD
:100E20002068006820F0080021680860E06A012856
:100E300006D12068006840F004002168086005E0E1
:100E40002068006820F0040021680860D4E90201ED
:100E5000084321690843616908436168491E0843E2
:100E60002168C8612068006820F0010021680860DE
:100E700000F0DCFB05460FE01AE000F0D7FB401B5A
:100E8000642809D9032084F8380000BF002084F8C2
:100E9000390000BF032041E72068406800F00100EE
:100EA0000028EAD12068406800F0010000B901265E
:100EB000012E06D10020E063012084F838000020D4
:100EC0002CE7042084F83800012027E710B586B00D
:100ED00004464E492068884249D14D480068401C6C
:100EE0004B49086008460068012821D100BF002056
:100EF00000904848006840F0007046490860084685
:100F0000006800F00070009000BF00BF00BF00202C
:100F1000009040481038006840F008003D49103902
:100F200008600846006800F00800009000BF00BF9D
:100F300003200190022002900020039003200490DF
:100F40000920059001A9344800F064FA0022052127
:100F5000132000F0B3FB132000F0A3FB00220521B7
:100F6000142000F0ABFB142000F09BFB4BE02B495E
:100F70002068884247D100BF0020009025480068C3
:100F800040F08060234908600846006800F08060F7
:100F9000009000BF00BF1E480068401C1C4908604C
:100FA0000846006801280FD100BF002000901948B2
:100FB000006840F00070174908600846006800F0BB
:100FC0000070009000BF00BF4FF44050019002201D
:100FD000029000200390032004900920059001A9AD
:100FE0000F4800F017FA002211463F2000F066FB80
:100FF0003F2000F056FB00221146402000F05EFB2F
:10100000402000F04EFB06B010BD00000064004020
:101010000400002040380240000C024000680040FC
:101020000004024010B50246002392F83830012B2C
:1010300001D0122B21D192F83800122803D132208E
:1010400082F8380002E0222082F838000020D063C5
:101050001068406940F40F401468606131B910684D
:10106000406940F002001468606108E0106840695F
:1010700040F010001468606101E0022010BD002003
:10108000FCE7000010B50446606B0068A0F2012088
:1010900030B1012805D0022804D0032853D102E042
:1010A00000BF00BF00BF606B0078401E2B49087076
:1010B0000846007800EB400101EBC000284901EB35
:1010C0008000816A2548007800EB400202EBC000F6
:1010D000234A02EB8000806A401C204A127802EB0F
:1010E000420303EBC2021E4B03EB820290623229E1
:1010F0000CD81A49097801EB410202EBC1011A46EA
:1011000002EB8100214603F07DF80BE013490978DA
:1011100001EB410202EBC101114A02EB81002146C1
:1011200003F034F821460F4803F030F80B490978F2
:1011300001EB410202EBC101094A02EB81002146A9
:1011400003F024F800BF00BF07480068406940F082
:10115000020005490968486110BD00000C0000202C
:10116000C400002074010020840000202DE9F0411B
:1011700004460E46042500272068806800F0806041
:10118000B0F1806F0DD02068806800F00060B0F191
:10119000006F06D02068806800F08050B0F1805F5A
:1011A0007ED100BF94F83900012802D10220BDE8A9
:1011B000F081012084F8390000BF94F8380022281B
:1011C00003D1322084F8380002E0122084F838007D
:1011D0002068806800F08060B0F1806F01D1002548
:1011E00009E02068806800F00060B0F1006F01D174
:1011F000012500E00225206800F5C07000EB051015
:10120000006800F00101206800F5C07000EB0510D7
:101210000160206B806898B9206800F5C07000EB11
:1012200005100068216BC968226B128841EA42519F
:101230000843216801F5C07101EB0511086015E054
:10124000206800F5C07000EB05100068216B89680C
:10125000226B526841EAC201226BD26811430843F3
:10126000216801F5C07101EB05110860206B007C5D
:1012700000F00F00216B0861206800F5C07000EBE2
:101280000510406820F00F01206800F5C07000EBE9
:1012900005104160206800F5C07000EB051000E00B
:1012A00097E04068216B09690843216801F5C07126
:1012B00001EB05114860206BC07D0106206B807D2D
:1012C00041EA0041206B407D41EA0021206B007D16
:1012D0000143206800F5C07000EB05108160206BB1
:1012E000C07E0106206B807E41EA0041206B407E7B
:1012F00041EA0020216B097E0143206800F5C0709F
:1013000000EB0510C160206800F5C07000EB05100F
:10131000006840F00101206800F5C07000EB051086
:10132000016000F083F9074620E0701CF0B126B19F
:1013300000F07CF9C01BB04218D9032084F83800B3
:1013400000BF002084F8390000BF1DB9802021684B
:10135000886009E0012D03D1E8032168886003E07B
:101360004FF4000021688860032020E74DB9206811
:1013700080681A490840884201D1012016E0002007
:1013800014E0012D09D12068806815490840884281
:1013900001D101200AE0002008E02068806811499E
:1013A0000840884201D1012000E000200028BCD084
:1013B00094F83800322803D1222084F8380002E063
:1013C000012084F8380000BF002084F8390000BFF5
:1013D000EDE6042084F838000120E8E6030000046C
:1013E00000030008000003107047014691F8350023
:1013F000022803D08020486501207047052081F82D
:1014000035000868006820F001000A6810600020BC
:10141000F3E70000F8B502460B4600250024002043
:101420000021DCE0012606FA01F51E6806EA050443
:10143000AC4273D15E68022E02D05E68122E13D1C8
:10144000CF0802F1200656F827004E07F70E0F26A8
:10145000BE40B0434F07FF0E1E69BE403043CF0869
:1014600002F1200646F8270010684F000326BE4010
:10147000B0431E7906F003064F00BE4030431060B3
:101480005E68012E08D05E68022E05D05E68112EBF
:1014900002D05E68122E13D190684F000326BE4022
:1014A000B0434F00DE68BE40304390605068012674
:1014B0008E40B0431E79C6F300168E403043506014
:1014C000D0684F000326BE40B0434F009E68BE4028
:1014D0003043D0605E6806F08056B6F1805F7DD103
:1014E00000BF00260096404E366846F480463E4FC8
:1014F0003E603E46366806F48046009600BF00BF58
:101500003A4E8F0856F827008E07370F0F26BE4039
:10151000B043374EB24202D1002624E05EE0354EA1
:10152000B24201D101261EE0334EB24201D1022661
:1015300019E0324EB24201D1032614E0304EB242DD
:1015400001D104260FE02F4EB24201D105260AE058
:101550002D4EB24201D1062605E02C4EB24201D1F9
:10156000072600E008268F073F0FBE4030431F4E7E
:101570008F0846F82700264E3068A0435E6806F4C0
:101580008036B6F5803F00D12043214E3060361DB5
:101590003068A0435E6806F40036B6F5003F00D11F
:1015A00020431B4E361D3060361D3068A0435E68F8
:1015B00006F48016B6F5801F00D12043144E08367D
:1015C0003060361D3068A0435E6806F40016B6F53C
:1015D000001F00D120430E4E0C363060491C1029EC
:1015E000FFF420AFF8BD0000443802400838014045
:1015F000000002400004024000080240000C0240CB
:10160000001002400014024000180240001C02407A
:10161000003C01400AB1816101E00B048361704725
:1016200001480068000C7047002004E00148006891
:10163000704700001000002002480068401C01496B
:10164000086070471000002010B50A48006840F498
:101650000070084908600846006840F4806008602F
:10166000052000F069F80F2000F006F800F018F8E7
:10167000002010BD003C024070B5044607480068D9
:101680004FF47A71B0FBF1F5284600F003FC00221C
:101690002146501E00F012F8002070BD000000200E
:1016A000704700BF00F01F020121914042099200E3
:1016B00002F1E022C2F8001100BF70472DE9F05F8F
:1016C00080460D461646002700F044FE0746394680
:1016D0002A46334601F00700C0F1070ABAF1040FA9
:1016E00002D94FF0040A01E0C0F1070AD14600F127
:1016F000040ABAF1070F02D24FF0000A01E0A0F18C
:10170000030AD4464FF0010A0AFA09FAAAF1010ABB
:101710000AEA020A0AFA0CFA4FF0010B0BFA0CFB68
:10172000ABF1010B0BEA030B4AEA0B0421464046DE
:1017300000F018FEBDE8F09F00BF00F00702064B66
:1017400019684FF6FF031940044B0B4343EA02218B
:10175000014B196000BF70470CED00E00000FA0576
:1017600070B504460D4600266D48006800F00F0075
:10177000A84209D26A490D700846006800F00F00BF
:10178000A84201D0012070BD207800F0020002289C
:1017900007D16448006820F0F000A168084361495F
:1017A0000860207800F00100002877D060680128E8
:1017B00007D15C4808380068C0F34040B8B9012040
:1017C000E1E76068022802D06068032807D1554825
:1017D00008380068C0F3406048B90120D3E7514899
:1017E00008380068C0F3400008B90120CBE74D4835
:1017F000006820F00300616808434A490860FFF769
:1018000015FF06466068012810D108E0FFF70EFFBB
:10181000801B41F28831884201D90320B3E7414857
:10182000006800F00C000428F0D137E0606802285E
:1018300010D108E0FFF7FAFE801B41F288318842A0
:1018400001D903209FE73748006800F00C00082802
:10185000F0D123E06068032810D108E0FFF7E6FE2E
:10186000801B41F28831884201D903208BE72D4843
:10187000006800F00C000C28F0D10FE008E0FFF742
:10188000D5FE801B41F28831884201D903207AE7D6
:101890002448006800F00C000028F0D120480068BF
:1018A00000F00F00A84209D91D490D7008460068D4
:1018B00000F00F00A84201D0012064E7207800F07A
:1018C0000400042807D11748006820F4E050E168BC
:1018D000084314490860207800F00800082808D15F
:1018E0001048006820F46040216940EAC1000D49B9
:1018F000086000F04FF80B49096801F0F001F02290
:1019000092FAA2F2B2FA82F2D140074A515CC84080
:10191000064908600F20FFF7AFFE002033E7000004
:10192000003C0240083802404849000800000020FE
:1019300001480068704700000000002000B5FFF774
:10194000F7FF0749096801F4E0514FF4E05292FAB9
:10195000A2F2B2FA82F2D140024A515CC84000BD04
:10196000083802405849000800B5FFF7E1FF074971
:10197000096801F460414FF4604292FAA2F2B2FAAF
:1019800082F2D140024A515CC84000BD0838024092
:101990005849000870B50021002200230020274C80
:1019A000246804F00C0424B1042C04D0082C41D188
:1019B00003E0234840E023483EE0204C241F2468F5
:1019C00004F03F011D4C241F246804F4800484B1FA
:1019D0001C4CB4FBF1F5194C241F246847F6C07663
:1019E000344096FAA6F6B6FA86F6F44005FB04F201
:1019F0000FE0134CB4FBF1F5104C241F246847F69C
:101A0000C076344096FAA6F6B6FA86F6F44005FBA0
:101A100004F20A4C241F246804F440344FF4403587
:101A200095FAA5F5B5FA85F5EC40641C6300B2FBA8
:101A3000F3F001E0024800BF00BF70BD083802406B
:101A40000024F40000127A0038B5044600252078FE
:101A500000F00100002874D0F748006800F00C0086
:101A600004280DD0F448006800F00C00082813D1B9
:101A7000F148001F006800F48000B0F5800F0BD122
:101A8000ED4808380068C0F34040002859D060682D
:101A9000002856D1012038BD00BF6068B0F5803FF6
:101AA00008D1E5480838006840F48030E249083938
:101AB00008601EE06068B0F5A02F0DD1DE48083840
:101AC000006840F48020DC49083908600846006856
:101AD00040F4803008600CE0D7480838006820F4F3
:101AE0008030D549083908600846006820F4802015
:101AF000086000BF606890B1FFF798FD054606E0FA
:101B0000FFF794FD401B642801D90320C3E7CA48AE
:101B100008380068C0F340400028F1D011E0FFF71A
:101B200085FD054606E0FFF781FD401B642801D9CD
:101B30000320B0E7C04808380068C0F340400028E0
:101B4000F1D1207800F00200022869D1BA4800687B
:101B500000F00C0058B1B848006800F00C000828EC
:101B600021D1B548001F006800F48000D8B9B24800
:101B700008380068C0F3400020B1E068012801D0B7
:101B8000012088E7AC480838006820F0F800F82207
:101B900092FAA2F2B2FA82F2216991400843A64970
:101BA000083908603CE0E06828B30120A3490860D8
:101BB000FFF73CFD054606E0FFF738FD401B022815
:101BC00001D9032067E79C4808380068C0F340004B
:101BD0000028F1D098480838006820F0F800F82272
:101BE00092FAA2F2B2FA82F2216991400843924934
:101BF0000839086014E0002090490860FFF716FDDE
:101C0000054606E0FFF712FD401B022801D903201C
:101C100041E7894808380068C0F340000028F1D146
:101C2000207800F0080008282CD16069A8B10120B4
:101C300083490860FFF7FAFC054606E0FFF7F6FC6B
:101C4000401B022801D9032025E77B486C3000683F
:101C5000C0F340000028F1D014E00020784908606B
:101C6000FFF7E4FC054606E0FFF7E0FC401B022816
:101C700001D903200FE770486C300068C0F34000C2
:101C80000028F1D1207800F0040004287FD100BFA3
:101C90000020009068483830006840F08050664965
:101CA000383108600846006800F08050009000BF9E
:101CB00000BF6448006840F4807062490860FFF724
:101CC000B5FC054606E0FFF7B1FC401B022801D930
:101CD0000320E0E65B48006800F480700028F2D042
:101CE00000BFA068012808D153486830006840F060
:101CF00001005149683108601DE0A06805280DD138
:101D00004D486830006840F004004B496831086075
:101D10000846006840F0010008600CE04648683062
:101D2000006820F0010044496831086008460068F6
:101D300020F00400086000BFA068A0B1FFF776FCA7
:101D4000054608E0FFF772FC401B41F288318842EB
:101D500001D903209FE6384868300068C0F340008E
:101D60000028EFD013E0FFF761FC054608E0FFF71D
:101D70005DFC401B41F28831884201D903208AE68C
:101D80002D4868300068C0F340000028EFD1A069FA
:101D9000F0B32948006800F00C00082871D0A06951
:101DA000022858D1002025490866FFF73FFC054668
:101DB00006E0FFF73BFC401B022801D903206AE63E
:101DC0001D4808380068C0F340600028F1D1D4E90C
:101DD0000701084347F6C07292FAA2F2B2FA82F201
:101DE000616A914008430122A16AC2EB51014FF49C
:101DF000403292FAA2F2B2FA82F2914008434FF0D6
:101E0000706292FAA2F2B2FA82F2E16A914000E0C4
:101E100039E008430849091F08600120074908669E
:101E2000FFF704FC05460FE0FFF700FC401B02280B
:101E30000AD903202FE6000008380240000047427C
:101E4000800E47420070004010480068C0F34060B8
:101E50000028E9D017E000200D490866FFF7E6FBEF
:101E6000054606E0FFF7E2FB401B022801D90320EC
:101E700011E606480068C0F340600028F2D102E095
:101E8000FFE7012007E6002005E6000000380240D9
:101E90000000474270B504462546681EB0F1807FB9
:101EA00001D301200FE0681E4FF0E02148610F21AF
:101EB0004FF0FF3000F056FA00204FF0E02188612B
:101EC00007200861002070BD7047014600220023F2
:101ED00091F8392091F83A3042EA03007047000047
:101EE0002DE9F0470446206805682068C668206828
:101EF00047694FF00008C14605F00F08B8F1000F20
:101F00000AD105F0200038B106F0200020B12046AB
:101F100000F004FBBDE8F087B8F1000F6DD007F0CA
:101F2000010018B906F49070002866D005F0010091
:101F300030B106F4807018B1E06B40F00100E0634E
:101F400005F0040030B107F0010018B1E06B40F07B
:101F50000200E06305F0020030B107F0010018B1A3
:101F6000E06B40F00400E06305F0080030B107F0DA
:101F7000010018B1E06B40F00800E063E06B68B36B
:101F800005F0200028B106F0200010B1204600F036
:101F9000C5FA20684069C0F38019E06B00F00800C2
:101FA00010B9B9F1000F22D0204600F097FA20684E
:101FB000406900F04000B0B12068406920F0400066
:101FC00021684861606B50B11748616B0865606BB0
:101FD000FFF70BFA10B1606B016D88470CE02046EB
:101FE000FFF772FF08E02046FFF76EFF04E020468F
:101FF000FFF76AFF0020E0638CE705F0800030B156
:1020000006F0800018B1204600F08AFC82E705F057
:10201000400030B106F0400018B1204600F06EFAE2
:1020200078E700BF76E70000C924000810B5044631
:102030000CB9012010BDA06900B100E000BF94F808
:10204000390028B9002084F83800204600F028F82C
:10205000242084F839002068C06820F400502168EA
:10206000C860204600F0A8FA2068006920F490407B
:10207000216808612068406920F02A0021684861D1
:102080002068C06840F400502168C8600020E06308
:10209000202084F8390084F83A000020CAE70000C4
:1020A00010B586B004462249206888423ED100BF60
:1020B000002000901F48006840F001001D490860A2
:1020C0000846006800F00100009000BF00BF00BF9C
:1020D0000020009017481430006840F010001549A7
:1020E000143108600846006800F01000009000BF3E
:1020F00000BF4815019002200290012003900220A9
:1021000004900720059001A90B48FFF783F94FF4CD
:102110008060019001A90848FFF77CF92520FFF7AE
:10212000C0FA032211462520FFF7C8FA06B010BDF9
:1021300000100140303802400000024010B5034654
:1021400093F83A00202829D101B10AB9012010BD25
:1021500000BF93F83800012801D10220F7E70120E1
:1021600083F8380000BF99629A85DA850020D86329
:10217000222083F83A0000BF002083F8380000BF17
:102180001868406940F001001C6860611868C06808
:1021900040F490701C68E0600020D8E70220D6E789
:1021A0001D4A0168914236D11C49098801F4004159
:1021B00089BB1A49098801F4804171B1184909782D
:1021C0000A2903D00021154A118024E01349098807
:1021D00041F40041114A11801DE0114909780D298F
:1021E00006D10E49098841F480410C4A118012E061
:1021F0000B490978094A1288C2F30D02094B995418
:1022000006490988491C054A118011460988C729D1
:1022100001DD0021118070470010014018000020EE
:102220001A000020E00100202DE9F84304460D4685
:1022300016461F464FF0000994F8390020285CD15B
:1022400005B116B90120BDE8F88300BF94F8380045
:10225000012801D10220F6E7012084F8380000BFF0
:102260000020E063212084F83900FFF7DFF9814680
:10227000A684E6842BE0E08C401EE084A068B0F5E4
:10228000805F16D14B46002280212046009700F047
:102290007BFB08B10320D6E7A846B8F80000C0F3DE
:1022A000080021684860206908B9AD1C0FE06D1C6A
:1022B0000DE04B46002280212046009700F064FB91
:1022C00008B10320BFE715F8010B21684860E08CD6
:1022D0000028D0D14B46002240212046009700F034
:1022E00053FB08B10320AEE7202084F8390000BF7B
:1022F000002084F8380000BFA5E70220A3E770475C
:1023000000BFFEE710B50F480F490860062048607F
:1023100000210D488160C1604FF4803101614FF4AC
:102320004011416100218161C1610162416201216D
:1023300081620021C162FEF7EBFC08B1FEF779FB78
:1023400010BD0000006400408400002000BFFEE7D4
:102350007047000002480068C0F302207047000088
:102360000CED00E010B5002807DA0A07140E054A44
:1023700000F00F031B1FD45403E00A07130E024A98
:10238000135410BD18ED00E000E400E07047704702
:102390002DE9F04192B00446884615461E460027B6
:1023A00000BF002000902A48006840F08050284973
:1023B00008600846006800F08050009000BF00BF31
:1023C00000BF002000902348006840F4804021496D
:1023D00008600846006800F48040009000BF00BF1D
:1023E000012006900004079002200C9041050D91F9
:1023F000CDF838800F941095119606A8FFF724FBAE
:1024000007460FB100BFFEE70F20019002200290A7
:10241000002003904FF4A05004904FF4805005909A
:10242000052101A8FFF79CF907460FB100BFFEE7A1
:10243000FFF7F6F841F20101884205D1064800682D
:1024400040F480700449086012B0BDE8F0810000DB
:102450004038024000700040003C024010B5FFF7D9
:10246000EBF810BD1448006840F470001249086091
:102470001248006840F001001049086000200F4930
:10248000083108600D4800680D4908400B49086094
:102490000C48091D0860081F006820F48020091FEF
:1024A0000860002005490C3108604FF000600249C7
:1024B000803908607047000088ED00E00038024075
:1024C000FFFFF6FE1030002470B50546AC6B00200F
:1024D000E085E0842046FFF7F7FC70BD0168C9681D
:1024E00021F490710268D1600168496921F001010D
:1024F00002685161202180F83A10704710B50446F7
:102500002068C06820F040002168C860202084F85E
:1025100039002046FFF7F3FE002010BD70B50446D9
:1025200094F83A00222844D1A068B0F5805F13D116
:10253000A56A206940B920684068C0F30800288077
:10254000A06A801CA06219E020684068C0B22880A0
:10255000A06A401CA06211E0206938B92068406878
:10256000C1B2A26A501CA062117007E020684068E6
:1025700000F07F01A26A501CA0621170E08D401E25
:1025800080B2E08598B92068C06820F49070216816
:10259000C8602068406920F001002168486120205F
:1025A00084F83A002046FFF7FBFD002070BD0020B4
:1025B000FCE70220FAE700002DE9F041044600257F
:1025C0002068056925F44055E068054320680561E9
:1025D0002068C56849F20C6085432169A0680843FA
:1025E00061690843E169084305432068C5602068C4
:1025F000456925F44075A069054320684561E06997
:10260000B0F5004F7ED1C4492068884203D0C34949
:10261000206888425DD1FFF7A7F900EBC00101EB0C
:10262000001061684900B0FBF1F06421B0FBF1F0EB
:102630000601FFF799F900EBC00101EB001061689A
:102640004900B0FBF1F7FFF78FF900EBC00101EB98
:10265000001061684900B0FBF1F06421B0FBF1F0BB
:1026600000EBC00101EB0010A7EB8000322101EB71
:10267000C0006421B0FBF1F000F0F80006EB40066A
:10268000FFF772F900EBC00101EB0010616849002F
:10269000B0FBF1F7FFF768F900EBC00101EB0010A8
:1026A00061684900B0FBF1F06421B0FBF1F000EB90
:1026B000C00101EB0010A7EB8000322101EBC0004C
:1026C0006421B0FBF1F000F007003044216888601D
:1026D00020E1FFF733F900EBC00101EB0010616866
:1026E0004900B0FBF1F06421B0FBF1F00601FFF707
:1026F00025F900EBC00101EB001061684900B0FB57
:10270000F1F700E045E0FFF719F900EBC00101EB3C
:10271000001061684900B0FBF1F06421B0FBF1F0FA
:1027200000EBC00101EB0010A7EB8000322101EBB0
:10273000C0006421B0FBF1F000F0F80006EB4006A9
:10274000FFF7FCF800EBC00101EB001061684900E5
:10275000B0FBF1F7FFF7F2F800EBC00101EB00105E
:1027600061684900B0FBF1F06421B0FBF1F000EBCF
:10277000C00101EB0010A7EB8000322101EBC0008B
:102780006421B0FBF1F000F007003044216888605C
:10279000C0E061492068884203D0604920688842CF
:1027A0005CD1FFF7E1F800EBC00101EB00106168BC
:1027B0008900B0FBF1F6FFF7D7F800EBC00101EBA1
:1027C000001061688900B0FBF1F06421B0FBF1F00A
:1027D00000EBC00101EB0010A6EB8000322101EB01
:1027E00000106421B0FBF1F000F0F006FFF7BCF838
:1027F00000EBC00101EB001061688900B0FBF1F053
:102800006421B0FBF1F006EB0016FFF7ADF800EB2A
:10281000C00101EB001061688900B0FBF1F7FFF720
:10282000A3F800EBC00101EB001061688900B0FB68
:10283000F1F06421B0FBF1F000EBC00101EB0010FE
:10284000A7EB8000322101EB00106421B0FBF1F016
:1028500000F00F003044216888605BE0FFF76EF8FD
:1028600000EBC00101EB001061688900B0FBF1F6DC
:10287000FFF764F800EBC00101EB0010616889000C
:10288000B0FBF1F06421B0FBF1F000EBC00101EB13
:102890000010A6EB8000322101EB00106421B0FB98
:1028A000F1F000F0F006FFF749F800EBC00101EB92
:1028B000001061688900B0FBF1F06421B0FBF1F019
:1028C00006EB0016FFF73AF800EBC00101EB001031
:1028D00061688900B0FBF1F7FFF730F800EBC00149
:1028E00001EB001061688900B0FBF1F06421B0FBDE
:1028F000F1F000EBC00101EB0010A7EB80003221EA
:1029000001EB00106421B0FBF1F000F00F00304447
:1029100021688860BDE8F08100100140001401408A
:10292000014691F8390021282CD18868B0F5805FE4
:102930000FD10A6A1088C0F308000B685860086954
:1029400018B9086A801C086209E0086A401C08621D
:1029500005E00B6A581C086218780B685860C88C30
:10296000401E80B2C88458B90868C06820F0800052
:102970000B68D8600868C06840F040000B68D860F9
:10298000002070470220FCE72DE9F04104460D4687
:1029900017469846069E21E0701CF8B12EB1FEF74E
:1029A00045FEA0EB0800B04218D92068C06820F4AA
:1029B000D0702168C8602068406920F0010021685B
:1029C0004861202084F8390084F83A0000BF0020D4
:1029D00084F8380000BF0320BDE8F081206800685B
:1029E0002840A84201D1012000E00020B842D3D005
:1029F0000020F1E710B500240C48FFF771FA00BF82
:102A000001E0641C00BF0948FFF75FFA2028F8D1F5
:102A100000BF002401E0641C00BF012204490348F8
:102A2000FFF78CFB0028F6D100BF10BDA8020020E4
:102A30001A00002000BFFEE70FB4054B10B503A934
:102A4000044A029800F0F0FF10BC5DF814FB00008F
:102A5000714100081400002003B40198410000985F
:102A600050EAC12018BF04204A0D18BF40F00100F1
:102A700040F2FF72B2EB515F08BF40F00200012844
:102A800008BF052002B070472DE9F04D2DED040B75
:102A90002DED0E8B96B0DDE92550279CDDF890A03A
:102AA00025F0004624F00048BAF1000F14BF0121C0
:102AB000002101EB4502FC4953184A1093422AD3E6
:102AC000002814BF0123002303EB44030B44F74900
:102AD0008B4220D358EA00019FEDF59B76D0DFF8BA
:102AE000D8B35D4503D1BAF1000F05D188E0BAF142
:102AF000000F08BF002100D0012101EB450111F5B5
:102B0000001F08D8002814BF0121002101EB440157
:102B100011F5001F0BD99DED261B9DED240B16B062
:102B2000BDEC0E8B04B0BDE8F04D00F069BE00278F
:102B3000002DBCBFE149884521DAE1498845A8BF9D
:102B400002271CDAC3451ADCDE4901EB285114299F
:102B500008DDC1F1340220FA02F101FA02F28242E8
:102B60000DD108E058B9C1F1140228FA02F101FAB6
:102B700002F2424503D101F00101C1F1020756EA18
:102B80000A0124D1002C22DA002D18BF022F01D017
:102B9000012F0AD0022000F07FFE16B0BDEC0E8B94
:102BA00004B0BDE8F04D00F013BE022000F074FE4A
:102BB00000F00EFE51EC100B81F0004141EC100BC7
:102BC00016B0BDEC0E8B04B0BDE8F08D18E09FEDA3
:102BD000BEAB9FEDBF8B002871D1B848804522D194
:102BE00005F1804010F5801008BFBAF1000F07D042
:102BF000B3450ADC002CA8BF9DED260BE0DA0DE002
:102C0000B0EE490AF0EE690ADAE7002C06DA9DED2B
:102C1000260B51EC100B81F000416FE0AE48784478
:102C200090ED000BCCE7D8454DD1002C48DA2EB101
:102C300086423AD1BAF1000F42D126E0BAF1000F34
:102C400013D0022000F028FE00F0F6FD8DED020BFF
:102C50009DED240B8DED000B10EE900A039961F3AE
:102C60001E0003909DED020BAAE78DED02AB9DEDDA
:102C7000240B1AEE901A10EE900A8DED000B61F302
:102C80001E0003909DED020B9AE78DED028B9DEDEA
:102C9000240B18EE901A10EE900A8DED000B61F3E4
:102CA0001E0003909DED020B8AE709DA9DED240BCF
:102CB00051EC190B53EC102BFDF79BFB1EE020E0B1
:102CC0009DED240B7CE786421BDAB4F1804F0DD0DA
:102CD000A4F10050B0F1FF5013D1002D11DB9DED98
:102CE000240B51EC100B01F0DBFD07E09DED240BF4
:102CF00053EC102B51EC100B00F0C2BC41EC100B4C
:102D00005EE79DED240B51EC100B01F024FABAF1B3
:102D1000000FCDE90E0142D19FED710B46B3A6F134
:102D2000E040B0F17F600CD05E4538D1002D00DA74
:102D3000A7B3022F0CBF01204FF0FF30FDF7C8FBF7
:102D4000DCE7002D01DD002C0DDA002D01DD002C6B
:102D50001FDB002D16DA002C14DB012F08BF9FEDBE
:102D6000620B3FF42DAFB0EE4A0AF0EE6A0A27E795
:102D7000022F18BF002D0CD0012F0AD1002DFFF615
:102D80001FAF06E0002DB8BF002C08DA012F3FF47A
:102D900017AFB0EE480AF0EE680A11E71BE0012019
:102DA00000EBE57050EA070115D0791EB0EE498AB4
:102DB000F0EE698A084308BF9FED4D8B4E48002511
:102DC000804570DD4D494E48884514DDB0420DDB2D
:102DD000002C19DB2FE0012000F05EFD16B0BDECE9
:102DE0000E8B04B0BDE8F04D00F016BDB34502DC1B
:102DF000002C09DC1FE0864202DA002C1BDA03E01B
:102E00005E452BDD002C16DD022000F045FD00F0B4
:102E100013FD8DED020B53EC1A2B51EC180BFDF743
:102E200076FACDE900010399019861F31E00039041
:102E30009DED020BC4E6022000F02EFD00F00CFD1B
:102E400010EE901A18EE900A8DED020B8DED008BAE
:102E500061F31E0003909DED020BB1E69DED0E0B9C
:102E600053EC192B51EC100BFDF74BFA9FED260B91
:102E7000CDE9080153EC102B9DED080B51EC100B24
:102E8000FDF745FA9FED221B53EC112BFDF73CFAA1
:102E90009DED081B53EC112BFDF739FA9FED1E1B1E
:102EA00053EC112B3CE08CE0FFFF1F00FFFF0F00F5
:102EB000000000000000F03F0000F03F0000F07F45
:102EC0000000404301FCFFFF000000000000F07F15
:102ED0000000000000000000C61D0000000000000F
:102EE0000000000000000080000000000000F0FF73
:102EF000000000000000F0BF0000E0410000F043CF
:102F0000FFFFEF3F00000000000000000000D03F86
:102F1000555555555555D53F000000000000E03F80
:102F2000FDF7F2F99DED080B41EC1A0B53EC102B59
:102F300051EC100BFDF7EBF953EC1A2BFDF7E7F909
:102F400041EC1A0B9FEDFE0B53EC102B9DED080B83
:102F500051EC100BFDF7DBF941EC1B0B9FEDFA0B6D
:102F600051EC1A0B53EC102BFDF7D1F941EC1A0B75
:102F70009FEDF70B53EC102B9DED080B51EC100B54
:102F8000FDF7C5F953EC1A2BFDF7BBF941EC1A0B11
:102F900051EC1B0B53EC1A2BFDF712F90690CDE9FF
:102FA00006519DED060B53EC1B2B51EC100BFDF75E
:102FB000A8F953EC1A2BFDF7A7F941EC100B00F020
:102FC000A1B90020B6F5801F0EDA9FEDE30B53EC9C
:102FD000102B9DED0E0B51EC100BFDF798F9CDE980
:102FE0000E016FF034000E4600EB2650A0F2FF37C2
:102FF000C6F31300DA4940F07F6646F04056884237
:10300000D8BF002408DDD7498142C8BF012403DCB2
:103010000024A6F580167F1CD348784400EBC4003A
:103020000F9690ED00CB9DED0E0B53EC1C2B51EC4D
:10303000100BFDF766F99DED0E0B41EC1B0B53ECED
:103040001C2B51EC100BFDF7BBF841EC100B51ECB5
:10305000190B53EC102BFDF7CCF941EC1D0B51EC87
:103060001B0B53EC1D2BFDF752F941EC1A0BBF481B
:103070008DED10AB7844109590ED000B4FF00050A3
:1030800040EA660000EB84408DED080B00F500205F
:1030900009909DED080B53EC1C2B51EC100BFDF728
:1030A00030F99DED0E1B53EC112BFDF72DF941EC82
:1030B000100B53EC102B9DED100B51EC100BFDF78A
:1030C00026F99DED080B41EC1C0B53EC102B9DEDEC
:1030D000100B51EC100BFDF71AF953EC1B2BFDF7FD
:1030E00013F953EC1C2BFDF70CF953EC1D2BFDF7DA
:1030F0000EF941EC1C0B53EC1A2B51EC1A0BFDF79B
:1031000006F941EC1B0B9A480621B0EE4B0AF0EE93
:103110006B0A784400F0E0FAB0EE401AF0EE601A64
:10312000B0EE41DAF0EE61DA53EC1B2B51EC1B0BE5
:10313000FDF7EDF853EC1D2BFDF7E9F89DED100BB5
:1031400041EC1B0B53EC1A2B51EC100BFDF738F82C
:1031500053EC1C2BFDF7DBF853EC1B2BFDF730F881
:103160009DED100B41EC1B0B53EC102B51EC100B95
:10317000FDF7CDF841EC1D0B9FED7FEB53EC1E2BC3
:10318000FDF71EF853EC1B2BFDF71AF80890CDE95C
:1031900008519DED080B53EC1E2B51EC100BFDF765
:1031A000B0F853EC1D2BFDF7ACF853EC1B2BFDF7DF
:1031B000ABF89DED080B41EC1D0B53EC102B9DED76
:1031C000100B51EC100BFDF7A2F841EC1B0B53EC6C
:1031D0001A2B51EC1D0BFDF79AF89DED080B41ECF5
:1031E0001A0B53EC102B51EC1C0BFDF790F853EC21
:1031F0001A2BFCF7E5FF41EC1A0B51EC1B0B53ECBF
:103200001A2BFCF7DDFF0C90CDE90C519DED0C0B5A
:1032100053EC1B2B51EC100BFDF773F853EC1A2BEE
:10322000FDF772F841EC1B0B9FED550B53EC102B87
:103230009DED0C0B51EC100BFDF769F841EC1A0BEE
:103240009FED510B51EC1B0B53EC102BFDF75FF86E
:1032500041EC1B0B9FED4E0B53EC102B9DED0C0B1B
:1032600051EC100BFDF753F853EC1B2BFCF7A8FFA8
:1032700041EC100B4848784400EBC40090ED001B73
:1032800051EC100B53EC112BFCF79AFF41EC1B0B8C
:103290003846FDF71DF9CDE9080153EC1B2B51EC25
:1032A0001A0BFCF78DFF41EC100B3C48784400EB07
:1032B000C40090ED00CB51EC100B53EC1C2BFCF731
:1032C0007FFF9DED081B53EC112BFCF779FF069057
:1032D000CDE906519DED080B53EC102B9DED060B2F
:1032E00051EC100BFDF70DF853EC1C2BFDF709F812
:1032F00053EC1A2BFDF705F853EC1B2BFDF704F8E4
:1033000041EC100B9DED261B53EC102B8DED001B9B
:1033100000959DED260B51EC100BFCF7F8FF9DED91
:10332000000B41EC1A0B53EC102B9DED260B51ECCE
:10333000100BFCF7E6FF9DED061B53EC112B2FE065
:10334000000000604715F73FFE822B654715F73FE9
:1033500044DF5DF80BAE543E000000000000404327
:103360008E9803007AB60B00421900007019000015
:103370007A18000000000000000000000000084073
:10338000000000E009C7EE3FFD033ADC09C7EE3F4D
:10339000F5015B14E02F3EBE06170000C0160000CA
:1033A000FCF7B5FF53EC1A2BFCF70AFF9DED060B5B
:1033B00041EC1A0B53EC102B9DED000B51EC100B54
:1033C000FCF7A5FFCDE90C019DED0C0B51EC1A0BA0
:1033D00053EC102BFCF7F4FECDE902010C46AA4990
:1033E0008C422FDB611A084318D19DED0C0B53EC76
:1033F000102B9DED020B51EC100BFCF782FF41EC02
:103400001B0B9FEDA30B51EC1A0B53EC102BFCF78D
:10341000D7FE53EC1B2BFDF78FF92DD2022000F0C5
:103420003BFA00F009FA10EE901A18EE900A8DEDB2
:10343000020B8DED008B61F31E0003909DED020BDE
:10344000FFF7BEBB944A24F00041914214D3934944
:10345000214408437FF4EFAC9DED0C0B53EC102B93
:103460009DED020B51EC100BFCF74BFF53EC1A2BAC
:10347000FDF762F97FF6DFAC24F000408849894A05
:10348000002601EB205182422BDA481C4FF48011B8
:1034900021FA00F02044844AC0F30A517A44A1F290
:1034A000FF3192ED000B814A8DED080BCA4020EAF6
:1034B0000202C0F3130040F48010C1F1140120FA9D
:1034C00001F60992002CB8BF76429DED080B53EC33
:1034D000102B9DED0C0B51EC100BFCF712FFCDE9FE
:1034E0000C019DED0C0B51EC1A0B53EC102BFCF75F
:1034F00067FE9FED6F0B0890CDE9085153EC102B40
:103500009DED080B51EC100BFCF701FF41EC1B0B80
:103510009FED690B53EC102B9DED080B51EC100B3C
:10352000FCF7F5FE9DED0C0B41EC1C0B53EC102B46
:103530009DED080B51EC100BFCF7E3FE53EC1A2B3E
:10354000FCF7E2FE9FED5E1B53EC112BFCF7DFFE58
:1035500053EC1C2BFCF734FE41EC1A0B51EC1B0B0B
:1035600053EC1A2BFCF72CFECDE902019DED020B6A
:1035700053EC1B2B51EC100BFCF7C3FE53EC1A2B36
:10358000FCF7C2FE9DED020B41EC1A0B53EC102B25
:1035900051EC100BFCF7BBFECDE908014A489DED4C
:1035A000080B0521784400F097F89DED081B51ECBD
:1035B000100B53EC112BFCF7AAFE9DED021B53ECF4
:1035C000112BFCF7A1FECDE906019DED020B53EC9A
:1035D0001A2B51EC100BFCF79AFE53EC1A2BFCF74C
:1035E000EFFD9FED3B0B41EC1A0B53EC102B9DEDC7
:1035F000060B51EC100BFCF784FE9DED060B41EC25
:103600001B0B53EC102B9DED020B51EC100BFCF738
:103610007EFE53EC1B2BFCF7ECFE53EC1A2BFCF755
:1036200070FE9DED021B53EC112BFCF76AFE53EC70
:10363000192BFCF769FECDE9020101EB06500115DB
:103640000029C8BF039015DC9DED020B324651ECFA
:10365000100BFDF742F8FFF7FFF9042808BF00F050
:10366000FBF832469DED020B51EC100BFDF735F8DF
:10367000CDE902019DED020B51EC180B53EC102B20
:10368000FCF745FEFFF73ABB000090400000000049
:10369000FE822B654715973C00CC904000346F3F6D
:1036A00001FCFFFF0000E03F48150000FFFF0F0096
:1036B00000000000432EE63F396CA80C615C20BE80
:1036C000EF39FAFE422EE63F181400000000000019
:1036D000000000000000004070B504462DED028B94
:1036E0004D1E00EBC500B0EE408AF0EE608A90ED12
:1036F000000B35F0060017D053EC182B51EC100BD3
:10370000FCF705FE41EC100B6D1E04EBC50090EDBF
:10371000001B51EC100B53EC112BFCF751FD41EC4D
:10372000100B35F00600E7D1022D36D0042D1CD049
:10373000062D1CBFBDEC028B70BD53EC182B51EC59
:10374000100BFCF7E4FD94ED0A1B53EC112BFCF776
:1037500037FD53EC182BFCF7DAFD94ED081B53EC06
:10376000112BFCF72DFD41EC100B53EC182B51ECF9
:10377000100BFCF7CCFD94ED061B53EC112BFCF762
:103780001FFD53EC182BFCF7C2FD94ED040B53EC1A
:10379000102BFCF715FD41EC100B53EC182B51ECE2
:1037A000100BFCF7B4FD94ED021B53EC112BFCF74E
:1037B00007FD53EC182BFCF7AAFD94ED001B53EC0E
:1037C000112BFCF7FDFCBDEC028B41EC100B70BD26
:1037D0009FED070B10B553EC102B9FED070B51EC31
:1037E000100BFCF706FE41EC100B10BD00000000B2
:1037F0000000000000000000000000000000F03F9A
:1038000010B553EC112B51EC100BFCF7D9FC41EC2B
:10381000100B10BD000000009FED050B10B553EC20
:10382000102B51EC100BFCF7E4FD41EC100B10BD1C
:1038300000000000000000009FED050B10B553ECE8
:10384000102B51EC100BFCF762FD41EC100B10BD7E
:1038500000000000000000709FED050B10B553EC58
:10386000102B51EC100BFCF752FD41EC100B10BD6E
:10387000000000000000001002E008C8121F08C18C
:10388000002AFAD170477047002001E001C1121FE1
:10389000002AFBD170470000014908607047000012
:1038A0001C0000202DE9FF5F82B00021DDE904301B
:1038B000020DDDF840B0034318D044F61050A2F2D8
:1038C000FF3242431514119801281FD0A5EB0B00BD
:1038D000401C5FEA000A4FF000064E4FDFF83891B7
:1038E000B046504615D5CAF1000413E011980124E2
:1038F0004AA3012801D16FEA0B010298119AC0E98D
:103900000031C0E9024206B0BDE8F09FCBF10000F3
:10391000DFE704460021404A491842EB0450CDE954
:10392000001012E0E00707D032463B4640464946C9
:10393000FCF7EDFC8046894632463B461046194668
:10394000FCF7E5FC06460F466410002CEAD1DDE9E1
:103950000401DDE90023BAF1000F06DAFCF7D7FC19
:1039600042464B46FCF7D3FC05E0FCF742FD4246DD
:103970004B46FCF73EFD04460E460022284BFCF762
:10398000DBFE03D84FF0FF30014607E00022254B55
:1039900020463146FCF714FCFCF7B6FE102409E083
:1039A000002C0ADB0A220023FCF7D8FD039B3032EF
:1039B0001A55641E50EA0102F2D1641C039AC4F144
:1039C00011031444119A012A03D0012208430DD196
:1039D0000AE0084304D000204FF0110B119072E769
:1039E000A3EB0B056D1E0DE05B4504DD4FF00002FF
:1039F00005F1010504E003DA4FF00002A5F101052D
:103A0000002AECD002981199C0E90231C0E90045C2
:103A100079E70000000014400000F03F3000000093
:103A20000000F0430000E03F2DE9FF4F95B09B46BA
:103A30008946064600250FE2252877D1002427462F
:103A4000F84A0121059400E0044316F8013F203BA9
:103A500001FA03F01042F7D130782A2811D06FF024
:103A60002F033078A0F13002092A16D8059A44F0C5
:103A7000020402EB820203EB42021044761C059022
:103A8000EFE759F8042B0592002A03DA504244F478
:103A90000054059044F00204761C30782E2816D18C
:103AA00016F8010F44F004042A280DD06FF02F02FD
:103AB0003078A0F13003092B09D807EB870302EB1C
:103AC0004303C718761CF3E759F8047B761C30785B
:103AD0006C280FD006DC4C2817D068280DD06A2837
:103AE00014D104E0742810D07A280FD10DE044F4EA
:103AF00000140AE044F4801401E044F440147278A5
:103B0000824202D104F58014761C761C3078662837
:103B10000BD013DC582877D009DC002875D0452855
:103B2000F6D04628F4D047281AD19DE118E0632842
:103B300035D0642879D0652812D195E1702873D0EA
:103B400008DC6728F1D069286FD06E280DD06F2867
:103B500006D1B5E073282CD0752875D0782874D09C
:103B60005A46179990476D1C75E1C4F3025002281C
:103B700009D003280DD0D9F8001004280DD00D600D
:103B800009F1040967E1D9F80010EA17C1E9005208
:103B9000F6E7D9F800100D80F2E70D70F0E719F89C
:103BA000041B8DF8001000208DF80100EA4601206A
:103BB00003E059F804AB4FF0FF3061074FF000010C
:103BC00002D40DE008F101018846B9420FDA8045C0
:103BD000F8DB1AF808100029F4D108E008F1010117
:103BE00088468142FADB1AF808100029F6D10598B8
:103BF0005B46A0EB080721463846179A00F094FA76
:103C0000284400EB080507E04DE029E10DE01AF833
:103C1000010B5A4617999047B8F10108F7D25B4655
:103C200021463846179A13E142E00A220092C4F373
:103C300002524FF0000A022A08D059F804CB032A96
:103C40004FEAEC710AD00DE029E02AE009F1070102
:103C500021F00702F2E802C1914609E00FFA8CFC5C
:103C60004FEAEC71042A03D14FFA8CFC4FEAEC7155
:103C7000002907DA0A460021DCF1000C61EB0201A1
:103C80002D2202E0220504D52B228DF804200122EA
:103C900003E0E20701D02022F7E7904659E00A212D
:103CA00002E010220DE010214FF0000A00910BE01D
:103CB00010224FF0000A44F004040827009203E0A9
:103CC00008224FF0000A0092C4F30252022A05D0E3
:103CD00059F804CB0021032A08D009E009F10701B3
:103CE00021F00702F2E802C1914605E01FFA8CFCC0
:103CF000042A01D10CF0FF0C4FF00008220728D550
:103D0000702806D0009B83F0100353EA0A0305D005
:103D10000EE040228DF80420012208E05CEA010256
:103D200006D030228DF804208DF80500022290463E
:103D3000009B83F0080353EA0A030AD15CEA0102FC
:103D400001D1620705D530228DF804204FF001081B
:103D50007F1E582804D034A003900EA802900DE0D6
:103D600036A0F9E753466046009AFCF7F7FB844615
:103D70000398825C0298401E029002705CEA010087
:103D8000F0D1029806A9081A00F1200A600702D5AE
:103D900024F4803400E00127574502DDA7EB0A0038
:103DA00000E0002000EB0A01009005984144401A11
:103DB0000590E00306D45B462146179A059800F06B
:103DC000B3F90544002706E001A85A46C05D1799DB
:103DD00090476D1C7F1C4745F6DBE0030CD55B4626
:103DE0002146179A059800F09FF9054404E0302019
:103DF0005A46179990476D1C0099481E009000295B
:103E0000F5DC08E0029802995A460078491C0291B4
:103E1000179990476D1CBAF10001AAF1010AF1DC73
:103E200065E100000928010030313233343536377E
:103E300038396162636465660000000030313233F6
:103E40003435363738394142434445460000000096
:103E500000F058F90544761C307800287FF4ECAD6A
:103E600019B02846BDE8F08F620700D4062709F193
:103E7000070222F0070CFCE80223E14603F00048A9
:103E80005FEA080C02D00FF2702C0DE05FEA045CD0
:103E900002D50FF2682C07E05FEAC47C02D00FF273
:103EA000602C01E0AFF2700C4FF0FF3823F00043BC
:103EB000CDF850C065280CD006DC452809D046282E
:103EC0001DD047283DD13DE0662818D067287ED117
:103ED00038E00021112F01DB112000E0781CCDE932
:103EE000000106A90EA8FFF7DDFCDDE90F010E9A1F
:103EF00003910021009207F1010A04914DE04FF077
:103F000000400097CDE9011006A90EA8FFF7CAFCF2
:103F1000DDE90F0203920E9B11990022DDF80CA03F
:103F20000093049211B9791C00EB010AB7EB0A0067
:103F300004D4C0F1FF3007F1010A0490AAEB070096
:103F4000019044E0012F00DA01270021112F01DD4B
:103F5000112000E03846CDE9000106A90EA8FFF7C0
:103F6000A1FCDDE90F010E9A03910021049100925A
:103F7000BA4621070CD40399514500DA8A46BAF1B2
:103F8000010F05DD009AAAF10101515C302908D02A
:103F9000B84202DA10F1040F06DA0121CDE901106E
:103FA00015E0AAF10101E9E7002805DC04990144C4
:103FB0000491AAEB000102E0411C514500DD8A4654
:103FC0000499401A401C01904FF0004002902007D5
:103FD00004D40198504501DBCDF8048000208DF811
:103FE0004F0002980DF14F07B0F1004F25D02B2064
:103FF0000E9002984FF0020800280CDA404202901E
:104000002D200E9007E00A210298FCF791FA30313A
:10401000029007F8011DB8F10001A8F10108F2DCD7
:1040200002980028EFD1791E0E980870307800F0C1
:10403000200040F0450007F8020D12A8C01B00F157
:1040400007081498007800B1012000EB0A010198DC
:1040500001EBE07105984144401A401E0590E003D1
:1040600006D45B462146179A059800F05DF8054492
:104070001498007818B15A46179990476D1CE003C0
:1040800024D55B462146179A059800F04DF8054463
:104090001CE00498002807DBDDE90301884203DD0A
:1040A0000098405C179901E0179930205A469047D4
:1040B000049805F10105401C04900198401E0190F0
:1040C00004D12E205A46179990476D1CBAF1000171
:1040D000AAF1010ADDDC05E017F8010B5A46179931
:1040E00090476D1CB8F10001A8F10108F4DC5B46B3
:1040F0002146179A0598ABE62D0000002B00000022
:10410000200000002DE9F041044600251E46174618
:10411000880404D405E039462020B0476D1C641E95
:10412000F9D52846BDE8F0812DE9F0410446002587
:104130001E469046C80301D5302700E0202788049A
:1041400004D505E041463846B0476D1C641EF9D5DC
:104150002846BDE8F08182B0CDE9000121F00040A1
:1041600001909DED000B02B051EC100B7047000068
:1041700000BF054A126802F04002002AF9D0C2B21C
:10418000014B5A60704700000010014002894281D3
:104190004A6B527D4B6B1B7D42EA032202814A6BC4
:1041A000D37D927D43EA022212B24280428802808D
:1041B0004A6B537E127E43EA022212B26FF004036E
:1041C00092FBF3F212B282804A6B927E8271028974
:1041D0004389D21AB2F5805F03DD0269521E026183
:1041E00008E002894389D21A12F5805F02DA026977
:1041F000521C02610389026903EB42328389D21A9D
:10420000426170474A6B527D4B6B1B7D42EA032231
:1042100002810289828170472DED0E8B8AB00026C3
:104220000027002008EE100A814683460990824646
:10423000804600240025FDF707FA07230222082103
:104240004FF4A870FEF7A4F800BF00200390C24806
:10425000006840F02000C04908600846006800F08F
:104260002000039000BF00BF4FF4C0600490012005
:10427000059006900320079004A9B848FDF7CAF8F6
:104280004FF4E13000F044FBFCF7E4FA00BF09E032
:1042900004EBC40101EB0411B14A02EB810000F010
:1042A0008BFA641C012CF3DB00204FF4FA51CDE9AA
:1042B00000010290AA48DFEDAB1A9FEDAB1AF0EEB9
:1042C000000AB1EE040A41F288334FF48042012122
:1042D000D0F858C0E047002003460246014600904F
:1042E000A24800F0ACFAA2A0FEF7A6FB32E1FDF76F
:1042F0009DF9A0EB0A00B0F5FA7F5DD9FDF796F9BC
:1043000082469FA0FEF798FBB8F1000F0CD1012266
:1043100051029248FDF77EF9012291028F48FDF784
:1043200079F94FF001080DE000224FF400718B483D
:10433000FDF770F900224FF480618848FDF76AF9B3
:104340004FF000088948406B407D8849496B097DE2
:1043500040EA01200FFA80FB8448406BC17D83480E
:10436000406B807D41EA00200FFA80F97F48406B66
:10437000807E0990494685A0FEF75EFB88A00999DA
:10438000FEF75AFB5846FCF7A3F841EC1B0B9FEDD8
:10439000890B53EC102BFCF72CF841EC1A0B9FED1A
:1043A000870B53EC102BFBF7B2FF41EC190B53ECCE
:1043B000192B84A0FEF740FB8748008800F40040DA
:1043C00000287DD084480088C0F30D06834800781B
:1043D0002D2833D101252EE0711B481EFCF778F8FB
:1043E00041EC1E0BB0EE4E1AF0EE6E1A9FED7C0BF8
:1043F000FEF74AFBB0EE40CAF0EE60CA7749495D6D
:10440000A1F13000FCF764F841EC1D0B53EC1C2BC0
:10441000FBF77DFF41EC1A0B3846FCF759F841ECED
:104420001B0B53EC1A2BFBF76CFF41EC190BFCF741
:1044300060F807466D1CB542CEDB32E000252EE069
:10444000711B481EFCF744F841EC1E0BB0EE4E1AEF
:10445000F0EE6E1A9FED620BFEF716FBB0EE40CA4F
:10446000F0EE60CA5D49495DA1F13000FCF730F81B
:1044700041EC1D0B53EC1C2BFBF749FF41EC1A0BD5
:104480003846FCF725F841EC1B0B53EC1A2BFBF7D5
:1044900097FE41EC190BFCF72CF807466D1CB54252
:1044A000CEDB51A0FEF7C8FAB2B24FF47A734B4993
:1044B0005248FDF7B9FE00BF50480068006800E0B0
:1044C0000DE0C0F380100028F6D039464CA0FEF76E
:1044D000B3FA08EE107A00203F4908800027002434
:1044E00027E0B8EEC80A04EBC40000EB04101C4936
:1044F00001EB800080ED010A04EB440202EBC402F0
:10450000444B33F9222000EE902AF8EEE00AB0EE98
:10451000600A04EBC40202EB04120B4603EB8200B8
:1045200004EBC40202EB041203EB8202116E884713
:10453000641C012CD5DB00200090094890ED0C0A8A
:10454000BDEEC00A10EE100A01B200231A46074859
:1045500000F075F9CBE6000030380240001402404C
:1045600020000020000000000AD7A33C84000020A7
:10457000B3F5CABCBBAFBDE1CAF8A1A30D0A0000E8
:1045800052554E4E494E47210D0A00000D0AB5E71F
:10459000BBFAD7AACBD9A3BA25640D0A0000000044
:1045A0000D0AB5E7BBFACEC2B6C8A3BA25640D0A98
:1045B000000000000000000000FFBF4000000000FD
:1045C000008076400D0AB5E7BBFABDC7B6C8A3BAEE
:1045D000252E316C660D0A0018000020E001002035
:1045E00000000000000024400D0AB7A2CBCDB5C4E6
:1045F000CFFBCFA2CEAA3A0D0A000000A8020020ED
:104600000D0ACFF2B5E7B5F7D0B4C8EBD6B53A2569
:10461000640D0A00C400002010B58AB004460020D2
:1046200005900690012007900020009001900290D4
:10463000039004900E2009900120089069462046BE
:10464000FCF7FAF90E20059069462046FCF7F4F9CC
:104650000448844203D104482063044860630AB0DC
:1046600010BD000084000020A0010020BC0100203B
:1046700010B52DED028B0446B0EE408A54F84C0F75
:104680006060FCF7D3FF206020782179401A207207
:1046900004ED0D8A14ED0C0A04ED0B0A14ED070A63
:1046A00004ED060A14ED120A54ED0D0A30EE600A0C
:1046B00004ED0C0A14ED0C0A4C3CB5EEC00AF1EE08
:1046C00010FA02DD94ED070A03E094ED070AB1EE5B
:1046D000400AD4ED100AB4EEE00AF1EE10FA65DDFE
:1046E00094ED030AD4ED070A20EE200A84ED090AAE
:1046F00094ED0A0AD4ED040A94ED071A00EE810A3B
:1047000084ED0A0A94ED070AD4ED080A30EE600A37
:10471000D4ED050A20EE200A84ED0B0A94ED0A0A76
:10472000D4ED0F0AB4EEE00AF1EE10FA03DD94EDD9
:104730000F0A84ED0A0A94ED0A0AD4ED0F0AF1EE8D
:10474000600AB4EEE00AF1EE10FA05D294ED0F0A19
:10475000B1EE400A84ED0A0A94ED090AD4ED0A0A82
:1047600030EE200AD4ED0B0A30EE200A84ED0C0A5C
:1047700094ED0C0AD4ED0E0AB4EEE00AF1EE10FA54
:1047800003DD94ED0E0A84ED0C0A94ED0C0AD4EDD1
:104790000E0AF1EE600AB4EEE00AF1EE10FA05D26C
:1047A00094ED0E0AB1EE400A84ED0C0A94ED0C0A69
:1047B000BDEC028B10BD0000034981650349C16552
:1047C0000349016670470000D547000831480008DA
:1047D000714600089DED002ADDED012A9DED023AAB
:1047E0000170F8EE423AC0ED113A80ED100A03EE86
:1047F000903AF8EE633AC0ED0F3A03EE902AF8EEE5
:10480000633AC0ED0E3AF8EEE23AC0ED123AF8EE35
:10481000C33AC0ED013AC0ED030A80ED041AC0EDC1
:10482000051ADFED023AC0ED0C3A704700000000B7
:1048300080ED030AC0ED040A80ED051A70472DE9EA
:10484000F04104460D4616461F46DDF818804FF429
:104850000070216B08600020216B8860216BC860AC
:104860000820216B0861280A216B0875206B4575AB
:10487000310A206B8175206BC675390A206B017671
:10488000206B47764FEA1821206B8176206B80F8E9
:104890001B804FF47A712046FCF768FCBDE8F0817C
:1048A00000B52DED048B83B041EC190BFBF76EFFC7
:1048B00041EC180B18EE100A18EE901A8DED008BD3
:1048C000002818BF0120084320F00040C0F17F609D
:1048D00000F1E040C00F14D019EE101A19EE900A42
:1048E0008DED009B002918BF0121084320F00040F6
:1048F000C0F17F6000F1E040C00F04BF0120FEF76F
:10490000CBFF51EC180B03B0BDEC048B00BD0000D5
:1049100010B5044609480A49086008464460002169
:104920008160C160016181610C214161FDF77EFB05
:10493000012204490248FDF701FC10BD00100140AE
:10494000A80200201A000020000000000000000063
:104950000102030406070809000000000102030425
:10496000000000000000F03F000000000000F83FE1
:1049700000000000000000000000004003B8E23F1B
:10498000000000000000000006D0CF43EBFD4C3ECD
:10499000033333333333E33FFFAB6FDBB66DDB3FC2
:1049A0004D268F515555D53F01411DA96074D13F0A
:1049B00065DBC9934A86CD3FEF4E454A287ECA3F04
:1049C0003E5555555555C53F93BDBE166CC166BF86
:1049D0002CDE25AF6A56113FF16BD2C541BDBBBE7F
:1049E000D0A4BE726937663E0000000000000000DF
:1049F000104A00080000002020000000783800085D
:104A0000304A000820000020C8060000883800084E
:104A10000024F4000000000000000000000000007E
:104A20000000000000000000000000000000000086
:040000050800018965
:00000001FF
