:020000040800F2
:10000000B009002089020008AB450008FB1A00086F
:10001000A9450008D5080008ED4B000800000000C5
:10002000000000000000000000000000AF450008D4
:10003000F509000800000000AD450008454600082D
:10004000A3020008A3020008A3020008A3020008FC
:10005000A3020008A3020008A3020008A3020008EC
:10006000A3020008A3020008A3020008A3020008DC
:10007000A3020008A3020008A3020008A3020008CC
:10008000A3020008A3020008A3020008A3020008BC
:10009000A3020008A3020008A3020008A3020008AC
:1000A000A3020008A3020008A3020008A30200089C
:1000B000A3020008A30200089D460008A30200084E
:1000C000A3020008A3020008A3020008A30200087C
:1000D000A3020008C14B0008A3020008A302000805
:1000E000A3020008A3020008A3020008A30200085C
:1000F000A3020008A3020008A3020008A30200084C
:10010000A3020008A3020008A3020008A30200083B
:10011000A3020008A3020008A3020008A30200082B
:10012000A3020008A3020008A3020008A30200081B
:10013000A3020008A3020008A3020008A30200080B
:10014000A3020008A3020008A3020008A3020008FB
:10015000A3020008A3020008A3020008A3020008EB
:10016000A3020008A3020008A3020008A3020008DB
:10017000A3020008A3020008A30200080000000078
:10018000A3020008A302000800F002F800F06DF8D6
:100190000AA090E8000C82448344AAF10107DA45E2
:1001A00001D100F062F8AFF2090EBAE80F0013F0C7
:1001B000010F18BFFB1A43F001031847EC5D000064
:1001C0000C5E00000A444FF0000C10F8013B13F0E5
:1001D000070408BF10F8014B1D1108BF10F8015BA0
:1001E000641E05D010F8016B641E01F8016BF9D193
:1001F00013F0080F1EBF10F8014BAD1C0C1B09D1EA
:100200006D1E58BF01F801CBFAD505E014F8016B5B
:1002100001F8016B6D1EF9D59142D6D370470000ED
:100220000023002400250026103A28BF78C1FBD8FF
:10023000520728BF30C148BF0B607047642900F0E7
:100240001781752900F01481782900F04D81632908
:1002500000F0D382732900F0D882002070471FB5C8
:1002600005F02AFE1FBD10B510BD00F001FB1146C0
:10027000FFF7F5FF04F010FD00F01FFB03B4FFF7DC
:10028000F2FF03BC04F0CAFC094880470948004754
:10029000FEE7FEE7FEE7FEE7FEE7FEE7FEE7FEE736
:1002A000FEE7FEE704480549054A064B7047000093
:1002B0004946000889010008B0030020B009002069
:1002C000B0050020B0050020704753EA020C00F092
:1002D00069802DE9F04B4FF00006002B1FBFB3FAE9
:1002E00083F503FA05F424FA05F65E4012BF1643BF
:1002F000B2FA82F502FA05F4C5F120051EBF22FA12
:1003000005FC44EA0C04203556EA044C4FEA144438
:1003100018BF641C4FF000084FF00009904271EBC9
:10032000030C39D3002919BFB1FA81F701FA07F696
:10033000B0FA80F700FA07F6C7F120071EBF20FACF
:1003400007FC46EA0C062037B6FBF4FCA7EB0507D2
:10035000103F07F01F0BCBF120060CFA0BFB2CFA19
:1003600006F644BFB3460026202FA4BF5E464FF0DA
:10037000000B5BEA060C08BF4FF0010B19EB0B09F1
:10038000ABFB027C48EB0608C01B06FB02CC0BFB58
:1003900003CC71EB0C01C1E70B46024641464846CF
:1003A000BDE8F08B13B54FF000004FF00001AFF344
:1003B0000080BDE81C4070470FB4044910B503AA83
:1003C000029800F027FA10BC5DF814FB180000201A
:1003D00070B5044685690068C10601D5302600E085
:1003E0002026C00707D070BDD4E9012130469047D0
:1003F000206A401C20626D1EF6D570BD70B50446A3
:1004000085690078C00707D170BDD4E9012120209B
:100410009047206A401C20626D1EF6D570BD70B5F5
:100420000C460546012A05D02878800600D5EA69E1
:10043000002302E0012305E05B1C934202D2E05C52
:100440000028F9D1A869E618C01AA861286A1844DA
:1004500028622846FFF7BCFF04E0D5E9012114F823
:10046000010B9047B442F8D32846FFF7C7FF70BD91
:100470002DE9F0410646002410687529314616A57D
:1004800010D0AFF30080002802DA404213A507E045
:1004900031688A0701D512A502E0490704D511A5E4
:1004A000012401E0AFF3008000210A2206F12407B5
:1004B00009E0B0FBF2FCB0FBF2F302FB1C003030B1
:1004C00078541846491C0028F3D123462A46304662
:1004D000BDE8F04100F02EB9000000002D00000042
:1004E0002B0000002000000070B504460D46214698
:1004F0001068AFF300802188090502D50F4A7A44BD
:1005000002E00E4A7A440E32002104F1240305E091
:1005100000F00F060009965D5E54491C0028F7D1D3
:1005200020780023000704D5702D02D009B10223E2
:1005300011322046BDE8704000F0FCB8D8590000E8
:100540002DE9F05F894604464FF0000ADFF874B1E8
:10055000FB44C0F820A02046E1688847002874D0FA
:10056000252806D0D4E901219047206A401C20624A
:10057000F1E700265F462046E168884720280546C7
:1005800007DB312D05D2781910F8200C08B106438D
:10059000F1E7B00701D526F00406C4F81CA0002737
:1005A000C4F818A02A2D09D0284604F030FB38B32F
:1005B00004EB8708303DC8F8185019E059F8041BBF
:1005C000204604EB87029161E1688847012F0546C8
:1005D00018D1E069002820DA26F020061DE0D8F8BE
:1005E000180000EB800005EB40003038C8F8180018
:1005F0002046E1688847054604F009FB0028EED153
:10060000012F0AD02E2D08D12046E16888477F1C93
:100610000546022F46F02006C4DBA069002803DA55
:10062000404246F00106A061F00701D026F0100616
:100630006C2D0BD0682D09D04C2D39D06A2D35D0BA
:10064000742D35D07A2D33D016E038E0E1682F468E
:1006500020468847B842054609D16C2F26D04FF472
:100660008060E168064320468847054604E06C2F19
:100670001AD04FF4807006430DB3A5F1410019283C
:1006800002D8203546F400664A46294620462660B0
:100690004E46FFF7D3FD80B101280BD0F61D26F0A2
:1006A000070000F1080956E74020E4E78020D8E77A
:1006B0000020D6E706F104094DE7284652E7206AF4
:1006C000BDE8F09FAE59000010B5203AC0F00B8095
:1006D000B1E81850203AA0E81850B1E81850A0E846
:1006E0001850BFF4F5AF5FEA027C24BFB1E81850A0
:1006F000A0E8185044BF18C918C0BDE810405FEA10
:10070000827C24BF51F8043B40F8043B08BF70478B
:10071000D20728BF31F8023B48BF11F8012B28BF90
:1007200020F8023B48BF00F8012B70477047704724
:10073000704770472DE9F0470D46994692460446AA
:1007400000F124080168880604D5E06921F0100151
:10075000216000E00120A84201DD471B00E00027E6
:10076000A1697A1902EB0900081AA0612078C00675
:1007700002D42046FFF72CFE002608E0D4E9012130
:100780001AF806009047206A401C761C20624E45ED
:10079000F4DB2078C0060AD52046FFF719FE06E0F4
:1007A000D4E9012130209047206A401C2062381E85
:1007B000A7F10107F4DC07E0D4E9012118F80500EE
:1007C0009047206A401C2062281EA5F10105F3DC39
:1007D0002046FFF713FE2078000602D50220BDE870
:1007E000F0870120FBE710B5436913B1AFF3008038
:1007F00001E0FFF714FE012010BD127800F1240182
:100800000A7000224A700122EDE711684FF0FF32B2
:10081000E9E70000074B70B50D467B4400F011F886
:100820000446284600F020F810B14FF0FF3070BDAC
:10083000204670BD6744000001694A1C02610878C7
:10084000704700B58FB0CDE9013100210591054910
:100850007944CDE9031011466846FFF771FE0FB0E9
:1008600000BD0000E5FFFFFF007B00F08000704747
:10087000754600F02BF8AE4605006946534620F059
:100880000700854618B020B5FFF70CFDBDE82040F5
:100890004FF000064FF000074FF000084FF0000B3C
:1008A00021F00701AC46ACE8C009ACE8C009ACE8EF
:1008B000C009ACE8C0098D46704710B50446AFF3D7
:1008C00000802046BDE81040FFF7D8BC00487047C4
:1008D00050030020FEE700002DE9F04387B0114CE3
:1008E00007460F480E9E9046894620601D461C22F2
:1008F0006946201DFFF7E8FE211D002081E8E00386
:1009000020766076A0760121E17620776077204618
:1009100000F0F0F9002800D0012007B0BDE8F08316
:1009200000640040B40200200EB51C4A4FF400736E
:1009300013601223536000239360C2E90331010A5C
:100940008DF800108DF804108DF801008DF8050069
:100950008DF802108DF8061010498DF803008DF8FF
:10096000070002AB6A46A1F1280000F0C3F808B105
:1009700001200EBD094902AB6A46A1F1280000F032
:10098000B9F838B10548283800F09EF90328F9D1A4
:1009900000200EBD02A0FFF70FFDE9E7DC020020FA
:1009A000676F6F640000000000B58BB0002001216C
:1009B000CDE906010590009001900290039004900B
:1009C0000E20CDE908106946094800F0F7F800B19B
:1009D000FEE7074800F046FA00B1FEE702210448AE
:1009E00000F076F8002800D0FEE70BB000BD000054
:1009F000B40200207047000070B5B3F5804F05D0F9
:100A00006FF0704140F82210002070BD50F8223085
:100A1000084C2340D1E9004544EA05148D688E89CD
:100A20002D0245EA064589692C430C431C4340F8D6
:100A30002240E9E70000F0CFF0B50C6850F82450F0
:100A4000114A1540D1E90123D1E903671A433E4316
:100A500032434E6932438E693243CE6932430E6A65
:100A600032434E6A32438E6A3243CE6A3243CE6B91
:100A7000096B32430A432A43082B01D142F040025A
:100A800040F824200020F0BD8000F0FF30B500EBDE
:100A900082004268D1E9003443EA04138C688D89EE
:100AA000240244EA054423430C8A084D02F04042E4
:100AB00005EB045423430C7D6D0105EB0464896947
:100AC00023430B4313434360002030BD0000F0FF7D
:100AD00090F82020012A07D0022A05D0416A41F46B
:100AE0008021416201207047006842690A434261E7
:100AF00000207047F0B590F820500468A468012DDC
:100B000005D0022D03D0416A41F4802153E014F056
:100B1000406F01D1E5004BD5C4F30164022C03D929
:100B2000416A41F4000146E00125A5401D608B6843
:100B30004FF4C0759BB1CE6833434E6843EAC60399
:100B4000066805EB0417F3514FF4C273076803EB13
:100B500004130E69FE50097D012905D009E00E88B5
:100B6000CB6843EA4653EBE70168CE5846F48076FB
:100B7000CE501179D2F805304FF4C67641EA0323FE
:100B8000016806EB04168B511178D2F801204FF45E
:100B9000C47341EA0221026803EB0413D1500068D8
:100BA00005EB0411425842F0010242500020F0BD12
:100BB000416A41F4001141620120F0BD10B590F886
:100BC0002020012A07D0022A05D0416A41F4802161
:100BD0004162012010BD3B48D0F8002242F00102E2
:100BE000C0F80022D0F8002222F47C52C0F8002283
:100BF000D0F800224B6A42EA0322C0F800220A7DA4
:100C000002F01F0301229A40D0F81C329343C0F82F
:100C10001C32CB69B3B9D0F80C329343C0F80C3214
:100C20008C894B6864F31F434C6900EBC404C4F81F
:100C300040320C890B6864F31F434C6900EBC40419
:100C4000C4F84432CB69012B16D1D0F80C321343CF
:100C5000C0F80C320C884B6864F31F434C6900EBFE
:100C6000C404C4F840320C89CB6864F31F434C6958
:100C700000EBC404C4F844328B69002BD0F8043272
:100C80000ED01343C0F804320B69002BD0F8143295
:100C900008D01343C0F81432096A012904D008E0CF
:100CA0009343EFE79343F5E7D0F81C121143C0F8E4
:100CB0001C12D0F8001221F00101C0F8001200202F
:100CC00010BD0000006400400246002092F8201091
:100CD000012901D002290CD111688A68520100D57E
:100CE00001208A68120100D5401C8968C90000D51E
:100CF000401C704770B5040003D094F8200010B178
:100D000004E0012070BD204600F082F820680168F0
:100D100021F00201016000F0CFF90546052604E04C
:100D200000F0CAF9401B0A2811D8206840688007E3
:100D3000F6D42068016841F00101016000F0BCF9BF
:100D400005460BE000F0B8F9401B0A2806D9606A96
:100D500040F40030606284F82060D2E72068406888
:100D6000C007EFD0207E0128206801683DD021F027
:100D700080010160607E01282068016838D021F080
:100D800040010160A07E01282068016833D021F075
:100D900020010160E07E0128206801682ED041F02A
:100DA00010010160207F01282068016829D021F00E
:100DB00008010160607F01282068016824D021F0CB
:100DC00004010160D4E902010843D4E9041211438B
:100DD00008436168491E08432168C86100206062B9
:100DE000012084F82000002070BD41F08001C0E7A0
:100DF00041F04001C5E741F02001CAE721F01001B0
:100E0000CFE741F00801D4E741F00401D9E7000041
:100E1000124800B5016887B041F0007101600068B8
:100E200000F0007005900D481038016841F0010194
:100E300001600068012100F0010005904FF4C050EE
:100E400000900220CDE90101039009200490694639
:100E5000034800F045F807B000BD000040380240EC
:100E60000000024070B5044690F82000012804D02C
:100E7000606A40F40020606217E0022084F82000DD
:100E80002068016821F00101016000F015F90546B4
:100E90000DE000F011F9401B0A2808D9606A40F4FF
:100EA00000306062052084F82000012070BD2068B9
:100EB0004068C007EDD1606270BD90F8351002291E
:100EC00003D08021416501207047052180F835104D
:100ED0000068016821F001010160002070470000F6
:100EE0002DE9F84FDFF88C91002209F1040A0AF18C
:100EF000040B4FF00F080BF1040E01260B6896400F
:100F00003340B34271D14C68022C01D0122C11D164
:100F1000D40800EB84073D6A5407E40E08FA04FC89
:100F200025EA0C05D1F810C00CFA04FC4CEA050CBB
:100F3000C7F820C007685400032591F804C0A540F5
:100F40000CF0030CAF430CFA04FC4CEA070CC0F89D
:100F500000C04F68012F05D0022F03D0112F01D000
:100F6000122F11D18768D1F80CC0AF430CFA04FCE2
:100F70004CEA070CC0F808C04768B7430E79C6F3BF
:100F8000001696403E434660C668AE438D68A54055
:100F90003543C5604C68E40065D5374C256845F499
:100FA00080452560246822F0030504F48044009401
:100FB000324C2E19D6F808789407250F08FA05F454
:100FC000A7432F4CA04201D1002424E02D4CA04285
:100FD00001D101241FE02C4CA04201D102241AE0CF
:100FE0002A4CA04202D1032415E03CE0284CA04248
:100FF00001D104240FE0274CA04201D105240AE0CE
:10100000254CA04201D1062405E0244CA04201D188
:10101000072400E00824AC403C43C6F80848D9F84F
:1010200000404D464E689C43F60300D51C432C609F
:10103000DAF8004055464E689C43B60300D51C4381
:101040002C60DBF800405D464E689C43F60200D5FC
:101050001C432C60DEF8004075464E689C43B60287
:1010600000D51C432C60521C102AFFF446AFBDE88B
:10107000F88F0000003C014044380240003001403D
:10108000000002400004024000080240000C024040
:10109000001002400014024000180240001C0240F0
:1010A0000AB1816170470904FBE70000014800684C
:1010B000000C7047002004E0014880687047000081
:1010C0000400002002488168027811448160704762
:1010D00004000020094810B5016841F40071016066
:1010E000016841F480610160052000F057F80F208D
:1010F00000F006F800F024F8002010BD003C02408B
:1011000070B50D4D04464FF47A712878B1FBF0F0BC
:101110000A490968B1FBF0F000F058FB48B9102CFF
:1011200007D200222146501E00F018F800206C6003
:1011300070BD012070BD00000400002000000020F0
:101140007047002809DB00F01F020121914040098F
:10115000800000F1E020C0F800117047F0B40E4BA1
:101160001B68C3F30223C3F10704042C00D9042431
:101170001D1D072D01D2002300E0DB1E012606FA0B
:1011800004F56D1E0D409D409E40761E164045EABA
:101190000601F0BC03F02BBD0CED00E0064A00F0A8
:1011A000070110684FF6FF03184040EA0120034989
:1011B00008431060704700000CED00E00000FA05E5
:1011C0002DE9F0470D46040065D0DFF81491D9F8F9
:1011D0000000EFB200F00F00A84207D289F80070BB
:1011E000D9F8000000F00F00A84254D120683D4E0D
:1011F000810712D5400703D5306840F4E0503060D5
:101200002078000703D5306840F4604030603068D3
:10121000A16820F0F000084330602078C0072DD08E
:10122000304960680839012812D0022813D00328F9
:1012300011D00968890700292DDA316821F00301EE
:1012400001433160FFF738FF804641F2883A0EE0F3
:1012500009688903EFE709688901ECE7FFF72CFFCC
:10126000A0EB0801514502D90320BDE8F0873068A2
:10127000616800F00C00B0EB810FEFD1D9F80010DD
:10128000484601F00F01A94207D90770006800F035
:101290000F00A84201D00120E7E72078400705D5DC
:1012A0003068E16820F4E05008433060207800079F
:1012B00006D53068216920F4604040EAC100306002
:1012C00000F036F83168084AC1F30311515CC84098
:1012D000064908600F20FFF713FF0020C5E7000054
:1012E000003C024008380240C25E000800000020B6
:1012F0000448054900680968044AC1F38221515C29
:10130000C84070470000002008380240D25E000844
:101310000448054900680968044AC1F34231515C38
:10132000C84070470000002008380240D25E000824
:10133000154810B5006810F00C01144813D0431084
:1013400004290FD008290ED10F4C241F216801F069
:101350003F022168490207D52068C0F38810A0FB2E
:10136000030106E0184610BD2168C1F38811A1FBF6
:1013700000010023FEF7A9FF2168C1F30141491CC8
:101380004900B0FBF1F010BD083802400024F40021
:101390002DE9F84F040073D02078BD4DC00748D028
:1013A000BB4808300168C1F38101012908D00068F9
:1013B000C0F3810002280AD1281D0068400206D52A
:1013C0002868800335D560680028E4D031E0606883
:1013D000B0F5803F10D0B0F5A02F286810D020F4D1
:1013E00080302860286820F4802028606068A0B1E0
:1013F000FFF762FE06460CE0286840F48030F4E710
:1014000040F480202860F7E7FFF756FE801B642831
:1014100072D828688003F7D50BE0FFF74DFE06462B
:1014200004E0FFF749FE801B6428F1D82868800398
:10143000F7D42078DFF85C9280074FF0000A3ED5A1
:1014400093480830016811F00C0F09D00068C0F310
:10145000810002280BD18E48001D0068400206D48E
:101460002868800715D5E068012809D111E0E068F7
:10147000B8B10120C9F80000FFF71EFE064605E0DE
:1014800003E1FFF719FE801B0228C1D828688007F6
:10149000F7D52868216920F0F80040EAC1002860EB
:1014A0000DE0C9F800A0FFF707FE064604E0FFF7CD
:1014B00003FE801B02281FD828688007F7D42078F5
:1014C000000722D5724F74496069743770B10120EA
:1014D0000860FFF7F1FD064604E0FFF7EDFD801B15
:1014E000022809D838688007F7D50EE0C1F800A0B7
:1014F000FFF7E2FD064605E081E0FFF7DDFD801B1A
:1015000002287CD838688007F7D42078400769D54E
:10151000DFF87CB14FF000080BF1400BDBF8000066
:10152000C0000CD4DBF8001041F08051CBF8001063
:10153000DBF800004FF0010800F080500090574F9A
:101540003868C0050FD4386840F480703860FFF701
:10155000B3FD064604E0FFF7AFFD801B02284ED81E
:101560003868C005F7D54A4FA068703701280FD0FA
:101570000528386810D020F001003860386820F065
:1015800004003860A068B0B1FFF796FD06460EE093
:10159000386840F00100F4E740F004003860F7E7F5
:1015A000FFF78AFD811B41F28830814265D8386897
:1015B0008007F5D50DE0FFF77FFD064606E0FFF753
:1015C0007BFD811B41F28830814256D83868800704
:1015D000F5D4B8F1000F05D0DBF8001021F08051F0
:1015E000CBF80010A069C8B3294908310968C1F3D4
:1015F0008101022949D00228504607D000E03CE092
:10160000C9F86000FFF758FD044639E04F46C9F8B5
:101610006000FFF751FD064604E0FFF74DFD801B1B
:1016200002282AD828688001F7D4D4E907010843A2
:10163000A16A1B4A490802EB0141626A41EA821130
:10164000084394F82C1040EA01611148001D016024
:1016500001203866FFF730FD044605E013E0FFF790
:101660002BFD001B022808D828688001F7D50AE066
:10167000FFF722FD001B022802D90320BDE8F88FE6
:1016800028688001F4D40020F8E70120F6E7000084
:101690000038024000004742800E47420070004080
:1016A0000000FFFF70B515460E46040003D094F805
:1016B000490010B107E0012070BD002084F8480007
:1016C000204600F01BF804F108012068FFF7B4F988
:1016D0003146A2682068FFF7D9F9D4E9010229460A
:1016E000236BFFF789F9A168206850F8212042F0A8
:1016F000010240F82120002070BD0000284810B5EC
:10170000016886B041F001010160006800F001004D
:10171000059023480838016841F00801016001681C
:1017200001F008010591016841F0100101600168B4
:1017300001F010010591016841F02001016001688C
:1017400001F020010591016841F04001016000684D
:10175000694600F0400005904CF233700090022082
:10176000019001200290032003900C2004900D486A
:10177000FFF7B6FB4FF68070009069460A48FFF706
:10178000AFFB4FF48054694608480094FFF7A8FB6C
:10179000694607480094FFF7A3FB06B010BD0000A0
:1017A00038380240000C0240001002400014024091
:1017B000001802404FF0E0210428086903D020F00F
:1017C00004000861704740F00400FAE710B5401EBD
:1017D000B0F1807F01D3012010BD4FF0E0246061A3
:1017E0000F21601703F003FA0020A0610720206199
:1017F000002010BD10B5040003D094F83D0010B1D6
:1018000007E0012010BD002084F83C00204600F0D5
:101810000CF8022084F83D00211D206802F058FFDA
:10182000012084F83D00002010BD70470168CA689F
:1018300042F00102CA600068816801F007010629D0
:1018400003D0016841F0010101600020704770473A
:1018500010F8391F407808437047000070B50268DF
:1018600004461068D168536910F00F0F50D003F090
:10187000010501F4907635435DD0C20705D0CA0555
:1018800003D5E26B42F00102E263420705D5DA07B5
:1018900003D0E26B42F00202E263820705D5DA0769
:1018A00003D0E26B42F00402E263020705D5DA07D7
:1018B00003D0E26B42F00802E263E26B002A33D00D
:1018C000800604D5880602D5204602F0A5FF2068D0
:1018D0004069E16BC0F38010090700D428B32046AB
:1018E00002F08CFF2068416949061AD5416921F050
:1018F00040014161606BA0B11B490165606BFFF75E
:10190000DCFA002810D0606B016DBDE8704008471C
:10191000830610D58B060ED52046BDE8704002F038
:101920007BBF2046FFF793FF70BD2046FFF78FFF78
:101930000020E06370BD030606D50B0604D52046E3
:10194000BDE8704003F00AB94006F3D54806F1D56A
:10195000D168204621F04001D160202184F839105F
:1019600000F0CAF870BD0000ED47000870B5040033
:1019700004D094F83900002510B106E0012070BDB4
:1019800084F83850204600F023F8242084F83900E9
:101990002068C16821F40051C160204602F088FF30
:1019A0002068016921F4904101612068416921F0BA
:1019B0002A0141612068C16841F40051C160E563BA
:1019C000202084F8390084F83A00002070BD00001F
:1019D00010B500681A4986B088422FD119480168AD
:1019E00041F001010160006800F001000590154818
:1019F0001430016841F0100101600068012100F01D
:101A0000100005904FF4007000900220CDE9010114
:101A1000039007200C4C049069462046FFF760FABB
:101A20002115009169462046FFF75AFA2520FFF755
:101A300088FB032211462520FFF790FB06B010BD5E
:101A400000100140303802400000024090F83A3067
:101A5000202B22D1F9B1F2B190F83830012B1CD0F3
:101A600081628285C2850021C163222280F83A20EA
:101A700080F838100168CA6842F48072CA60016850
:101A80004A6942F001024A610068C16841F02001E0
:101A9000C16000207047012070470220704700009D
:101AA00030B50068114988420CD1114A50880104B0
:101AB00008D41146440409784FF0000306D50A29DA
:101AC00001D0538030BD40F400400DE00D2909D015
:101AD000C0F30D04074D401C80B229555080C72823
:101AE000EFD830BD40F48040508030BD0010014040
:101AF000140000204C0100207047FEE770B5144828
:101B000086B00025016841F001010160016801F023
:101B100001010591016841F0100101600068032492
:101B200000F01000059002200126CDE90204CDE965
:101B3000006569460748FFF7D3F91C2003948DE838
:101B4000610069460448FFF7CBF906B070BD00009C
:101B500030380240000002400010024070B50646D6
:101B60000A4800240188458820464D43214602F05A
:101B700053FC02F0E1FCB1B24FF0D84002E0A0F813
:101B80008010641CAC42FAD370BD0000A402002097
:101B90002DE9F04F2B4B2C27194698712B2589885E
:101BA0004FF4305A4FF4285B4FF4487441F6631EEB
:101BB0002A264FF0F00845F210594FF4A07C4FF45C
:101BC000F072C8B1A3F800C0A3F80280494533D130
:101BD000A3F808A0A3F80AB0280298811C805A80B4
:101BE000A1F5A640103802D11A80A3F802C0BDE8C2
:101BF000F04F002002F040BBA3F80080A3F802C021
:101C0000494507D1A3F808A0A3F80AB04FF42C5017
:101C1000988104E071451F8104D15D819E811A8005
:101C20005C8001E05E819D81A1F5A6401038DED187
:101C3000A3F800C05A80DAE71F815E8171459D815B
:101C4000CCD0CDE7A40200202DE9F04FFF4895B09D
:101C50000024016841F00201016000680EA900F053
:101C6000020013904FF400400E9001200F9010904E
:101C700003201190F648FFF733F9F648F6494FF084
:101C80002049C0E900910621C0E902141021C0E9F1
:101C9000044184610902C461C0E909418900C0E9C5
:101CA0000B4189014463C0E90E410F20CDE90704CF
:101CB0003C2009900920CDE9000408200D940290F1
:101CC00003946A4607A90694E248FFF7EBFC32202A
:101CD00002F0B0FFD32002F023FC02F09BFADD4EAD
:101CE0005036B08002F096FA3146888002F092FABF
:101CF0004FF6FF7B31460BEA0020888002F08AFA1B
:101D0000314645F21037898845F21055084331466F
:101D100041F663188880A0F5134147F28974413970
:101D20007CD0042002F0FCFB02F074FAB08002F0D8
:101D300071FAB08002F06EFA0BEA00205A46B080C9
:101D400002F068FAB1880843A0F50541B080523925
:101D500060D0A04262D0D42002F0E2FB02F05AFA36
:101D6000B08002F057FAB08002F054FA02EA002084
:101D70009246B08002F04EFAB1880843B080B84273
:101D80004CD055214FF4704002F0E0FBAA214FF2F5
:101D9000010002F0DBFB52214FF2020002F0D6FB01
:101DA00008214FF2030002F0D1FB01214FF20400A1
:101DB00002F0CCFB4FF4454002F0B2FB02F02AFAED
:101DC0000AEA0020B0804CF2015002F0A9FB02F0B8
:101DD00021FAB1880843B080052002F02BFFB088BB
:101DE000B0F5004F7ED0A84218D0A12002F098FB99
:101DF00002F010FAB08002F00DFA0AEA0020B0807A
:101E000002F008FAB1880843A0F5AE41B08061390C
:101E100002D003E0B48001E0A6F80480B1888FA06E
:101E2000FEF7CAFAB08849F2413A50457ED1CF2038
:101E300002F076FB002002F067FBC12002F064FB99
:101E4000302002F061FBED2002F06AFB642002F01A
:101E50005BFB032002F058FB122002F055FB8120AF
:101E600002F052FBE82002F05BFB852002F04CFB05
:101E7000102002F049FB7A2002F046FBCB2002F052
:101E80004FFB392002F040FB2C2002F03DFB0020EC
:101E900002F03AFB342002F037FB022002F034FB60
:101EA000F72002F03DFB202002F02EFBEA2002F09A
:101EB00037FB002002F028FB002002F025FBC020A9
:101EC00002F02EFB1B2002F01FFBC12002F028FBBA
:101ED000012002F019FBC52002F022FB302002F0A5
:101EE00013FB00E0CBE0302002F00EFBC72002F035
:101EF00017FBB72002F008FB362002F011FB482048
:101F000002F002FB3A2002F00BFB552002F0FCFA33
:101F1000B12002F005FB002002F0F6FA1A2002F0D0
:101F2000F3FAB62002F0FCFA0A2000E0A9E002F081
:101F3000EBFAA22002F0E8FAF22002F0F1FA002017
:101F400002F0E2FA262002F0EBFA012002F0DCFABD
:101F5000E02002F0E5FA0F2002F0D6FA2A2002F083
:101F6000D3FA282002F0D0FA082002F0CDFA0E2091
:101F700002F0CAFA082002F0C7FA542002F0C4FAAC
:101F8000A92002F0C1FA432002F0BEFA0A2002F0B2
:101F9000BBFA0F2002F0B8FA002002F0B5FA0020D8
:101FA00002F0B2FA002002F0AFFA002002F0ACFA20
:101FB000E12002F0B5FA002002F0A6FA152002F0A6
:101FC000A3FA172002F0A0FA072002F09DFA1120D0
:101FD00002F09AFA062002F097FA2B2002F094FA07
:101FE000562002F091FA3C2002F08EFA052002F011
:101FF0008BFA102002F088FA0F2002F085FA3F20B9
:1020000002F082FA3F2002F07FFA0F2002F07CFA01
:102010002B2002F085FA002002F076FA002002F070
:1020200073FA012002F070FA3F2002F06DFA2A20C4
:1020300002F076FA002002F067FA002002F064FA5B
:10204000002002F061FAEF2010E00000303802407A
:102050000004024054020020040100A0204C43442C
:102060002049443A25780D0A0000000002F04CFA9D
:10207000112002F055FA782002F0DCFDD4E0B580A2
:10208000CCE6A0427ED1112002F04AFA782002F07C
:10209000D1FD362002F044FA002002F035FA3A2051
:1020A00002F03EFA052002F02FFAB22002F038FAD0
:1020B0000C2002F029FA0C2002F026FA002002F08F
:1020C00023FA332002F020FA332002F01DFAB72061
:1020D00002F026FA352002F017FABB2002F020FAAF
:1020E000322002F011FAC02002F01AFA0C2002F09D
:1020F0000BFAC22002F014FA012002F005FAC32004
:1021000002F00EFA102002F0FFF9C42002F008FAE3
:10211000202002F0F9F9C62002F002FA0F2002F0A6
:10212000F3F9D02002F0FCF9A42002F0EDF9A1208F
:1021300002F0EAF9E02002F0F3F9D02002F0E4F92D
:10214000002002F0E1F9022002F0DEF9072002F09F
:10215000DBF90A2002F0D8F9282002F0D5F9322064
:1021600002F0D2F9442002F0CFF9422002F0CCF97B
:10217000062002F0C9F90E2002F0C6F9122002F082
:10218000C3F900E053E0142002F0BEF9172002F07A
:10219000BBF9E12002F0C4F9D02002F0B5F900202B
:1021A00002F0B2F9022002F0AFF9072002F0ACF918
:1021B0000A2002F0A9F9282002F0A6F9312002F045
:1021C000A3F9542002F0A0F9472002F09DF90E2057
:1021D00002F09AF91C2002F097F9172002F094F906
:1021E0001B2002F091F91E2002F08EF92A2002F045
:1021F00097F9002002F088F9002002F085F900200C
:1022000002F082F9EF2002F07FF92B2002F088F92A
:10221000002002F079F9002002F076F9012002F0A6
:1022200073F93F2002F070F9292001F0FEBEB84298
:102230007ED1ED2002F074F9012002F065F9FE2054
:1022400002F062F9EE2002F06BF9DE2002F05CF998
:10225000212002F059F9F12002F062F9012002F088
:1022600053F9DF2002F05CF9102002F04DF9C42090
:1022700002F056F98F2002F047F9C62002F050F91B
:10228000002002F041F9E22002F03EF9E22002F0E3
:102290003BF9E22002F038F9BF2002F041F9AA2010
:1022A00002F032F9B02002F03BF90D2002F02CF9D7
:1022B000002002F029F90D2002F026F9002002F09A
:1022C00023F9112002F020F9002002F01DF9192055
:1022D00002F01AF9002002F017F9212002F014F997
:1022E000002002F011F92D2002F00EF9002002F07A
:1022F0000BF93D2002F008F9002002F005F95D20FD
:1023000002F002F9002002F0FFF85D2002F0FCF874
:10231000002002F0F9F8B12002F002F9802002F06A
:10232000F3F8002002F0F0F88B2002F0EDF800E066
:10233000FDE3002002F0E8F8962002F0E5F8002026
:1023400002F0E2F8B22002F0EBF8002002F0DCF834
:10235000002002F0D9F8022002F0D6F8002002F0A6
:10236000D3F8032002F0D0F8002002F0CDF8B3201B
:1023700002F0D6F8002002F0C7F8002002F0C4F8FE
:10238000002002F0C1F8002002F0BEF8002002F0A8
:10239000BBF8002002F0B8F8002002F0B5F80020E9
:1023A00002F0B2F8002002F0AFF8002002F0ACF822
:1023B000002002F0A9F8002002F0A6F8002002F0A8
:1023C000A3F8002002F0A0F8002002F09DF8002001
:1023D00002F09AF8002002F097F8002002F094F83A
:1023E000002002F091F8002002F08EF8002002F0A8
:1023F0008BF8002002F088F8002002F085F8002019
:1024000002F082F8B42002F08BF88B2002F07CF806
:10241000002002F079F8962002F076F8002002F011
:1024200073F8A12002F070F8002002F06DF8B520DA
:1024300002F076F8022002F067F8002002F064F85B
:10244000032002F061F8002002F05EF8042002F0A0
:102450005BF8002002F058F8B62002F061F8002086
:1024600002F052F8002002F04FF8B72002F058F8BE
:10247000002002F049F8002002F046F83F2002F068
:1024800043F8002002F040F85E2002F03DF8002002
:1024900002F03AF8642002F037F8002002F034F835
:1024A0008C2002F031F8002002F02EF8AC2002F06F
:1024B0002BF8002002F028F8DC2002F025F800209C
:1024C00002F022F8702002F01FF8002002F01CF841
:1024D000902002F019F8002002F016F8EB2002F02C
:1024E00013F8002002F010F8DC2002F00DF80020B4
:1024F00002F00AF8B82002F013F8002002F004F805
:10250000002002F001F8002001F0FEFF002001F0A1
:10251000FBFF002001F0F8FF002001F0F5FF002094
:1025200001F0F2FF002001F0EFFFBA2001F0F8FF08
:10253000242001F0E9FF002001F0E6FF002001F077
:10254000E3FF002001F0E0FFC12001F0E9FF2020BF
:1025500001F0DAFF002001F0D7FF542001F0D4FF92
:10256000002001F0D1FFFF2001F0CEFF002001F09C
:10257000CBFFC22001F0D4FF0A2001F0C5FF0020EC
:1025800001F0C2FF042001F0BFFF002001F0BCFFFA
:10259000C32001F0C5FF3C2001F0B6FF002001F090
:1025A000B3FF3A2001F0B0FF002001F0ADFF392069
:1025B00001F0AAFF002001F0A7FF372001F0A4FFDF
:1025C000002001F0A1FF3C2001F09EFF002001F05F
:1025D0009BFF362001F098FF002001F095FF32208C
:1025E00001F092FF002001F08FFF2F2001F08CFFFF
:1025F000002001F089FF2C2001F086FF002001F06F
:1026000083FF292001F080FF002001F07DFF2620BC
:1026100001F07AFF002001F077FF242001F074FF21
:10262000002001F071FF242001F06EFF002001F076
:102630006BFF232001F068FF002001F065FF3C20C4
:1026400001F062FF002001F05FFF362001F05CFF27
:10265000002001F059FF322001F056FF002001F068
:1026600053FF2F2001F050FF002001F04DFF2C20E0
:1026700001F04AFF002001F047FF292001F044FF4C
:10268000002001F041FF262001F03EFF002001F074
:102690003BFF242001F038FF002001F035FF24200B
:1026A00001F032FF002001F02FFF232001F02CFF6A
:1026B000002001F029FFC42001F032FF622001F068
:1026C00023FF002001F020FF052001F01DFF002066
:1026D00001F01AFF842001F017FF002001F014FF21
:1026E000F02001F011FF002001F00EFF182001F092
:1026F0000BFF002001F008FFA42001F005FF0020DF
:1027000001F002FF182001F0FFFE002001F0FCFEA6
:10271000502001F0F9FE002001F0F6FE0C2001F03F
:10272000F3FE002001F0F0FE172001F0EDFE002086
:1027300001F0EAFE952001F0E7FE002001F0E4FE42
:10274000F32001F0E1FE002001F0DEFEE62001F0C2
:10275000DBFE002001F0D8FEC52001F0E1FE3220B2
:1027600001F0D2FE002001F0CFFE442001F0CCFEAB
:10277000002001F0C9FE652001F0C6FE002001F036
:10278000C3FE762001F0C0FE002001F0BDFE8820CF
:1027900001F0BAFE002001F0B7FEC62001F0C0FE35
:1027A000202001F0B1FE002001F0AEFE172001F064
:1027B000ABFE002001F0A8FE012001F0A5FE0020E4
:1027C00001F0A2FEC72001F0ABFE002001F09CFE4C
:1027D000002001F099FE002001F096FE002001F09B
:1027E00093FEC82001F09CFE002001F08DFE002029
:1027F00001F08AFE002001F087FE002001F084FE37
:10280000C92001F08DFE002001F07EFE002001F0C5
:102810007BFE002001F078FE002001F075FE002014
:1028200001F072FE002001F06FFE002001F06CFE4E
:10283000002001F069FE002001F066FE002001F09A
:1028400063FE002001F060FE002001F05DFE00202C
:1028500001F05AFE002001F057FE002001F054FE66
:10286000002001F051FEE02001F05AFE162001F098
:102870004BFE002001F048FE1C2001F045FE002028
:1028800001F042FE212001F03FFE002001F03CFE5D
:10289000362001F039FE002001F036FE462001F01E
:1028A00033FE002001F030FE522001F02DFE00200A
:1028B00001F02AFE642001F027FE002001F024FE32
:1028C0007A2001F021FE002001F01EFE8B2001F095
:1028D0001BFE002001F018FE992001F015FE0020DB
:1028E00001F012FEA82001F00FFE002001F00CFE06
:1028F000B92001F009FE002001F006FEC42001F01D
:1029000003FE002001F000FECA2001F0FDFD0020C2
:1029100001F0FAFDD22001F0F7FD002001F0F4FDF6
:10292000D92001F0F1FD002001F0EEFDE02001F0E2
:10293000EBFD002001F0E8FDF32001F0E5FD0020B3
:1029400001F0E2FDE12001F0EBFD162001F0DCFDDD
:10295000002001F0D9FD1C2001F0D6FD002001F07F
:10296000D3FD222001F0D0FD002001F0CDFD362066
:1029700001F0CAFD002001F0C7FD452001F0C4FDB3
:10298000002001F0C1FD522001F0BEFD002001F049
:10299000BBFD642001F0B8FD002001F0B5FD7A20F8
:1029A00001F0B2FD002001F0AFFD8B2001F0ACFD85
:1029B000002001F0A9FD992001F0A6FD002001F002
:1029C000A3FDA82001F0A0FD002001F09DFDB9208D
:1029D00001F09AFD002001F097FDC42001F094FD64
:1029E000002001F091FDCA2001F08EFD002001F0D1
:1029F0008BFDD22001F088FD002001F085FDD8205C
:102A000001F082FD002001F07FFDE02001F07CFD5F
:102A1000002001F079FDF32001F076FD002001F0A7
:102A200073FDE22001F07CFD052001F06DFD00202A
:102A300001F06AFD0B2001F067FD002001F064FD4C
:102A40001B2001F061FD002001F05EFD342001F04B
:102A50005BFD002001F058FD442001F055FD0020F1
:102A600001F052FD4F2001F04FFD002001F04CFD20
:102A7000612001F049FD002001F046FD792001F0C0
:102A800043FD002001F040FD882001F03DFD0020C5
:102A900001F03AFD972001F037FD002001F034FDF0
:102AA000A62001F031FD002001F02EFDB72001F03D
:102AB0002BFD002001F028FDC22001F025FD0020A3
:102AC00001F022FDC72001F01FFD002001F01CFDD8
:102AD000D12001F019FD002001F016FDD62001F0F3
:102AE00013FD002001F010FDDD2001F00DFD0020A0
:102AF00001F00AFDF32001F007FD002001F004FDC4
:102B0000E32001F00DFD052001F0FEFC002001F0A6
:102B1000FBFC0A2001F0F8FC002001F0F5FC1C2071
:102B200001F0F2FC002001F0EFFC332000E0FAE2BB
:102B300001F0EAFC002001F0E7FC442001F0E4FC95
:102B4000002001F0E1FC502001F0DEFC002001F04B
:102B5000DBFC622001F0D8FC002001F0D5FC7820DD
:102B600001F0D2FC002001F0CFFC882001F0CCFC69
:102B7000002001F0C9FC972001F0C6FC002001F004
:102B8000C3FCA62001F0C0FC002001F0BDFCB72072
:102B900001F0BAFC002001F0B7FCC22001F0B4FC47
:102BA000002001F0B1FCC72001F0AEFC002001F0D4
:102BB000ABFCD12001F0A8FC002001F0A5FCD52041
:102BC00001F0A2FC002001F09FFCDD2001F09CFC44
:102BD000002001F099FCF32001F096FC002001F0A8
:102BE00093FCE42001F09CFC012001F08DFC00200E
:102BF00001F08AFC012001F087FC002001F084FC38
:102C0000022001F081FC002001F07EFC2A2001F06E
:102C10007BFC002001F078FC3C2001F075FC0020DA
:102C200001F072FC4B2001F06FFC002001F06CFC05
:102C30005D2001F069FC002001F066FC742001F0C9
:102C400063FC002001F060FC842001F05DFC0020AA
:102C500001F05AFC932001F057FC002001F054FCD5
:102C6000A22001F051FC002001F04EFCB32001F045
:102C70004BFC002001F048FCBE2001F045FC002088
:102C800001F042FCC42001F03FFC002001F03CFCBC
:102C9000CD2001F039FC002001F036FCD32001F0FA
:102CA00033FC002001F030FCDD2001F02DFC002081
:102CB00001F02AFCF32001F027FC002001F024FCA5
:102CC000E52001F02DFC002001F01EFC002001F0A9
:102CD0001BFC002001F018FC002001F015FC022074
:102CE00001F012FC002001F00FFC292001F00CFC87
:102CF000002001F009FC3C2001F006FC002001F05E
:102D000003FC4B2001F000FC002001F0FDFB5D20E6
:102D100001F0FAFB002001F0F7FB742001F0F4FB56
:102D2000002001F0F1FB842001F0EEFB002001F017
:102D3000EBFB932001F0E8FB002001F0E5FBA22073
:102D400001F0E2FB002001F0DFFBB32001F0DCFB2F
:102D5000002001F0D9FBBE2001F0D6FB002001F0DD
:102D6000D3FBC42001F0D0FB002001F0CDFBCD202F
:102D700001F0CAFB002001F0C7FBD32001F0C4FB27
:102D8000002001F0C1FBDC2001F0BEFB002001F0BF
:102D9000BBFBF32001F0B8FB002001F0B5FBE620FF
:102DA00001F0BEFB112001F0AFFB002001F0ACFBF5
:102DB000342001F0A9FB002001F0A6FB562001F011
:102DC000A3FB002001F0A0FB762001F09DFB00207A
:102DD00001F09AFB772001F097FB002001F094FBB3
:102DE000662001F091FB002001F08EFB882001F0AD
:102DF0008BFB002001F088FB992001F085FB00206F
:102E000001F082FBBB2001F07FFB002001F07CFB86
:102E1000992001F079FB002001F076FB662001F09B
:102E200073FB002001F070FB552001F06DFB0020CA
:102E300001F06AFB552001F067FB002001F064FB04
:102E4000452001F061FB002001F05EFB432001F012
:102E50005BFB002001F058FB442001F055FB0020F3
:102E600001F052FBE72001F05BFB322001F04CFB4C
:102E7000002001F049FB552001F046FB002001F045
:102E800043FB762001F040FB002001F03DFB662073
:102E900001F03AFB002001F037FB672001F034FB22
:102EA000002001F031FB672001F02EFB002001F033
:102EB0002BFB872001F028FB002001F025FB992047
:102EC00001F022FB002001F01FFBBB2001F01CFBE6
:102ED000002001F019FB992001F016FB002001F001
:102EE00013FB772001F010FB002001F00DFB4420C4
:102EF00001F00AFB002001F007FB562001F004FB63
:102F0000002001F001FB232001F0FEFA002001F077
:102F1000FBFA332001F0F8FA002001F0F5FA452021
:102F200001F0F2FA002001F0EFFAE82001F0F8FADF
:102F3000002001F0E9FA002001F0E6FA992001F002
:102F4000E3FA002001F0E0FA872001F0DDFA00202A
:102F500001F0DAFA882001F0D7FA002001F0D4FA63
:102F6000772001F0D1FA002001F0CEFA662001F0BE
:102F7000CBFA002001F0C8FA882001F0C5FA002041
:102F800001F0C2FAAA2001F0BFFA002001F0BCFA59
:102F9000BB2001F0B9FA002001F0B6FA992001F047
:102FA000B3FA002001F0B0FA662001F0ADFA00207B
:102FB00001F0AAFA552001F0A7FA002001F0A4FAC6
:102FC000552001F0A1FA002001F09EFA442001F002
:102FD0009BFA002001F098FA442001F095FA0020B5
:102FE00001F092FA552001F08FFA002001F08CFADE
:102FF000E92001F095FAAA2001F086FA002001F0FC
:1030000083FA002001F080FA002001F07DFA002010
:1030100001F086FAAA2001F077FACF2001F080FAB9
:10302000002001F071FA002001F06EFA002001F09A
:103030006BFA002001F068FA002001F065FA002028
:1030400001F062FA002001F05FFA002001F05CFA62
:10305000002001F059FA002001F056FA002001F09A
:1030600053FA002001F050FA002001F04DFA002040
:1030700001F04AFA002001F047FA002001F044FA7A
:10308000002001F041FAF02001F04AFA002001F09E
:103090003BFA502001F038FA002001F035FA002008
:1030A00001F032FA002001F02FFAF32001F038FA93
:1030B000002001F029FAF92001F032FA062001F08F
:1030C00023FA102001F020FA292001F01DFA002037
:1030D00001F01AFA3A2001F023FA552001F014FA0F
:1030E000112001F01DFA642001F0A4FD292001F057
:1030F00017FA352001F014FA002001F005FA5120EA
:1031000001F00EFAFF2001F0FFF9532001F008FA58
:103110002C2001F0F9F9552001F002FA822001F08B
:10312000F3F92C20FDE3A8427ED155214FF47040E5
:1031300001F00CFAAA214FF2010001F007FA522126
:103140004FF2020001F002FA08214FF2030001F0F1
:10315000FDF94FF204030121184601F0F7F90D21A2
:103160004FF4304001F0F2F90D214BF2010001F073
:10317000EDF90D214BF2020001F0E8F934214FF492
:10318000364001F0E3F934214BF2016001F0DEF941
:1031900034214BF2026001F0D9F90D214FF4314096
:1031A00001F0D4F90D214BF2011001F0CFF90D21FE
:1031B0004BF2021001F0CAF934214FF4374001F00C
:1031C000C5F934214BF2017001F0C0F934214BF202
:1031D000027001F0BBF900214FF4324001F0B6F962
:1031E00000214BF2012001F0B1F900214BF2022045
:1031F00001F0ACF924214FF4384001F0A7F9242163
:103200004BF6010001F0A2F924214BF6020001F077
:103210009DF901214FF43F4001F098F90F214FF43F
:10322000334001F093F900E0FEE30F214BF201304F
:1032300001F08CF90F214BF2023001F087F93421B3
:103240004FF4394001F082F934214BF6011001F0BE
:103250007DF934214BF6021001F078F908214FF482
:10326000354001F073F908214BF2015001F06EF97D
:1032700008214BF2025001F069F903214FF442405A
:1032800001F064F924214FF43A4001F05FF9242160
:103290004BF6012001F05AF924214BF6022001F0EF
:1032A00055F900214FF43C4001F050F978214BF6DC
:1032B000014001F04BF900214BF6024001F046F9C4
:1032C00000214FF43D4001F041F978214BF60150C7
:1032D00001F03CF900214BF6025001F037F90021D2
:1032E0004FF43E4001F032F964214BF6016001F0E9
:1032F0002DF900214FF4514001F028F933214DF20E
:10330000011001F023F900214DF2021001F01EF925
:1033100034214DF2031001F019F900214DF204108F
:1033200001F014F93A214DF2051001F00FF90021D6
:103330004DF2061001F00AF94A214DF2071001F092
:1033400005F900214DF2081001F000F95C214DF261
:10335000091001F0FBF800214DF20A1001F0F6F817
:1033600081214DF20B1001F0F1F800214DF20C100B
:1033700001F0ECF8A6214DF20D1001F0E7F8002164
:103380004DF20E1001F0E2F8E5214DF20F1001F0C0
:10339000DDF801214DF2101001F0D8F813214DF2A3
:1033A000111001F0D3F801214DF2121001F0CEF806
:1033B00054214DF2131001F0C9F801214DF21410FF
:1033C00001F0C4F882214DF2151001F0BFF801217F
:1033D0004DF2161001F0BAF8CA214DF2171001F0A3
:1033E000B5F802214DF2181001F0B0F800214DF2AD
:1033F000191001F0ABF802214DF21A1001F0A6F8F5
:1034000001214DF21B1001F0A1F802214DF21C1018
:1034100001F09CF834214DF21D1001F097F80221C3
:103420004DF21E1001F092F867214DF21F1001F0CD
:103430008DF802214DF2201001F088F884214DF220
:10344000211001F083F802214DF2221001F07EF8E4
:10345000A4214DF2231001F079F802214DF224103D
:1034600001F074F8B7214DF2251001F06FF8022138
:103470004DF2261001F06AF8CF214DF2271001F02D
:1034800065F802214DF2281001F060F8DE214DF2BE
:10349000291001F05BF802214DF22A1001F056F8D4
:1034A000F2214DF22B1001F051F802214DF22C10B7
:1034B00001F04CF8FE214DF22D1001F047F80321E8
:1034C0004DF22E1001F042F810214DF22F1001F0B4
:1034D0003DF803214DF2301001F038F833214DF260
:1034E000311001F033F803214DF2321001F02EF8C3
:1034F0006D214DF2331001F029F800214FF45240B4
:1035000001F024F833214DF2012001F01FF80021D1
:103510004DF2022001F01AF834214DF2032001F09F
:1035200015F800214DF2042001F010F83A214DF277
:10353000052001F00BF800214DF2062001F006F8FD
:103540004A214DF2072001F001F800214DF2082038
:1035500000F0FCFF5C214DF2092000F0F7FF002194
:103560004DF20A2000F0F2FF81214DF20B2000F015
:10357000EDFF00214DF20C2000F0E8FFA6214DF2F6
:103580000D2000F0E3FF00214DF20E2000F0DEFFE1
:10359000E5214DF20F2000F0D9FF01214DF210205E
:1035A00000F0D4FF13214DF2112000F0CFFF0121D4
:1035B0004DF2122000F0CAFF54214DF2132000F00A
:1035C000C5FF01214DF2142000F0C0FF82214DF211
:1035D000152000F0BBFF01214DF2162000F0B6FFD0
:1035E000CA214DF2172000F0B1FF02214DF2182040
:1035F00000F0ACFF00214DF2192000F0A7FF0221DE
:103600004DF21A2000F0A2FF01214DF21B2000F024
:103610009DFF02214DF21C2000F098FF34214DF255
:103620001D2000F093FF02214DF21E2000F08EFFBE
:1036300067214DF21F2000F089FF02214DF220206A
:1036400000F084FF84214DF2212000F07FFF022151
:103650004DF2222000F07AFFA4214DF2232000F049
:1036600075FF02214DF2242000F070FFB7214DF2CA
:10367000252000F06BFF02214DF2262000F066FFAE
:10368000CF214DF2272000F061FF02214DF22820CA
:1036900000F05CFFDE214DF2292000F057FF0221EF
:1036A0004DF22A2000F052FFF2214DF22B2000F0C3
:1036B0004DFF02214DF22C2000F048FFFE214DF27B
:1036C0002D2000F043FF03214DF22E2000F03EFF9D
:1036D00010214DF22F2000F039FF03214DF2302050
:1036E00000F034FF33214DF2312000F02FFF032191
:1036F0004DF2322000F02AFF6D214DF2332000F010
:1037000025FF00214FF4534000F020FF33214DF2FC
:10371000013000F01BFF00214DF2023000F016FFD7
:1037200034214DF2033000F011FF00214DF204303E
:1037300000F00CFF3A214DF2053000F007FF0021A8
:103740004DF2063000F002FF4A214DF2073000F042
:10375000FDFE00214DF2083000F0F8FE5C214DF234
:10376000093000F0F3FE00214DF20A3000F0EEFEC9
:1037700081214DF20B3000F0E9FE00214DF20C30BA
:1037800000F0E4FEA6214DF20D3000F0DFFE002136
:103790004DF20E3000F0DAFEE5214DF20F3000F070
:1037A000D5FE01214DF2103000F0D0FE13214DF274
:1037B000113000F0CBFE01214DF2123000F0C6FEB8
:1037C00054214DF2133000F0C1FE01214DF21430AE
:1037D00000F0BCFE82214DF2153000F0B7FE012151
:1037E0004DF2163000F0B2FECA214DF2173000F053
:1037F000ADFE02214DF2183000F0A8FE00214DF27E
:10380000193000F0A3FE02214DF21A3000F09EFEA6
:1038100001214DF21B3000F099FE02214DF21C30C7
:1038200000F094FE34214DF21D3000F08FFE022195
:103830004DF21E3000F08AFE67214DF21F3000F07D
:1038400085FE02214DF2203000F080FE84214DF2F1
:10385000213000F07BFE02214DF2223000F076FE96
:10386000A4214DF2233000F071FE02214DF22430EC
:1038700000F06CFEB7214DF2253000F067FE02210A
:103880004DF2263000F062FECF214DF2273000F0DD
:103890005DFE02214DF2283000F058FEDE214DF28F
:1038A000293000F053FE02214DF22A3000F04EFE86
:1038B000F2214DF22B3000F049FE02214DF22C3066
:1038C00000F044FEFE214DF22D3000F03FFE0321BA
:1038D0004DF22E3000F03AFE10214DF22F3000F064
:1038E00035FE03214DF2303000F030FE33214DF231
:1038F000313000F02BFE03214DF2323000F026FE75
:103900006D214DF2333000F021FE00214FF4544080
:1039100000F01CFE33214DF2014000F017FE0021A3
:1039200000E082E34DF2024000F010FE34214DF23F
:10393000034000F00BFE00214DF2044000F006FEB3
:103940003A214DF2054000F001FE00214DF2064003
:1039500000F0FCFD4A214DF2074000F0F7FD002188
:103960004DF2084000F0F2FD5C214DF2094000F0FC
:10397000EDFD00214DF20A4000F0E8FD81214DF2FD
:103980000B4000F0E3FD00214DF20C4000F0DEFDA5
:10399000A6214DF20D4000F0D9FD00214DF20E4060
:1039A00000F0D4FDE5214DF20F4000F0CFFD0121E4
:1039B0004DF2104000F0CAFD13214DF2114000F00D
:1039C000C5FD01214DF2124000F0C0FD54214DF221
:1039D000134000F0BBFD01214DF2144000F0B6FD94
:1039E00082214DF2154000F0B1FD01214DF216404B
:1039F00000F0ACFDCA214DF2174000F0A7FD0221F6
:103A00004DF2184000F0A2FD00214DF2194000F0E7
:103A10009DFD02214DF21A4000F098FD01214DF26A
:103A20001B4000F093FD00E002E302214DF21C4038
:103A300000F08CFD34214DF21D4000F087FD022185
:103A40004DF21E4000F082FD67214DF21F4000F054
:103A50007DFD02214DF2204000F078FD84214DF2E1
:103A6000214000F073FD02214DF2224000F06EFD76
:103A7000A4214DF2234000F069FD02214DF22440C3
:103A800000F064FDB7214DF2254000F05FFD0221FA
:103A90004DF2264000F05AFDCF214DF2274000F0B4
:103AA00055FD02214DF2284000F050FDDE214DF27F
:103AB000294000F04BFD02214DF22A4000F046FD66
:103AC000F2214DF22B4000F041FD02214DF22C403D
:103AD00000F03CFDFE214DF22D4000F037FD0321AA
:103AE0004DF22E4000F032FD10214DF22F4000F03B
:103AF0002DFD03214DF2304000F028FD33214DF221
:103B0000314000F023FD03214DF2324000F01EFD54
:103B10006D214DF2334000F019FD00214FF4554066
:103B200000F014FD33214DF2015000F00FFD002193
:103B30004DF2025000F00AFD34214DF2035000F026
:103B400005FD00214DF2045000F000FD3A214DF238
:103B5000055000F0FBFC00214DF2065000F0F6FC91
:103B60004A214DF2075000F0F1FC00214DF20850BF
:103B700000F0ECFC5C214DF2095000F0E7FC002164
:103B80004DF20A5000F0E2FC81214DF20B5000F0A2
:103B9000DDFC00214DF20C5000F0D8FCA6214DF2C6
:103BA0000D5000F0D3FC00214DF20E5000F0CEFC81
:103BB000E5214DF20F5000F0C9FC01214DF21050EB
:103BC00000F0C4FC13214DF2115000F0BFFC0121A4
:103BD0004DF2125000F0BAFC54214DF2135000F097
:103BE000B5FC01214DF2145000F0B0FC82214DF2E1
:103BF000155000F0ABFC01214DF2165000F0A6FC70
:103C0000CA214DF2175000F0A1FC02214DF21850CC
:103C100000F09CFC00214DF2195000F097FC0221AD
:103C20004DF21A5000F092FC01214DF21B5000F0B1
:103C30008DFC02214DF21C5000F088FC34214DF225
:103C40001D5000F083FC02214DF21E5000F07EFC5E
:103C500067214DF21F5000F079FC02214DF22050F7
:103C600000F074FC84214DF2215000F06FFC022121
:103C70004DF2225000F06AFCA4214DF2235000F0D6
:103C800065FC02214DF2245000F060FCB7214DF29A
:103C9000255000F05BFC02214DF2265000F056FC4E
:103CA000CF214DF2275000F051FC02214DF2285057
:103CB00000F04CFCDE214DF2295000F047FC0221BF
:103CC0004DF22A5000F042FCF2214DF22B5000F050
:103CD0003DFC02214DF22C5000F038FCFE214DF24B
:103CE0002D5000F033FC03214DF22E5000F02EFC3D
:103CF00010214DF22F5000F029FC03214DF23050DD
:103D000000F024FC33214DF2315000F01FFC032160
:103D10004DF2325000F01AFC6D214DF2335000F09C
:103D200015FC00214FF4564000F010FC33214DF2F9
:103D3000016000F00BFC00214DF2026000F006FC77
:103D400034214DF2036000F001FC00214DF20460CB
:103D500000F0FCFB3A214DF2056000F0F7FB00217A
:103D60004DF2066000F0F2FB4A214DF2076000F0D0
:103D7000EDFB00214DF2086000F0E8FB5C214DF204
:103D8000096000F0E3FB00214DF20A6000F0DEFB69
:103D900081214DF20B6000F0D9FB00214DF20C6047
:103DA00000F0D4FBA6214DF20D6000F0CFFB002106
:103DB0004DF20E6000F0CAFBE5214DF20F6000F0FD
:103DC000C5FB01214DF2106000F0C0FB13214DF244
:103DD000116000F0BBFB01214DF2126000F0B6FB58
:103DE00054214DF2136000F0B1FB01214DF214603B
:103DF00000F0ACFB82214DF2156000F0A7FB012121
:103E00004DF2166000F0A2FBCA214DF2176000F0DF
:103E10009DFB02214DF2186000F098FB00214DF24D
:103E2000196000F093FB02214DF21A6000F08EFB46
:103E300001214DF21B6000F089FB02214DF21C6054
:103E400000F084FB34214DF21D6000F07FFB022165
:103E50004DF21E6000F07AFB67214DF21F6000F00A
:103E600075FB02214DF2206000F070FB84214DF2C1
:103E7000216000F06BFB02214DF2226000F066FB36
:103E8000A4214DF2236000F061FB02214DF2246079
:103E900000F05CFBB7214DF2256000F057FB0221DA
:103EA0004DF2266000F052FBCF214DF2276000F06A
:103EB0004DFB02214DF2286000F048FBDE214DF25F
:103EC000296000F043FB02214DF22A6000F03EFB26
:103ED000F2214DF22B6000F039FB02214DF22C60F3
:103EE00000F034FBFE214DF22D6000F02FFB03218A
:103EF0004DF22E6000F02AFB10214DF22F6000F0F1
:103F000025FB03214DF2306000F020FB33214DF200
:103F1000316000F01BFB03214DF2326000F016FB14
:103F20006D214DF2336000F011FB55214FF47040CC
:103F300000F00CFBAA214FF2010000F007FB522118
:103F40004FF2020000F002FB08214FF2030000F0E4
:103F5000FDFA0021184600F0F9FACC214FF4314067
:103F600000F0F4FA00214BF2011000F0EFFA052105
:103F70004FF4364000F0EAFA70214FF4374000F079
:103F8000E5FA70214BF2017000F0E0FA01214FF4E4
:103F9000384000F0DBFA03214BF6010000F0D6FABE
:103FA00003214BF6020000F0D1FA03214BF6030087
:103FB00000F0CCFA02214FF43C4000F0C7FA002197
:103FC0004BF6014000F0C2FA00214BF6024000F02F
:103FD000BDFAD0214FF4494000F0B8FA02214CF666
:103FE000011000F0B3FA50214CF6021000F0AEFAC6
:103FF00050214CF6031000F0A9FA50214CF60410A1
:1040000000F0A4FA00214FF4545000F09FFA55211B
:104010004FF4685000F09AFA4FF4885000F080FA9C
:10402000782000F015FE4FF4245000F079FAB9E042
:104030004045FCD1E22000F073FA1D2000F064FA44
:10404000022000F061FA042000F05EFA642000F023
:10405000FFFDE02000F064FA012000F055FA0A208C
:1040600000F0E8FDE02000F05BFA032000F04CFADD
:104070000C2000F0DFFD012000F052FA0A2000F0D1
:10408000D9FDE62000F04CFA2F2000F03DFAFF2089
:1040900000F03AFAFF2000F037FAB02000F040FAC2
:1040A000202000F031FA002000F02EFA032000F06A
:1040B0002BFA40F21F3000F027FA012000F024FA1A
:1040C00040F2DF1000F020FA002000F01DFAB420CA
:1040D00000F026FA042000F017FA40F21F4000F02A
:1040E00013FA002000F010FA2E2000F00DFA002044
:1040F00000F00AFA002000F007FA002000F004FAAD
:10410000002000F001FAB62000F00AFA022000F0C8
:10411000FBF94FF4037000F0F7F9002000F0F4F918
:10412000172000F0F1F9152000F0EEF9002000F062
:10413000EBF9002000F0E8F9F02000F0F1F903209D
:1041400000F0E2F9292000F0EBF9D02000F0E8F9C6
:10415000002000F0D9F9BE2000F0E2F9052000F0BF
:10416000D3F9FE2000F0D0F9012000F0CDF90020B5
:1041700000F0CAF9002000F0C7F9002000F0C4F9EF
:10418000B82000F0CDF9032000F0BEF9012000F0C6
:10419000BBF9BA2000F0C4F9012000F0B5F96420A1
:1041A00000F042F8B088504507D0A04205D0B84290
:1041B00003D0A84201D040451DD1D9F81C21494661
:1041C00022F00F02C9F81C21D9F81C2122F47062D8
:1041D000C9F81C21D9F81C2142F00302C9F81C219E
:1041E000A042D9F81C0102D140F4407001E040F433
:1041F0000070C1F81C010020FDF7CAFC0449012031
:10420000C1F8BC025846FDF7A9FC15B0BDE8F08F17
:104210000080404208B54FF0D840B0F88000ADF8BB
:104220000000BDF8000008BD10B50246BE2000F039
:1042300077F9052000F068F9104601F02CFD9FED9C
:104240000C1B53EC112B01F039FD01F0F7FC80B28F
:1042500000F05AF9012000F057F9FF2000F054F95E
:10426000002000F051F9BDE81040002000F04CB9EA
:10427000666666666666044070B5664C0023214635
:10428000A279898841F66315012A01D01AB11BE091
:10429000A94202D118E0A94216D1082814D2DFE8B9
:1042A00000F00406080A0C0E101206200CE007208D
:1042B0000AE0042008E0052006E0012004E00020D8
:1042C00002E0032000E00220082812D2DFE800F01C
:1042D000110406080A0C0E1080230AE0402308E0AF
:1042E000C02306E0202304E0602302E0A02300E0D6
:1042F000E02345F21056B14202D14FF4585000E08D
:104300003620A1F51342413A03D0A1F5EE42893A95
:1043100001D143F00803194600F018F9A288AA4217
:104320000AD098062088618802D5884202D303E02B
:10433000884201D9218060806089B24240D100F07A
:10434000EFF8002000F0E0F86089401C80B200F037
:10435000E7F8002000F0D8F86089801C80B200F0F7
:10436000DFF82088401EC0F30F2000F0CDF86089F0
:10437000C01C80B200F0D4F82078401EC0B200F01B
:10438000C3F8A08900F0CCF8002000F0BDF8A089A7
:10439000401C80B200F0C4F8002000F0B5F8A089FD
:1043A000801C80B200F0BCF86088401EC0F30F2073
:1043B00000F0AAF8A089C01C80B200F0B1F821E09A
:1043C00000F0AEF8002000F09FF8002000F09CF80C
:1043D0002088401EC0F30F2000F096F82078401E81
:1043E000C0B200F091F8A08900F09AF8002000F027
:1043F0008BF8002000F088F86088401EC0F30F2082
:1044000000F082F8A078BDE87040401EC0B200F015
:104410007BB80000A4020020F0B53A4D0C460246DD
:10442000060AA9882846270A4089A1F5C853633B94
:1044300016D0A1F5AA43103B4BD000F071F83046DE
:1044400000F062F8D0B200F05FF8A88900F068F8D8
:10445000384600F059F8E0B2BDE8F04000F054B83A
:10446000A97929B300F05CF8304600F04DF8D0B2DD
:1044700000F04AF82888401EC0F30F2000F044F8EE
:104480002878401EC0B200F03FF8A88900F048F834
:10449000384600F039F8E0B200F036F86888401E7F
:1044A000C0F30F2000F030F8A878401EC0B2D3E768
:1044B0002988891A491E8AB200F032F8002000F0DB
:1044C00023F8002000F020F8100A00F01DF8D0B208
:1044D000D9E700F025F8304600F016F86889401C4E
:1044E00080B200F01DF8D0B200F00EF8A88900F0FC
:1044F00017F8384600F008F8A889401C80B200F090
:104500000FF8A8E7A402002001B5BDF80000ADF83F
:104510000000BDF800004FF0D841A1F8800008BDB0
:1045200001B5BDF80000ADF80000BDF800004FF087
:10453000D841A1F87E0008BD03484FF0D84100895A
:10454000A1F87E0070470000A40200204FF0D8427E
:1045500022F87E0F51807047114810B5016886B06F
:1045600041F02001016000680E4C00F02000059031
:104570004FF4C0600090012001900290032003904E
:1045800069462046FCF7ACFC012251022046FCF7AC
:1045900087FD012291022046FCF782FD06B010BD86
:1045A0003038024000140240FEE770477047704701
:1045B00070B5214C92B00025266846F080562660E2
:1045C000246804F0805411941C4C266846F48046FC
:1045D000266024680DF1240C04F480441194012415
:1045E000009424040194022406948CE80D006605CE
:1045F000CDE907616846FCF7CBFE00B1FEE70CA9E8
:104600000F2081E831004FF4A0500F904FF48050FC
:10461000109005210CA8FCF7D3FD00B1FEE7FCF7D4
:1046200045FD41F20101884204D10548016841F489
:104630008071016012B070BD4038024000700040CF
:10464000003C0240FCF73EBD1048016841F4700197
:1046500001600F48016841F0010101600C4A00212E
:104660000832116002680B4B1A400260031D0A4AAF
:104670001A60026822F48022026005480C30016052
:1046800002495806803908607047000088ED00E054
:1046900000380240FFFFF6FE1030002410B50A4C2F
:1046A0002068C068C043C00709D108480069804736
:1046B00021680020486221686420C862E0602168A7
:1046C0006FF00100086110BD1003002058000020A9
:1046D000F0B50268254D264E264FDFF89CC0274BCB
:1046E0004FF0804EA84209D0704507D0B04205D0A7
:1046F000B84203D0604501D0984203D122F0700443
:104700004A682243A8421BD0704519D0B04217D046
:10471000B84215D0604513D0984211D0184CA04231
:104720000ED0184CA0420BD0174CA04208D0174C0A
:10473000A04205D0164CA04202D0164CA04203D194
:1047400022F44074CA6822434C6922F0800222435A
:1047500002608A68C2620A688262A84201D09842F6
:1047600001D10969016301214161F0BD00000140EF
:104770000004004000080040000C0040000401401C
:104780000040014000440140004801400018004042
:10479000001C004000200040F8B5064610480D46B9
:1047A0000024016841F0040101600068032200F068
:1047B0000400009011461E20FCF7D0FC1E20FCF7E0
:1047C000C0FC094A07481060C2E90154C2E9036409
:1047D0001046FDF70FF8BDE8F8400348FDF726B88E
:1047E00040380240000800401003002010B5806BE4
:1047F0000021C185C184FDF72AF810BD0168CA688F
:1048000022F49072CA6001684A6922F001024A618A
:10481000202180F83A10704710B590F83A102229FC
:1048200001D0022010BD8168B1F5805F11D001690F
:10483000002901681FD0496801F07F03816A4A1C82
:1048400082620B70C18D491E0904090CC18518D004
:104850002BE00269816A002A0268526805D0D2B250
:104860000A80816A491C8162ECE7C2F308020A806F
:10487000816A891CF7E74A68816A4B1C83620A7067
:10488000E0E70168CA6822F02002CA600168CA68CD
:1048900022F48072CA6001684A6922F001024A610A
:1048A000202180F83A10FDF7FBF8002010BD000031
:1048B0002DE9F041044600680169E26821F44051A5
:1048C00011430161A1682069E269014360691043F5
:1048D00001432068C26849F20C639A430A43C260EC
:1048E00020684169A26921F4407111434161E06986
:1048F0006425B0F5004F974A974920684FF0320879
:104900003FD0884201D090427CD1FCF701FD00EB02
:10491000C00101EB001061688900B0FBF1F6FCF703
:10492000F7FC00EBC00101EB001061688900B0FBEF
:10493000F1F0B0FBF5F06FF01801484306EB800191
:1049400008EB0110B0FBF5F000F0F006FCF7E0FC1E
:1049500000EBC00101EB001061688900B0FBF1F0D1
:10496000B0FBF5F006EB0016FCF7D2FC00EBC00143
:1049700001EB001061688900B0FBF1F7FCF7C8FC9F
:10498000D2E0884201D090423DD1FCF7C1FC00EB5F
:10499000C00101EB001061684900B0FBF1F0B0FB11
:1049A000F5F00601FCF7B4FC00EBC00101EB0010D0
:1049B00061684900B0FBF1F7FCF7AAFC00EBC0010D
:1049C00001EB001061684900B0FBF1F0B0FBF5F0BD
:1049D0006FF01801484307EB800108EBC100B0FB02
:1049E000F5F000F0F80006EB4006FCF791FC00EB58
:1049F000C00101EB001061684900B0FBF1F7FCF762
:104A000087FC3CE055E0FCF773FC00EBC00101EBD8
:104A1000001061684900B0FBF1F0B0FBF5F0060151
:104A2000FCF766FC00EBC00101EB00106168490077
:104A3000B0FBF1F7FCF75CFC00EBC00101EB0010F0
:104A400061684900B0FBF1F0B0FBF5F06FF01801C0
:104A5000484307EB800108EBC100B0FBF5F000F024
:104A6000F80006EB4006FCF743FC00EBC00101EB4D
:104A7000001061684900B0FBF1F7FCF739FC00EB6E
:104A8000C00101EB001061684900B0FBF1F0B0FB20
:104A9000F5F06FF01801484307EB800108EBC10007
:104AA000B0FBF5F000F00700216830448860BDE8F5
:104AB000F081FCF71DFC00EBC00101EB0010616808
:104AC0008900B0FBF1F6FCF713FC00EBC00101EB31
:104AD000001061688900B0FBF1F0B0FBF5F06FF0F9
:104AE0001801484306EB800108EB0110B0FBF5F01C
:104AF00000F0F006FCF7FCFB00EBC00101EB00103E
:104B000061688900B0FBF1F0B0FBF5F006EB001630
:104B1000FCF7EEFB00EBC00101EB001061688900BF
:104B2000B0FBF1F7FCF7E4FB00EBC00101EB001078
:104B300061688900B0FBF1F0B0FBF5F06FF018018F
:104B4000484307EB800108EB0110B0FBF5F000F0E3
:104B50000F00A9E7001401400010014090F839103F
:104B6000212901D0022070478168B1F5805F016A78
:104B70000BD04A1C0262026809785160C18C491E40
:104B80000904090CC1840ED017E009880268C1F33A
:104B90000801516001690029016A02D0491C0162C3
:104BA000ECE7891CFBE70168CA6822F08002CA6052
:104BB0000068C16841F04001C160002070470000FA
:104BC00010B50848FCF74AFE0648FCF741FE2028CD
:104BD000FAD1012204490348FCF738FF0028F8D134
:104BE00010BD00001402002014000020FEE7090799
:104BF000090E002804DB00F1E02080F80014704763
:104C000000F00F0000F1E02080F8141D70473038EC
:104C10000A2801D201207047002070477047000029
:104C200010B504460420FCF7C5FD0148046010BD22
:104C30001000002070B5054600244FF47A7603E09A
:104C4000304600F005F8641CAC42F9D370BD00009A
:104C500070B54FF0E02500216C69094AAB69126814
:104C60005043AA699A42FCD002D2A3EB020302E0AD
:104C7000A4EB02063344194413468142F1D370BDBC
:104C80001000002003490A685206FCD5C2B24A60EF
:104C9000704700000010014008B5FCF71BFA07231D
:104CA000022208214FF4A870FFF782FCA820FFF72A
:104CB000B7FF4FF4E13000F025F80F484168542069
:104CC0008847FFF749FCFCF719FFFCF7BDFF002000
:104CD0000623DA034FF480110090FBF7FDFDFBF78C
:104CE00063FE0648FCF7BEF841F2883408212046EE
:104CF000FBF71AFEFAE7000058000020B40200207B
:104D0000006870470B4910B5094AC1E9002000202E
:104D10008860C860086188610C2048610846FCF71B
:104D200025FEBDE81040012203490248FCF78EBE73
:104D300000100140140200201400002070B594B04F
:104D4000064613AB11AA694600F0DCF9002824D10D
:104D50008DF840001D4C042514E0206805EBC101CE
:104D600013AB405812AA08A900F0CCF9002814D1BE
:104D7000694608A800F001FC88B19DF84000401C7D
:104D80008DF84000207D9DF840108842E5D8207DB8
:104D90009DF8401088420ED1042014B070BD9DF8DB
:104DA00048009DF84410884201D90220F5E79DF89B
:104DB0004000A075EBE710A9304600F057FA002834
:104DC000EBD19DF8400060750020E6E75800002018
:104DD0002DE9F0417E4E9AB0B57D307DA8427CD958
:104DE0000421306801EBC50119AB405818AA10A97D
:104DF00000F088F910A977A0FBF7DEFA00240DF186
:104E0000180832E0308B0121A140084217D022213E
:104E100072A0FBF7D1FA204600F090FA811970A039
:104E20002431FBF7C9FA22216CA0FBF7C5FA204612
:104E300000F084FA3044243048F824000BE0204687
:104E400000F07CFA3044416A48F82410F07D00B349
:104E500064A0FBF7B1FA9DF86000401E844202D0C6
:104E600062A0FBF7A9FA641CE4B29DF860008442DA
:104E7000C8D35FA0FBF7A0FA00F0A6FA707D0B285C
:104E800014D2DFE800F0080D31384048525E6B78EC
:104E9000890058A0DDE7306850F83500804704E00D
:104EA000306850F8351006988847074600F058FAE1
:104EB0009DF8640001286ED04FA0FBF77DFA96F8AC
:104EC000EC0000280DD0D6F8F0000A21B0FBF1F27A
:104ED00001FB1202B0FBF1F100E002E047A0FBF79A
:104EE0006BFA1AB0BDE8F081306850F83520DDE982
:104EF00006019047D9E7306806AC50F8353094E8A1
:104F000007009847D1E7306806AF50F8354097E87A
:104F10000F00A047C9E70A980090306806AF50F824
:104F2000354097E80F00A047BFE7DDE90A01CDE96A
:104F30000001306806AF50F8354097E80F00A047F1
:104F4000B3E70AAB06AF93E807008DE807003068C7
:104F500050F8354097E80F00A047A6E70AAC06AF27
:104F600094E80F008DE80F00306850F8354097E85E
:104F70000F00A04799E70BAC06AF94E80F0001AC17
:104F800084E80F000A980090306850F8354097E8A0
:104F90000F00A04789E711E00CAC06AF94E80F00C2
:104FA00002AC84E80F00DDE90A01CDE900013068B8
:104FB00050F8354097E80F00A04776E7F07D394676
:104FC00018B116A0FBF7F8F979E717A0FAE7000087
:104FD000580000200D0A25732800000025630000FA
:104FE0002573000030582558000000002C000000F8
:104FF00029000000256C64003B0D0A0046756E63B5
:1050000074696F6E2052756E2054696D653A25641F
:105010002E2531646D730D0A000000003D305825C7
:10502000583B0D0A000000003D256C753B0D0A0041
:10503000F0B500252E462F462C4603782C2B03D0A6
:10504000292B04D01BB103E014B9012600E00CB3F6
:1050500017B1222B2AD02AE0A3F1300CBCF1090FA2
:1050600019D92D2B17D02B2B15D0A3F1610CBCF126
:10507000050F10D9A3F1410CBCF1050F0BD9582B2A
:1050800009D0782B07D0222B0CD0202B1ED02C2B14
:105090001CD0FF270CE05EB9612B00D3203B01F848
:1050A000013B13E026B901273C460FE0002426B15E
:1050B0000020087017702846F0BD3CB15C2B02D16F
:1050C0006D1CEDB2401C037801F8013B6D1CEDB284
:1050D000401CB2E730B5002515700AE001F8014B1D
:1050E0001478401C641CE4B214709C4201D301206B
:1050F00030BD0478202C01D0002CEFD10D700020A1
:1051000030BD00002DE9FF4F002482B0894698464B
:10511000A2462746012526462246EB46029915E07F
:10512000202810D002F07F03052B0CD202B9802278
:1051300002F07F03042B01D12A280AD1521C0BF85C
:105140000300D2B201E0852A04D0491C0878002867
:10515000E6D16AB102F07F0200200BF8020041A103
:10516000584600F00AFA38B1012188F800100022F0
:105170004FF00008029B15E0002088F80000F6E7D9
:1051800008F1010000F0FF0813F8010F202801D0FA
:105190002A2807D1184600F07DF9282802D02A28AD
:1051A00000D0C2461878282801D00028E8D10299FA
:1051B000BAF1000F01D05144491C4FF0000843469A
:1051C000087888B1282804D0292806D0222810D0B1
:1051D00011E083B9641CE4B20DE063B924B1641E2C
:1051E00014F0FF0402D00DE04FF00108012F27D08A
:1051F0002FE04BB100234CB12C280CD0202816D026
:10520000282814D05AB110E00123F4E7202815D043
:1052100009F8010B12E00125521CD2B207E0052E5D
:1052200003D20BF80600761CF6B26D1CEDB2012C11
:1052300004D1022D02D103257F1CFFB2491CBFE718
:1052400000200BF8060007A1684600F096F900B9A7
:10525000002704980770002089F8000006B0404637
:10526000BDE8F08F766F6964000000002DE9F0431F
:1052700000248946304DB5B0214622466B18491CA2
:10528000C9B29A760A29F9D302E010F8011F99B140
:1052900001782829F9D1461C4FF0010833AA694644
:1052A0003046FFF7C5FE06449DF8CC0040B101280A
:1052B00024D0FF2836D10BE0012035B0BDE8F083C3
:1052C0009DF8000070B334A9684600F0EBF808B10F
:1052D0000220F2E7204600F031F828443499416278
:1052E000298B08FA04F08143298304202919887640
:1052F000641CE4B20A2C15D90320DEE7684600F0EE
:1053000051F9471C204600F019F84119684624312C
:1053100000F03FF9298B08FA04F00143281929838A
:105320008776E5E73078292801D00028B6D189F8BA
:1053300000400020C1E7000058000020024610B5E0
:1053400000200146054B05E05C18491CA47EC9B24B
:105350002044C0B29142F7D310BD00005800002095
:10536000094800680169C943CA070849D1F8F02013
:1053700004D14FF6FF731A44C1F8F020406A10447C
:10538000C1F8F00070470000100300205800002012
:1053900000EBC00101EB00104FF0FF3101EB80008A
:1053A00010B581B24FF47A70FFF7F6F90149012088
:1053B000C87510BD580000200346012000E0584386
:1053C000491EC9B2FBD2704707486FF0010102685D
:1053D00011610268090CD162C1600068002141625C
:1053E0000248C0F8F0107047100300205800002059
:1053F0002DE9F041164E3088010426D51549C0B27A
:10540000154F00250D54B9681248884704000FD085
:10541000104800F0D1F8012801D0040014D0012C6C
:1054200009D0022C09D0032C09D0042C0CD108E09F
:10543000F868804708E009A004E00BA002E00DA096
:1054400000E00FA0FAF7B8FF3580BDE8F08100005A
:10545000160000204C01002058000020BAAFCAFD01
:10546000B4EDCEF3210D0A00B2CECAFDB4EDCEF3F9
:10547000210D0A00B2CECAFDCCABB6E0210D0A0068
:10548000CEB4D5D2B5BDC6A5C5E4B5C4BAAFCAFDC4
:10549000210D0A0010F8011F202901D10028F9D19F
:1054A000C8B270472DE9F0430E4600244FF00A08B9
:1054B0002546014634600A78A2F13003092B14D93D
:1054C00003782D2B01D02B2B00D174B1A2F1410315
:1054D000052B0AD9582A05D012F0FF0F17D001204A
:1054E000BDE8F083012C02D0F9E7412A01D34FF047
:1054F000100802782D2A04D02B2A04D0641CE4B2B0
:1055000003E0022500E00125401C491CD3E70746C3
:10551000B8F1100F01D084B112E0032C01D20220A7
:10552000DEE73878302802D17878582801D0032077
:10553000D6E7A41EE4B2BF1C01E00420D0E70CB102
:10554000641EE4B2387801463038092801D8814613
:1055500001E0A1F1370921464046FFF72DFF3268EF
:1055600009FB0020306017F8011F0029E7D1022D48
:1055700001D1404230600020B2E702780B789A42B5
:1055800001D00120704712B1401C491CF5E70020F2
:10559000704702780A700278002A02D0401C491C29
:1055A000F7E77047002102781AB1491CC9B2401CC4
:1055B000F9E7084670470000F0B58DB004461E2399
:1055C00008AA6946FFF786FD0990002872D19DF868
:1055D0002000271800253E4C8DF820509DF8200013
:1055E00054F820106846FFF7C8FF38B19DF8200036
:1055F000401CC0B28DF820000728EFD39DF8200092
:105600000426344C072855D2DFE800F00404395A48
:10561000605F5E0030A0FAF7CFFE30A0FAF7CCFE54
:105620003EA0FAF7C9FE4DA0FAF7C6FE5BA0FAF756
:10563000C3FE6AA0FAF7C0FE78A0FAF7BDFE86A006
:10564000FAF7BAFE8BA0FAF7B7FE93A0FAF7B4FE0A
:1056500097A0FAF7B1FE9CA0FAF7AEFEA1A0FAF768
:10566000ABFEA7A0FAF7A8FEB3A0FAF7A5FEC0A06C
:10567000FAF7A2FECBA0FAF79FFED7A01BE016A078
:10568000FAF79AFEE4A0FAF797FE8DF820500BE0A7
:10569000216806EBC0000958EFA0FAF78DFE9DF8CF
:1056A0002000401C8DF82000217D9DF820008142C3
:1056B000EED856E257E2FAF77FFE00200DB0F0BDBB
:1056C00005A0FAF779FECBE12CE20CE2EBE1000059
:1056D0001C000020580000200D0A00002D2D2D2D4B
:1056E0002D2D2D2D2D2D2D2D2D2D2D2D2D2D2D2DEA
:1056F0002D2D2D2D55534D4152542056332E332DE3
:105700002D2D2D2D2D2D2D2D2D2D2D2D2D2D2D2DC9
:105710002D2D2D2D2D2D2D200D0A00002020202097
:1057200055534D415254CAC7D3C9414C49454E54B3
:10573000454BBFAAB7A2B5C4D2BBB8F6C1E9C7C929
:10574000B5C4B4AEBFDAB5F7CAD4BBA5BDBBD7E903
:10575000BCFE2CCDA8B9FD200D0A0000CBFC2CC44A
:10576000E3BFC9D2D4CDA8B9FDB4AEBFDAD6FACA68
:10577000D6B5F7D3C3B3CCD0F2C0EFC3E6B5C4C837
:10578000CEBACEBAAFCAFD2CB2A2D6B4D0D02ED2E9
:10579000F2B4CB2CC4E3BFC90D0A0000D2D4CBE6CF
:1057A000D2E2B8FCB8C4BAAFCAFDB5C4CAE4C8EB0B
:1057B000B2CECAFD28D6A7B3D6CAFDD7D628313077
:1057C0002F3136BDF8D6C62CD6A7B3D6B8BACAFD87
:1057D00029A1A2D7D6B7FBB4AE0D0A00A1A2BAAFD9
:1057E000CAFDC8EBBFDAB5D8D6B7B5C8D7F7CEAAC9
:1057F000B2CECAFD292CB5A5B8F6BAAFCAFDD7EE10
:10580000B6E0D6A7B3D63130B8F6CAE4C8EBB2CE0C
:10581000CAFD2CB2A2D6A7B3D60D0A00BAAFCAFDF4
:10582000B7B5BBD8D6B5CFD4CABE2ED6A7B3D6B2DD
:10583000CECAFDCFD4CABEBDF8D6C6C9E8D6C3B954
:10584000A6C4DC2CD6A7B3D6BDF8D6C6D7AABBBB98
:10585000B9A6C4DC2E0D0A00BCBCCAF5D6A7B3D6C7
:105860003A7777772E6F70656E6564762E636F6D0D
:105870000D0A000055534D415254D3D037B8F6CFDE
:10588000B5CDB3C3FCC1EE28B1D8D0EBD0A1D0B414
:10589000293A0D0A000000003F3A20202020202055
:1058A000BBF1C8A1B0EFD6FAD0C5CFA20D0A000057
:1058B00068656C703A202020BBF1C8A1B0EFD6FA21
:1058C000D0C5CFA20D0A00006C6973743A20202065
:1058D000BFC9D3C3B5C4BAAFCAFDC1D0B1ED0D0ABB
:1058E0000A00000069643A2020202020BFC9D3C3E9
:1058F000BAAFCAFDB5C44944C1D0B1ED0D0A0A0022
:105900006865783A20202020B2CECAFD3136BDF835
:10591000D6C6CFD4CABE2CBAF3B8FABFD5B8F12BCD
:10592000CAFDD7D6BCB4D6B4D0D0BDF8D6C6D7AA97
:10593000BBBB0D0A0A0000006465633A20202020EA
:10594000B2CECAFD3130BDF8D6C6CFD4CABE2CBA4D
:10595000F3B8FABFD5B8F12BCAFDD7D6BCB4D6B4CC
:10596000D0D0BDF8D6C6D7AABBBB0D0A0A0000002E
:1059700072756E74696D653A312CBFAAC6F4BAAF00
:10598000CAFDD4CBD0D0BCC6CAB13B302CB9D8B13B
:10599000D5BAAFCAFDD4CBD0D0BCC6CAB13B0D0A74
:1059A0000A000000C7EBB0B4D5D5B3CCD0F2B1E05B
:1059B000D0B4B8F1CABDCAE4C8EBBAAFCAFDC3FBE4
:1059C000BCB0B2CECAFDB2A2D2D4BBD8B3B5BCFC77
:1059D000BDE1CAF82E0D0A002D2D2D2D2D2D2D2DBA
:1059E0002D2D2D2D2D2D2D2D2D2D2D2D2D2D2D2DE7
:1059F0002D2D414C49454E54454B2D2D2D2D2D2DF2
:105A00002D2D2D2D2D2D2D2D2D2D2D2D2D2D2D2DC6
:105A10002D2D2D200D0A00002D2D2D2D2D2D2D2D60
:105A20002D2D2D2D2D2D2D2D2D2D2D2D2D2D2D2DA6
:105A30002DBAAFCAFDC7E5B5A52D2D2D2D2D2D2DC8
:105A40002D2D2D2D2D2D2D2D2D2D2D2D2D2D2D2D86
:105A50002D2D2D2D200D0A0025730D0A00000000AC
:105A600042A0FAF7A9FC8DF8205016E0216806EB59
:105A7000C0000BAB08580AAA6946FFF743FB9DF824
:105A80002010206850F83120694648A0FAF794FCAD
:105A90009DF82000401C8DF82000217D9DF82000FD
:105AA0008142E3D85DE0AFF2D030FAF785FC08AA76
:105AB00069463846FFF7BCFA9DF82000002843D11C
:105AC00009A96846FFF7EEFC8DF8200010B1042804
:105AD0003AD102E03AA009991CE03CA0FAF76CFC2C
