:020000040800F2
:10000000700400209D01000897110008E910000805
:1000100095110008E50200083115000800000000F5
:100020000000000000000000000000009B1100081C
:10003000E702000800000000991100089D11000867
:10004000B7010008B7010008B7010008B7010008B0
:10005000B7010008B7010008B7010008B7010008A0
:10006000B7010008B7010008B7010008B701000890
:10007000B7010008B7010008B7010008B701000880
:10008000B7010008B7010008B7010008B701000870
:10009000B7010008B7010008B7010008B701000860
:1000A000B7010008B7010008B7010008B701000850
:1000B000B7010008B7010008B7010008B701000840
:1000C000B7010008B7010008B7010008B701000830
:1000D000B7010008B7010008B7010008251500089E
:1000E000B7010008B7010008B7010008B701000810
:1000F000B7010008B7010008B7010008B701000800
:10010000B7010008B7010008B7010008B7010008EF
:10011000B7010008B7010008B7010008B7010008DF
:10012000B7010008B7010008B7010008B7010008CF
:10013000B7010008B7010008B7010008B7010008BF
:10014000B7010008B7010008B7010008B7010008AF
:10015000B7010008B7010008B7010008B70100089F
:10016000B7010008B7010008B7010008B70100088F
:10017000B7010008B7010008B7010008000000003F
:10018000B7010008B7010008DFF80CD000F098F8BC
:100190000048004701170008700400200648804707
:1001A00006480047FEE7FEE7FEE7FEE7FEE7FEE75C
:1001B000FEE7FEE7FEE7FEE73512000889010008CA
:1001C0002DE9F05F0546002092469B46884606468C
:1001D000814640241BE0284641464746224600F01F
:1001E0005EF853465A46C01A914110D3114618463C
:1001F000224600F045F82D1A67EB01084F462246CB
:100200000120002100F03CF817EB00094E41201EB0
:10021000A4F10104DFDC484631462A464346BDE8E6
:10022000F09FD2B201E000F8012B491EFBD27047CB
:100230000022F6E710B513460A4604461946FFF7B2
:10024000F0FF204610BD421C10F8011B0029FBD115
:10025000801A704730B50B46014600202022012449
:1002600009E021FA02F59D4205D303FA02F5491B84
:1002700004FA02F52844151EA2F10102F1DC30BD9A
:10028000202A04DB203A00FA02F100207047914056
:10029000C2F1200320FA03F3194390407047202A4B
:1002A00004DB203A21FA02F00021704721FA02F320
:1002B000D040C2F120029140084319467047000027
:1002C000064C074D06E0E06840F0010394E80700A3
:1002D00098471034AC42F6D3FFF75AFF5417000882
:1002E00074170008FEE7704772B6FEE72DE9F0418B
:1002F0000446876D00F054F9064694F83500002551
:10030000022806D08020606584F834500120BDE8C2
:10031000F0812068016821F01601016020684169C0
:1003200021F080014161206C08B9A06C20B12068E7
:10033000016821F0080101602068016821F00101D5
:1003400001600CE000F02CF9801B052807D9202063
:100350006065032084F8350084F83450D7E72068BE
:100360000068C007EED194F85C103F208840B86068
:10037000012084F8350084F834500020C7E790F855
:100380003510022903D080214165012070470521E5
:1003900080F835100068016821F00101016000203B
:1003A000704700002DE9F84FDFF8BCA100220125BD
:1003B00003264FF00F090AF1040BAAF1040E00BF47
:1003C0000B6805FA02F42340A34270D10F7907F0BD
:1003D0000307012F01D0022F16D187684FEA420888
:1003E00006FA08FC27EA0C07D1F80CC00CFA08FC46
:1003F0004CEA070CC0F808C04768A7430C79C4F35F
:10040000001494403C4344600C79E443A4070AD0B0
:10041000C4684FEA420C06FA0CF7BC438F6807FA2F
:100420000CF72743C7600C7904F00304022C12D1A7
:10043000D40800EB840CDCF820405707FF0E09FAC3
:1004400007F824EA0804D1F8108008FA07F848EA07
:100450000408CCF8208004684FEA420C06FA0CF736
:10046000BC430F7907F0030707FA0CF7274307602F
:100470004C6814F4403F70D03C4C276847F48047E8
:100480002760246822F0030704F480440094384C69
:1004900007EB040CDCF8084897074FEA177809FACD
:1004A00008F7BC43334FB84202D1002724E054E0A0
:1004B000314FB84201D101271EE0304FB84201D17F
:1004C000022719E02E4FB84201D1032714E02D4F27
:1004D000B84201D104270FE02B4FB84201D10527C4
:1004E0000AE02A4FB84201D1062705E0284FB8425A
:1004F00001D1072700E0082707FA08F72743CCF8BF
:100500000878DAF800405746D1F804C09C435FEA07
:10051000CC2C00D51C433C60DBF800405F46D1F892
:1005200004C09C435FEA8C2C00D51C433C60DEF881
:1005300000407746D1F804C09C435FEA8C3C00D56C
:100540001C433C60084F083F3C68D1F804C09C4302
:100550005FEACC3C00D51C433C60521C102AFFF4DF
:100560002FAFBDE8F88F0000083C0140443802403E
:100570000030014000000240000402400008024038
:10058000000C02400010024000140240001802401B
:10059000001C02400AB1816170470904FBE70000BA
:1005A00001488068704700001800002002488168F8
:1005B0000278114481607047180000200B4810B584
:1005C000016841F400710160016841F480610160DB
:1005D000016841F480710160032000F06FF80F2082
:1005E00000F006F800F024F8002010BD003C0240A6
:1005F00070B50D4D04464FF47A712878B1FBF0F0D8
:100600000A490968B1FBF0F000F00AFB48B9102C68
:1006100007D200222146501E00F030F800206C6006
:1006200070BD012070BD00001800002024000020D3
:100630000A4808B5016841F480410160006800F48F
:10064000804000900548001F016841F08051016022
:10065000006800F08050009008BD0000443802405F
:10066000002809DB00F01F020121914040098000B1
:1006700000F1E020C0F8001170470000F0B40E4B0C
:100680001B680C46C3F30223C3F10705042D00D9F0
:100690000425191D072901D2002300E0DB1E0126D5
:1006A00006FA05F1491E214099409E40761E1640EB
:1006B0003143F0BC00F04EBF0CED00E0064900F005
:1006C000070208684FF6FF03184040EA0220034A79
:1006D00010430860704700000CED00E00000FA05D0
:1006E0002DE9F0470E46050065D0DFF81481D8F8F3
:1006F0000000F7B200F00700B04207D288F800709F
:10070000D8F8000000F00700B04254D128683D4CF2
:10071000810712D5400703D5206840F4E0502060DF
:100720002878000703D5206840F4604020602068E6
:10073000A96820F0F000084320602878C0072DD079
:10074000304968680839012812D0022813D00328DC
:1007500011D00968890700292DDA216821F00301E9
:1007600001432160FFF71CFF814641F2883A0EE009
:1007700009688903EFE709688901ECE7FFF710FFD3
:10078000A0EB0901514502D90320BDE8F08720689C
:10079000696800F00C00B0EB810FEFD1D8F80010C1
:1007A000404601F00701B14207D90770006800F028
:1007B0000700B04201D00120E7E72878400705D5BF
:1007C0002068E96820F4E05008432060287800079A
:1007D00006D52068296920F4604040EAC100206005
:1007E00000F038F82168084AC1F30311515CC84091
:1007F0000649086006480068FFF7FAFE0020C4E7D3
:10080000003C0240083802403C1700082400002049
:100810001C0000200448054900680968044AC1F327
:100820008221515CC84070472400002008380240F3
:100830004C1700080448054900680968044AC1F3D8
:100840004231515CC8407047240000200838024003
:100850004C170008154810B5006810F00C02144839
:1008600013D04110042A0FD0082A0ED10F4C241F98
:100870002268236802F03F025B0207D52068C0F3BC
:100880008810A0FB010106E0084610BD2168C1F3F5
:100890008811A1FB00010023FFF792FC2168C1F33E
:1008A0000141491C4900B0FBF1F010BD083802407D
:1008B0000024F4002DE9F84F04006ED02078DFF812
:1008C0004C93C007A9F104054AD009F1040001685E
:1008D000C1F38101012908D00068C0F3810002281A
:1008E0000AD1D9F80000400206D52868800337D520
:1008F00060680028E1D033E06068B0F5803F10D038
:10090000B0F5A02F286810D020F480302860286827
:1009100020F4802028606068A8B1FFF741FE0646F9
:100920000DE0286840F48030F4E740F4802028602F
:10093000F7E700BFFFF734FE801B642873D82868F0
:100940008003F7D50CE0FFF72BFE064605E000BF5D
:10095000FFF726FE801B6428F0D828688003F7D4B0
:100960002078DFF8AC8280074FF0000A3ED5A74818
:10097000001D016811F00C0F08D00068C0F3810061
:1009800002280BD1D9F80000400207D4286880075C
:1009900016D5E068012800D112E033E1E068B8B173
:1009A0000120C8F80000FFF7FBFD064605E000BF88
:1009B000FFF7F6FD801B0228C0D828688007F7D50E
:1009C0002868216920F0F80040EAC10028600DE0A5
:1009D000C8F800A0FFF7E4FD064604E0FFF7E0FDDD
:1009E000801B02281FD828688007F7D420780007CA
:1009F00022D5864F87486169703771B10121016046
:100A0000FFF7CEFD064604E0FFF7CAFD801B022873
:100A100009D838688007F7D50EE0C0F800A0FFF7C6
:100A2000BFFD064605E082E0FFF7BAFD801B022805
:100A30007DD838688007F7D42078400768D5DFF87C
:100A4000CCB100270BF13C0BDBF80000C0000BD44D
:100A5000DBF8001041F08051CBF80010DBF800000B
:100A6000012700F0805000906B4E3068C00510D414
:100A7000306840F480703060FFF792FD009005E030
:100A8000FFF78EFD0099401A022850D83068C00543
:100A9000F6D55E4EA0686C3601280FD00528306868
:100AA00010D020F001003060306820F00400306089
:100AB000A068B8B1FFF774FD00900FE0306840F017
:100AC0000100F4E740F004003060F7E7FFF768FD4D
:100AD0000099411A41F28830814266D83068800717
:100AE000F4D50EE0FFF75CFD009007E0FFF758FD3E
:100AF0000099411A41F28830814256D83068800707
:100B0000F4D42FB1DBF8001021F08051CBF80010A5
:100B1000A069C8B33D49091D0968C1F381010229D3
:100B20004AD00228504607D0C8F8600000E03CE0F8
:100B3000FFF736FD04463BE04746C8F86000FFF784
:100B40002FFD064605E000BFFFF72AFD801B0228A7
:100B50002BD828688001F7D4D4E907010843A16A9B
:100B60002E4A490802EB0141626A41EA82110843B8
:100B700094F82C1040EA0161C9F800100120386691
:100B8000FFF70EFD044606E03EE000BFFFF708FD5C
:100B9000001B022809D828688001F7D534E000BF7F
:100BA000FFF7FEFC001B022802D90320BDE8F88FE6
:100BB00028688001F4D427E00128F7D0D9F8000094
:100BC000E26900F4800191421CD1226A00F03F01E9
:100BD000914217D147F6C071626A0140B1EB821FA2
:100BE00010D1A26A4FF0FF3300F4403103EB520200
:100BF000B1EB024F06D194F82C1000F07060B0EB0E
:100C0000016F01D00120D1E70020CFE70438024076
:100C100000004742800E4742007000400000FFFF86
:100C200010B5401EB0F1807F01D3012010BD4FF000
:100C3000E02460610F21601700F08CFC0020A061AF
:100C400007202061002010BD70477047F8B501688B
:100C500004460868CA684B6910F00F0F4FF0000592
:100C600059D003F0010602F49077374365D0C107ED
:100C700005D0D10503D5216C41F001012164410764
:100C800005D5D90703D0216C41F002012164810709
:100C900005D5D90703D0216C41F004012164010777
:100CA00007D502F02001314303D0216C41F0080147
:100CB0002164216C00293AD0800604D5900602D523
:100CC000204600F0EEFA20684069216CC0F38010E5
:100CD000090700D460B3204600F0BCFA20684069E0
:100CE000400621D52068143050E8001F21F0400153
:100CF00040E80012002AF5D1A06BA8B16C4901654B
:100D0000A06BFFF73CFB002811D0A06B016D01B078
:100D1000BDE8F040084783060FD593060DD5204661
:100D2000BDE8F84000F0BDBA2046FFF78EFFF8BDE1
:100D30002046FFF78AFF2564F8BD266B2023012E8D
:100D400079D1C60677D5D60675D50868486800906B
:100D50004869400640D5A16B086840680004000C53
:100D6000EAD0A28D8242E7D9E085C869B0F5807FDC
:100D70002DD020680C3050E8001F21F4807140E82D
:100D80000012002AF5D12068143050E8001F21F02D
:100D9000010140E80012002AF5D12068143050E823
:100DA000001F21F0400140E80012002AF5D184F82C
:100DB0003E30256320680C3050E8001F21F0100100
:100DC00040E80012002AF5D1A06BFFF78FFAA08D42
:100DD000E18D401A81B229E0A08DE18D401A81B2E7
:100DE000E08D0028A8D00029A6D020680C3050E85B
:100DF000002F22F4907240E80026002EF5D12068E2
:100E0000143050E8002F22F0010240E80026002EA6
:100E1000F5D184F83E30256320680C3050E8002F6F
:100E200022F0100240E80023002BF5D12046FFF706
:100E30000BFFF8BDFFE705062BD5150629D594F85D
:100E40003D002128F5D1A068B0F5805F01D120696F
:100E5000B0B1206A411C2162216800784860E08CB2
:100E6000401E0004000CE084E3D12068C16821F03A
:100E70008001C1602068C16841F04001C160D8E7CD
:100E8000206A0088C0F308004860206A801C206245
:100E9000E5E74006CDD55006CBD5CA68204622F0FE
:100EA0004002CA6084F83D3000F01DF9C1E700003F
:100EB0004512000870B5040004D094F83D000025E8
:100EC00010B106E0012070BD84F83C50204600F0CF
:100ED00023F8242084F83D002068C16821F40051E3
:100EE000C160204600F03EFA2068016921F490417B
:100EF00001612068416921F02A0141612068C168CF
:100F000041F40051C1602564202084F83D0084F83C
:100F10003E00002070BD000010B586B004461421CC
:100F20006846FFF785F918492068884229D1174893
:100F30000021026842F480220260006800F48020F0
:100F4000059012481038026842F002020260006800
:100F500000F0020005904FF4406000900220CDE9BF
:100F60000101032003900720049069460848FFF719
:100F700019FA002211462720FFF780FB2720FFF7F0
:100F80006FFB06B010BD0000004800404038024032
:100F90000004024090F83E30202B0ED159B152B1DE
:100FA00090F83C30012B08D0012380F83C3000231E
:100FB000036300F05DBA0120704702207047000013
:100FC00070B500681649884229D1164C42F2107556
:100FD000207801280ED104F10D00FFF734F982B218
:100FE0002B4604F10D01104800F024F821780FA0E1
:100FF00000F0A0FA207802280AD10A48C01DFFF7A5
:1010000022F9084982B22B46C91D074800F012F8A0
:10101000BDE87040012203490348FFF7BBBF70BD24
:1010200000480040000000202800002025640D0A30
:10103000000000002DE9F843044690F83D001F46EB
:1010400016460D4620284CD1C5B1BEB194F83C00DF
:10105000012846D0012084F83C004FF00008C4F875
:101060004080212084F83D00FFF79AFAA68481464B
:10107000E684A068B0F5805F03D004E00120BDE8FD
:10108000F883206928B12E465FF0000584F83C8083
:101090000EE00026FAE78021204600F006FAA0B90B
:1010A000AEB116F8010B21684860E08C401EE08468
:1010B000E08C4B464FF0000200970028EBD14FF038
:1010C0004001204600F0F1F930B10320D7E735F8B0
:1010D000020BC0F30800E6E7202084F83D00002062
:1010E000CDE70220CBE77047FEE7000070B586B081
:1010F00014216846FFF79CF816480024016841F067
:1011000020010160016801F020010591016841F0B2
:1011100080010160016801F080010591016841F0E2
:101120000201016000680C4E00F002004FF40075EF
:101130000590002229463046FFF72CFA0120009541
:10114000CDE90104694630460394FFF72BF906B058
:1011500070BD000030380240001402400C4810B549
:101160000A4901604FF4E1314160002181600C22A5
:10117000C160C0E904128161C161FFF79BFE0028D4
:1011800003D0BDE81040FFF7AFB810BD00480040E5
:1011900028000020FEE7FEE770477047FFF706BA19
:1011A00030B593B030216846FFF742F814210CA8FF
:1011B000FFF73EF81D480025016841F080510160AD
:1011C000006800F0805011901948016841F4804196
:1011D00001600068022400F480401190012000901A
:1011E000000401908001CDE9064008AA0420A8214E
:1011F00082E813000B906846FFF75CFB08B172B6FB
:10120000FEE70CA90F2081E831004FF4A0500F90A9
:101210004FF48050109005210CA8FFF761FA0028C8
:1012200001D072B6FEE713B030BD00004038024076
:10123000007000400248016841F47001016070478D
:1012400088ED00E010B5806B0021C185C184FFF7F7
:10125000FCFC10BD01680C3151E8002F22F49072A3
:1012600041E80023002BF5D10168143151E8002F2B
:1012700022F0010241E80023002BF5D1016B012986
:1012800009D101680C3151E8002F22F0100241E829
:101290000023002BF5D1202180F83E1000210163AE
:1012A000704708B590F83E10222901D0022008BDF1
:1012B00082684FF480539A4201D1016921B1816A59
:1012C0009A421BD04AB10AE00268816A5268C2F3AE
:1012D00008020A80816A891C08E0026972B102680A
:1012E000526802F07F020A70816A491C8162C18DD6
:1012F000491E0904090CC18503D019E0026852682F
:10130000F1E70168CA6822F02002CA600168CA6871
:1013100022F48072CA6001684A6922F001024A61BF
:10132000202180F83E10016B012903D0FFF748FE11
:10133000002008BD0021016301680C3151E8002F35
:1013400022F0100241E80023002BF5D101680A6861
:10135000D20602D50A6849680091818DFFF774FCB6
:10136000E6E7000070B5044600680169E26821F410
:101370004051114301612169A068E2690843616934
:10138000114308432168CA6849F20C639A43024337
:10139000CA6020684169A26921F44071114341612A
:1013A00031492068884202D03049884202D1FFF793
:1013B00041FA01E0FFF72EFAE269002319216425C2
:1013C0003226B2F5004F626828D0A0FB0101930FCE
:1013D0009200FEF7F5FE0146B0FBF5F06FF0180243
:1013E000504301EB800006EB0010B0FBF5F000F07D
:1013F000F002B1FBF5F002EB0012B1FBF5F06FF07B
:101400001803584301EB800006EB0010B0FBF5F029
:1014100000F00F0021681044886070BDA0FB01013E
:1014200092185B41FEF7CCFE0146B0FBF5F00201DD
:10143000B1FBF5F06FF01803584301EB800006EBA9
:10144000C000B0FBF5F000F0F80002EB4002B1FB89
:10145000F5F0584301EB800006EBC000B0FBF5F05F
:1014600000F00700D6E70000001001400014014022
:1014700081628285C28500210164222280F83E209B
:1014800080F83C10016921B10168CA6842F4807299
:10149000CA6001684A6942F001024A610068C16895
:1014A00041F02001C160002070472DE9F0419846CD
:1014B00017460E460446069D27E0681C25D02DB130
:1014C000FFF76EF8A0EB0800A8421ED920680C3088
:1014D00050E8001F21F4D07140E80012002AF5D135
:1014E0002068143050E8001F21F0010140E800128C
:1014F000002AF5D1202084F83D0084F83E00002029
:1015000084F83C000320BDE8F0812068006836EADA
:10151000000004D00020B842CFD00020F3E7012023
:10152000F9E700000148FFF791BB00002800002008
:10153000FEE700000FB4054B10B503A9044A02985A
:1015400000F028F810BC5DF814FB0000E916000854
:10155000140000200907090E002804DB00F1E02038
:1015600080F80014704700F00F0000F1E02080F8D0
:10157000141D704702E008C8121F08C1002AFAD1E2
:1015800070477047002001E001C1121F002AFBD103
:10159000704700002DE9FF4F89B09B4604460025A7
:1015A00006E025280BD05A460B999047641C6D1C09
:1015B00020780028F5D10DB02846BDE8F08F00272F
:1015C000B8460122474900E0074314F8013F203B99
:1015D00002FA03F00842F7D120782E2819D114F826
:1015E000010F47F004072A280ED06FF02F02207851
:1015F000A0F1300109290CD808EB880102EB410168
:1016000000EB0108641CF2E70A98641C50F8048B94
:101610000A9020780028CED0642808D0692806D007
:1016200075281ED05A460B9990476D1C58E00A99B0
:101630004FF00A0901C90A91002802DA40422D211F
:1016400002E0390504D52B218DF82010012103E09B
:10165000F90704D02021F7E78A4608AE0DE0002103
:10166000FAE70A994FF00A0901C90A91F7E74946D2
:10167000FEF7F0FD303106F8011D0028F7D1ADEB83
:10168000060000F12009780701D44FF00108C84591
:1016900002DDA8EB090000E000208046002706E0FC
:1016A00008A85A46C05D0B9990476D1C7F1C574592
:1016B000F6DB04E030205A460B9990476D1CB8F1D8
:1016C0000001A8F10108F5DC05E016F8010B5A4607
:1016D0000B9990476D1CB9F10001A9F10109F4DCE7
:1016E000641C65E70928010003490A685206FCD515
:1016F000024AC1B2516070470048004000100140EA
:10170000FFF74EFDFEF75AFFFFF7F0FCFFF726FD4F
:101710000848FEF798FD82B242F210730549064868
:10172000FFF788FC03490122491E0348FFF732FCFA
:10173000FEE700000100002028000020000000005B
:101740000000000001020304060708090000000071
:1017500001020304741700080000002028000000A4
:10176000741500089C170008280000204804000099
:10177000841500080068656C6C6F00436C6F7365BE
:10178000004F70656E0D0A000000000001000000AF
:0C17900010000000000000000024F40025
:040000050800018965
:00000001FF
