:020000040800F2
:1000000088070020CD010008A10F00089B0F000801
:100010009F0F000869030008151200080000000087
:10002000000000000000000000000000A50F000814
:100030006B03000800000000A30F0008A70F0008D2
:10004000E7010008E7010008E7010008E7010008F0
:10005000E7010008E7010008E7010008E7010008E0
:10006000E7010008E7010008E7010008E7010008D0
:10007000E7010008E7010008E7010008E7010008C0
:10008000E7010008E7010008E7010008E7010008B0
:10009000E7010008E7010008E7010008E7010008A0
:1000A000E7010008E7010008E7010008E701000890
:1000B000E7010008E7010008E7010008E701000880
:1000C000E7010008E7010008E7010008E701000870
:1000D000E7010008E9110008E7010008E70100084E
:1000E000E7010008E7010008E7010008E701000850
:1000F000E7010008E7010008E7010008E701000840
:10010000E7010008E7010008E7010008E70100082F
:10011000E7010008E7010008E7010008E70100081F
:10012000E7010008E7010008E7010008E70100080F
:1001300000F002F800F03AF80AA090E8000C8244BF
:100140008344AAF10107DA4501D100F02FF8AFF29C
:10015000090EBAE80F0013F0010F18BFFB1A43F0A5
:10016000010318475C1100007C110000103A24BF05
:1001700078C878C1FAD8520724BF30C830C144BF0C
:1001800004680C607047000000230024002500264E
:10019000103A28BF78C1FBD8520728BF30C148BFEA
:1001A0000B6070471FB51FBD10B510BD00F096F86D
:1001B0001146FFF7F7FF01F04BF800F0C8F803B461
:1001C000FFF7F2FF03BC01F036F800000948804752
:1001D00009480047FEE7FEE7FEE7FEE7FEE7FEE729
:1001E000FEE7FEE7FEE7FEE704480549054A064B41
:1001F0007047000009100008310100088801002044
:100200008807002088030020880300207047000032
:100210000FB4044910B503AA029800F031F810BCDD
:100220005DF814FB140000204FF0000200B51346E7
:1002300094469646203922BFA0E80C50A0E80C5006
:10024000B1F12001BFF4F7AF090728BFA0E80C50B7
:1002500048BF0CC05DF804EB890028BF40F8042BB0
:1002600008BF704748BF20F8022B11F0804F18BF1D
:1002700000F8012B704770477047704770470000C7
:10028000074B70B50D467B4400F011F80446284634
:1002900000F020F810B14FF0FF3070BD204670BD67
:1002A000AF0F000001694A1C02610878704700B571
:1002B0008FB0CDE901310021059105497944CDE99F
:1002C00003101146684600F02EF80FB000BD000084
:1002D000E5FFFFFF007B00F080007047754600F0EF
:1002E0003FF8AE4605006946534620F007008546B4
:1002F00018B020B5FFF778FFBDE820404FF00006AA
:100300004FF000074FF000084FF0000B21F00701FD
:10031000AC46ACE8C009ACE8C009ACE8C009ACE840
:10032000C0098D4670472DE9F04106460024D6E904
:100330000170F5688046304603E04146B847641CCA
:100340003046A8470028F8D12046BDE8F08110B516
:100350000446AFF300802046BDE81040FFF72FBFF2
:100360000048704724010020FEE770472DE9F05F48
:1003700090F821100024022903D004218163012474
:1003800085E001680A6822F00E020A6001680A68C6
:1003900022F001020A603F4E3E4FB215DFF8F4C072
:1003A000DFF8F090DFF8ECA0DFF8E8B0DFF8E4E089
:1003B0000168783F13011502ACF1640CA9F15009F2
:1003C000AAF13C0AABF1280BAEF1140E4FF48018E1
:1003D000B14227D9B9420ED0614512D049451DD04E
:1003E000514518D0594518D0714501D1424615E004
:1003F000294EB14201D1012210E0274E1436B142FC
:1004000001D110220AE0244E2836B14206D0224AF9
:100410003C32914201D11A4600E02A461E49091F8A
:100420000A602BE0B94213D0614517D0494522D06C
:1004300051451DD059451DD0714501D142461AE0A4
:10044000B14202D14FF0807215E0134EB14201D19A
:10045000012210E0104E1436B14201D110220AE000
:100460000D4E2836B14206D00B4A3C32914201D1A2
:100470001A4600E02A46074980394A60012180F87F
:100480002110002180F82010416B01B188472046DF
:10049000BDE8F09F80000240080402402DE9F84FBB
:1004A000DFF8C891002409F1040A0AF1040B23467D
:1004B0000F270BF1040ED1E00125A54006EA050245
:1004C000AA4276D1DFF8A8C14E68A6EB0C086645B3
:1004D0002BD00DDC032E34D005DC36B3012E19D021
:1004E000022E2FD11BE0112E16D0122E2AD119E088
:1004F000B8F5881F19D006DCB8F5803F15D0B8F5DF
:10050000801F1FD111E0B8F5001F0ED0B8F5041FF1
:1005100018D10AE0CB6815E0CB681B1D12E0CB6850
:1005200008330FE0CB680C330CE08B682BB1012B48
:100530004FF0080303D0456104E0042302E00561A5
:1005400000E00023FF2A01D8064601E000F104067E
:100550004FEA840501D9A5F12005D6F8008007FAF5
:1005600005FC28EA0C0803FA05F548EA0508C6F870
:1005700000804D68ED0070D53E4DAE6946F0010635
:10058000AE61AD6924F0030605F0010500953A4D12
:1005900006EB050CDCF80850A607360F07FA06F83C
:1005A00025EA0805DFF8D480404503D14FF0000864
:1005B00025E052E0DFF8C880404502D14FF0010845
:1005C0001DE0DFF8C080404502D14FF0020816E080
:1005D000DFF8B480404502D14FF003080FE0DFF8A8
:1005E000AC80404502D14FF0040808E0DFF8A0805D
:1005F000404502D14FF0050801E04FF0060808FA27
:1006000006F848EA0508CCF808804D68D9F800607B
:10061000ED034D4601D5164300E096432E604D682C
:10062000DAF80060AD03554601D5164300E0964365
:100630002E604D68DBF80060ED025D4601D5164383
:1006400000E096432E604D68DEF80060AD0275460E
:1006500001D5164300E096432E60641C0A681646D6
:10066000E2407FF429AFBDE8F88F000000040140AC
:10067000000011100010024000000140000801407D
:10068000000C01400010014000140140001801401E
:10069000001C0140014880687047000000000020F5
:1006A0000248816802781144816070470000002090
:1006B000074810B5016841F010010160032000F007
:1006C0006DF80F2000F006F800F024F8002010BDAF
:1006D0000020024070B50D4D04464FF47A71287821
:1006E000B1FBF0F00A490968B1FBF0F000F0E4FA60
:1006F00048B9102C07D200222146501E00F02EF8D7
:1007000000206C6070BD012070BD00000000002062
:100710000C000020094808B5816941F001018161A0
:10072000816901F001010091C16941F08051C1610D
:10073000C06900F08050009008BD00000010024029
:10074000002809DB00F01F020121914040098000D0
:1007500000F1E020C0F8001170470000F0B40E4B2B
:100760001B680C46C3F30223C3F10705042D00D90F
:100770000425191D072901D2002300E0DB1E0126F4
:1007800006FA05F1491E214099409E40761E16400A
:100790003143F0BC00F03FBD0CED00E0064900F035
:1007A000070208684FF6FF03184040EA0220034A98
:1007B00010430860704700000CED00E00000FA05EF
:1007C0002DE9F0470F46050061D0434E306800F038
:1007D0000700B84209D2306820F007003843306083
:1007E000306800F00700B84251D128683B4C8107BF
:1007F00012D5400703D5606840F4E0606060287857
:10080000000703D5606840F4605060606068A968C4
:1008100020F0F000084360602878C00728D068689E
:10082000012810D02168022810D0890700292EDA6B
:10083000616821F0030101436160FFF72BFF8046EF
:1008400041F288390DE021688903EFE78901EDE77E
:10085000FFF720FFA0EB0801494502D90320BDE8BE
:10086000F0876068696800F00C00B0EB810FEFD191
:10087000306800F00700B8420BD9306820F007005C
:1008800038433060306800F00700B84201D00120E2
:10089000E5E72878400705D56068E96820F4E0605E
:1008A000084360602878000706D56068296920F44D
:1008B000605040EAC100606000F038F86168084AA2
:1008C000C1F30311515CC84006490860064800683E
:1008D000FFF700FF0020C2E70020024000100240A6
:1008E000A81200080C00002004000020044805495C
:1008F00000684968044AC1F30221515CC84070474E
:100900000C00002000100240B812000804480549FD
:1009100000684968044AC1F3C221515CC84070476D
:100920000C00002000100240B812000812A185B08F
:100930000FC98DE80F0014A0144A00680490516894
:10094000134801F00C03042B10D0082B0ED1C1F377
:100950008343C9031DF803000AD5516804AAC1F3F3
:100960004041515C0A4A5043B0FBF1F005B070477A
:1009700008494843FAE7000002030405060708098E
:100980000A0B0C0D0E0F10100102000000100240A7
:1009900000127A0000093D002DE9F84F040070D0E4
:1009A0002078C04DC00749D06868C0F38100012895
:1009B00007D06868C0F38100022809D16868C003C5
:1009C00006D52868800339D560680028E7D035E06F
:1009D0006068B0F5803F0BD010B1B0F5A02F11D0FA
:1009E000286820F480302860286820F4802002E005
:1009F000286840F480302860606890B1FFF74AFEB4
:100A000006460AE0286840F480202860F0E700BF2E
:100A1000FFF740FE801B642873D828688003F7D551
:100A20000CE0FFF737FE064605E000BFFFF732FE99
:100A3000801B6428F0D828688003F7D420789A4E69
:100A400080074FF001094FF0000839D5686810F0B1
:100A50000C0F07D06868C0F38100022809D16868CC
:100A6000C00306D42868800714D52069012808D15E
:100A700010E02069B0B1C6F80090FFF70BFE074602
:100A800005E00AE1FFF706FEC01B0228C4D828686B
:100A90008007F7D52868616920F0F80040EAC100B6
:100AA00028600DE0C6F80080FFF7F4FD074604E07B
:100AB000FFF7F0FDC01B022823D828688007F7D471
:100AC000207800072CD57948A169D9B1C0F80090E9
:100AD000FFF7E0FD074604E0FFF7DCFDC01B02283E
:100AE0000FD8686A8007F7D571484FF4FA5100684B
:100AF000B0FBF1F0009000BF0098411E0091FAD2C7
:100B00000EE080E0C0F80080FFF7C4FD074604E077
:100B1000FFF7C0FDC01B022875D8686A8007F7D4AC
:100B20002078400760D5E8690027C00008D4E8694C
:100B300040F08050E861E869012700F080500090A3
:100B40005C480168C90513D40168834641F480718B
:100B50000160FFF79FFD824606E000BFFFF79AFDA8
:100B6000A0EB0A0064284ED8DBF80000C005F5D5DC
:100B7000E06801280AD008B1052813D0286A20F0BF
:100B800001002862286A20F0040002E0286A40F090
:100B900001002862E06841F2883B98B1FFF77AFDD6
:100BA00082460BE0286A40F004002862EEE700BFAE
:100BB000FFF770FDA0EB0A0159455AD8286A800753
:100BC000F6D50CE0FFF766FD824605E0FFF762FD13
:100BD000A0EB0A0159454CD8286A8007F6D41FB10A
:100BE000E86920F08050E861E06988B36968C1F382
:100BF0008101022944D00228C6F8608004D0FFF7A2
:100C000049FD044638E034E0FFF744FD074604E0C0
:100C1000FFF740FDC01B02282BD828688001F7D4BD
:100C2000206AB0F5803F05D16868A16820F40030E3
:100C300008436860D4E908010843696821F4741125
:100C400008436860C6F86090FFF724FD044606E09C
:100C500025E000BFFFF71EFD001B022809D8286809
:100C60008001F7D51BE000BFFFF714FD001B022831
:100C700002D90320BDE8F88F28688001F4D40EE083
:100C80000128F7D06868226A00F48031914204D1CB
:100C9000616A00F47010884201D00120EAE7002068
:100CA000E8E7000000100240000042428004424297
:100CB0000C0000200070004010B5401EB0F1807F95
:100CC00001D3012010BD4FF0E02460610F216017B7
:100CD00000F0A1FA0020A06107202061002010BDD3
:100CE000704710F83D1F40780843704770B50268A0
:100CF00004461068D168536910F00F0F50D003F00C
:100D0000010501F4907635435DD0C20705D0CA05D0
:100D100003D5226C42F001022264420705D5DA07AE
:100D200003D0226C42F002022264820705D5DA0762
:100D300003D0226C42F004022264020705D5DA07D0
:100D400003D0226C42F008022264226C002A33D0C5
:100D5000800604D5880602D5204600F06CF920688C
:100D60004069216CC0F38010090700D428B32046E5
:100D700000F053F92068416949061AD5416921F00C
:100D800040014161A06BA0B11B494163A06BFFF71B
:100D9000EDFA002810D0A06B416BBDE87040084709
:100DA000830610D58B060ED52046BDE8704000F0B6
:100DB00042B92046FFF794FF70BD2046FFF790FF31
:100DC0000020206470BD030606D50B0604D520461E
:100DD000BDE8704000F0D6B94006F3D54806F1D51D
:100DE000D168204621F04001D160202184F83D10D7
:100DF00000F0D2F870BD00000B10000870B50400C0
:100E000004D094F83D00002510B106E0012070BD2B
:100E100084F83C50204600F023F8242084F83D005C
:100E20002068C16821F40051C160204600F04EF9ED
:100E30002068016921F4904101612068416921F035
:100E40002A0141612068C16841F40051C1602564F4
:100E5000202084F83D0084F83E00002070BD000092
:100E600010B500681E4986B0884236D11D48816998
:100E700041F004018161816901F0040104918169FB
:100E800041F480418161816901F48041049181696B
:100E900041F0010181618069134C00F00100049070
:100EA0004FF4007000900220019001200290032076
:100EB000039069462046FFF7F1FA201500900020C4
:100EC000019069462046FFF7E9FA2520FFF738FC34
:100ED000032211462520FFF741FC06B010BD00009B
:100EE00000380140001002400008014090F83E30F8
:100EF000202B22D1F9B1F2B190F83C30012B1CD05B
:100F000081628285C28500210164222280F83E2010
:100F100080F83C100168CA6842F48072CA600168B7
:100F20004A6942F001024A610068C16841F020014B
:100F3000C160002070470120704702207047000008
:100F400030B50068114988420CD1114841880A0423
:100F500008D402464C0412784FF0000306D50A2A42
:100F600001D0438030BD41F400410DE00D2A09D08D
:100F7000C1F30D04074D491C89B22A554180C72988
:100F8000EFD830BD41F48041418030BD0038014090
:100F900010000020180000207047FEE77047FEE7B1
:100FA000FEE770477047FFF77BBB30B58FB0282155
:100FB0006846FFF739F914210AA8FFF735F901212E
:100FC0000804CDE900100024029402250491CDE923
:100FD00007504FF4E01009906846FFF7DDFC08B1B8
:100FE00072B6FEE70F20CDE90A054FF48060CDE927
:100FF0000C4002210AA80E94FFF7E2FB002801D062
:1010000072B6FEE70FB030BD704710B5406A0021E0
:10101000C185C184FFF764FE10BD0168CA6822F46F
:101020009072CA6001684A6922F001024A61202177
:1010300080F83E10704710B590F83E10222901D07C
:10104000022010BD8168B1F5805F11D001690029CF
:1010500001681FD0496801F07F03816A4A1C8262DF
:101060000B70C18D491E0904090CC18518D02BE0F5
:101070000269816A002A0268526805D0D2B20A80E9
:10108000816A491C8162ECE7C2F308020A80816A26
:10109000891CF7E74A68816A4B1C83620A70E0E7A3
:1010A0000168CA6822F02002CA600168CA6822F496
:1010B0008072CA6001684A6922F001024A612021F7
:1010C00080F83E10FFF73CFF002010BD2DE9F041F5
:1010D000044600680169E26821F44051114301614E
:1010E0002169A0680843616908432168CA6841F220
:1010F0000C639A430243CA6020684169A26921F4E3
:101100004071114341611E4920686425322688429E
:1011100002D1FFF7FBFB01E0FFF7E8FB00EBC001AA
:1011200001EB001160686FF018078000B1FBF0F26E
:10113000B2FBF5F2B1FBF0F37A4303EB8202B1FBB1
:10114000F0F306EB0212B2FBF5F2B3FBF5F302F09B
:10115000F00202EB0312B1FBF0F3B1FBF0F0B0FBD5
:10116000F5F0784303EB800006EB0010B0FBF5F0E0
:10117000216800F00F0010448860BDE8F081000095
:101180000038014090F83D10212901D0022070471D
:101190008168B1F5805F016A0BD04A1C0262026867
:1011A00009785160C18C491E0904090CC1840ED014
:1011B00017E009880268C1F308015160016900293C
:1011C000016A02D0491C0162ECE7891CFBE7016857
:1011D000CA6822F08002CA600068C16841F040011C
:1011E000C16000207047000010B50848FFF77EFD81
:1011F0000648FFF776FD2028FAD10122044903486A
:10120000FFF774FE0028F8D110BD0000E0000020B8
:1012100010000020FEE70907090E002804DB00F19A
:10122000E02080F80014704700F00F0000F1E0208B
:1012300080F8141D7047704704490A685206FCD5AF
:10124000024AC1B2121D116070470000003801400F
:10125000FFF72EFAFFF7A9FEFFF7A0FE4FF4E130EB
:1012600000F006F801A0FEF7D3FFFEE779657300F2
:101270000B4910B5094AC1E9002000208860C86008
:10128000086188610C2048610846FFF7B7FDBDE89A
:101290001040012203490248FFF728BE00380140F0
:1012A000E00000201000002000000000000000000E
:1012B00001020304060708090000000001020304FC
:1012C000E012000800000020180000006C01000877
:1012D000F8120008180000207007000088010008BC
:1012E0000100000010000000000000000024F400D5
:0812F0000000000000000000F6
:0400000508000131BD
:00000001FF
